:100000000C94C8000C94F0000C94F0000C94F000D8
:100010000C94F0000C94F0000C94F0000C94F000A0
:100020000C94F0000C94F0000C94F0000C94F00090
:100030000C94F0000C94F0000C94F0000C94F00080
:100040000C94F0000C94F0000C94F0000C94F00070
:100050000C94F000D21FF11F25252525F81F25251A
:1000600025252525F91FFA1F2525252525250020CD
:10007000092012203B2064208D20B620DF2008219B
:100080005821A821F821482298220E2384230524F0
:100090005524A524D024FB24084AD73B3BCE016E2F
:1000A00084BCBFFDC12F3D6C74319ABD56833DDACF
:1000B0003D00C77F11BED9E4BB4C3E916BAAAABEDE
:1000C000000000803F07634236B79BD8A71A396803
:1000D0005618AEBAAB558C1D3CB7CC5763BD6DED11
:1000E000FD753EF6177231BF000000803F072C7A85
:1000F000A5BA6CC590DA3B9365FC8BBC53F810FD38
:100100003C5692834DBD879D3AB63DCBC9BF5BBE81
:1001100073DA0FC93F05A84CCDB2D44EB93836A911
:10012000020C50B9918688083CA6AAAA2ABE0000F3
:1001300000803F08000000BE922449123EABAAAAEC
:100140002ABECDCCCC4C3E00000080BEABAAAAAAF1
:100150003E00000000BF000000803F0000000000E3
:10016000084178D3BB4387D1133D190E3CC3BD4230
:1001700082AD2B3E68EC8276BED98FE1A93E4C80E1
:10018000EFFFBE01C4FF7F3F000000000000B71D6D
:1001900011241FBECFE5D8E0DEBFCDBF11E0A0E641
:1001A000B0E0E6EFF5E602C005900D92A830B10789
:1001B000D9F721E0A8E0B1E001C01D92A031B2075B
:1001C000E1F711E0C0E9D1E004C02297FE010E94EE
:1001D000B12CCE38D107C9F70E9475270C94F9329B
:1001E0000C9400000F931F93FC01408351836283A2
:1001F000738304831583268337831F910F9108959A
:10020000FC011082118212821382148215821682DE
:1002100017820895AF92BF92CF92DF92EF92FF9232
:100220000F931F93CF93DF93CDB7DEB768970FB6C9
:10023000F894DEBF0FBECDBF5C01098B1A8B2B8BF0
:100240003C8B4D8B5E8B6F8B788F2D893E894F89D0
:10025000588DFC0164817581868197810E94862872
:100260006B017C0129893A894B895C89F5016081A0
:100270007181828193810E948628AB01BC01970124
:100280008601CE0101960E94F20088E0FE013196BF
:10029000DE01199601900D928A95E1F729853A853C
:1002A0004B855C856D857E858F85988968960FB6B0
:1002B000F894DEBF0FBECDBFDF91CF911F910F919C
:1002C000FF90EF90DF90CF90BF90AF9008954F9246
:1002D0005F926F927F928F929F92AF92BF92CF92D6
:1002E000DF92EF92FF920F931F93CF93DF93CDB7DF
:1002F000DEB7A0970FB6F894DEBF0FBECDBF098B57
:100300001A8B2B8B3C8B4D8B5E8B6F8B788F8988F8
:100310009A88AB88BC882D893E894F89588D2D8F4E
:100320003E8F4F8F58A3FC01C080D180E280F380C4
:100330002481358146815781298F3A8F4B8F5C8F7D
:100340002D8D3E8D4F8D58A1C701B6010E94C72B40
:100350002B013C01A5019401698D7A8D8B8D9C8DBB
:100360000E94C72B9B01AC01C301B2010E948628E9
:100370002B013C01A5019401C701B6010E94C72BC6
:100380006B017C012D8D3E8D4F8D58A1698D7A8D2D
:100390008B8D9C8D0E94C72B9B01AC01C701B601C0
:1003A0000E948528AB01BC0193018201CE01019618
:1003B0000E94F20088E0FE013196DE01199601905C
:1003C0000D928A95E1F729853A854B855C856D8587
:1003D0007E858F859889A0960FB6F894DEBF0FBEF4
:1003E000CDBFDF91CF911F910F91FF90EF90DF90E4
:1003F000CF90BF90AF909F908F907F906F905F90C5
:100400004F900895FC0120813181428153816481A4
:100410007581868197810E9419290E94EA28089592
:1004200085E080B981B18C7F81B9089594EA30EA82
:1004300024E896BF06B607FEFDCF81B1887F8830DD
:1004400009F041C033B926BF06B607FEFDCF81B122
:10045000887F883171F773B984E886BF06B607FED6
:10046000FDCF81B1887F883281F563B984E886BF8A
:1004700006B607FEFDCF81B1887F883241F584EA58
:1004800086BF06B607FEFDCF81B1887F803109F5B2
:1004900081EA83B984E886BF06B607FEFDCF81B145
:1004A000887F8034C1F484E886BF06B607FEFDCF9E
:1004B00081B1887F883589F483B194E996BF06B607
:1004C00004FCFDCF089580E0089580E0089580E069
:1004D000089580E0089580E0089580E00895CF9227
:1004E000DF92EF92FF920F931F93CF93DF93CDB7DD
:1004F000DEB7C456D1090FB6F894DEBF0FBECDBF2C
:100500006C01CE0101967C0100E010E0B801C6014B
:100510000E941602F70181937F018F3F81F4329789
:1005200020812F3F61F4319720812F3F41F4319793
:1005300020812F3F21F4319780818F3F19F00F5F89
:100540001F4FE4CFCE010196CC59DF4F0FB6F89480
:10055000DEBF0FBECDBFDF91CF911F910F91FF90F6
:10056000EF90DF90CF900895EF92FF920F931F933B
:10057000CF93DF937C01062F172FBA0189E091E01A
:100580000E94AA271E141F040CF047C0C02FD12FB1
:1005900000E010E06AE670E089E091E00E949527B3
:1005A00020E030E04AE754E4688179818A819B81C8
:1005B0000E94C72B0E94B22988E091E00E943E2849
:1005C000BC0189E091E00E9495276EE670E089E029
:1005D00091E00E94952720E030E04AE754E46C81E6
:1005E0007D818E819F810E94C72B0E94B22988E065
:1005F00091E00E943E28BC0189E091E00E9495278D
:1006000063EC70E089E091E00E94AA270F5F1F4F22
:1006100028960E151F0509F0BDCFDF91CF911F91D0
:100620000F91FF90EF90089580E090E00E947E315E
:100630000E94432E0E943E2E60E177E20E949B2C96
:10064000BC0180E090E00E94843108950E94140370
:100650000895CF92DF92EF92FF92CF93DF936A01DA
:100660007B010E943E2EEC0120E03EEF4FEF56E46E
:10067000C701B6010E94C72B6B017C01BE01882710
:1006800077FD8095982F0E94E5299B01AC01C1E080
:10069000D0E0C701B6010E940E2B882314F4C0E0FD
:1006A000D0E0CE01DF91CF91FF90EF90DF90CF901F
:1006B00008954F925F926F927F928F929F92AF9226
:1006C000BF92CF92DF92EF92FF920F931F93CF933F
:1006D000DF93CDB7DEB7A4970FB6F894DEBF0FBE99
:1006E000CDBF6B015A01BA01882777FD8095982FFD
:1006F0000E94E5290E94542B28E132E741E35FE3A1
:100700000E9419292B013C019B01AC010E94862803
:100710000E94B22969A37AA38BA39CA309A11AA161
:10072000C801880F991F880F991F880F991F0E9471
:10073000C92C4C011A141B040CF09EC020E030E0C0
:1007400040E85FE3F60160817181828193810E94BC
:100750001229811188C011C0F8E0CF0ED11C20E011
:1007600030E040E85FE3F60160817181828193812E
:100770000E941229811179C002C0E12CF12CC30121
:10078000B2010E94B229AB01B70188E091E00E945A
:10079000B627101611060CF06FC07C0154016401DD
:1007A000F8E0CF0ED11C49A05AA0480E591E6894FB
:1007B000772473F8F70181917F01813329F500E0F7
:1007C00010E09801B901A801CE0149960E94F200FB
:1007D000FE017996D501872D01900D928A95E1F75A
:1007E00000E010E0980140E050E060E87FE3CE01D7
:1007F00041960E94F200FE017196D601872D01906C
:100800000D928A95E1F724C000E010E0980140E0E5
:1008100050E060E87FE3CE0109960E94F200FE01FD
:100820003996D501872D01900D928A95E1F700E068
:1008300010E09801B901A801CE0101960E94F200D2
:10084000FE013196D601872D01900D928A95E1F730
:10085000F0E1AF0EB11C20E1C20ED11CE414F5048E
:1008600009F0A8CF09C0E12CF12C8FEFE81AF80AA3
:10087000EA14FB0409F070CFC401A4960FB6F894F3
:10088000DEBF0FBECDBFDF91CF911F910F91FF90C3
:10089000EF90DF90CF90BF90AF909F908F907F9020
:1008A0006F905F904F9008952F923F924F925F927A
:1008B0006F927F928F929F92AF92BF92CF92DF9270
:1008C000EF92FF920F931F93CF93DF9300D000D04E
:1008D00000D0CDB7DEB77C015B018A013C832B835E
:1008E0004130510509F4B5C0141615060CF0B4C01A
:1008F00080E090E021E030E0220F331F0196801766
:100900009107D1F73E832D83C901880F991F880F66
:10091000991F880F991F0E94C92C89839A838D8102
:100920009E81181619060CF4A1C042C02E163F066F
:1009300029F49FEF491A590AE2E0F0E07F012FEF16
:10094000E21AF20AEE0FFF1FEE0FFF1FEE0FFF1F5E
:10095000EA0DFB1D00811181228133814481558183
:1009600066817781C201880F991F880F991F880FB0
:10097000991F8A0D9B1D0E946701ED81FE812083D6
:100980003183428353836483758386839783FFEF28
:100990006F1A7F0A2D813E81285F3F4F3E832D8352
:1009A0006C147D0414F4F701C1CFDE82CD82740192
:1009B0008B819C81892BE9F589819A8169C05101DC
:1009C000F1014081518162817381C7010E94290335
:1009D000019729F59E828D828D819E81880F991FB6
:1009E000880F991F880F991F860D971DF30110829C
:1009F000118212821382148215821682178238960F
:100A0000E817F907A1F780E090E0A0E8BFE3F5015F
:100A100080839183A283B38389819A8139C0FFEF58
:100A2000CF1ADF0A28E0220E311CC814D90439F687
:100A300006C049805A8000E010E08D809E80181426
:100A40001904ECF7642C752C242C352CC02ED12ED7
:100A5000B6CF862F9B2D1CC088E090E00E94C92C49
:100A600089839A8381E090E09E838D831801220C14
:100A7000331CC980DA80612C712CE2E0F0E0412C5B
:100A8000512CC601CD80DE8047019E838D834ECFE1
:100A900026960FB6F894DEBF0FBECDBFDF91CF9183
:100AA0001F910F91FF90EF90DF90CF90BF90AF908C
:100AB0009F908F907F906F905F904F903F902F907E
:100AC00008952F923F924F925F926F927F928F92F2
:100AD0009F92AF92BF92CF92DF92EF92FF920F93CD
:100AE0001F93CF93DF93CDB7DEB728970FB6F89457
:100AF000DEBF0FBECDBF9E838D837A836983042FB3
:100B0000152FC22ED32ECB0182959295907F9827D8
:100B1000807F98270E94C92C8B839C8329803A80F0
:100B2000220C331C121413040CF0ACC0A82EB92EE6
:100B3000E02EF12E0C2D1D2D812C912CB886AF822C
:100B40006701F701419051907F01662457FC609442
:100B5000762CC301B2010E94E5292BED3FE049E468
:100B600050E40E94C72B20E030E044EB53E40E94A5
:100B700019290E941629EF81F88560837183828389
:100B80009383C301B2010E94E5292BED3FE049E4C4
:100B900050E40E94C72B20E030E044EB53E40E9475
:100BA00019290E942A2C2B013C015801F80161915E
:100BB00071918F01882777FD8095982F0E94E529F4
:100BC0002BED3FE049E450E40E94C72B20E030E0E9
:100BD00044E353E40E9419290E9416299B01AC01A9
:100BE000C301B2010E94C72BEF81F885608771872E
:100BF00082879387F60160817181882777FD8095D0
:100C0000982F0E94E5292BED3FE049E450E40E9433
:100C1000C72B20E030E044EB53E40E9419290E94E6
:100C20002A2C2B013C01F50160817181882777FD19
:100C30008095982F0E94E5292BED3FE049E450E490
:100C40000E94C72B20E030E044E353E40E941929BE
:100C50000E942A2C9B01AC01C301B2010E94C72B48
:100C6000EF81F8856487758786879787F2E08F0E16
:100C7000911C8F819885409698878F838214930466
:100C80000CF45ECF45E750E06B817C81C1010E948E
:100C9000B40221E030E049815A816B817C818D81F1
:100CA0009E810E94540428960FB6F894DEBF0FBEB2
:100CB000CDBFDF91CF911F910F91FF90EF90DF900B
:100CC000CF90BF90AF909F908F907F906F905F90EC
:100CD0004F903F902F9008956F927F928F929F92A6
:100CE000AF92BF92CF92DF92EF92FF920F931F933A
:100CF000CF93DF93862E972E5A01141615066CF4A7
:100D000020E030E0CC24C394D12CCC0CDD1C2F5F30
:100D10003F4F2A153B05C9F703C0CC24C394D12CFF
:100D200022E0A216B1043CF0A601682D792D0E94A4
:100D30005903882E992EC501880F991F880F991F76
:100D40000E94C92C682E792EAA0CBB1C1A141B04F5
:100D5000F4F5E82CF92C082F192FC0E0D0E0C0FDE5
:100D600019C0F70160817181828193810E94772887
:100D700020E030E044EB53E40E94C72B2BED3FE032
:100D800049E450E40E9419290E94B229F8017183B4
:100D9000608314C0C7010E94020220E030E044E3F7
:100DA00053E40E94C72B2BED3FE049E450E40E943E
:100DB00019290E94B229F801718360832196F8E015
:100DC000EF0EF11C0E5F1F4FCA15DB0541F64EE713
:100DD00050E0682D792DC6010E94B402862D972D12
:100DE000DF91CF911F910F91FF90EF90DF90CF9007
:100DF000BF90AF909F908F907F906F9008952F92AB
:100E00003F924F925F926F927F928F929F92AF929A
:100E1000BF92CF92DF92EF92FF920F931F93CF93E7
:100E2000DF93CDB7DEB760970FB6F894DEBF0FBE85
:100E3000CDBF4B013A0180E190E00E94C92C382ED1
:100E4000292EC82ED92EA12CB12C240188E0480EC1
:100E5000511CCE0109960E9400017501EE0CFF1C89
:100E6000EE0CFF1CEE0CFF1CE60CF71CD7010C91DE
:100E700011961C91119712962C91129713963C91F2
:100E8000139714964C91149715965C911597169696
:100E90006C91169717967C91C4010E946701022FEE
:100EA000132F242F352F462F572F682F792FCE0140
:100EB00009960E940A0129873A874B875C876D87CC
:100EC0007E878F87988BF7017096D70150960C918B
:100ED0001181228133814481558166817781C201EC
:100EE0000E946701022F132F242F352F462F572FD3
:100EF000682F792FCE0109960E940A0129873A8727
:100F00004B875C876D877E878F87988B89859A85CD
:100F1000AB85BC85F60180839183A283B3838D85E5
:100F20009E85AF85B88984839583A683B783FFEFB9
:100F3000AF1ABF0A88E0C80ED11CA2E0AA16B104FD
:100F400009F087CF832D922D60960FB6F894DEBFFF
:100F50000FBECDBFDF91CF911F910F91FF90EF900A
:100F6000DF90CF90BF90AF909F908F907F906F90C9
:100F70005F904F903F902F9008952F923F924F9205
:100F80005F926F927F928F929F92AF92BF92CF9219
:100F9000DF92EF92FF920F931F93CF93DF93CDB722
:100FA000DEB764970FB6F894DEBF0FBECDBF3B012E
:100FB000E42EF52E80E290E00E94C92C8B8B9C8B56
:100FC000482E592E812C912CE98AFA8A212C312C19
:100FD000CE0109960E940001C988DA88E22CF32C20
:100FE0005401AA0CBB1CAA0CBB1CAA0CBB1CF5010F
:100FF000EC0DFD1D008111812281338144815581D9
:1010000066817781C3018E0D9F1D0E946701298330
:101010003A834B835C836D837E838F839887022F13
:10102000132F242F352F462F572F682F792FCE01BE
:1010300009960E940A0129873A874B875C876D874A
:101040007E878F87988B88E0E80EF11CE0E2CE0E59
:10105000D11CF0E2EF16F10451F689859A85AB8533
:10106000BC85F20180839183A283B3838D859E85A5
:10107000AF85B88984839583A683B783FFEF8F1AE2
:101080009F0A88E0480E511CE4E08E16910409F096
:101090009FCF8B899C8964960FB6F894DEBF0FBEF4
:1010A000CDBFDF91CF911F910F91FF90EF90DF9017
:1010B000CF90BF90AF909F908F907F906F905F90F8
:1010C0004F903F902F9008952F923F924F925F92B2
:1010D0006F927F928F929F92AF92BF92CF92DF9248
:1010E000EF92FF920F931F93CF93DF93CDB7DEB7AD
:1010F00062970FB6F894DEBF0FBECDBF4B01342E02
:10110000252E80E490E00E94C92C898B9A8B482E72
:10111000592E612C712CCE0109960E940001C32C1E
:10112000D22CE12CF12C5301AA0CBB1CAA0CBB1C29
:10113000AA0CBB1CF501EC0DFD1D00811181228163
:1011400033814481558166817781C4018E0D9F1D55
:101150000E94670129833A834B835C836D837E837E
:101160008F839887022F132F242F352F462F572F29
:10117000682F792FCE0109960E940A0129873A87A4
:101180004B875C876D877E878F87988B88E0E80E1A
:10119000F11CE0E4CE0ED11CF0E4EF16F10451F6A0
:1011A00089859A85AB85BC85F20180839183A28372
:1011B000B3838D859E85AF85B88984839583A68307
:1011C000B783FFEF6F1A7F0A88E0480E511CE8E0F2
:1011D0006E16710409F09FCF89899A8962960FB6BD
:1011E000F894DEBF0FBECDBFDF91CF911F910F915D
:1011F000FF90EF90DF90CF90BF90AF909F908F9037
:101200007F906F905F904F903F902F900895AF9296
:10121000BF92CF92DF92EF92FF920F931F93CF93E3
:10122000DF93CDB7DEB7A4970FB6F894DEBF0FBE3D
:10123000CDBF7C015B016A0100E010E09801B901BB
:10124000A801CE0101960E94F20000E010E0980192
:1012500040E050E060E87FE3CE0109960E94F20092
:1012600000E010E0980140E050E060E87FE3CE014C
:1012700041960E94F20000E010E09801B901A80137
:10128000CE0149960E94F200BCA2ABA2DAA2C9A28A
:101290009E012F5D3F4FAE014D5D5F4F61E070E0FD
:1012A000C7010E946105AE014F5F5F4FBC01C701DE
:1012B0000E94FF0641E050E0BC01C7010E946C069D
:1012C000A4960FB6F894DEBF0FBECDBFDF91CF91CD
:1012D0001F910F91FF90EF90DF90CF90BF90AF9054
:1012E0000895AF92BF92CF92DF92EF92FF920F9349
:1012F0001F93CF93DF93CDB7DEB7A4970FB6F894C3
:10130000DEBF0FBECDBF7C015B016A0100E010E0D3
:101310009801B901A801CE0101960E94F20000E0F7
:1013200010E020E83FEB40E050E0BA01CE01099622
:101330000E94F20000E010E020E83FE340E050E0CF
:10134000BA01CE0141960E94F20000E010E098013F
:10135000B901A801CE0149960E94F200BCA2ABA23D
:10136000DAA2C9A29E012F5D3F4FAE014D5D5F4FD6
:1013700061E070E0C7010E946105AE014F5F5F4F01
:10138000BC01C7010E94FF0641E050E0BC01C7015B
:101390000E946C06A4960FB6F894DEBF0FBECDBFB8
:1013A000DF91CF911F910F91FF90EF90DF90CF9041
:1013B000BF90AF900895AF92BF92CF92DF92EF921D
:1013C000FF920F931F93CF93DF93CDB7DEB7A49710
:1013D0000FB6F894DEBF0FBECDBF7C015B016A0182
:1013E00000E010E0980140E050E060E87FE3CE01CB
:1013F00001960E94F20000E010E09801B901A801F6
:10140000CE0109960E94F20000E010E09801B901B7
:10141000A801CE0141960E94F20000E010E0980180
:1014200040E050E060E87FEBCE0149960E94F20078
:10143000BCA2ABA2DAA2C9A29E012F5D3F4FAE01B2
:101440004D5D5F4F61E070E0C7010E946105AE0134
:101450004F5F5F4FBC01C7010E94FF0641E050E0B3
:10146000BC01C7010E946C06A4960FB6F894DEBFBB
:101470000FBECDBFDF91CF911F910F91FF90EF90E5
:10148000DF90CF90BF90AF900895AF92BF92CF9270
:10149000DF92EF92FF920F931F93CF93DF93CDB71D
:1014A000DEB7A4970FB6F894DEBF0FBECDBF7C01A8
:1014B0005B016A0100E010E0980143EF54E065E34E
:1014C0007FE3CE0101960E94F20000E010E0980157
:1014D00043EF54E065E37FE3CE0109960E94F200FA
:1014E00000E010E0980143EF54E065E37FE3CE01B4
:1014F00041960E94F20000E010E0980143EF54E0B2
:1015000065E37FEBCE0149960E94F200BCA2ABA23C
:10151000DAA2C9A29E012F5D3F4FAE014D5D5F4F24
:1015200061E070E0C7010E946105AE014F5F5F4F4F
:10153000BC01C7010E94FF0641E050E0BC01C701A9
:101540000E946C06A4960FB6F894DEBF0FBECDBF06
:10155000DF91CF911F910F91FF90EF90DF90CF908F
:10156000BF90AF900895AF92BF92CF92DF92EF926B
:10157000FF920F931F93CF93DF93CDB7DEB7A4975E
:101580000FB6F894DEBF0FBECDBF7C015B016A01D0
:1015900000E010E0980140E050E060E87FE3CE0119
:1015A00001960E94F20000E010E09801B901A80144
:1015B000CE0109960E94F20000E010E09801B90106
:1015C000A801CE0141960E94F20000E010E020E860
:1015D0003FE340E050E0BA01CE0149960E94F2009C
:1015E000BCA2ABA2DAA2C9A29E012F5D3F4FAE0101
:1015F0004D5D5F4F61E070E0C7010E946105AE0183
:101600004F5F5F4FBC01C7010E94FF0641E050E001
:10161000BC01C7010E946C06A4960FB6F894DEBF09
:101620000FBECDBFDF91CF911F910F91FF90EF9033
:10163000DF90CF90BF90AF900895AF92BF92CF92BE
:10164000DF92EF92FF920F931F93CF93DF93CDB76B
:10165000DEB7A4970FB6F894DEBF0FBECDBF7C01F6
:101660005B016A0100E010E0980140E050E060E8B2
:101670007FE3CE0101960E94F20000E010E09801A5
:10168000B901A801CE0109960E94F20000E010E025
:101690009801B901A801CE0141960E94F20003EF22
:1016A00014E025E33FE3B901A801CE0149960E9469
:1016B000F200BCA2ABA2DAA2C9A29E012F5D3F4FED
:1016C000AE014D5D5F4F61E070E0C7010E946105B2
:1016D000AE014F5F5F4FBC01C7010E94FF0641E0B2
:1016E00050E0BC01C7010E946C06A4960FB6F894A6
:1016F000DEBF0FBECDBFDF91CF911F910F91FF9045
:10170000EF90DF90CF90BF90AF9008956F927F924F
:101710008F929F92AF92BF92CF92DF92EF92FF9201
:101720000F931F93CF93DF93CDB7DEB7C858D1097E
:101730000FB6F894DEBF0FBECDBF7C013B015A014E
:101740004901680100E010E0980140E050E060E8E5
:101750007FE3CE0101960E94F20000E010E09801C4
:10176000B901A801CE0109960E94F20000E010E044
:101770009801B901A801CE0141960E94F20000E053
:1017800010E09801B901A801CE0149960E94F2002B
:1017900000E010E09801B901A801CE0181960E94F5
:1017A000F20000E010E0980140E050E060E87FE3E4
:1017B000CE0189960E94F20000E010E09801B90184
:1017C000A801CE01C1960E94F20000E010E098014D
:1017D000B901A801CE01C9960E94F20000E010E014
:1017E0009801B901A801CE018F5B9F4F0E94F200C2
:1017F00000E010E09801B901A801CE01875B9F4F7E
:101800000E94F20000E010E09801B901A801CE01A9
:101810008F5A9F4F0E94F20000E010E0980140E0D4
:1018200050E060E87FE3CE01875A9F4F0E94F200AC
:1018300000E010E09801B901A801CE018F599F4F37
:101840000E94F20000E010E09801B901A801CE0169
:1018500087599F4F0E94F20000E010E0980140E09D
:1018600050E060E87FE3CE018F589F4F0E94F20066
:1018700000E010E09801B901A801CE0187589F4F00
:101880000E94F200CB57DF4F79826882C558D04062
:10189000C957DF4F99828882C758D040CF57DF4F52
:1018A000B982A882C158D040CD57DF4FD982C882B3
:1018B000C358D0409E012F573F4FAE014B575F4F4B
:1018C00062E070E0C7010E946105AE014F5F5F4FAB
:1018D000BC01C7010E94BD0742E050E0BC01C70146
:1018E0000E946C06C857DF4F0FB6F894DEBF0FBEDC
:1018F000CDBFDF91CF911F910F91FF90EF90DF90BF
:10190000CF90BF90AF909F908F907F906F900895F1
:101910006F927F928F929F92AF92BF92CF92DF92FF
:10192000EF92FF920F931F93CF93DF93CDB7DEB764
:10193000C858D1090FB6F894DEBF0FBECDBF7C01E9
:101940003B015A014901680100E010E0980140E0C4
:1019500050E060E87FE3CE0101960E94F20000E0D3
:1019600010E09801B901A801CE0109960E94F20089
:1019700000E010E09801B901A801CE0141960E9453
:10198000F20000E010E09801B901A801CE014996EB
:101990000E94F20000E010E09801B901A801CE0118
:1019A00081960E94F20000E010E0980140E050E0D3
:1019B00060E87FE3CE0189960E94F20000E010E02B
:1019C0009801B901A801CE01C1960E94F20000E081
:1019D00010E09801B901A801CE01C9960E94F20059
:1019E00000E010E09801B901A801CE018F5B9F4F84
:1019F0000E94F20000E010E09801B901A801CE01B8
:101A0000875B9F4F0E94F20000E010E0980140E0E9
:101A100050E060E87FE3CE018F5A9F4F0E94F200B2
:101A200000E010E09801B901A801CE01875A9F4F4C
:101A30000E94F20000E010E09801B901A801CE0177
:101A40008F599F4F0E94F20000E010E09801B90109
:101A5000A801CE0187599F4F0E94F20000E010E0DC
:101A60009801B901A801CE018F589F4F0E94F20042
:101A700000E010E0980140E050E060E87FEBCE012C
:101A800087589F4F0E94F200CB57DF4F79826882C0
:101A9000C558D040C957DF4F99828882C758D04077
:101AA000CF57DF4FB982A882C158D040CD57DF4F02
:101AB000D982C882C358D0409E012F573F4FAE01F4
:101AC0004B575F4F62E070E0C7010E946105AE01B5
:101AD0004F5F5F4FBC01C7010E94BD0742E050E06D
:101AE000BC01C7010E946C06C857DF4F0FB6F894BF
:101AF000DEBF0FBECDBFDF91CF911F910F91FF9041
:101B0000EF90DF90CF90BF90AF909F908F907F909D
:101B10006F9008956F927F928F929F92AF92BF9233
:101B2000CF92DF92EF92FF920F931F93CF93DF93A9
:101B3000CDB7DEB7C858D1090FB6F894DEBF0FBED7
:101B4000CDBF7C013B015A014901680100E010E072
:101B5000980140E050E060E87FE3CE0101960E94EA
:101B6000F20000E010E09801B901A801CE01099649
:101B70000E94F20000E010E09801B901A801CE0136
:101B800041960E94F20000E010E09801B901A8011E
:101B9000CE0149960E94F20000E010E09801B901E0
:101BA000A801CE0181960E94F20000E010E09801A9
:101BB000B901A801CE0189960E94F20000E010E070
:101BC000980140E050E060E87FE3CE01C1960E94BA
:101BD000F20000E010E09801B901A801CE01C99619
:101BE0000E94F20000E010E09801B901A801CE01C6
:101BF0008F5B9F4F0E94F20000E010E0980140E0F0
:101C000050E060E87FE3CE01875B9F4F0E94F200C7
:101C100000E010E09801B901A801CE018F5A9F4F52
:101C20000E94F20000E010E09801B901A801CE0185
:101C3000875A9F4F0E94F20000E010E09801B9011E
:101C4000A801CE018F599F4F0E94F20000E010E0E2
:101C50009801B901A801CE0187599F4F0E94F20057
:101C600000E010E09801B901A801CE018F589F4F04
:101C70000E94F20000E010E0980140E050E060E8CF
:101C80007FE3CE0187589F4F0E94F200CB57DF4F72
:101C900079826882C558D040C957DF4F99828882BF
:101CA000C758D040CF57DF4FB982A882C158D04023
:101CB000CD57DF4FD982C882C358D0409E012F57DD
:101CC0003F4FAE014B575F4F62E070E0C7010E948B
:101CD0006105AE014F5F5F4FBC01C7010E94BD07A8
:101CE00042E050E0BC01C7010E946C06C857DF4FBC
:101CF0000FB6F894DEBF0FBECDBFDF91CF911F911D
:101D00000F91FF90EF90DF90CF90BF90AF909F909A
:101D10008F907F906F9008956F927F928F929F9295
:101D2000AF92BF92CF92DF92EF92FF920F931F93E9
:101D3000CF93DF93CDB7DEB7C858D1090FB6F8946B
:101D4000DEBF0FBECDBF7C013B015A0149016801D6
:101D500000E010E09801B901A801CE0101960E94AF
:101D6000F20000E010E0980140E050E060E87FE31E
:101D7000CE0109960E94F20000E010E09801B9013E
:101D8000A801CE0141960E94F20000E010E0980107
:101D9000B901A801CE0149960E94F20000E010E0CE
:101DA0009801B901A801CE0181960E94F20000E0DD
:101DB00010E09801B901A801CE0189960E94F200B5
:101DC00000E010E0980140E050E060E87FE3CE01E1
:101DD000C1960E94F20000E010E09801B901A8014C
:101DE000CE01C9960E94F20000E010E09801B9010E
:101DF000A801CE018F5B9F4F0E94F20000E010E02F
:101E00009801B901A801CE01875B9F4F0E94F200A3
:101E100000E010E09801B901A801CE018F5A9F4F50
:101E20000E94F20000E010E0980140E050E060E81D
:101E30007FE3CE01875A9F4F0E94F20000E010E03E
:101E4000980140E050E060E87FE3CE018F599F4F5A
:101E50000E94F20000E010E09801B901A801CE0153
:101E600087599F4F0E94F20000E010E09801B901ED
:101E7000A801CE018F589F4F0E94F20000E010E0B1
:101E80009801B901A801CE0187589F4F0E94F20026
:101E9000CB57DF4F79826882C558D040C957DF4F92
:101EA00099828882C758D040CF57DF4FB982A88225
:101EB000C158D040CD57DF4FD982C882C358D040D7
:101EC0009E012F573F4FAE014B575F4F62E070E0CE
:101ED000C7010E946105AE014F5F5F4FBC01C701A2
:101EE0000E94BD0742E050E0BC01C7010E946C06A1
:101EF000C857DF4F0FB6F894DEBF0FBECDBFDF91DE
:101F0000CF911F910F91FF90EF90DF90CF90BF90F6
:101F1000AF909F908F907F906F9008956F927F9277
:101F20008F929F92AF92BF92CF92DF92EF92FF92E9
:101F30000F931F93CF93DF93CDB7DEB7C858D10966
:101F40000FB6F894DEBF0FBECDBF7C013B015A0136
:101F50004901680100E010E09801B901A801CE0133
:101F600001960E94F20000E010E09801B901A8017A
:101F7000CE0109960E94F20000E010E09801B9013C
:101F8000A801CE0141960E94F20000E010E0980105
:101F900040E050E060E87FE3CE0149960E94F20005
:101FA00000E010E0980140E050E060E87FE3CE01FF
:101FB00081960E94F20000E010E09801B901A801AA
:101FC000CE0189960E94F20000E010E09801B9016C
:101FD000A801CE01C1960E94F20000E010E0980135
:101FE000B901A801CE01C9960E94F20000E010E0FC
:101FF0009801B901A801CE018F5B9F4F0E94F200AA
:1020000000E010E0980140E050E060E87FE3CE019E
:10201000875B9F4F0E94F20000E010E09801B90139
:10202000A801CE018F5A9F4F0E94F20000E010E0FD
:102030009801B901A801CE01875A9F4F0E94F20072
:1020400000E010E09801B901A801CE018F599F4F1F
:102050000E94F20000E010E09801B901A801CE0151
:1020600087599F4F0E94F20000E010E0980140E085
:1020700050E060E87FE3CE018F589F4F0E94F2004E
:1020800000E010E09801B901A801CE0187589F4FE8
:102090000E94F200CB57DF4F79826882C558D0404A
:1020A000C957DF4F99828882C758D040CF57DF4F3A
:1020B000B982A882C158D040CD57DF4FD982C8829B
:1020C000C358D0409E012F573F4FAE014B575F4F33
:1020D00062E070E0C7010E946105AE014F5F5F4F93
:1020E000BC01C7010E94BD0742E050E0BC01C7012E
:1020F0000E946C06C857DF4F0FB6F894DEBF0FBEC4
:10210000CDBFDF91CF911F910F91FF90EF90DF90A6
:10211000CF90BF90AF909F908F907F906F900895D9
:102120006F927F928F929F92AF92BF92CF92DF92E7
:10213000EF92FF920F931F93CF93DF93CDB7DEB74C
:10214000C858D1090FB6F894DEBF0FBECDBF7C01D1
:102150003B015A014901680100E010E0980140E0AC
:1021600050E060E87FE3CE0101960E94F20000E0BB
:1021700010E09801B901A801CE0109960E94F20071
:1021800000E010E09801B901A801CE0141960E943B
:10219000F20000E010E09801B901A801CE014996D3
:1021A0000E94F20000E010E09801B901A801CE0100
:1021B00081960E94F20000E010E020E03FE3B901C8
:1021C000A801CE0189960E94F20000E010E020E014
:1021D0003FEB40E050E060E07FE3CE01C1960E941B
:1021E000F20000E010E09801B901A801CE01C99603
:1021F0000E94F20000E010E09801B901A801CE01B0
:102200008F5B9F4F0E94F20000E010E020E03FEB68
:1022100040E050E060E07FE3CE01875B9F4F0E948B
:10222000F20000E010E020E03FE3B901A801CE0198
:102230008F5A9F4F0E94F20000E010E09801B90110
:10224000A801CE01875A9F4F0E94F20000E010E0E3
:102250009801B901A801CE018F599F4F0E94F20049
:1022600000E010E09801B901A801CE0187599F4F05
:102270000E94F20000E010E09801B901A801CE012F
:102280008F589F4F0E94F20000E010E0980140E05C
:1022900050E060E87FE3CE0187589F4F0E94F20034
:1022A000CB57DF4F79826882C558D040C957DF4F7E
:1022B00099828882C758D040CF57DF4FB982A88211
:1022C000C158D040CD57DF4FD982C882C358D040C3
:1022D0009E012F573F4FAE014B575F4F62E070E0BA
:1022E000C7010E946105AE014F5F5F4FBC01C7018E
:1022F0000E94BD0742E050E0BC01C7010E946C068D
:10230000C857DF4F0FB6F894DEBF0FBECDBFDF91C9
:10231000CF911F910F91FF90EF90DF90CF90BF90E2
:10232000AF909F908F907F906F9008956F927F9263
:102330008F929F92AF92BF92CF92DF92EF92FF92D5
:102340000F931F93CF93DF93CDB7DEB7C858D10952
:102350000FB6F894DEBF0FBECDBF7C013B015A0122
:102360004901680100E010E0980140E050E060E8B9
:102370007FE3CE0101960E94F20000E010E0980198
:10238000B901A801CE0109960E94F20000E010E018
:102390009801B901A801CE0141960E94F20000E027
:1023A00010E09801B901A801CE0149960E94F200FF
:1023B00000E010E09801B901A801CE0181960E94C9
:1023C000F20000E010E09801B901A801CE01899661
:1023D0000E94F20000E010E020E83FE340E050E01F
:1023E000BA01CE01C1960E94F20000E010E098010F
:1023F000B901A801CE01C9960E94F20000E010E0E8
:102400009801B901A801CE018F5B9F4F0E94F20095
:1024100000E010E020E83FE340E050E0BA01CE01E8
:10242000875B9F4F0E94F20000E010E09801B90125
:10243000A801CE018F5A9F4F0E94F20000E010E0E9
:102440009801B901A801CE01875A9F4F0E94F2005E
:1024500000E010E09801B901A801CE018F599F4F0B
:102460000E94F20000E010E09801B901A801CE013D
:1024700087599F4F0E94F20000E010E09801B901D7
:10248000A801CE018F589F4F0E94F20000E010E09B
:10249000980140E050E060E87FE3CE0187589F4F0D
:1024A0000E94F200CB57DF4F79826882C558D04036
:1024B000C957DF4F99828882C758D040CF57DF4F26
:1024C000B982A882C158D040CD57DF4FD982C88287
:1024D000C358D0409E012F573F4FAE014B575F4F1F
:1024E00062E070E0C7010E946105AE014F5F5F4F7F
:1024F000BC01C7010E94BD0742E050E0BC01C7011A
:102500000E946C06C857DF4F0FB6F894DEBF0FBEAF
:10251000CDBFDF91CF911F910F91FF90EF90DF9092
:10252000CF90BF90AF909F908F907F906F900895C5
:102530002F923F924F925F926F927F928F929F92D3
:10254000AF92BF92CF92DF92EF92FF920F931F93C1
:10255000CF93DF93CDB7DEB7A4970FB6F894DEBF65
:102560000FBECDBF7C011B016A01B901882777FD31
:102570008095982F0E94E5292BED3FE049E450E437
:102580000E94C72B20E030E044E353E40E94192965
:1025900020E030E040E05FE30E94C72B4B015C018C
:1025A0000E9416292B013C0100E010E09801AB01CC
:1025B000BC01CE0101960E94F200C501B4010E9447
:1025C0002A2C4B015C01B7FAB094B7F8B09495018E
:1025D000840140E050E0BA01CE0109960E94F20069
:1025E0009501840140E050E0BA01CE0141960E947D
:1025F000F20000E010E09801B301A201CE0149967B
:102600000E94F2003CA22BA2DAA2C9A29E012F5D79
:102610003F4FAE014D5D5F4F61E070E0C7010E942A
:102620006105AE014F5F5F4FBC01C7010E94FF060D
:1026300041E050E0BC01C7010E946C06A4960FB6B1
:10264000F894DEBF0FBECDBFDF91CF911F910F91E8
:10265000FF90EF90DF90CF90BF90AF909F908F90C2
:102660007F906F905F904F903F902F9008952F92A2
:102670003F924F925F926F927F928F929F92AF9212
:10268000BF92CF92DF92EF92FF920F931F93CF935F
:10269000DF93CDB7DEB7A4970FB6F894DEBF0FBEB9
:1026A000CDBF7C011B016A01B901882777FD8095A8
:1026B000982F0E94E5292BED3FE049E450E40E9469
:1026C000C72B20E030E044E353E40E94192920E0C6
:1026D00030E040E05FE30E94C72B4B015C010E94A9
:1026E00016292B013C0100E010E09801AB01BC0170
:1026F000CE0101960E94F200C501B4010E942A2C6D
:102700004B015C01AB01BC01705800E010E0980186
:10271000CE0109960E94F20000E010E09801B50198
:10272000A401CE0141960E94F20000E010E0980161
:10273000B301A201CE0149960E94F2003CA22BA255
:10274000DAA2C9A29E012F5D3F4FAE014D5D5F4FE2
:1027500061E070E0C7010E946105AE014F5F5F4F0D
:10276000BC01C7010E94FF0641E050E0BC01C70167
:102770000E946C06A4960FB6F894DEBF0FBECDBFC4
:10278000DF91CF911F910F91FF90EF90DF90CF904D
:10279000BF90AF909F908F907F906F905F904F9081
:1027A0003F902F9008954F925F926F927F92AF92D9
:1027B000BF92CF92DF92EF92FF920F931F93CF932E
:1027C000DF93CDB7DEB7A4970FB6F894DEBF0FBE88
:1027D000CDBF7C015B016A01B901882777FD809537
:1027E000982F0E94E5292BED3FE049E450E40E9438
:1027F000C72B20E030E044E353E40E9419292B0169
:102800003C01905820E030E040E05FE30E94C72B9D
:102810000E9486298B019C0140E050E0BA01CE0164
:1028200001960E94F20000E010E09801B901A801B1
:10283000CE0109960E94F20000E010E09801B90173
:10284000A801CE0141960E94F20020E030E040E075
:102850005FE3C301B2010E94C72B0E9486298B014E
:102860009C0140E050E0BA01CE0149960E94F2007E
:10287000BCA2ABA2DAA2C9A29E012F5D3F4FAE015E
:102880004D5D5F4F61E070E0C7010E946105AE01E0
:102890004F5F5F4FBC01C7010E94FF0641E050E05F
:1028A000BC01C7010E946C06A4960FB6F894DEBF67
:1028B0000FBECDBFDF91CF911F910F91FF90EF9091
:1028C000DF90CF90BF90AF907F906F905F904F90D0
:1028D00008952F923F924F925F926F927F928F92C4
:1028E0009F92AF92BF92CF92DF92EF92FF920F939F
:1028F0001F93CF93DF93CDB7DEB7CC50D2400FB646
:10290000F894DEBF0FBECDBF5C013B012A01490137
:10291000180100E010E0980140E050E060E87FE33B
:10292000CE0101960E94F20000E010E09801B9018A
:10293000A801CE0109960E94F20000E010E0980183
:10294000B901A801CE0141960E94F20000E010E01A
:102950009801B901A801CE0149960E94F20000E059
:1029600010E09801B901A801CE0181960E94F20001
:1029700000E010E09801B901A801CE0189960E94FB
:10298000F20000E010E09801B901A801CE01C19663
:102990000E94F20000E010E09801B901A801CE0108
:1029A000C9960E94F20000E010E09801B901A80168
:1029B000CE018F5B9F4F0E94F20000E010E0980173
:1029C00040E050E060E87FE3CE01875B9F4F0E94CC
:1029D000F20000E010E09801B901A801CE018F5A81
:1029E0009F4F0E94F20000E010E09801B901A80199
:1029F000CE01875A9F4F0E94F20000E010E098013C
:102A0000B901A801CE018F599F4F0E94F20000E04A
:102A100010E09801B901A801CE0187599F4F0E948B
:102A2000F20000E010E09801B901A801CE018F5832
:102A30009F4F0E94F20000E010E09801B901A80148
:102A4000CE0187589F4F0E94F20000E010E09801ED
:102A5000B901A801CE018F579F4F0E94F20000E0FC
:102A600010E09801B901A801CE0187579F4F0E943D
:102A7000F20000E010E0980140E050E060E87FE301
:102A8000CE018F569F4F0E94F20000E010E09801A7
:102A9000B901A801CE0187569F4F0E94F20000E0C5
:102AA00010E09801B901A801CE018F559F4F0E94F7
:102AB000F20000E010E09801B901A801CE018755AD
:102AC0009F4F0E94F20000E010E09801B901A801B8
:102AD000CE018F549F4F0E94F20000E010E0980159
:102AE000B901A801CE0187549F4F0E94F20000E077
:102AF00010E09801B901A801CE018F539F4F0E94A9
:102B0000F20000E010E09801B901A801CE0187535E
:102B10009F4F0E94F20000E010E09801B901A80167
:102B2000CE018F529F4F0E94F20000E010E098010A
:102B300040E050E060E87FE3CE0187529F4F0E9463
:102B4000F20000E010E09801B901A801CE018F5118
:102B50009F4F0E94F20000E010E09801B901A80127
:102B6000CE0187519F4F0E94F20000E010E09801D3
:102B7000B901A801CE018F509F4F0E94F20000E0E2
:102B800010E09801B901A801CE0187509F4F0E9423
:102B9000F20000E010E09801B901A801CE018F5FBA
:102BA0009E4F0E94F20000E010E09801B901A801D8
:102BB000CE01875F9E4F0E94F20000E010E0980176
:102BC000B901A801CE018F5E9E4F0E94F20000E085
:102BD00010E09801B901A801CE01875E9E4F0E94C6
:102BE000F20000E010E0980140E050E060E87FE390
:102BF000CE018F5D9E4F0E94F20000E010E0980130
:102C0000B901A801CE01875D9E4F0E94F20000E04D
:102C100010E09801B901A801CE018F5C9E4F0E947F
:102C2000F20000E010E09801B901A801CE01875C34
:102C30009E4F0E94F20000E010E09801B901A80147
:102C4000CE018F5B9E4F0E94F20000E010E09801E1
:102C5000B901A801CE01875B9E4F0E94F20000E0FF
:102C600010E09801B901A801CE018F5A9E4F0E9431
:102C7000F20000E010E09801B901A801CE01875AE6
:102C80009E4F0E94F20000E010E09801B901A801F7
:102C9000CE018F599E4F0E94F20000E010E0980193
:102CA000B901A801CE0187599E4F0E94F20000E0B1
:102CB00010E0980140E050E060E87FE3CE018F58DB
:102CC0009E4F0E94F20000E010E09801B901A801B7
:102CD000CE0187589E4F0E94F20000E010E098015C
:102CE000B901A801CE018F579E4F0E94F20000E06B
:102CF00010E09801B901A801CE0187579E4F0E94AC
:102D0000F20000E010E09801B901A801CE018F5651
:102D10009E4F0E94F20000E010E09801B901A80166
:102D2000CE0187569E4F0E94F20000E010E098010D
:102D3000B901A801CE018F559E4F0E94F20000E01C
:102D400010E0980140E050E060E87FE3CE01875555
:102D50009E4F0E94F20000E010E09801B901A80126
:102D6000CE018F549E4F0E94F20000E010E09801C7
:102D7000B901A801CE0187549E4F0E94F20000E0E5
:102D800010E09801B901A801CE018F539E4F0E9417
:102D9000F20000E010E09801B901A801CE018753CC
:102DA0009E4F0E94F20000E010E09801B901A801D6
:102DB000CE018F529E4F0E94F20000E010E0980179
:102DC000B901A801CE0187529E4F0E94F20000E097
:102DD00010E09801B901A801CE018F519E4F0E94C9
:102DE000F20000E010E09801B901A801CE0187517E
:102DF0009E4F0E94F20000E010E09801B901A80186
:102E0000CE018F509E4F0E94F20000E010E098012A
:102E100040E050E060E87FE3CE0187509E4F0E9483
:102E2000F200C95FDD4F79826882C750D240C75F28
:102E3000DD4F99828882C950D240C55FDD4FF9824B
:102E4000E882CB50D240CF5FDD4F59824882C150DB
:102E5000D240CD5FDD4F39822882C350D240CB5F54
:102E6000DD4FD982C882C550D2409E012F5F3D4FB1
:102E7000AE01495F5D4F63E070E0C5010E946105EE
:102E8000AE014F5F5F4FBC01C5010E94640843E083
:102E900050E0BC01C5010E946C06C45FDD4F0FB657
:102EA000F894DEBF0FBECDBFDF91CF911F910F9180
:102EB000FF90EF90DF90CF90BF90AF909F908F905A
:102EC0007F906F905F904F903F902F9008952F923A
:102ED0003F924F925F926F927F928F929F92AF92AA
:102EE000BF92CF92DF92EF92FF920F931F93CF93F7
:102EF000DF93CDB7DEB7CC50D2400FB6F894DEBF2B
:102F00000FBECDBF5C013B012A014901180100E061
:102F100010E0980140E050E060E87FE3CE010196C8
:102F20000E94F20000E010E09801B901A801CE0172
:102F300009960E94F20000E010E09801B901A80192
:102F4000CE0141960E94F20000E010E09801B90124
:102F5000A801CE0149960E94F20000E010E098011D
:102F6000B901A801CE0181960E94F20000E010E0B4
:102F70009801B901A801CE0189960E94F20000E0F3
:102F800010E09801B901A801CE01C1960E94F2009B
:102F900000E010E09801B901A801CE01C9960E9495
:102FA000F20000E010E09801B901A801CE018F5BAA
:102FB0009F4F0E94F20000E010E0980140E050E0D6
:102FC00060E87FE3CE01875B9F4F0E94F20000E044
:102FD00010E09801B901A801CE018F5A9F4F0E94BD
:102FE000F20000E010E09801B901A801CE01875A73
:102FF0009F4F0E94F20000E010E09801B901A80183
:10300000CE018F599F4F0E94F20000E010E098011E
:10301000B901A801CE0187599F4F0E94F20000E03C
:1030200010E09801B901A801CE018F589F4F0E946E
:10303000F20000E010E09801B901A801CE01875824
:103040009F4F0E94F20000E010E09801B901A80132
:10305000CE018F579F4F0E94F20000E010E09801D0
:10306000B901A801CE0187579F4F0E94F20000E0EE
:1030700010E0980140E050E060E87FE3CE018F5619
:103080009F4F0E94F20000E010E09801B901A801F2
:10309000CE0187569F4F0E94F20000E010E0980199
:1030A000B901A801CE018F559F4F0E94F20000E0A8
:1030B00010E09801B901A801CE0187559F4F0E94E9
:1030C000F20000E010E09801B901A801CE018F5490
:1030D0009F4F0E94F20000E010E09801B901A801A2
:1030E000CE0187549F4F0E94F20000E010E098014B
:1030F000B901A801CE018F539F4F0E94F20000E05A
:1031000010E09801B901A801CE0187539F4F0E949A
:10311000F20000E010E09801B901A801CE018F5241
:103120009F4F0E94F20000E010E0980140E050E064
:1031300060E87FE3CE0187529F4F0E94F20000E0DB
:1031400010E09801B901A801CE018F519F4F0E9454
:10315000F20000E010E09801B901A801CE0187510A
:103160009F4F0E94F20000E010E09801B901A80111
:10317000CE018F509F4F0E94F20000E010E09801B6
:10318000B901A801CE0187509F4F0E94F20000E0D4
:1031900010E09801B901A801CE018F5F9E4F0E94F7
:1031A000F20000E010E09801B901A801CE01875FAC
:1031B0009E4F0E94F20000E010E09801B901A801C2
:1031C000CE018F5E9E4F0E94F20000E010E0980159
:1031D000B901A801CE01875E9E4F0E94F20000E077
:1031E00010E0980140E050E060E87FE3CE018F5DA1
:1031F0009E4F0E94F20000E010E09801B901A80182
:10320000CE01875D9E4F0E94F20000E010E0980121
:10321000B901A801CE018F5C9E4F0E94F20000E030
:1032200010E09801B901A801CE01875C9E4F0E9471
:10323000F20000E010E09801B901A801CE018F5B17
:103240009E4F0E94F20000E010E09801B901A80131
:10325000CE01875B9E4F0E94F20000E010E09801D3
:10326000B901A801CE018F5A9E4F0E94F20000E0E2
:1032700010E09801B901A801CE01875A9E4F0E9423
:10328000F20000E010E09801B901A801CE018F59C9
:103290009E4F0E94F20000E010E0980140E050E0F4
:1032A00060E87FE3CE0187599E4F0E94F20000E064
:1032B00010E09801B901A801CE018F589E4F0E94DD
:1032C000F20000E010E09801B901A801CE01875892
:1032D0009E4F0E94F20000E010E09801B901A801A1
:1032E000CE018F579E4F0E94F20000E010E098013F
:1032F000B901A801CE0187579E4F0E94F20000E05D
:1033000010E09801B901A801CE018F569E4F0E948E
:10331000F20000E010E09801B901A801CE01875643
:103320009E4F0E94F20000E010E09801B901A80150
:10333000CE018F559E4F0E94F20000E010E09801F0
:10334000B901A801CE0187559E4F0E94F20000E00E
:1033500010E09801B901A801CE018F549E4F0E9440
:10336000F20000E010E0980140E050E060E87FE308
:10337000CE0187549E4F0E94F20000E010E09801B9
:10338000B901A801CE018F539E4F0E94F20000E0C8
:1033900010E09801B901A801CE0187539E4F0E9409
:1033A000F20000E010E09801B901A801CE018F52AF
:1033B0009E4F0E94F20000E010E09801B901A801C0
:1033C000CE0187529E4F0E94F20000E010E098016B
:1033D000B901A801CE018F519E4F0E94F20000E07A
:1033E00010E09801B901A801CE0187519E4F0E94BB
:1033F000F20000E010E0980140E050E060E87FE378
:10340000CE018F509E4F0E94F20000E010E0980124
:10341000B901A801CE0187509E4F0E94F200C95FFA
:10342000DD4F79826882C750D240C75FDD4F9982F5
:103430008882C950D240C55FDD4FF982E882CB5007
:10344000D240CF5FDD4F59824882C150D240CD5F1C
:10345000DD4F39822882C350D240CB5FDD4FD98205
:10346000C882C550D2409E012F5F3D4FAE01495FDB
:103470005D4F63E070E0C5010E946105AE014F5FE2
:103480005F4FBC01C5010E94640843E050E0BC01ED
:10349000C5010E946C06C45FDD4F0FB6F894DEBF15
:1034A0000FBECDBFDF91CF911F910F91FF90EF9095
:1034B000DF90CF90BF90AF909F908F907F906F9054
:1034C0005F904F903F902F9008952F923F924F9290
:1034D0005F926F927F928F929F92AF92BF92CF92A4
:1034E000DF92EF92FF920F931F93CF93DF93CDB7AD
:1034F000DEB7C451D2400FB6F894DEBF0FBECDBFC9
:10350000C35FDD4F99838883CD50D2402B01C15FCB
:10351000DD4F59834883CF50D2403901CF5EDD4F14
:1035200019830883C151D2401701CD5EDD4FD98286
:10353000C882C351D240B501882777FD8095982F66
:103540000E94E5292BED3FE049E450E40E94C72B9F
:1035500020E030E044E353E40E9419294B015C0170
:1035600000E010E0980140E050E060E87FE3CE0129
:1035700001960E94F20000E010E09801B901A80154
:10358000CE0109960E94F20000E010E09801B90116
:10359000A801CE0141960E94F20000E010E09801DF
:1035A000B901A801CE0149960E94F20000E010E0A6
:1035B0009801B901A801CE0181960E94F20000E0B5
:1035C00010E09801B901A801CE0189960E94F2008D
:1035D00000E010E09801B901A801CE01C1960E9457
:1035E000F20000E010E09801B901A801CE01C996EF
:1035F0000E94F20000E010E09801B901A801CE019C
:103600008F5B9F4F0E94F20000E010E0980140E0C5
:1036100050E060E87FE3CE01875B9F4F0E94F2009D
:1036200000E010E09801B901A801CE018F5A9F4F28
:103630000E94F20000E010E09801B901A801CE015B
:10364000875A9F4F0E94F20000E010E09801B901F4
:10365000A801CE018F599F4F0E94F20000E010E0B8
:103660009801B901A801CE0187599F4F0E94F2002D
:1036700000E010E09801B901A801CE018F589F4FDA
:103680000E94F20000E010E09801B901A801CE010B
:1036900087589F4F0E94F20000E010E09801B901A6
:1036A000A801CE018F579F4F0E94F20000E010E06A
:1036B0009801B901A801CE0187579F4F0E94F200DF
:1036C00000E010E0980140E050E060E87FE3CE01C8
:1036D0008F569F4F0E94F20000E010E09801B90160
:1036E000A801CE0187569F4F0E94F20000E010E033
:1036F0009801B901A801CE018F559F4F0E94F20099
:1037000000E010E09801B901A801CE0187559F4F54
:103710000E94F20000E010E09801B901A801CE017A
:103720008F549F4F0E94F20000E010E09801B90111
:10373000A801CE0187549F4F0E94F20000E010E0E4
:103740009801B901A801CE018F539F4F0E94F2004A
:1037500000E010E09801B901A801CE0187539F4F06
:103760000E94F20000E010E09801B901A801CE012A
:103770008F529F4F0E94F20000E010E0980140E05D
:1037800050E060E87FE3CE0187529F4F0E94F20035
:1037900000E010E09801B901A801CE018F519F4FC0
:1037A0000E94F20000E010E09801B901A801CE01EA
:1037B00087519F4F0E94F20000E010E09801B9018C
:1037C000A801CE018F509F4F0E94F20000E010E050
:1037D0009801B901A801CE0187509F4F0E94F200C5
:1037E00000E010E09801B901A801CE018F5F9E4F63
:1037F0000E94F20000E010E09801B901A801CE019A
:10380000875F9E4F0E94F20000E010E09801B9012E
:10381000A801CE018F5E9E4F0E94F20000E010E0F2
:103820009801B901A801CE01875E9E4F0E94F20067
:1038300000E010E0980140E050E060E87FE3CE0156
:103840008F5D9E4F0E94F20000E010E09801B901E8
:10385000A801CE01875D9E4F0E94F20000E010E0BB
:103860009801B901A801CE018F5C9E4F0E94F20021
:1038700000E010E09801B901A801CE01875C9E4FDD
:103880000E94F20000E010E09801B901A801CE0109
:103890008F5B9E4F0E94F20000E010E09801B9019A
:1038A000A801CE01875B9E4F0E94F20000E010E06D
:1038B0009801B901A801CE018F5A9E4F0E94F200D3
:1038C00000E010E09801B901A801CE01875A9E4F8F
:1038D0000E94F20000E010E09801B901A801CE01B9
:1038E0008F599E4F0E94F20000E010E0980140E0E6
:1038F00050E060E87FE3CE0187599E4F0E94F200BE
:1039000000E010E09801B901A801CE018F589E4F48
:103910000E94F20000E010E09801B901A801CE0178
:1039200087589E4F0E94F20000E010E09801B90114
:10393000A801CE018F579E4F0E94F20000E010E0D8
:103940009801B901A801CE0187579E4F0E94F2004D
:1039500000E010E09801B901A801CE018F569E4FFA
:103960000E94F20000E010E09801B901A801CE0128
:1039700087569E4F0E94F20000E010E09801B901C6
:10398000A801CE018F559E4F0E94F20000E010E08A
:103990009801B901A801CE0187559E4F0E94F200FF
:1039A000C501B4010E9416296B017C018B019C01A9
:1039B00040E050E0BA01CE018F549E4F0E94F200C9
:1039C000C501B4010E942A2C4B015C0100E010E00B
:1039D0009801AB01BC01CE0187549E4F0E94F200BA
:1039E00000E010E09801B901A801CE018F539E4F6D
:1039F0000E94F20000E010E09801B901A801CE0198
:103A000087539E4F0E94F20000E010E09801B90138
:103A1000A801CE018F529E4F0E94F20000E010E0FC
:103A20009801B901A801CE0187529E4F0E94F20071
:103A300000E010E09801B901A801CE018F519E4F1E
:103A40000E94F20000E010E09801B901A801CE0147
:103A500087519E4F0E94F20000E010E09801B501EE
:103A6000A401CE018F509E4F0E94F2009701860163
:103A700040E050E0BA01CE0187509E4F0E94F20014
:103A8000C95FDD4F59824882C750D240C75FDD4FC2
:103A900079826882C950D240C55FDD4F3982288261
:103AA000CB50D240C15FDD4F88819981CF50D24049
:103AB000CF5FDD4F99838883C150D240CF5EDD4F09
:103AC00088819981C151D240CD5FDD4F9983888330
:103AD000C350D240CD5EDD4F88819981C351D24021
:103AE000CB5FDD4F99838883C550D2409E012F5F05
:103AF0003D4FAE01495F5D4F63E070E0C35FDD4F56
:103B000088819981CD50D2400E946105AE014F5FFE
:103B10005F4FBC01C35FDD4F88819981CD50D2409A
:103B20000E94640843E050E0BC01C35FDD4F888120
:103B30009981CD50D2400E946C06CC5EDD4F0FB60D
:103B4000F894DEBF0FBECDBFDF91CF911F910F91D3
:103B5000FF90EF90DF90CF90BF90AF909F908F90AD
:103B60007F906F905F904F903F902F90089589E0E5
:103B700091E00E94892708950F931F93CF93DF93BD
:103B8000EC010E9410028E010F5F1F4FC8010E94BE
:103B90008927CE0102960E948827CE0105960E94B1
:103BA000260366E870E0C8010E9495278FEF8ABB64
:103BB0001C821B82DF91CF911F910F91089575B3E5
:103BC00021E030E0C901062E02C0880F991F0A9437
:103BD000E2F78095872385BB85B302C0440F551F4C
:103BE0006A95E2F7482B45BB08952FEF24BB40E0D0
:103BF00050E064E070E00E94DF1D0895AF92BF9234
:103C0000CF92DF92EF92FF920F931F93CF93DF93A8
:103C100000D000D000D0CDB7DEB78C01CB018F70C3
:103C200099279A838983CB01807F992795958795DA
:103C30009595879595958795959587959C838B8385
:103C400066277F70872F880F880B7D838E838FEF89
:103C50008ABB84BB89818BBB41E050E062E070E0AD
:103C6000C8010E94DF1D41E050E063E070E0C80140
:103C70000E94DF1D40E050E063E070E0C8010E9458
:103C8000DF1D40E050E062E070E0C8010E94DF1DEF
:103C9000680186E0C80ED11C6AE070E0C6010E948F
:103CA00069287E0193E0E90EF11C5E01E7E0AE0EAB
:103CB000B11C41E050E063E070E0C8010E94DF1DEC
:103CC00040E050E063E070E0C8010E94DF1DF701B2
:103CD0008081F2E0EF0EF11C8BBB6AE070E0C60160
:103CE0000E946928EA14FB0421F741E050E063E0F8
:103CF00070E0C8010E94DF1D40E050E063E070E02A
:103D0000C8010E94DF1D41E050E064E070E0C8019E
:103D10000E94DF1D26960FB6F894DEBF0FBECDBF02
:103D2000DF91CF911F910F91FF90EF90DF90CF9097
:103D3000BF90AF9008957BB321E030E0C901062E1B
:103D400002C0880F991F0A94E2F7809587238BBBE6
:103D50008BB302C0440F551F6A95E2F7482B4BBB4B
:103D60000895FF920F931F93CF93DF93EC018A0185
:103D7000FF24FA94F7BAF7BA28BB0E94FE1DA801E7
:103D800064E070E0CE010E949B1E41E050E066E0DE
:103D900070E0CE010E949B1E40E050E066E070E0C3
:103DA000CE010E949B1EF7BA18BACE010E94F51DE3
:103DB000DF91CF911F910F91FF900895FF920F9384
:103DC0001F93CF93DF93EC018A01F22E17BA0E9462
:103DD000FE1D41E050E065E070E0CE010E949B1EB8
:103DE000A80164E070E0CE010E949B1E06B310E0C3
:103DF0008FEF87BBF11004C01BBACE010E94F51DE6
:103E0000C801DF91CF911F910F91FF9008956F929C
:103E10007F928F929F92AF92BF92CF92DF92EF925A
:103E2000FF920F931F93CF93DF936C018C010F5F71
:103E30001F4F63EC70E0C8010E94AA276AE970E096
:103E4000C8010E94AA27C0E0D0E00F2EF4EBEF2EAD
:103E5000F0E0FF2EF02D83E090E00E94C92C882E28
:103E6000992E20E040E050E0BE01C6010E94DE1E17
:103E70009F938F93FF92EF929F928F920E948A2F2F
:103E800083E090E00E94C92CA82EB92E20E041E0EA
:103E900050E0BE01C6010E94DE1E9F938F93FF92E9
:103EA000EF92BF92AF920E948A2F81E090E00E9431
:103EB000C92C682E792EDF93CF93FF92EF927F92D9
:103EC0006F920E948A2F67EB70E0C8010E949527CD
:103ED000662D772DC8010E94952769EB70E0C80117
:103EE0000E949527682D792DC8010E94952764ECC2
:103EF00070E0C8010E9495276A2D7B2DC8010E94A1
:103F0000AA2721968DB79EB742960FB6F8949EBF0A
:103F10000FBE8DBFC430D10509F09DCFDF91CF9189
:103F20001F910F91FF90EF90DF90CF90BF90AF90D7
:103F30009F908F907F906F9008952F923F924F9215
:103F40005F926F927F928F929F92AF92BF92CF9229
:103F5000DF92EF92FF920F931F93CF93DF93CDB732
:103F6000DEB72A970FB6F894DEBF0FBECDBF4C0167
:103F70001B0129013A01E982FA820B831C83AD827D
:103F8000BE82CF82D8868CE090E00E94C92C7C0152
:103F9000F1013197E232F10508F057C5E65DFF4FB8
:103FA0000C94AF2C20E040E050E069817A81C4019C
:103FB0000E94DE1E9C0140E050E0B201C4010E945C
:103FC000B11E20E041E050E069817A81C4010E9485
:103FD000DE1E9C0141E050E0B201C4010E94B11E0E
:103FE00034C581E0481A5108F401548243822DC53A
:103FF000FFCFFFCFB201C40106960E94692825C5F4
:1040000029813A8140E050E0B201C4010E94B11E12
:104010001CC529813A8141E050E0B201C4010E94EF
:10402000B11E13C520E041E050E0B201C4010E947E
:10403000DE1E7C0120E040E050E0B201C4010E949D
:10404000DE1EA701BC01C40105960E9407097C0180
:10405000FC012081318140E050E0B201C4010E94A6
:10406000B11EF7012281338141E050E0B201C40169
:104070000E94B11EEAC420E041E050E0B201C40158
:104080000E94DE1E7C0120E040E050E0B201C4014D
:104090000E94DE1EA701BC01C40105960E947109A1
:1040A0007C01FC012081318140E050E0B201C4017B
:1040B0000E94B11EF7012281338141E050E0B2013C
:1040C000C4010E94B11EC1C420E041E050E0B20131
:1040D000C4010E94DE1E7C0120E040E050E0B201FD
:1040E000C4010E94DE1EA701BC01C40105960E9406
:1040F000DB097C01FC012081318140E050E0B2010C
:10410000C4010E94B11EF7012281338141E050E0D9
:10411000B201C4010E94B11E98C420E041E050E009
:10412000B201C4010E94DE1E7C0120E040E050E0AC
:10413000B201C4010E94DE1EA701BC01C4010596A4
:104140000E94450A7C01FC012081318140E050E061
:10415000B201C4010E94B11EF7012281338141E006
:1041600050E0B201C4010E94B11E6FC420E041E0E2
:1041700050E0B201C4010E94DE1E7C0120E040E05C
:1041800050E0B201C4010E94DE1EA701BC01C401BF
:1041900005960E94B30A7C01FC012081318140E038
:1041A00050E0B201C4010E94B11EF70122813381A7
:1041B00041E050E0B201C4010E94B11E46C420E0BB
:1041C00041E050E0B201C4010E94DE1E7C0120E00B
:1041D00040E050E0B201C4010E94DE1EA701BC0114
:1041E000C40105960E941D0B7C01FC0120813181D8
:1041F00040E050E0B201C4010E94B11EF7012281EB
:10420000338141E050E0B201C4010E94B11E1DC4DF
:1042100020E041E050E069817A81C4010E94DE1E05
:104220008C0120E040E050E069817A81C4010E9465
:10423000DE1E7C0120E041E050E0B201C4010E949A
:10424000DE1E6C0120E040E050E0B201C4010E949B
:10425000DE1E9701A601BC01C40105960E94860BD3
:104260007C01FC012081318140E050E0B201C401B9
:104270000E94B11EF7012281338141E050E0B2017A
:10428000C4010E94B11EF7012481358140E050E055
:1042900069817A81C4010E94B11EF70126813781AC
:1042A00041E050E069817A81C4010E94B11ECDC312
:1042B00020E041E050E069817A81C4010E94DE1E65
:1042C0008C0120E040E050E069817A81C4010E94C5
:1042D000DE1E7C0120E041E050E0B201C4010E94FA
:1042E000DE1E6C0120E040E050E0B201C4010E94FB
:1042F000DE1E9701A601BC01C40105960E94880C30
:104300007C01FC012081318140E050E0B201C40118
:104310000E94B11EF7012281338141E050E0B201D9
:10432000C4010E94B11EF7012481358140E050E0B4
:1043300069817A81C4010E94B11EF701268137810B
:1043400041E050E069817A81C4010E94B11E7DC3C1
:1043500020E041E050E069817A81C4010E94DE1EC4
:104360008C0120E040E050E069817A81C4010E9424
:10437000DE1E7C0120E041E050E0B201C4010E9459
:10438000DE1E6C0120E040E050E0B201C4010E945A
:10439000DE1E9701A601BC01C40105960E948A0D8C
:1043A0007C01FC012081318140E050E0B201C40178
:1043B0000E94B11EF7012281338141E050E0B20139
:1043C000C4010E94B11EF7012481358140E050E014
:1043D00069817A81C4010E94B11EF701268137816B
:1043E00041E050E069817A81C4010E94B11E2DC371
:1043F00020E041E050E069817A81C4010E94DE1E24
:104400008C0120E040E050E069817A81C4010E9483
:10441000DE1E7C0120E041E050E0B201C4010E94B8
:10442000DE1E6C0120E040E050E0B201C4010E94B9
:10443000DE1E9701A601BC01C40105960E948C0EE8
:104440007C01FC012081318140E050E0B201C401D7
:104450000E94B11EF7012281338141E050E0B20198
:10446000C4010E94B11EF7012481358140E050E073
:1044700069817A81C4010E94B11EF70126813781CA
:1044800041E050E069817A81C4010E94B11EDDC221
:1044900020E041E050E069817A81C4010E94DE1E83
:1044A0008C0120E040E050E069817A81C4010E94E3
:1044B000DE1E7C0120E041E050E0B201C4010E9418
:1044C000DE1E6C0120E040E050E0B201C4010E9419
:1044D000DE1E9701A601BC01C40105960E948E0F45
:1044E0007C01FC012081318140E050E0B201C40137
:1044F0000E94B11EF7012281338141E050E0B201F8
:10450000C4010E94B11EF7012481358140E050E0D2
:1045100069817A81C4010E94B11EF7012681378129
:1045200041E050E069817A81C4010E94B11E8DC2D0
:1045300020E041E050E06D817E81C4010E94DE1EDA
:104540006C0120E040E050E06D817E81C4010E945A
:10455000DE1E7C0120E041E050E069817A81C401E7
:104560000E94DE1E8C0120E040E050E069817A81EB
:10457000C4010E94DE1E5C0120E041E050E0B20177
:10458000C4010E94DE1E1C0120E040E050E0B201A8
:10459000C4010E94DE1E9501A101BC01C401059663
:1045A0000E9469147C01FC012081318140E050E0CF
:1045B000B201C4010E94B11EF7012281338141E0A2
:1045C00050E0B201C4010E94B11EF701248135817F
:1045D00040E050E069817A81C4010E94B11EF70178
:1045E0002681378141E050E069817A81C4010E94CF
:1045F000B11EF7012085318540E050E06D817E815C
:10460000C4010E94B11EF7012285338541E050E0CC
:104610006D817E81C4010E94B11E17C220E041E07D
:1046200050E06D817E81C4010E94DE1E6C0120E09D
:1046300040E050E06D817E81C4010E94DE1E7C015D
:1046400020E041E050E069817A81C4010E94DE1ED1
:104650008C0120E040E050E069817A81C4010E9431
:10466000DE1E5C0120E041E050E0B201C4010E9486
:10467000DE1E1C0120E040E050E0B201C4010E94B7
:10468000DE1E9501A101BC01C40105960E946717B9
:104690007C01FC012081318140E050E0B201C40185
:1046A0000E94B11EF7012281338141E050E0B20146
:1046B000C4010E94B11EF7012481358140E050E021
:1046C00069817A81C4010E94B11EF7012681378178
:1046D00041E050E069817A81C4010E94B11EF70176
:1046E0002085318540E050E06D817E81C4010E94CB
:1046F000B11EF7012285338541E050E06D817E8156
:10470000C4010E94B11EA1C120E040E050E060E081
:1047100070E0C4010E94DE1E5C0120E041E050E038
:104720006D817E81C4010E94DE1E6C0120E040E0AC
:1047300050E06D817E81C4010E94DE1E7C0120E07C
:1047400041E050E069817A81C4010E94DE1E8C0143
:1047500020E040E050E069817A81C4010E94DE1EC1
:104760001C0120E041E050E0B201C4010E94DE1EC5
:104770009A87898720E040E050E0B201C4010E949E
:10478000DE1E910149855A85BC01C40105960E942F
:10479000651A7C01FC012081318140E050E0B201CA
:1047A000C4010E94B11EF7012281338141E050E033
:1047B000B201C4010E94B11EF7012481358140E09D
:1047C00050E069817A81C4010E94B11EF7012681FF
:1047D000378141E050E069817A81C4010E94B11EB5
:1047E000F7012085318540E050E06D817E81C40174
:1047F0000E94B11EF7012285338541E050E06D81B2
:104800007E81C4010E94B11E20C120E041E050E041
:1048100069817A81C4010E94DE1E8C0120E040E0A3
:1048200050E069817A81C4010E94DE1E7C0120E093
:1048300041E050E0B201C4010E94DE1E6C0120E0A4
:1048400040E050E0B201C4010E94DE1E9701A601C3
:10485000BC01C40105960E9490107C01FC012081DE
:10486000318140E050E0B201C4010E94B11EF70165
:104870002281338141E050E0B201C4010E94B11EA7
:10488000F7012481358140E050E069817A81C401DB
:104890000E94B11EF7012681378141E050E0698115
:1048A0007A81C4010E94B11ED0C020E041E050E0F6
:1048B00069817A81C4010E94DE1E8C0120E040E003
:1048C00050E069817A81C4010E94DE1E7C0120E0F3
:1048D00041E050E0B201C4010E94DE1E6C0120E004
:1048E00040E050E0B201C4010E94DE1E9701A60123
:1048F000BC01C40105960E9496117C01FC01208137
:10490000318140E050E0B201C4010E94B11EF701C4
:104910002281338141E050E0B201C4010E94B11E06
:10492000F7012481358140E050E069817A81C4013A
:104930000E94B11EF7012681378141E050E0698174
:104940007A81C4010E94B11E80C020E041E050E0A5
:10495000B201C4010E94DE1E7C0120E040E050E074
:10496000B201C4010E94DE1E29813A81A701BC0167
:10497000C40105960E9498127C01FC0120813181BE
:1049800040E050E0B201C4010E94B11EF701228153
:10499000338141E050E0B201C4010E94B11E55C014
:1049A00020E041E050E0B201C4010E94DE1E7C0123
:1049B00020E040E050E0B201C4010E94DE1E2981E7
:1049C0003A81A701BC01C40105960E9437137C01FE
:1049D000FC012081318140E050E0B201C4010E941D
:1049E000B11EF7012281338141E050E0B201C401E0
:1049F0000E94B11E2AC020E041E050E0B201C40193
:104A00000E94DE1E7C0120E040E050E0B201C401C3
:104A10000E94DE1E29813A81A701BC01C4010596CE
:104A20000E94D3137C01FC012081318140E050E0E1
:104A3000B201C4010E94B11EF7012281338141E01D
:104A400050E0B201C4010E94B11EC7010E94612D55
:104A50002A960FB6F894DEBF0FBECDBFDF91CF917F
:104A60001F910F91FF90EF90DF90CF90BF90AF908C
:104A70009F908F907F906F905F904F903F902F907E
:104A800008952F923F924F925F926F927F928F92F2
:104A90009F92AF92BF92CF92DF92EF92FF920F93CD
:104AA0001F93CF93DF93CDB7DEB7CF52D2400FB66F
:104AB000F894DEBF0FBECDBFC25EDD4F9983888301
:104AC000CE51D2400196C25DDD4F99838883CE528C
:104AD000D2406EEC70E00E94AA2763EC70E0C25DE9
:104AE000DD4F88819981CE52D2400E94AA27C25EB2
:104AF000DD4F88819981CE51D2400E946F02BC0166
:104B0000C25EDD4F88819981CE51D24006960E94C7
:104B1000E127DC011897812C912CFD0118962D912D
:104B20003C9119972F3F3105B1F416962D913C9188
:104B300017972F3F310579F4248135812F3F3105B7
:104B400051F4228133812F3F310529F420813181B5
:104B50002F3F310529F02FEF821A920A1296DDCFEE
:104B6000940124503109121613060CF09BC1FC016C
:104B700035E0831A910820E030E080E090E0CA5DE3
:104B8000DD4F19821882C652D2401DE0512C612C93
:104B9000C12CD12C0CC04D30510534F08FEFC81A08
:104BA000D80A852D962D01C0CA012F5F3F4FAC0159
:104BB0004F5F5F4F619171911C9DD0011D9DB00DA4
:104BC00011248A0F9B1FDC01AA0FBB1F81E090E01C
:104BD0008C0F9D1FA80FB91F6D937C932815390565
:104BE000D1F6CA5DDD4FD982C882C652D240C25EBC
:104BF000DD4FE881F981CE51D240148213821C141A
:104C00001D040CF03CC180E090E01E0139EE231A37
:104C10003DEF330A2E01E0EF4E1AEDEF5E0A3E0142
:104C2000F7EF6F1AFDEF7F0A0F2EF8ED8F2EF0E0F1
:104C30009F2EF02DC85DDD4F2882C852D240C75D3F
:104C4000DD4F3882C952D240C65DDD4F4882CA521C
:104C5000D240C55DDD4F5882CB52D240C45DDD4F9E
:104C60006882CC52D240C35DDD4F7882CD52D240B3
:104C7000F10110821182128213821482158216822F
:104C8000F20110821182128213821482158216821E
:104C9000F30110821182128213821482158216820D
:104CA0002AE1289FF001299FF00D112421E030E036
:104CB0002C0F3D1FE20FF31F80819181C05EDD4FFD
:104CC00099838883C052D240C12CD12CC25EDD4F63
:104CD000A880B980CE51D2409FEFC91AD90AF501F8
:104CE000838194812DE0289FF001299FF00D1124EC
:104CF000EC0DFD1DEE0FFF1F81E090E08C0F9D1F5E
:104D0000E80FF91F81818F9380818F933F922F92BB
:104D10009F928F923F922F920E948A2FF50183815A
:104D200094812DE0289FF001299FF00D1124EC0DB6
:104D3000FD1D3496EE0FFF1F81E090E08C0F9D1F4C
:104D4000E80FF91F81818F9380818F935F924F923B
:104D50009F928F925F924F920E948A2FF5018381DA
:104D600094812DE0289FF001299FF00D1124EC0D76
:104D7000FD1D3896EE0FFF1F81E090E08C0F9D1F08
:104D8000E80FF91F81818F9380818F937F926F92BB
:104D90009F928F927F926F920E948A2F0FB6F89403
:104DA000DEBF0FBECDBFF4E0CF16D10409F094CF23
:104DB00040E150E060E070E0C45DDD4F8881CC529E
:104DC000D240C35DDD4F9881CD52D2400E944E2E1D
:104DD0005B016C0140E150E060E070E0C65DDD4FDA
:104DE0008881CA52D240C55DDD4F9881CB52D240F6
:104DF0000E944E2ECE5DDD4F688379838A839B832C
:104E0000C252D24040E150E060E070E0C85DDD4F4A
:104E10008881C852D240C75DDD4F9881C952D240C7
:104E20000E944E2E9B01AC01CE5DDD4FE880F980E3
:104E30000A811B81C252D240C05EDD4F68817981F8
:104E4000C052D240C25EDD4F88819981CE51D2409E
:104E50000E949D1FC25EDD4FE881F981CE51D24094
:104E600083819481019694838383CA5DDD4F288179
:104E70003981C652D240821793070CF4F9CEC25E34
:104E8000DD4F88819981CE51D2400E94071F6DED80
:104E900070E0C25DDD4F88819981CE52D2400E9480
:104EA000952709C0C25EDD4FE881F981CE51D2401D
:104EB00014821382E4CFC15DDD4F0FB6F894DEBFDC
:104EC0000FBECDBFDF91CF911F910F91FF90EF905B
:104ED000DF90CF90BF90AF909F908F907F906F901A
:104EE0005F904F903F902F900895CF93DF93CDB771
:104EF000DEB727970FB6F894DEBF0FBECDBFCE0149
:104F000001960E94BC1DCE0101960E944125FFCF53
:104F1000089583E389B910BC86E880BD88E18AB929
:104F200008955D9BFECF6CB908950F931F93CF93A7
:104F3000DF938C01EB016881662339F02196C8016B
:104F40000E94912769916111FACFDF91CF911F9152
:104F50000F910895CF93DF93EC010E9495276DE0A8
:104F6000CE010E949127DF91CF9108950F931F9357
:104F7000CF93DF93062F172FEA01CA0101960E94F3
:104F8000C92C0097B9F0FC01EC0FFD1F1082202FF7
:104F9000312FBE0161507109CD2B71F020FF02C08D
:104FA00041E301C040E34293369527956150710972
:104FB000A8F702C080E090E0DF91CF911F910F91A0
:104FC0000895CF92DF92EF92FF920F931F93CF93AA
:104FD000DF93D62FC72FE62FF72F80E090E02191A7
:104FE0002F3F89F4DF0112974C914F3F61F41197E5
:104FF0004C914F3F41F411974C914F3F21F4119741
:105000002C912F3F11F00196EACF8C010450110929
:105010006C012FEFC21AD20A7601EE0CFF1CC701F9
:105020000E94C92C1016110674F4DC01ED2FFC2F20
:1050300020E030E0419150E04D935D932F5F3F4F72
:1050400020173107BCF30C151D057CF4F7013A97C6
:10505000E80FF91F25E030E04FEF50E04193519306
:105060002150310921153105C9F7DF91CF911F91E9
:105070000F91FF90EF90DF90CF9008950F931F93C3
:10508000CF93DF93CDB7DEB72A970FB6F894DEBF84
:105090000FBECDBF7F936F9384EB90E09F938F9370
:1050A0008E010F5F1F4F1F930F930E948A2F0F9047
:1050B0000F900F900F900F900F90C8012A960FB687
:1050C000F894DEBF0FBECDBFDF91CF911F910F913E
:1050D00008956115710551F086E69EE00197F1F79C
:1050E00000006150710961157105B1F708959F9332
:1050F0009F77A6D10F9000203AF49058A2EA2AEDAB
:105100003FE049E450E413D03EC25058BB27AA27E1
:105110000ED039C202D230F007D220F031F49F3FD6
:1051200011F41EF4D2C10EF4E095E7FBC8C1E92FDB
:105130004CD280F3BA17620773078407950718F0FB
:1051400071F49EF564C20EF4E0950B2EBA2FA02DDB
:105150000B01B90190010C01CA01A0011124FF2724
:10516000591B99F0593F50F4503E68F11A16F0401F
:10517000A22F232F342F4427585FF3CF469537951E
:105180002795A795F0405395C9F77EF41F16BA0BE3
:10519000620B730B840BBAF09150A1F0FF0FBB1F91
:1051A000661F771F881FC2F70EC0BA0F621F731FDA
:1051B000841F48F4879577956795B795F7959E3F37
:1051C00008F0B3CF9395880F08F09927EE0F9795C5
:1051D00087950895DF93DD27B92FBF7740E85FE318
:1051E0001616170648075B0710F4D92F1BD29F939A
:1051F0008F937F936F9376D3E8E9F0E069D1C3D1C1
:105200002F913F914F915F91CED2DD2349F090587D
:10521000A2EA2AED3FE049EC5FE3D0785D2787DF23
:10522000DF91B1C128D108F481E0089585D1E395DB
:10523000BBC10CD0A8C178D140F06FD130F021F4BF
:105240005F3F19F03CC15111E3C13FC1BED198F39A
:105250009923C9F35523B1F3951B550BBB27AA27F7
:1052600062177307840738F09F5F5F4F220F331F69
:10527000441FAA1FA9F333D00E2E3AF0E0E830D035
:1052800091505040E695001CCAF729D0FE2F27D038
:10529000660F771F881FBB1F261737074807AB0706
:1052A000B0E809F0BB0B802DBF01FF2793585F4F7B
:1052B0002AF09E3F510568F002C1AAC15F3FECF39E
:1052C000983EDCF3869577956795B795F7959F5F40
:1052D000C9F7880F911D9695879597F90895E1E094
:1052E000660F771F881FBB1F621773078407BA07F3
:1052F00020F0621B730B840BBA0BEE1F88F7E0954E
:10530000089519F40EF0DBC082C1DFC066D1C8F386
:105310009638C0F707F80F92E8942BE33AEA48EB87
:105320005FE743D20F920F920F924DB75EB70F9285
:10533000FBD1E5ECF0E0CCD04F915F91EF91FF9184
:10534000E595EE1FFF1F49F0FE57E0684427EE0F7A
:10535000441FFA95E1F74195550B6DD10F9007FE6B
:1053600061C1089504D06894B11152C1089535D136
:1053700088F09F5790F0B92F9927B751A0F0D1F03E
:10538000660F771F881F991F1AF0BA95C9F712C0C8
:10539000B13081F03CD1B1E0089539C1672F782F49
:1053A0008827B85F39F0B93FCCF386957795679534
:1053B000B395D9F73EF490958095709561957F4FA0
:1053C0008F4F9F4F0895E89409C097FB3EF4909546
:1053D0008095709561957F4F8F4F9F4F9923A9F0CE
:1053E000F92F96E9BB279395F6958795779567955D
:1053F000B795F111F8CFFAF4BB0F11F460FF1BC0A1
:105400006F5F7F4F8F4F9F4F16C0882311F096E933
:1054100011C0772321F09EE8872F762F05C06623E1
:1054200071F096E8862F70E060E02AF09A95660F9A
:10543000771F881FDAF7880F9695879597F9089553
:10544000DF93CF931F930F938B01EC01EDEEF0E010
:105450003FD099D09801AE018B01EC0160E070E083
:1054600080E89FE352DE00D29801AE010F911F91B8
:10547000CF91DF9198C1990F0008550FAA0BE0E872
:10548000FEEF16161706E807F907C0F01216130606
:10549000E407F50798F0621B730B840B950B39F446
:1054A0000A2661F0232B242B252B21F408950A26AC
:1054B00009F4A140A6958FEF811D811D089597F9EC
:1054C0009F6780E870E060E008959FEF80EC0895AA
:1054D000DF93CF931F930F93FF92EF92DF927B01A5
:1054E0008C01689405C0DA2EEF015DD1FE01E894CD
:1054F000A5912591359145915591AEF3EF0117DEB8
:10550000FE019701A801DA9479F7DF90EF90FF9000
:105510000F911F91CF91DF91089500240A941616E0
:10552000170618060906089500240A941216130691
:10553000140605060895C9CF50D0E8F3E894E0E0DA
:10554000BB279F57F0F02AED3FE049EC06C0EE0F75
:10555000BB0F661F771F881F28F0B23A62077307D8
:10556000840728F0B25A620B730B840BE3959A956B
:1055700072F7803830F49A95BB0F661F771F881F2B
:10558000D2F79048B4C1092E0394000C11F488237B
:1055900052F0BB0F40F4BF2B11F460FF04C06F5FEB
:1055A0007F4F8F4F9F4F0895EF93E0FF06C0A2EA11
:1055B0002AED3FE049EC5FEBBADDE5DF0F900394A5
:1055C00001FC9058E5E1F1E0A5C157FD9058440F6A
:1055D000551F59F05F3F71F04795880F97FB991F52
:1055E00061F09F3F79F0879508951216130614060F
:1055F000551FF2CF4695F1DF08C01616170618069C
:10560000991FF1CF86957105610508940895E89476
:10561000BB2766277727CB0197F908952CDF08F47D
:105620008FEF08959B01AC0160E070E080E89FE39C
:1056300000CE45CF5AC1D1DFE8F39923D9F3940FB7
:10564000511DBBF39150504094F059F0882332F033
:10565000660F771F881F91505040C1F79E3F51053C
:1056600044F7880F911D9695879597F908955F3FA8
:10567000ACF0983E9CF0BB27869577956795B795DB
:1056800008F4B1609395C1F7BB0F58F711F460FFB0
:10569000E8CF6F5F7F4F8F4F9F4FE3CFB9CF0EF0B3
:1056A00024C113CF68940BCF98DFC8F39923D1F3AB
:1056B000C6F3DF93CF931F930F93FF92C92FDD277C
:1056C00088232AF02197660F771F881FDAF720E0DA
:1056D00030E040E85FEB9FE3883920F0803E30F017
:1056E00021968F7713DDE3E3F1E003C00FDDE0E601
:1056F000F1E0EEDE8B01BE01EC01FB2E6F5771096C
:105700007595771F880B990B60DE28E132E741E33E
:105710005FE349D0AF2D9801AE01FF900F911F912B
:10572000CF91DF9104DD2FCFFA01DC01AA0FBB1F5F
:105730009B01AC01BF5728F4222733274427507818
:105740001FC0B75188F4AB2F002446953795279595
:10575000011CA395D2F3002069F0220F331F441FD0
:10576000B395DAF30DD0D1CC61307105A0E88A078A
:10577000B94630F49B01AC016627772788279078DB
:10578000309621F0208331834283538308950BD0D8
:10579000FACEC3DE28F0C8DE18F0952309F08FCECC
:1057A00094CE112435CF11DFA0F3959FD1F3950F3F
:1057B00050E0551F629FF001729FBB27F00DB11D95
:1057C000639FAA27F00DB11DAA1F649F6627B00D25
:1057D000A11D661F829F2227B00DA11D621F739F0E
:1057E000B00DA11D621F839FA00D611D221F749F1C
:1057F0003327A00D611D231F849F600D211D822F63
:10580000762F6A2F11249F5750408AF0E1F08823A9
:105810004AF0EE0FFF1FBB1F661F771F881F9150B6
:105820005040A9F79E3F510570F049CEF1CE5F3F41
:10583000ECF3983EDCF3869577956795B795F795E9
:10584000E7959F5FC1F7FE2B880F911D9695879571
:1058500097F908959F9370DE0F9007FCEE5FA4CE3A
:1058600011F40EF432CE41C0B8DED0F39923D9F34F
:10587000CEF39F57550B87FF46D00024A0E640EAA1
:10588000900180585695979528F4805C660F771F95
:10589000881F20F026173707480730F4621B730B68
:1058A000840B202931294A2BA6951794079420258B
:1058B00031254A2758F7660F771F881F20F02617D3
:1058C0003707480730F4620B730B840B200D311D32
:1058D000411DA09581F7B901842F9158880F9695A5
:1058E000879508959B01AC0152CF9F3F31F09150B5
:1058F00020F4879577956795B795880F911D9695B4
:10590000879597F9089591505040660F771F881F2B
:10591000D2F708959F938F937F936F93FF93EF93A5
:105920009B01AC0134DFEF91FF91D2DD2F913F91CC
:105930004F915F912CCF97FB072E16F4009407D060
:1059400077FD09D00E94B52C07FC05D03EF4909558
:1059500081959F4F0895709561957F4F0895EE0F43
:10596000FF1F0590F491E02D0994AA1BBB1B51E188
:1059700007C0AA1FBB1FA617B70710F0A61BB70BBF
:10598000881F991F5A95A9F780959095BC01CD0164
:105990000895CF93DF938230910510F482E090E078
:1059A000E0910C01F0910D0120E030E0A0E0B0E0CA
:1059B000309739F14081518148175907B8F048179D
:1059C000590771F482819381109729F013969C9363
:1059D0008E9312972CC090930D0180930C0127C0D9
:1059E0002115310531F04217530718F0A901DB01E9
:1059F00001C0EF019A01BD01DF010280F381E02DBA
:105A0000D7CF21153105F9F0281B390B243031058A
:105A100080F48A819B816115710521F0FB019383DC
:105A2000828304C090930D0180930C01FE01329695
:105A300044C0FE01E20FF31F81939193225031097C
:105A4000398328833AC020910A0130910B01232B1E
:105A500041F4209162003091630030930B01209358
:105A60000A0120916000309161002115310541F457
:105A70002DB73EB74091640050916500241B350B53
:105A8000E0910A01F0910B01E217F307A0F42E1B3D
:105A90003F0B2817390778F0AC014E5F5F4F241792
:105AA000350748F04E0F5F1F50930B0140930A01DA
:105AB0008193919302C0E0E0F0E0CF01DF91CF91BC
:105AC0000895CF93DF93009709F487C0FC013297C4
:105AD00013821282C0910C01D0910D01209781F4A4
