:100000000C942B000C9453000C9453000C9453004C
:100010000C9453000C9453000C9453000C94530014
:100020000C9453000C9453000C9453000C94530004
:100030000C9453000C9453000C9453000C945300F4
:100040000C9453000C9453000C9453000C945300E4
:100050000C945300550011241FBECFE5D8E0DEBF3D
:10006000CDBF10E0A0E6B0E0E0E2FDE002C0059008
:100070000D92A038B107D9F720E0A0E8B0E001C0A8
:100080001D92A538B207E1F710E0C6E5D0E004C044
:100090002297FE010E949202C435D107C9F70E943F
:1000A0005A000C948E060C94000080E890E00E94A8
:1000B00036020895CF93DF9300D000D000D0CDB7A3
:1000C000DEB7CE0101960E94920061E070E0CE01A1
:1000D00001960E947D0162E070E0CE0101960E94CF
:1000E0007D0165E070E0CE0101960E94C901CE015C
:1000F00001960E946101CE0101960E94610165E0B6
:1001000070E0CE0101960E94C90163E070E0CE016B
:1001100001960E947D0165E070E0CE0101960E948B
:10012000C901FFCFCF93DF93EC0103960E94360203
:100130008FEF84BB84E190E09983888388E390E02B
:100140009D838C83DF91CF91089575B321E030E0DA
:10015000C901062E02C0880F991F0A94E2F7809504
:10016000872385BB85B302C0440F551F6A95E2F70C
:10017000482B45BB0895FC01808191812481358104
:100180002817390734F08130914018F4213031407C
:1001900040F084E190E09183808388E390E0958350
:1001A000848308950F931F93CF93DF93EC01062F61
:1001B0000E94BB001FEF1ABB0BBB17BA41E050E017
:1001C00066E070E0CE010E94A50006B340E050E07A
:1001D00066E070E0CE010E94A50017BB1BBA802F1D
:1001E000DF91CF911F910F910895CF92DF92EF92FF
:1001F000FF920F931F93CF93DF93CDB7DEB7D2500B
:100200000FB6F894DEBF0FBECDBF7C01FC010081AC
:1002100011818481958108171907E4F46801CC0CD9
:10022000DD1C81E090E08C0F9D1FC80ED91E602F51
:10023000C7010E94D200992787FD9095F60181930E
:1002400091936F010F5F1F4FF7018481958108170C
:1002500019076CF3CE010196DE5F0FB6F894DEBF8E
:100260000FBECDBFDF91CF911F910F91FF90EF9007
:10027000DF90CF900895FF920F931F93CF93DF935A
:10028000EC01F62E042F0E94BB001FEF1ABBFBBA35
:1002900017BB08BB41E050E065E070E0CE010E9472
:1002A000A50040E050E065E070E0CE010E94A500AE
:1002B0001BBA17BB18BADF91CF911F910F91FF9016
:1002C0000895CF93DF93EC010E94BB008881998150
:1002D0000196998388832C813D812817390714F46E
:1002E0003983288368816F5FCE010E94D2009927ED
:1002F00087FD9095DF91CF910895EF92FF920F9334
:100300001F93CF93DF93EC01F62EE72E0E94BB00E4
:10031000688179811616170664F10C811D81061B10
:10032000170BCE010E94F50098014F2D5E2DBC01E8
:10033000CE0102960E946302088119812C813D81C1
:1003400002171307FCF47801EE0CFF1CE80EF91EEF
:10035000F7014081F2E0EF0EF11C602FCE010E9408
:100360003B010F5F1F4F8C819D810817190784F394
:1003700009C04F2DCE010E943B01888199810197D0
:1003800099838883DF91CF911F910F91FF90EF9018
:1003900008956F927F928F929F92AF92BF92CF9269
:1003A000DF92EF92FF920F931F93CF93DF93CDB71E
:1003B000DEB76E970FB6F894DEBF0FBECDBF6C01EF
:1003C0005B010E94BB00F601008111811A141B041D
:1003D0001CF40F5F1F4F03C0F601A480B580A00E70
:1003E000B11E0A151B056CF50F2EFAE66F2EF0E014
:1003F0007F2EF02DCE0101967C01460193E0890EFF
:10040000911C602FC6010E94D200282F332727FDA0
:1004100030953F938F931F930F937F926F92FF922C
:10042000EF920E94BD03B701C4010E9457020F5F03
:100430001F4F0FB6F894DEBF0FBECDBF0A151B05C8
:1004400004F36E960FB6F894DEBF0FBECDBFDF91FA
:10045000CF911F910F91FF90EF90DF90CF90BF90C1
:10046000AF909F908F907F906F90089583E389B9AC
:1004700010BC86E880BD88E18AB908955D9BFECFF7
:100480006CB908950F931F93CF93DF938C01EB0109
:100490006881662339F02196C8010E943E02699165
:1004A0006111FACFDF91CF911F910F910895CF93F2
:1004B000DF93EC010E9442026DE0CE010E943E02F9
:1004C000DF91CF910895CF92DF92EF92FF920F9339
:1004D0001F93CF93DF937B016A01E9018901000F2C
:1004E000111FC8010E949602FC01D182C0821C1615
:1004F0001D066CF4F701DC011296B701600F711F45
:10050000219131912D933D93E617F707C9F7DF91BC
:10051000CF911F910F91FF90EF90DF90CF900895B2
:10052000EE0FFF1F0590F491E02D0994CF93DF9318
:100530008230910510F482E090E0E0918300F09128
:10054000840020E030E0A0E0B0E0309739F1408155
:10055000518148175907B8F04817590771F482813B
:100560009381109729F013969C938E9312972CC029
:10057000909384008093830027C02115310531F0CA
:100580004217530718F0A901DB0101C0EF019A01DE
:10059000BD01DF010280F381E02DD7CF21153105A8
:1005A000F9F0281B390B2430310580F48A819B81B6
:1005B0006115710521F0FB019383828304C0909340
:1005C000840080938300FE01329644C0FE01E20F56
:1005D000F31F8193919322503109398328833AC0C4
:1005E0002091810030918200232B41F42091620000
:1005F000309163003093820020938100209160004D
:10060000309161002115310541F42DB73EB740917D
:10061000640050916500241B350BE0918100F0913E
:100620008200E217F307A0F42E1B3F0B28173907AF
:1006300078F0AC014E5F5F4F2417350748F04E0F3E
:100640005F1F50938200409381008193919302C079
:10065000E0E0F0E0CF01DF91CF910895CF93DF93F9
:10066000009709F487C0FC01329713821282C0916F
:100670008300D0918400209781F420813181280F5C
:10068000391F80918100909182008217930779F53C
:10069000F0938200E09381006DC0DE0120E030E045
:1006A000AE17BF0750F412964D915C9113979D01C0
:1006B0004115510509F1DA01F3CFB383A2834081DB
:1006C0005181840F951F8A179B0771F48D919C911E
:1006D0001197840F951F02969183808312968D91B6
:1006E0009C911397938382832115310529F4F0930C
:1006F0008400E09383003EC0D9011396FC93EE93EF
:1007000012974D915D91A40FB51FEA17FB0779F47D
:1007100080819181840F951F0296D90111969C9337
:100720008E938281938113969C938E931297E0E02F
:10073000F0E08A819B81009719F0FE01EC01F9CF6E
:10074000CE01029628813981820F931F209181006A
:10075000309182002817390769F4309729F41092F4
:1007600084001092830002C013821282D093820010
:10077000C0938100DF91CF910895AEE0B0E0E3EC4B
:10078000F3E00C9465060D891E8986E08C831A833C
:1007900009838FEF9FE79E838D83AE01475E5F4F96
:1007A0006F89788DCE0101960E94DF03EF81F88575
:1007B000E00FF11F10822E96E4E00C948106ACE06D
:1007C000B0E0E5EEF3E00C9457067C016B018A0182
:1007D000FC0117821682838181FFBDC1CE01019683
:1007E0004C01F7019381F60193FD859193FF81916F
:1007F0006F01882309F4ABC1853239F493FD8591EB
:1008000093FF81916F01853229F4B70190E00E9436
:10081000C705E7CF512C312C20E02032A0F48B32D9
:1008200069F030F4803259F0833269F420612CC0D1
:100830008D3239F0803339F4216026C02260246083
:1008400023C0286021C027FD27C030ED380F3A3083
:1008500078F426FF06C0FAE05F9E300D1124532E77
:1008600013C08AE0389E300D1124332E20620CC054
:100870008E3221F426FD6BC1206406C08C3611F443
:10088000206802C0883641F4F60193FD859193FFFC
:1008900081916F018111C1CF982F9F7D9554933025
:1008A00028F40C5F1F4FFFE3F9830DC0833631F04E
:1008B000833771F0833509F05BC022C0F801808175
:1008C00089830E5F1F4F44244394512C540115C05B
:1008D0003801F2E06F0E711CF801A080B18026FF94
:1008E00003C0652D70E002C06FEF7FEFC5012C875C
:1008F0000E94BC052C0183012C852F77222E17C066
:100900003801F2E06F0E711CF801A080B18026FF63
:1009100003C0652D70E002C06FEF7FEFC5012C872B
:100920000E94B1052C012C852068222E830123FC16
:100930001BC0832D90E048165906B0F4B70180E241
:1009400090E00E94C7053A94F4CFF50127FC859109
:1009500027FE81915F01B70190E00E94C705311029
:100960003A94F1E04F1A51084114510471F7E5C06F
:10097000843611F0893639F5F80127FF07C0608108
:100980007181828193810C5F1F4F08C060817181EA
:10099000882777FD8095982F0E5F1F4F2F76B22EF8
:1009A00097FF09C090958095709561957F4F8F4F07
:1009B0009F4F2068B22E2AE030E0A4010E94F90582
:1009C000A82EA81844C0853729F42F7EB22E2AE01D
:1009D00030E025C0F22FF97FBF2E8F36C1F018F41A
:1009E000883579F0B4C0803719F0883721F0AFC06E
:1009F0002F2F2061B22EB4FE0DC08B2D8460B82E37
:100A000009C024FF0AC09F2F9660B92E06C028E0B7
:100A100030E005C020E130E002C020E132E0F80122
:100A2000B7FE07C060817181828193810C5F1F4F87
:100A300006C06081718180E090E00E5F1F4FA401CD
:100A40000E94F905A82EA818FB2DFF77BF2EB6FE31
:100A50000BC02B2D2E7FA51450F4B4FE0AC0B2FC9F
:100A600008C02B2D2E7E05C07A2C2B2D03C07A2C8E
:100A700001C0752C24FF0DC0FE01EA0DF11D80811F
:100A8000803311F4297E09C022FF06C07394739449
:100A900004C0822F867809F0739423FD13C020FFD1
:100AA00006C05A2C731418F4530C5718732C731473
:100AB00068F4B70180E290E02C870E94C705739428
:100AC0002C85F5CF731410F4371801C0312C24FF96
:100AD00012C0B70180E390E02C870E94C7052C85E7
:100AE00022FF17C021FF03C088E590E002C088E71D
:100AF00090E0B7010CC0822F867859F021FD02C02A
:100B000080E201C08BE227FD8DE2B70190E00E94F8
:100B1000C705A51438F4B70180E390E00E94C7052B
:100B20005A94F7CFAA94F401EA0DF11D8081B70120
:100B300090E00E94C705A110F5CF332009F451CEF3
:100B4000B70180E290E00E94C7053A94F6CFF70122
:100B50008681978102C08FEF9FEF2C96E2E10C9483
:100B60007306FC010590615070400110D8F7809524
:100B700090958E0F9F1F0895FC0161507040019069
:100B80000110D8F7809590958E0F9F1F08950F93B1
:100B90001F93CF93DF93182F092FEB018B8181FDDA
:100BA00003C08FEF9FEF20C082FF10C04E815F8196
:100BB0002C813D81421753077CF4E881F9819F0124
:100BC0002F5F3F4F39832883108306C0E885F9855E
:100BD000812F0995892B29F72E813F812F5F3F4F68
:100BE0003F832E83812F902FDF91CF911F910F9103
:100BF0000895FA01AA27283051F1203181F1E894B3
:100C00006F936E7F6E5F7F4F8F4F9F4FAF4FB1E0FF
:100C10003ED0B4E03CD0670F781F891F9A1FA11DFA
:100C2000680F791F8A1F911DA11D6A0F711D811DFB
:100C3000911DA11D20D009F468943F912AE0269FC0
:100C400011243019305D3193DEF6CF010895462F1F
:100C50004770405D4193B3E00FD0C9F7F6CF462F00
:100C60004F70405D4A3318F0495D31FD4052419369
:100C700002D0A9F7EACFB4E0A69597958795779526
:100C80006795BA95C9F700976105710508959B01AD
:100C9000AC010A2E06945795479537952795BA9536
:100CA000C9F7620F731F841F951FA01D08952F920F
:100CB0003F924F925F926F927F928F929F92AF92EC
:100CC000BF92CF92DF92EF92FF920F931F93CF9339
:100CD000DF93CDB7DEB7CA1BDB0B0FB6F894DEBFD0
:100CE0000FBECDBF09942A88398848885F846E84F6
:100CF0007D848C849B84AA84B984C884DF80EE8040
:100D0000FD800C811B81AA81B981CE0FD11D0FB648
:100D1000F894DEBF0FBECDBFED010895F894FFCF6C
:100D200000008500200001000000416464726573CA
:100D3000733A20256420446174613A2025640000E0
:00000001FF
