:100000000C94CA000C94F2000C94F2000C94F200D0
:100010000C94F2000C94F2000C94F2000C94F20098
:100020000C94F2000C94F2000C94F2000C94F20088
:100030000C94F2000C94F2000C94F2000C94F20078
:100040000C94F2000C94F2000C94F2000C94F20068
:100050000C94F200A820C720D420E020EE20F52048
:1000600054265426FC2005215426542654260E21BD
:10007000152154261B2121214A2173219C21C521B0
:10008000EE21172242226D229822EA223C238E235F
:10009000E02332248424D6245225CE25084AD73B97
:1000A0003BCE016E84BCBFFDC12F3D6C74319ABD47
:1000B00056833DDA3D00C77F11BED9E4BB4C3E916B
:1000C0006BAAAABE000000803F07634236B79BD8E8
:1000D000A71A39685618AEBAAB558C1D3CB7CC5729
:1000E00063BD6DEDFD753EF6177231BF00000080F7
:1000F0003F072C7AA5BA6CC590DA3B9365FC8BBCA4
:1001000053F810FD3C5692834DBD879D3AB63DCBCA
:10011000C9BF5BBE73DA0FC93F05A84CCDB2D44E40
:10012000B93836A9020C50B9918688083CA6AAAA0B
:100130002ABE000000803F08000000BE9224491241
:100140003EABAAAA2ABECDCCCC4C3E00000080BE5D
:10015000ABAAAAAA3E00000000BF000000803F003A
:1001600000000000084178D3BB4387D1133D190E2E
:100170003CC3BD4282AD2B3E68EC8276BED98FE196
:10018000A93E4C80EFFFBE01C4FF7F3F000000008E
:1001900000009F1D11241FBECFE5D8E0DEBFCDBFFC
:1001A00011E0A0E6B0E0E4E2F9E602C005900D92AD
:1001B000A830B107D9F721E0A8E0B1E001C01D9255
:1001C000AF30B207E1F711E0C4E9D1E004C02297F3
:1001D000FE010E94382EC239D107C9F70E947E283D
:1001E0000C9490340C9400000F931F93FC014083F7
:1001F00051836283738304831583268337831F911E
:100200000F910895FC0110821182128213821482D0
:100210001582168217820895AF92BF92CF92DF9215
:10022000EF92FF920F931F93CF93DF93CDB7DEB77B
:1002300068970FB6F894DEBF0FBECDBF5C01098B87
:100240001A8B2B8B3C8B4D8B5E8B6F8B788F2D8914
:100250003E894F89588DFC01648175818681978123
:100260000E940D2A6B017C0129893A894B895C899E
:10027000F50160817181828193810E940D2AAB0119
:10028000BC0197018601CE0101960E94F40088E02E
:10029000FE013196DE01199601900D928A95E1F7E3
:1002A00029853A854B855C856D857E858F85988906
:1002B00068960FB6F894DEBF0FBECDBFDF91CF9129
:1002C0001F910F91FF90EF90DF90CF90BF90AF9074
:1002D00008954F925F926F927F928F929F92AF920A
:1002E000BF92CF92DF92EF92FF920F931F93CF9323
:1002F000DF93CDB7DEB7A0970FB6F894DEBF0FBE81
:10030000CDBF098B1A8B2B8B3C8B4D8B5E8B6F8BF0
:10031000788F89889A88AB88BC882D893E894F89D7
:10032000588D2D8F3E8F4F8F58A3FC01C080D180F8
:10033000E280F3802481358146815781298F3A8F6D
:100340004B8F5C8F2D8D3E8D4F8D58A1C701B6010F
:100350000E944E2D2B013C01A5019401698D7A8DDF
:100360008B8D9C8D0E944E2D9B01AC01C301B2016F
:100370000E940D2A2B013C01A5019401C701B60181
:100380000E944E2D6B017C012D8D3E8D4F8D58A10D
:10039000698D7A8D8B8D9C8D0E944E2D9B01AC01B9
:1003A000C701B6010E940C2AAB01BC019301820176
:1003B000CE0101960E94F40088E0FE013196DE0134
:1003C000199601900D928A95E1F729853A854B851A
:1003D0005C856D857E858F859889A0960FB6F8948B
:1003E000DEBF0FBECDBFDF91CF911F910F91FF9068
:1003F000EF90DF90CF90BF90AF909F908F907F90C5
:100400006F905F904F900895FC012081318142816F
:10041000538164817581868197810E94A02A0E9400
:10042000712A089585E080B981B18C7F81B90895E2
:1004300094EA30EA24E896BF06B607FEFDCF81B104
:10044000887F883009F041C033B926BF06B607FE61
:10045000FDCF81B1887F883171F773B984E886BF99
:1004600006B607FEFDCF81B1887F883281F563B97A
:1004700084E886BF06B607FEFDCF81B1887F88324B
:1004800041F584EA86BF06B607FEFDCF81B1887FBD
:10049000803109F581EA83B984E886BF06B607FE94
:1004A000FDCF81B1887F8034C1F484E886BF06B671
:1004B00007FEFDCF81B1887F883589F483B194E947
:1004C00096BF06B604FCFDCF089580E0089580E055
:1004D000089580E0089580E0089580E0089580E028
:1004E0000895CF92DF92EF92FF920F931F93CF93D5
:1004F000DF93CDB7DEB7C456D1090FB6F894DEBF8F
:100500000FBECDBF6C01CE0101967C0100E010E072
:10051000B801C6010E941802F70181937F018F3F45
:1005200081F4329720812F3F61F4319720812F3F52
:1005300041F4319720812F3F21F4319780818F3F03
:1005400019F00F5F1F4FE4CFCE010196CC59DF4F5A
:100550000FB6F894DEBF0FBECDBFDF91CF911F91D4
:100560000F91FF90EF90DF90CF9008950895CF9274
:10057000DF92EF92FF920F931F93CF93DF931F921F
:10058000CDB7DEB76C01E62EF72EBA0188E091E018
:100590000E9407291C141D040CF04BC00E2D1F2DAA
:1005A000E12CF12C6AE670E088E091E00E94F228EC
:1005B00020E030E04AE754E4F801608171818281F3
:1005C00093810E944E2D0E94392BCE0101960E94EC
:1005D0009B29BC0188E091E00E94F2286EE670E061
:1005E00088E091E00E94F22820E030E04AE754E4FD
:1005F000F80164817581868197810E944E2D0E9449
:10060000392BCE0101960E949B29BC0188E091E024
:100610000E94F22868EC70E088E091E00E940729CF
:10062000FFEFEF1AFF0A085F1F4FEC14FD0409F0FB
:10063000B9CF0F90DF91CF911F910F91FF90EF9065
:10064000DF90CF900895CF92DF92EF92FF92CF93F9
:10065000DF936A017B010E94C52FEC0120E03EEF91
:100660004FEF56E4C701B6010E944E2D6B017C018D
:10067000BE01882777FD8095982F0E946C2B9B01E7
:10068000AC01C1E0D0E0C701B6010E94952C8823DF
:1006900014F4C0E0D0E0CE01DF91CF91FF90EF9055
:1006A000DF90CF9008952F923F924F925F926F927A
:1006B0007F928F929F92AF92BF92CF92DF92EF92F2
:1006C000FF920F931F93CF93DF93CDB7DEB7A4971D
:1006D0000FB6F894DEBF0FBECDBF8C016B015A017F
:1006E000BA01882777FD8095982F0E946C2B0E9475
:1006F000DB2C28E132E741E35FE30E94A02A2B01D3
:100700003C019B01AC010E940D2A0E94392B69A378
:100710007AA38BA39CA329A03AA0C101880F991F9B
:10072000880F991F880F991F0E94502E4C011A1490
:100730001B040CF09DC020E030E040E85FE3F601D0
:1007400060817181828193810E94992A811187C081
:1007500011C0F8E0CF0ED11C20E030E040E85FE3AC
:10076000F60160817181828193810E94992A8111B1
:1007700078C002C0E12CF12CC301B2010E94392BD8
:10078000AB01B701C8010E941329121413040CF025
:100790006FC07C0154016401F8E0CF0ED11C49A068
:1007A0005AA0480E591E6894772473F8F701819176
:1007B0007F01813329F500E010E09801B901A8011B
:1007C000CE0149960E94F400FE017996D501872D4D
:1007D00001900D928A95E1F700E010E0980140E069
:1007E00050E060E87FE3CE0141960E94F400FE01F4
:1007F0007196D601872D01900D928A95E1F724C05C
:1008000000E010E0980140E050E060E87FE3CE01B6
:1008100009960E94F400FE013996D501872D0190BA
:100820000D928A95E1F700E010E09801B901A80166
:10083000CE0101960E94F400FE013196D601872D6B
:1008400001900D928A95E1F7F0E1AF0EB11C20E125
:10085000C20ED11CE414F50409F0A8CF09C0E12CA4
:10086000F12C8FEFE81AF80AEA14FB0409F071CFB3
:10087000C401A4960FB6F894DEBF0FBECDBFDF91C2
:10088000CF911F910F91FF90EF90DF90CF90BF908D
:10089000AF909F908F907F906F905F904F903F9020
:1008A0002F9008952F923F924F925F926F927F9276
:1008B0008F929F92AF92BF92CF92DF92EF92FF9270
:1008C0000F931F93CF93DF93CDB7DEB728970FB663
:1008D000F894DEBF0FBECDBF7C015B018A013E8371
:1008E0002D834130510509F4BBC09A0140E050E02E
:1008F00060E070E40E94D4290E94392B78876F83CE
:100900009B01220F331F220F331F220F331F3C8303
:100910002B83C9010E94502E89839A838F819885E9
:10092000181619060CF053C01801220C331CC9808C
:10093000DA80612C712CE2E0F0E0412C512CC601F0
:10094000CF80D884470198878F832E163F0629F4DD
:100950009FEF491A590AE2E0F0E07F012FEFE21A17
:10096000F20AEE0FFF1FEE0FFF1FEE0FFF1FEA0D43
:10097000FB1D008111812281338144815581668173
:100980007781C201880F991F880F991F880F991FBF
:100990008A0D9B1D0E946901EF81F88520833183B8
:1009A000428353836483758386839783FFEF6F1A33
:1009B0007F0A2F813885285F3F4F38872F836C143B
:1009C0007D0411F0F701C1CFD886CF8274018D81EB
:1009D0009E81892BA9F589819A8144C05101F10139
:1009E0004081518162817381C7010E942303019775
:1009F000E9F48B819C81860D971DF3011082118291
:100A00001282138214821582168217823896E81792
:100A1000F907A1F780E090E0A0E8BFE3F50180834B
:100A20009183A283B38389819A811CC0FFEFCF1A7F
:100A3000DF0A28E0220E311CC814D90479F606C05A
:100A400049805A8000E010E08F80988418141904BF
:100A5000ECF7642C752C242C352CC02ED12EBECF57
:100A6000862F9B2D28960FB6F894DEBF0FBECDBF04
:100A7000DF91CF911F910F91FF90EF90DF90CF907A
:100A8000BF90AF909F908F907F906F905F904F90AE
:100A90003F902F9008952F923F924F925F926F92C6
:100AA0007F928F929F92AF92BF92CF92DF92EF92FE
:100AB000FF920F931F93CF93DF93CDB7DEB72897A5
:100AC0000FB6F894DEBF0FBECDBF9E838D837A83B1
:100AD0006983042F152FC22ED32ECB0182959295B8
:100AE000907F9827807F98270E94502E8B839C832D
:100AF00029803A80220C331C121413040CF0ACC071
:100B0000A82EB92EE02EF12E0C2D1D2D812C912C0E
:100B1000B886AF826701F701419051907F0166244A
:100B200057FC6094762CC301B2010E946C2B2BED14
:100B30003FE049E450E40E944E2D20E030E044EBD9
:100B400053E40E94A02A0E949D2AEF81F8856083C9
:100B5000718382839383C301B2010E946C2B2BEDBE
:100B60003FE049E450E40E944E2D20E030E044EBA9
:100B700053E40E94A02A0E94B12D2B013C01580190
:100B8000F801619171918F01882777FD8095982FE9
:100B90000E946C2B2BED3FE049E450E40E944E2D67
:100BA00020E030E044E353E40E94A02A0E949D2A02
:100BB0009B01AC01C301B2010E944E2DEF81F8856B
:100BC0006087718782879387F601608171818827AA
:100BD00077FD8095982F0E946C2B2BED3FE049E428
:100BE00050E40E944E2D20E030E044EB53E40E949C
:100BF000A02A0E94B12D2B013C01F5016081718179
:100C0000882777FD8095982F0E946C2B2BED3FE075
:100C100049E450E40E944E2D20E030E044E353E4E8
:100C20000E94A02A0E94B12D9B01AC01C301B20118
:100C30000E944E2DEF81F885648775878687978798
:100C4000F2E08F0E911C8F819885409698878F8354
:100C5000821493040CF45ECF45E750E06B817C81F5
:100C6000C1010E94B70221E030E049815A816B81C5
:100C70007C818D819E810E94520428960FB6F89443
:100C8000DEBF0FBECDBFDF91CF911F910F91FF90BF
:100C9000EF90DF90CF90BF90AF909F908F907F901C
:100CA0006F905F904F903F902F9008954F925F927A
:100CB0006F927F928F929F92AF92BF92CF92DF926C
:100CC000EF92FF920F931F93CF93DF93EC01662E69
:100CD000772E6A019A0140E050E060E070E40E94E3
:100CE000D4290E94392B4B015C0182E0C816D10443
:100CF00044F0A401662D772DCE010E945303682E87
:100D0000792EC601880F991F880F991F0E94502EB7
:100D1000482E592ECC0CDD1C1C141D04F4F5E62CB9
:100D2000F72C082F192FC0E0D0E0C0FD19C0F70143
:100D300060817181828193810E94FE2920E030E0F0
:100D400044EB53E40E944E2D2BED3FE049E450E488
:100D50000E94A02A0E94392BF8017183608314C07D
:100D6000C7010E94040220E030E044E353E40E9403
:100D70004E2D2BED3FE049E450E40E94A02A0E9452
:100D8000392BF801718360832196F8E0EF0EF11C96
:100D90000E5F1F4FCC15DD0541F64EE750E0662D86
:100DA000772DC4010E94B702842D952DDF91CF913C
:100DB0001F910F91FF90EF90DF90CF90BF90AF9079
:100DC0009F908F907F906F905F904F9008952F929B
:100DD0003F924F925F926F927F928F929F92AF92CB
:100DE000BF92CF92DF92EF92FF920F931F93CF9318
:100DF000DF93CDB7DEB760970FB6F894DEBF0FBEB6
:100E0000CDBF4B013A0180E190E00E94502E382E78
:100E1000292EC82ED92EA12CB12C240188E0480EF1
:100E2000511CCE0109960E9402017501EE0CFF1CB7
:100E3000EE0CFF1CEE0CFF1CE60CF71CD7010C910E
:100E400011961C91119712962C91129713963C9122
:100E5000139714964C91149715965C9115971696C6
:100E60006C91169717967C91C4010E946901022F1C
:100E7000132F242F352F462F572F682F792FCE0170
:100E800009960E940C0129873A874B875C876D87FA
:100E90007E878F87988BF7017096D70150960C91BB
:100EA0001181228133814481558166817781C2011C
:100EB0000E946901022F132F242F352F462F572F01
:100EC000682F792FCE0109960E940C0129873A8755
:100ED0004B875C876D877E878F87988B89859A85FE
:100EE000AB85BC85F60180839183A283B3838D8516
:100EF0009E85AF85B88984839583A683B783FFEFEA
:100F0000AF1ABF0A88E0C80ED11CA2E0AA16B1042D
:100F100009F087CF832D922D60960FB6F894DEBF2F
:100F20000FBECDBFDF91CF911F910F91FF90EF903A
:100F3000DF90CF90BF90AF909F908F907F906F90F9
:100F40005F904F903F902F9008952F923F924F9235
:100F50005F926F927F928F929F92AF92BF92CF9249
:100F6000DF92EF92FF920F931F93CF93DF93CDB752
:100F7000DEB764970FB6F894DEBF0FBECDBF3B015E
:100F8000E42EF52E80E290E00E94502E8B8B9C8BFD
:100F9000482E592E812C912CE98AFA8A212C312C49
:100FA000CE0109960E940201C988DA88E22CF32C4E
:100FB0005401AA0CBB1CAA0CBB1CAA0CBB1CF5013F
:100FC000EC0DFD1D00811181228133814481558109
:100FD00066817781C3018E0D9F1D0E94690129835F
:100FE0003A834B835C836D837E838F839887022F44
:100FF000132F242F352F462F572F682F792FCE01EF
:1010000009960E940C0129873A874B875C876D8778
:101010007E878F87988B88E0E80EF11CE0E2CE0E89
:10102000D11CF0E2EF16F10451F689859A85AB8563
:10103000BC85F20180839183A283B3838D859E85D5
:10104000AF85B88984839583A683B783FFEF8F1A12
:101050009F0A88E0480E511CE4E08E16910409F0C6
:101060009FCF8B899C8964960FB6F894DEBF0FBE24
:10107000CDBFDF91CF911F910F91FF90EF90DF9047
:10108000CF90BF90AF909F908F907F906F905F9028
:101090004F903F902F9008952F923F924F925F92E2
:1010A0006F927F928F929F92AF92BF92CF92DF9278
:1010B000EF92FF920F931F93CF93DF93CDB7DEB7DD
:1010C00062970FB6F894DEBF0FBECDBF4B01342E32
:1010D000252E80E490E00E94502E898B9A8B482E1A
:1010E000592E612C712CCE0109960E940201C32C4D
:1010F000D22CE12CF12C5301AA0CBB1CAA0CBB1C5A
:10110000AA0CBB1CF501EC0DFD1D00811181228193
:1011100033814481558166817781C4018E0D9F1D85
:101120000E94690129833A834B835C836D837E83AC
:101130008F839887022F132F242F352F462F572F59
:10114000682F792FCE0109960E940C0129873A87D2
:101150004B875C876D877E878F87988B88E0E80E4A
:10116000F11CE0E4CE0ED11CF0E4EF16F10451F6D0
:1011700089859A85AB85BC85F20180839183A283A2
:10118000B3838D859E85AF85B88984839583A68337
:10119000B783FFEF6F1A7F0A88E0480E511CE8E022
:1011A0006E16710409F09FCF89899A8962960FB6ED
:1011B000F894DEBF0FBECDBFDF91CF911F910F918D
:1011C000FF90EF90DF90CF90BF90AF909F908F9067
:1011D0007F906F905F904F903F902F900895AF92C7
:1011E000BF92CF92DF92EF92FF920F931F93CF9314
:1011F000DF93CDB7DEB7A4970FB6F894DEBF0FBE6E
:10120000CDBF7C015B016A0100E010E09801B901EB
:10121000A801CE0101960E94F40000E010E09801C0
:1012200040E050E060E87FE3CE0109960E94F400C0
:1012300000E010E0980140E050E060E87FE3CE017C
:1012400041960E94F40000E010E09801B901A80165
:10125000CE0149960E94F400BCA2ABA2DAA2C9A2B8
:101260009E012F5D3F4FAE014D5D5F4F61E070E02D
:10127000C7010E944B05AE014F5F5F4FBC01C70124
:101280000E94E70641E050E0BC01C7010E945606FB
:10129000A4960FB6F894DEBF0FBECDBFDF91CF91FD
:1012A0001F910F91FF90EF90DF90CF90BF90AF9084
:1012B0000895AF92BF92CF92DF92EF92FF920F9379
:1012C0001F93CF93DF93CDB7DEB7A4970FB6F894F3
:1012D000DEBF0FBECDBF7C015B016A0100E010E004
:1012E0009801B901A801CE0101960E94F40000E026
:1012F00010E020E83FEB40E050E0BA01CE01099653
:101300000E94F40000E010E020E83FE340E050E0FD
:10131000BA01CE0141960E94F40000E010E098016D
:10132000B901A801CE0149960E94F400BCA2ABA26B
:10133000DAA2C9A29E012F5D3F4FAE014D5D5F4F06
:1013400061E070E0C7010E944B05AE014F5F5F4F47
:10135000BC01C7010E94E70641E050E0BC01C701A3
:101360000E945606A4960FB6F894DEBF0FBECDBFFE
:10137000DF91CF911F910F91FF90EF90DF90CF9071
:10138000BF90AF900895AF92BF92CF92DF92EF924D
:10139000FF920F931F93CF93DF93CDB7DEB7A49740
:1013A0000FB6F894DEBF0FBECDBF7C015B016A01B2
:1013B00000E010E0980140E050E060E87FE3CE01FB
:1013C00001960E94F40000E010E09801B901A80124
:1013D000CE0109960E94F40000E010E09801B901E6
:1013E000A801CE0141960E94F40000E010E09801AF
:1013F00040E050E060E87FEBCE0149960E94F400A7
:10140000BCA2ABA2DAA2C9A29E012F5D3F4FAE01E2
:101410004D5D5F4F61E070E0C7010E944B05AE017A
:101420004F5F5F4FBC01C7010E94E70641E050E0FB
:10143000BC01C7010E945606A4960FB6F894DEBF01
:101440000FBECDBFDF91CF911F910F91FF90EF9015
:10145000DF90CF90BF90AF900895AF92BF92CF92A0
:10146000DF92EF92FF920F931F93CF93DF93CDB74D
:10147000DEB7A4970FB6F894DEBF0FBECDBF7C01D8
:101480005B016A0100E010E0980143EF54E065E37E
:101490007FE3CE0101960E94F40000E010E0980185
:1014A00043EF54E065E37FE3CE0109960E94F40028
:1014B00000E010E0980143EF54E065E37FE3CE01E4
:1014C00041960E94F40000E010E0980143EF54E0E0
:1014D00065E37FEBCE0149960E94F400BCA2ABA26B
:1014E000DAA2C9A29E012F5D3F4FAE014D5D5F4F55
:1014F00061E070E0C7010E944B05AE014F5F5F4F96
:10150000BC01C7010E94E70641E050E0BC01C701F1
:101510000E945606A4960FB6F894DEBF0FBECDBF4C
:10152000DF91CF911F910F91FF90EF90DF90CF90BF
:10153000BF90AF900895AF92BF92CF92DF92EF929B
:10154000FF920F931F93CF93DF93CDB7DEB7A4978E
:101550000FB6F894DEBF0FBECDBF7C015B016A0100
:1015600000E010E0980140E050E060E87FE3CE0149
:1015700001960E94F40000E010E09801B901A80172
:10158000CE0109960E94F40000E010E09801B90134
:10159000A801CE0141960E94F40000E010E020E88E
:1015A0003FE340E050E0BA01CE0149960E94F400CA
:1015B000BCA2ABA2DAA2C9A29E012F5D3F4FAE0131
:1015C0004D5D5F4F61E070E0C7010E944B05AE01C9
:1015D0004F5F5F4FBC01C7010E94E70641E050E04A
:1015E000BC01C7010E945606A4960FB6F894DEBF50
:1015F0000FBECDBFDF91CF911F910F91FF90EF9064
:10160000DF90CF90BF90AF900895AF92BF92CF92EE
:10161000DF92EF92FF920F931F93CF93DF93CDB79B
:10162000DEB7A4970FB6F894DEBF0FBECDBF7C0126
:101630005B016A0100E010E0980140E050E060E8E2
:101640007FE3CE0101960E94F40000E010E09801D3
:10165000B901A801CE0109960E94F40000E010E053
:101660009801B901A801CE0141960E94F40003EF50
:1016700014E025E33FE3B901A801CE0149960E9499
:10168000F400BCA2ABA2DAA2C9A29E012F5D3F4F1B
:10169000AE014D5D5F4F61E070E0C7010E944B05F8
:1016A000AE014F5F5F4FBC01C7010E94E70641E0FA
:1016B00050E0BC01C7010E945606A4960FB6F894EC
:1016C000DEBF0FBECDBFDF91CF911F910F91FF9075
:1016D000EF90DF90CF90BF90AF9008956F927F9280
:1016E0008F929F92AF92BF92CF92DF92EF92FF9232
:1016F0000F931F93CF93DF93CDB7DEB7C858D109AF
:101700000FB6F894DEBF0FBECDBF7C013B015A017E
:101710004901680100E010E0980140E050E060E815
:101720007FE3CE0101960E94F40000E010E09801F2
:10173000B901A801CE0109960E94F40000E010E072
:101740009801B901A801CE0141960E94F40000E081
:1017500010E09801B901A801CE0149960E94F40059
:1017600000E010E09801B901A801CE0181960E9425
:10177000F40000E010E0980140E050E060E87FE312
:10178000CE0189960E94F40000E010E09801B901B2
:10179000A801CE01C1960E94F40000E010E098017B
:1017A000B901A801CE01C9960E94F40000E010E042
:1017B0009801B901A801CE018F5B9F4F0E94F400F0
:1017C00000E010E09801B901A801CE01875B9F4FAE
:1017D0000E94F40000E010E09801B901A801CE01D8
:1017E0008F5A9F4F0E94F40000E010E0980140E003
:1017F00050E060E87FE3CE01875A9F4F0E94F400DB
:1018000000E010E09801B901A801CE018F599F4F67
:101810000E94F40000E010E09801B901A801CE0197
:1018200087599F4F0E94F40000E010E0980140E0CB
:1018300050E060E87FE3CE018F589F4F0E94F40094
:1018400000E010E09801B901A801CE0187589F4F30
:101850000E94F400CB57DF4F79826882C558D04090
:10186000C957DF4F99828882C758D040CF57DF4F82
:10187000B982A882C158D040CD57DF4FD982C882E3
:10188000C358D0409E012F573F4FAE014B575F4F7B
:1018900062E070E0C7010E944B05AE014F5F5F4FF1
:1018A000BC01C7010E94A50742E050E0BC01C7018E
:1018B0000E945606C857DF4F0FB6F894DEBF0FBE22
:1018C000CDBFDF91CF911F910F91FF90EF90DF90EF
:1018D000CF90BF90AF909F908F907F906F90089522
:1018E0006F927F928F929F92AF92BF92CF92DF9230
:1018F000EF92FF920F931F93CF93DF93CDB7DEB795
:10190000C858D1090FB6F894DEBF0FBECDBF7C0119
:101910003B015A014901680100E010E0980140E0F4
:1019200050E060E87FE3CE0101960E94F40000E001
:1019300010E09801B901A801CE0109960E94F400B7
:1019400000E010E09801B901A801CE0141960E9483
:10195000F40000E010E09801B901A801CE01499619
:101960000E94F40000E010E09801B901A801CE0146
:1019700081960E94F40000E010E0980140E050E001
:1019800060E87FE3CE0189960E94F40000E010E059
:101990009801B901A801CE01C1960E94F40000E0AF
:1019A00010E09801B901A801CE01C9960E94F40087
:1019B00000E010E09801B901A801CE018F5B9F4FB4
:1019C0000E94F40000E010E09801B901A801CE01E6
:1019D000875B9F4F0E94F40000E010E0980140E018
:1019E00050E060E87FE3CE018F5A9F4F0E94F400E1
:1019F00000E010E09801B901A801CE01875A9F4F7D
:101A00000E94F40000E010E09801B901A801CE01A5
:101A10008F599F4F0E94F40000E010E09801B90137
:101A2000A801CE0187599F4F0E94F40000E010E00A
:101A30009801B901A801CE018F589F4F0E94F40070
:101A400000E010E0980140E050E060E87FEBCE015C
:101A500087589F4F0E94F400CB57DF4F79826882EE
:101A6000C558D040C957DF4F99828882C758D040A7
:101A7000CF57DF4FB982A882C158D040CD57DF4F32
:101A8000D982C882C358D0409E012F573F4FAE0124
:101A90004B575F4F62E070E0C7010E944B05AE01FB
:101AA0004F5F5F4FBC01C7010E94A50742E050E0B5
:101AB000BC01C7010E945606C857DF4F0FB6F89405
:101AC000DEBF0FBECDBFDF91CF911F910F91FF9071
:101AD000EF90DF90CF90BF90AF909F908F907F90CE
:101AE0006F9008956F927F928F929F92AF92BF9264
:101AF000CF92DF92EF92FF920F931F93CF93DF93DA
:101B0000CDB7DEB7C858D1090FB6F894DEBF0FBE07
:101B1000CDBF7C013B015A014901680100E010E0A2
:101B2000980140E050E060E87FE3CE0101960E941A
:101B3000F40000E010E09801B901A801CE01099677
:101B40000E94F40000E010E09801B901A801CE0164
:101B500041960E94F40000E010E09801B901A8014C
:101B6000CE0149960E94F40000E010E09801B9010E
:101B7000A801CE0181960E94F40000E010E09801D7
:101B8000B901A801CE0189960E94F40000E010E09E
:101B9000980140E050E060E87FE3CE01C1960E94EA
:101BA000F40000E010E09801B901A801CE01C99647
:101BB0000E94F40000E010E09801B901A801CE01F4
:101BC0008F5B9F4F0E94F40000E010E0980140E01E
:101BD00050E060E87FE3CE01875B9F4F0E94F400F6
:101BE00000E010E09801B901A801CE018F5A9F4F83
:101BF0000E94F40000E010E09801B901A801CE01B4
:101C0000875A9F4F0E94F40000E010E09801B9014C
:101C1000A801CE018F599F4F0E94F40000E010E010
:101C20009801B901A801CE0187599F4F0E94F40085
:101C300000E010E09801B901A801CE018F589F4F34
:101C40000E94F40000E010E0980140E050E060E8FD
:101C50007FE3CE0187589F4F0E94F400CB57DF4FA0
:101C600079826882C558D040C957DF4F99828882EF
:101C7000C758D040CF57DF4FB982A882C158D04053
:101C8000CD57DF4FD982C882C358D0409E012F570D
:101C90003F4FAE014B575F4F62E070E0C7010E94BB
:101CA0004B05AE014F5F5F4FBC01C7010E94A50706
:101CB00042E050E0BC01C7010E945606C857DF4F02
:101CC0000FB6F894DEBF0FBECDBFDF91CF911F914D
:101CD0000F91FF90EF90DF90CF90BF90AF909F90CB
:101CE0008F907F906F9008956F927F928F929F92C6
:101CF000AF92BF92CF92DF92EF92FF920F931F931A
:101D0000CF93DF93CDB7DEB7C858D1090FB6F8949B
:101D1000DEBF0FBECDBF7C013B015A014901680106
:101D200000E010E09801B901A801CE0101960E94DF
:101D3000F40000E010E0980140E050E060E87FE34C
:101D4000CE0109960E94F40000E010E09801B9016C
:101D5000A801CE0141960E94F40000E010E0980135
:101D6000B901A801CE0149960E94F40000E010E0FC
:101D70009801B901A801CE0181960E94F40000E00B
:101D800010E09801B901A801CE0189960E94F400E3
:101D900000E010E0980140E050E060E87FE3CE0111
:101DA000C1960E94F40000E010E09801B901A8017A
:101DB000CE01C9960E94F40000E010E09801B9013C
:101DC000A801CE018F5B9F4F0E94F40000E010E05D
:101DD0009801B901A801CE01875B9F4F0E94F400D2
:101DE00000E010E09801B901A801CE018F5A9F4F81
:101DF0000E94F40000E010E0980140E050E060E84C
:101E00007FE3CE01875A9F4F0E94F40000E010E06C
:101E1000980140E050E060E87FE3CE018F599F4F8A
:101E20000E94F40000E010E09801B901A801CE0181
:101E300087599F4F0E94F40000E010E09801B9011B
:101E4000A801CE018F589F4F0E94F40000E010E0DF
:101E50009801B901A801CE0187589F4F0E94F40054
:101E6000CB57DF4F79826882C558D040C957DF4FC2
:101E700099828882C758D040CF57DF4FB982A88255
:101E8000C158D040CD57DF4FD982C882C358D04007
:101E90009E012F573F4FAE014B575F4F62E070E0FE
:101EA000C7010E944B05AE014F5F5F4FBC01C701E8
:101EB0000E94A50742E050E0BC01C7010E945606FF
:101EC000C857DF4F0FB6F894DEBF0FBECDBFDF910E
:101ED000CF911F910F91FF90EF90DF90CF90BF9027
:101EE000AF909F908F907F906F9008956F927F92A8
:101EF0008F929F92AF92BF92CF92DF92EF92FF921A
:101F00000F931F93CF93DF93CDB7DEB7C858D10996
:101F10000FB6F894DEBF0FBECDBF7C013B015A0166
:101F20004901680100E010E09801B901A801CE0163
:101F300001960E94F40000E010E09801B901A801A8
:101F4000CE0109960E94F40000E010E09801B9016A
:101F5000A801CE0141960E94F40000E010E0980133
:101F600040E050E060E87FE3CE0149960E94F40033
:101F700000E010E0980140E050E060E87FE3CE012F
:101F800081960E94F40000E010E09801B901A801D8
:101F9000CE0189960E94F40000E010E09801B9019A
:101FA000A801CE01C1960E94F40000E010E0980163
:101FB000B901A801CE01C9960E94F40000E010E02A
:101FC0009801B901A801CE018F5B9F4F0E94F400D8
:101FD00000E010E0980140E050E060E87FE3CE01CF
:101FE000875B9F4F0E94F40000E010E09801B90168
:101FF000A801CE018F5A9F4F0E94F40000E010E02C
:102000009801B901A801CE01875A9F4F0E94F400A0
:1020100000E010E09801B901A801CE018F599F4F4F
:102020000E94F40000E010E09801B901A801CE017F
:1020300087599F4F0E94F40000E010E0980140E0B3
:1020400050E060E87FE3CE018F589F4F0E94F4007C
:1020500000E010E09801B901A801CE0187589F4F18
:102060000E94F400CB57DF4F79826882C558D04078
:10207000C957DF4F99828882C758D040CF57DF4F6A
:10208000B982A882C158D040CD57DF4FD982C882CB
:10209000C358D0409E012F573F4FAE014B575F4F63
:1020A00062E070E0C7010E944B05AE014F5F5F4FD9
:1020B000BC01C7010E94A50742E050E0BC01C70176
:1020C0000E945606C857DF4F0FB6F894DEBF0FBE0A
:1020D000CDBFDF91CF911F910F91FF90EF90DF90D7
:1020E000CF90BF90AF909F908F907F906F9008950A
:1020F0006F927F928F929F92AF92BF92CF92DF9218
:10210000EF92FF920F931F93CF93DF93CDB7DEB77C
:10211000C858D1090FB6F894DEBF0FBECDBF7C0101
:102120003B015A014901680100E010E0980140E0DC
:1021300050E060E87FE3CE0101960E94F40000E0E9
:1021400010E09801B901A801CE0109960E94F4009F
:1021500000E010E09801B901A801CE0141960E946B
:10216000F40000E010E09801B901A801CE01499601
:102170000E94F40000E010E09801B901A801CE012E
:1021800081960E94F40000E010E020E03FE3B901F6
:10219000A801CE0189960E94F40000E010E020E042
:1021A0003FEB40E050E060E07FE3CE01C1960E944B
:1021B000F40000E010E09801B901A801CE01C99631
:1021C0000E94F40000E010E09801B901A801CE01DE
:1021D0008F5B9F4F0E94F40000E010E020E03FEB97
:1021E00040E050E060E07FE3CE01875B9F4F0E94BC
:1021F000F40000E010E020E03FE3B901A801CE01C7
:102200008F5A9F4F0E94F40000E010E09801B9013E
:10221000A801CE01875A9F4F0E94F40000E010E011
:102220009801B901A801CE018F599F4F0E94F40077
:1022300000E010E09801B901A801CE0187599F4F35
:102240000E94F40000E010E09801B901A801CE015D
:102250008F589F4F0E94F40000E010E0980140E08A
:1022600050E060E87FE3CE0187589F4F0E94F40062
:10227000CB57DF4F79826882C558D040C957DF4FAE
:1022800099828882C758D040CF57DF4FB982A88241
:10229000C158D040CD57DF4FD982C882C358D040F3
:1022A0009E012F573F4FAE014B575F4F62E070E0EA
:1022B000C7010E944B05AE014F5F5F4FBC01C701D4
:1022C0000E94A50742E050E0BC01C7010E945606EB
:1022D000C857DF4F0FB6F894DEBF0FBECDBFDF91FA
:1022E000CF911F910F91FF90EF90DF90CF90BF9013
:1022F000AF909F908F907F906F9008956F927F9294
:102300008F929F92AF92BF92CF92DF92EF92FF9205
:102310000F931F93CF93DF93CDB7DEB7C858D10982
:102320000FB6F894DEBF0FBECDBF7C013B015A0152
:102330004901680100E010E0980140E050E060E8E9
:102340007FE3CE0101960E94F40000E010E09801C6
:10235000B901A801CE0109960E94F40000E010E046
:102360009801B901A801CE0141960E94F40000E055
:1023700010E09801B901A801CE0149960E94F4002D
:1023800000E010E09801B901A801CE0181960E94F9
:10239000F40000E010E09801B901A801CE0189968F
:1023A0000E94F40000E010E020E83FE340E050E04D
:1023B000BA01CE01C1960E94F40000E010E098013D
:1023C000B901A801CE01C9960E94F40000E010E016
:1023D0009801B901A801CE018F5B9F4F0E94F400C4
:1023E00000E010E020E83FE340E050E0BA01CE0119
:1023F000875B9F4F0E94F40000E010E09801B90154
:10240000A801CE018F5A9F4F0E94F40000E010E017
:102410009801B901A801CE01875A9F4F0E94F4008C
:1024200000E010E09801B901A801CE018F599F4F3B
:102430000E94F40000E010E09801B901A801CE016B
:1024400087599F4F0E94F40000E010E09801B90105
:10245000A801CE018F589F4F0E94F40000E010E0C9
:10246000980140E050E060E87FE3CE0187589F4F3D
:102470000E94F400CB57DF4F79826882C558D04064
:10248000C957DF4F99828882C758D040CF57DF4F56
:10249000B982A882C158D040CD57DF4FD982C882B7
:1024A000C358D0409E012F573F4FAE014B575F4F4F
:1024B00062E070E0C7010E944B05AE014F5F5F4FC5
:1024C000BC01C7010E94A50742E050E0BC01C70162
:1024D0000E945606C857DF4F0FB6F894DEBF0FBEF6
:1024E000CDBFDF91CF911F910F91FF90EF90DF90C3
:1024F000CF90BF90AF909F908F907F906F900895F6
:102500002F923F924F925F926F927F928F929F9203
:10251000AF92BF92CF92DF92EF92FF920F931F93F1
:10252000CF93DF93CDB7DEB7A4970FB6F894DEBF95
:102530000FBECDBF7C011B016A01B901882777FD61
:102540008095982F0E946C2B2BED3FE049E450E4DE
:102550000E944E2D20E030E044E353E40E94A02A84
:1025600020E030E040E05FE30E944E2D4B015C0133
:102570000E949D2A2B013C0100E010E09801AB0174
:10258000BC01CE0101960E94F400C501B4010E9475
:10259000B12D4B015C01B7FAB094B7F8B094950136
:1025A000840140E050E0BA01CE0109960E94F40097
:1025B0009501840140E050E0BA01CE0141960E94AD
:1025C000F40000E010E09801B301A201CE014996A9
:1025D0000E94F4003CA22BA2DAA2C9A29E012F5DA8
:1025E0003F4FAE014D5D5F4F61E070E0C7010E945B
:1025F0004B05AE014F5F5F4FBC01C7010E94E7066C
:1026000041E050E0BC01C7010E945606A4960FB6F7
:10261000F894DEBF0FBECDBFDF91CF911F910F9118
:10262000FF90EF90DF90CF90BF90AF909F908F90F2
:102630007F906F905F904F903F902F9008952F92D2
:102640003F924F925F926F927F928F929F92AF9242
:10265000BF92CF92DF92EF92FF920F931F93CF938F
:10266000DF93CDB7DEB7A4970FB6F894DEBF0FBEE9
:10267000CDBF7C011B016A01B901882777FD8095D8
:10268000982F0E946C2B2BED3FE049E450E40E9410
:102690004E2D20E030E044E353E40E94A02A20E0E5
:1026A00030E040E05FE30E944E2D4B015C010E9450
:1026B0009D2A2B013C0100E010E09801AB01BC0118
:1026C000CE0101960E94F400C501B4010E94B12D13
:1026D0004B015C01AB01BC01705800E010E09801B7
:1026E000CE0109960E94F40000E010E09801B501C7
:1026F000A401CE0141960E94F40000E010E0980190
:10270000B301A201CE0149960E94F4003CA22BA283
:10271000DAA2C9A29E012F5D3F4FAE014D5D5F4F12
:1027200061E070E0C7010E944B05AE014F5F5F4F53
:10273000BC01C7010E94E70641E050E0BC01C701AF
:102740000E945606A4960FB6F894DEBF0FBECDBF0A
:10275000DF91CF911F910F91FF90EF90DF90CF907D
:10276000BF90AF909F908F907F906F905F904F90B1
:102770003F902F9008954F925F926F927F92AF9209
:10278000BF92CF92DF92EF92FF920F931F93CF935E
:10279000DF93CDB7DEB7A4970FB6F894DEBF0FBEB8
:1027A000CDBF7C015B016A01B901882777FD809567
:1027B000982F0E946C2B2BED3FE049E450E40E94DF
:1027C0004E2D20E030E044E353E40E94A02A2B0188
:1027D0003C01905820E030E040E05FE30E944E2D45
:1027E0000E940D2B8B019C0140E050E0BA01CE010C
:1027F00001960E94F40000E010E09801B901A801E0
:10280000CE0109960E94F40000E010E09801B901A1
:10281000A801CE0141960E94F40020E030E040E0A3
:102820005FE3C301B2010E944E2D0E940D2B8B016C
:102830009C0140E050E0BA01CE0149960E94F400AC
:10284000BCA2ABA2DAA2C9A29E012F5D3F4FAE018E
:102850004D5D5F4F61E070E0C7010E944B05AE0126
:102860004F5F5F4FBC01C7010E94E70641E050E0A7
:10287000BC01C7010E945606A4960FB6F894DEBFAD
:102880000FBECDBFDF91CF911F910F91FF90EF90C1
:10289000DF90CF90BF90AF907F906F905F904F9000
:1028A00008952F923F924F925F926F927F928F92F4
:1028B0009F92AF92BF92CF92DF92EF92FF920F93CF
:1028C0001F93CF93DF93CDB7DEB7CC50D2400FB676
:1028D000F894DEBF0FBECDBF5C013B012A01490168
:1028E000180100E010E0980140E050E060E87FE36C
:1028F000CE0101960E94F40000E010E09801B901B9
:10290000A801CE0109960E94F40000E010E09801B1
:10291000B901A801CE0141960E94F40000E010E048
:102920009801B901A801CE0149960E94F40000E087
:1029300010E09801B901A801CE0181960E94F4002F
:1029400000E010E09801B901A801CE0189960E942B
:10295000F40000E010E09801B901A801CE01C19691
:102960000E94F40000E010E09801B901A801CE0136
:10297000C9960E94F40000E010E09801B901A80196
:10298000CE018F5B9F4F0E94F40000E010E09801A1
:1029900040E050E060E87FE3CE01875B9F4F0E94FC
:1029A000F40000E010E09801B901A801CE018F5AAF
:1029B0009F4F0E94F40000E010E09801B901A801C7
:1029C000CE01875A9F4F0E94F40000E010E098016A
:1029D000B901A801CE018F599F4F0E94F40000E079
:1029E00010E09801B901A801CE0187599F4F0E94BC
:1029F000F40000E010E09801B901A801CE018F5861
:102A00009F4F0E94F40000E010E09801B901A80176
:102A1000CE0187589F4F0E94F40000E010E098011B
:102A2000B901A801CE018F579F4F0E94F40000E02A
:102A300010E09801B901A801CE0187579F4F0E946D
:102A4000F40000E010E0980140E050E060E87FE32F
:102A5000CE018F569F4F0E94F40000E010E09801D5
:102A6000B901A801CE0187569F4F0E94F40000E0F3
:102A700010E09801B901A801CE018F559F4F0E9427
:102A8000F40000E010E09801B901A801CE018755DB
:102A90009F4F0E94F40000E010E09801B901A801E6
:102AA000CE018F549F4F0E94F40000E010E0980187
:102AB000B901A801CE0187549F4F0E94F40000E0A5
:102AC00010E09801B901A801CE018F539F4F0E94D9
:102AD000F40000E010E09801B901A801CE0187538D
:102AE0009F4F0E94F40000E010E09801B901A80196
:102AF000CE018F529F4F0E94F40000E010E0980139
:102B000040E050E060E87FE3CE0187529F4F0E9493
:102B1000F40000E010E09801B901A801CE018F5146
:102B20009F4F0E94F40000E010E09801B901A80155
:102B3000CE0187519F4F0E94F40000E010E0980101
:102B4000B901A801CE018F509F4F0E94F40000E010
:102B500010E09801B901A801CE0187509F4F0E9453
:102B6000F40000E010E09801B901A801CE018F5FE8
:102B70009E4F0E94F40000E010E09801B901A80106
:102B8000CE01875F9E4F0E94F40000E010E09801A4
:102B9000B901A801CE018F5E9E4F0E94F40000E0B3
:102BA00010E09801B901A801CE01875E9E4F0E94F6
:102BB000F40000E010E0980140E050E060E87FE3BE
:102BC000CE018F5D9E4F0E94F40000E010E098015E
:102BD000B901A801CE01875D9E4F0E94F40000E07C
:102BE00010E09801B901A801CE018F5C9E4F0E94B0
:102BF000F40000E010E09801B901A801CE01875C63
:102C00009E4F0E94F40000E010E09801B901A80175
:102C1000CE018F5B9E4F0E94F40000E010E098010F
:102C2000B901A801CE01875B9E4F0E94F40000E02D
:102C300010E09801B901A801CE018F5A9E4F0E9461
:102C4000F40000E010E09801B901A801CE01875A14
:102C50009E4F0E94F40000E010E09801B901A80125
:102C6000CE018F599E4F0E94F40000E010E09801C1
:102C7000B901A801CE0187599E4F0E94F40000E0DF
:102C800010E0980140E050E060E87FE3CE018F580B
:102C90009E4F0E94F40000E010E09801B901A801E5
:102CA000CE0187589E4F0E94F40000E010E098018A
:102CB000B901A801CE018F579E4F0E94F40000E099
:102CC00010E09801B901A801CE0187579E4F0E94DC
:102CD000F40000E010E09801B901A801CE018F5680
:102CE0009E4F0E94F40000E010E09801B901A80195
:102CF000CE0187569E4F0E94F40000E010E098013C
:102D0000B901A801CE018F559E4F0E94F40000E04A
:102D100010E0980140E050E060E87FE3CE01875585
:102D20009E4F0E94F40000E010E09801B901A80154
:102D3000CE018F549E4F0E94F40000E010E09801F5
:102D4000B901A801CE0187549E4F0E94F40000E013
:102D500010E09801B901A801CE018F539E4F0E9447
:102D6000F40000E010E09801B901A801CE018753FA
:102D70009E4F0E94F40000E010E09801B901A80104
:102D8000CE018F529E4F0E94F40000E010E09801A7
:102D9000B901A801CE0187529E4F0E94F40000E0C5
:102DA00010E09801B901A801CE018F519E4F0E94F9
:102DB000F40000E010E09801B901A801CE018751AC
:102DC0009E4F0E94F40000E010E09801B901A801B4
:102DD000CE018F509E4F0E94F40000E010E0980159
:102DE00040E050E060E87FE3CE0187509E4F0E94B4
:102DF000F400C95FDD4F79826882C750D240C75F57
:102E0000DD4F99828882C950D240C55FDD4FF9827B
:102E1000E882CB50D240CF5FDD4F59824882C1500B
:102E2000D240CD5FDD4F39822882C350D240CB5F84
:102E3000DD4FD982C882C550D2409E012F5F3D4FE1
:102E4000AE01495F5D4F63E070E0C5010E944B0534
:102E5000AE014F5F5F4FBC01C5010E944C0843E0CB
:102E600050E0BC01C5010E945606C45FDD4F0FB69D
:102E7000F894DEBF0FBECDBFDF91CF911F910F91B0
:102E8000FF90EF90DF90CF90BF90AF909F908F908A
:102E90007F906F905F904F903F902F9008952F926A
:102EA0003F924F925F926F927F928F929F92AF92DA
:102EB000BF92CF92DF92EF92FF920F931F93CF9327
:102EC000DF93CDB7DEB7CC50D2400FB6F894DEBF5B
:102ED0000FBECDBF5C013B012A014901180100E092
:102EE00010E0980140E050E060E87FE3CE010196F9
:102EF0000E94F40000E010E09801B901A801CE01A1
:102F000009960E94F40000E010E09801B901A801C0
:102F1000CE0141960E94F40000E010E09801B90152
:102F2000A801CE0149960E94F40000E010E098014B
:102F3000B901A801CE0181960E94F40000E010E0E2
:102F40009801B901A801CE0189960E94F40000E021
:102F500010E09801B901A801CE01C1960E94F400C9
:102F600000E010E09801B901A801CE01C9960E94C5
:102F7000F40000E010E09801B901A801CE018F5BD8
:102F80009F4F0E94F40000E010E0980140E050E004
:102F900060E87FE3CE01875B9F4F0E94F40000E072
:102FA00010E09801B901A801CE018F5A9F4F0E94ED
:102FB000F40000E010E09801B901A801CE01875AA1
:102FC0009F4F0E94F40000E010E09801B901A801B1
:102FD000CE018F599F4F0E94F40000E010E098014D
:102FE000B901A801CE0187599F4F0E94F40000E06B
:102FF00010E09801B901A801CE018F589F4F0E949F
:10300000F40000E010E09801B901A801CE01875852
:103010009F4F0E94F40000E010E09801B901A80160
:10302000CE018F579F4F0E94F40000E010E09801FE
:10303000B901A801CE0187579F4F0E94F40000E01C
:1030400010E0980140E050E060E87FE3CE018F5649
:103050009F4F0E94F40000E010E09801B901A80120
:10306000CE0187569F4F0E94F40000E010E09801C7
:10307000B901A801CE018F559F4F0E94F40000E0D6
:1030800010E09801B901A801CE0187559F4F0E9419
:10309000F40000E010E09801B901A801CE018F54BE
:1030A0009F4F0E94F40000E010E09801B901A801D0
:1030B000CE0187549F4F0E94F40000E010E0980179
:1030C000B901A801CE018F539F4F0E94F40000E088
:1030D00010E09801B901A801CE0187539F4F0E94CB
:1030E000F40000E010E09801B901A801CE018F5270
:1030F0009F4F0E94F40000E010E0980140E050E093
:1031000060E87FE3CE0187529F4F0E94F40000E009
:1031100010E09801B901A801CE018F519F4F0E9484
:10312000F40000E010E09801B901A801CE01875138
:103130009F4F0E94F40000E010E09801B901A8013F
:10314000CE018F509F4F0E94F40000E010E09801E4
:10315000B901A801CE0187509F4F0E94F40000E002
:1031600010E09801B901A801CE018F5F9E4F0E9427
:10317000F40000E010E09801B901A801CE01875FDA
:103180009E4F0E94F40000E010E09801B901A801F0
:10319000CE018F5E9E4F0E94F40000E010E0980187
:1031A000B901A801CE01875E9E4F0E94F40000E0A5
:1031B00010E0980140E050E060E87FE3CE018F5DD1
:1031C0009E4F0E94F40000E010E09801B901A801B0
:1031D000CE01875D9E4F0E94F40000E010E0980150
:1031E000B901A801CE018F5C9E4F0E94F40000E05F
:1031F00010E09801B901A801CE01875C9E4F0E94A2
:10320000F40000E010E09801B901A801CE018F5B45
:103210009E4F0E94F40000E010E09801B901A8015F
:10322000CE01875B9E4F0E94F40000E010E0980101
:10323000B901A801CE018F5A9E4F0E94F40000E010
:1032400010E09801B901A801CE01875A9E4F0E9453
:10325000F40000E010E09801B901A801CE018F59F7
:103260009E4F0E94F40000E010E0980140E050E022
:1032700060E87FE3CE0187599E4F0E94F40000E092
:1032800010E09801B901A801CE018F589E4F0E940D
:10329000F40000E010E09801B901A801CE018758C0
:1032A0009E4F0E94F40000E010E09801B901A801CF
:1032B000CE018F579E4F0E94F40000E010E098016D
:1032C000B901A801CE0187579E4F0E94F40000E08B
:1032D00010E09801B901A801CE018F569E4F0E94BF
:1032E000F40000E010E09801B901A801CE01875672
:1032F0009E4F0E94F40000E010E09801B901A8017F
:10330000CE018F559E4F0E94F40000E010E098011E
:10331000B901A801CE0187559E4F0E94F40000E03C
:1033200010E09801B901A801CE018F549E4F0E9470
:10333000F40000E010E0980140E050E060E87FE336
:10334000CE0187549E4F0E94F40000E010E09801E7
:10335000B901A801CE018F539E4F0E94F40000E0F6
:1033600010E09801B901A801CE0187539E4F0E9439
:10337000F40000E010E09801B901A801CE018F52DD
:103380009E4F0E94F40000E010E09801B901A801EE
:10339000CE0187529E4F0E94F40000E010E0980199
:1033A000B901A801CE018F519E4F0E94F40000E0A8
:1033B00010E09801B901A801CE0187519E4F0E94EB
:1033C000F40000E010E0980140E050E060E87FE3A6
:1033D000CE018F509E4F0E94F40000E010E0980153
:1033E000B901A801CE0187509E4F0E94F400C95F29
:1033F000DD4F79826882C750D240C75FDD4F998226
:103400008882C950D240C55FDD4FF982E882CB5037
:10341000D240CF5FDD4F59824882C150D240CD5F4C
:10342000DD4F39822882C350D240CB5FDD4FD98235
:10343000C882C550D2409E012F5F3D4FAE01495F0B
:103440005D4F63E070E0C5010E944B05AE014F5F28
:103450005F4FBC01C5010E944C0843E050E0BC0135
:10346000C5010E945606C45FDD4F0FB6F894DEBF5B
:103470000FBECDBFDF91CF911F910F91FF90EF90C5
:10348000DF90CF90BF90AF909F908F907F906F9084
:103490005F904F903F902F9008952F923F924F92C0
:1034A0005F926F927F928F929F92AF92BF92CF92D4
:1034B000DF92EF92FF920F931F93CF93DF93CDB7DD
:1034C000DEB7C451D2400FB6F894DEBF0FBECDBFF9
:1034D000C35FDD4F99838883CD50D2402B01C15FFC
:1034E000DD4F59834883CF50D2403901CF5EDD4F45
:1034F00019830883C151D2401701CD5EDD4FD982B7
:10350000C882C351D240B501882777FD8095982F96
:103510000E946C2B2BED3FE049E450E40E944E2DBD
:1035200020E030E044E353E40E94A02A4B015C0118
:1035300000E010E0980140E050E060E87FE3CE0159
:1035400001960E94F40000E010E09801B901A80182
:10355000CE0109960E94F40000E010E09801B90144
:10356000A801CE0141960E94F40000E010E098010D
:10357000B901A801CE0149960E94F40000E010E0D4
:103580009801B901A801CE0181960E94F40000E0E3
:1035900010E09801B901A801CE0189960E94F400BB
:1035A00000E010E09801B901A801CE01C1960E9487
:1035B000F40000E010E09801B901A801CE01C9961D
:1035C0000E94F40000E010E09801B901A801CE01CA
:1035D0008F5B9F4F0E94F40000E010E0980140E0F4
:1035E00050E060E87FE3CE01875B9F4F0E94F400CC
:1035F00000E010E09801B901A801CE018F5A9F4F59
:103600000E94F40000E010E09801B901A801CE0189
:10361000875A9F4F0E94F40000E010E09801B90122
:10362000A801CE018F599F4F0E94F40000E010E0E6
:103630009801B901A801CE0187599F4F0E94F4005B
:1036400000E010E09801B901A801CE018F589F4F0A
:103650000E94F40000E010E09801B901A801CE0139
:1036600087589F4F0E94F40000E010E09801B901D4
:10367000A801CE018F579F4F0E94F40000E010E098
:103680009801B901A801CE0187579F4F0E94F4000D
:1036900000E010E0980140E050E060E87FE3CE01F8
:1036A0008F569F4F0E94F40000E010E09801B9018E
:1036B000A801CE0187569F4F0E94F40000E010E061
:1036C0009801B901A801CE018F559F4F0E94F400C7
:1036D00000E010E09801B901A801CE0187559F4F85
:1036E0000E94F40000E010E09801B901A801CE01A9
:1036F0008F549F4F0E94F40000E010E09801B90140
:10370000A801CE0187549F4F0E94F40000E010E012
:103710009801B901A801CE018F539F4F0E94F40078
:1037200000E010E09801B901A801CE0187539F4F36
:103730000E94F40000E010E09801B901A801CE0158
:103740008F529F4F0E94F40000E010E0980140E08B
:1037500050E060E87FE3CE0187529F4F0E94F40063
:1037600000E010E09801B901A801CE018F519F4FF0
:103770000E94F40000E010E09801B901A801CE0118
:1037800087519F4F0E94F40000E010E09801B901BA
:10379000A801CE018F509F4F0E94F40000E010E07E
:1037A0009801B901A801CE0187509F4F0E94F400F3
:1037B00000E010E09801B901A801CE018F5F9E4F93
:1037C0000E94F40000E010E09801B901A801CE01C8
:1037D000875F9E4F0E94F40000E010E09801B9015D
:1037E000A801CE018F5E9E4F0E94F40000E010E021
:1037F0009801B901A801CE01875E9E4F0E94F40096
:1038000000E010E0980140E050E060E87FE3CE0186
:103810008F5D9E4F0E94F40000E010E09801B90116
:10382000A801CE01875D9E4F0E94F40000E010E0E9
:103830009801B901A801CE018F5C9E4F0E94F4004F
:1038400000E010E09801B901A801CE01875C9E4F0D
:103850000E94F40000E010E09801B901A801CE0137
:103860008F5B9E4F0E94F40000E010E09801B901C8
:10387000A801CE01875B9E4F0E94F40000E010E09B
:103880009801B901A801CE018F5A9E4F0E94F40001
:1038900000E010E09801B901A801CE01875A9E4FBF
:1038A0000E94F40000E010E09801B901A801CE01E7
:1038B0008F599E4F0E94F40000E010E0980140E014
:1038C00050E060E87FE3CE0187599E4F0E94F400EC
:1038D00000E010E09801B901A801CE018F589E4F79
:1038E0000E94F40000E010E09801B901A801CE01A7
:1038F00087589E4F0E94F40000E010E09801B90143
:10390000A801CE018F579E4F0E94F40000E010E006
:103910009801B901A801CE0187579E4F0E94F4007B
:1039200000E010E09801B901A801CE018F569E4F2A
:103930000E94F40000E010E09801B901A801CE0156
:1039400087569E4F0E94F40000E010E09801B901F4
:10395000A801CE018F559E4F0E94F40000E010E0B8
:103960009801B901A801CE0187559E4F0E94F4002D
:10397000C501B4010E949D2A6B017C018B019C0151
:1039800040E050E0BA01CE018F549E4F0E94F400F7
:10399000C501B4010E94B12D4B015C0100E010E0B3
:1039A0009801AB01BC01CE0187549E4F0E94F400E8
:1039B00000E010E09801B901A801CE018F539E4F9D
:1039C0000E94F40000E010E09801B901A801CE01C6
:1039D00087539E4F0E94F40000E010E09801B90167
:1039E000A801CE018F529E4F0E94F40000E010E02B
:1039F0009801B901A801CE0187529E4F0E94F400A0
:103A000000E010E09801B901A801CE018F519E4F4E
:103A10000E94F40000E010E09801B901A801CE0175
:103A200087519E4F0E94F40000E010E09801B5011C
:103A3000A401CE018F509E4F0E94F4009701860191
:103A400040E050E0BA01CE0187509E4F0E94F40042
:103A5000C95FDD4F59824882C750D240C75FDD4FF2
:103A600079826882C950D240C55FDD4F3982288291
:103A7000CB50D240C15FDD4F88819981CF50D24079
:103A8000CF5FDD4F99838883C150D240CF5EDD4F39
:103A900088819981C151D240CD5FDD4F9983888360
:103AA000C350D240CD5EDD4F88819981C351D24051
:103AB000CB5FDD4F99838883C550D2409E012F5F35
:103AC0003D4FAE01495F5D4F63E070E0C35FDD4F86
:103AD00088819981CD50D2400E944B05AE014F5F45
:103AE0005F4FBC01C35FDD4F88819981CD50D240CB
:103AF0000E944C0843E050E0BC01C35FDD4F888169
:103B00009981CD50D2400E945606CC5EDD4F0FB653
:103B1000F894DEBF0FBECDBFDF91CF911F910F9103
:103B2000FF90EF90DF90CF90BF90AF909F908F90DD
:103B30007F906F905F904F903F902F90089588E016
:103B400091E00E94E628089580E090E00E941533FD
:103B50000E94CA2F0E94C52F60E177E20E94222EA8
:103B6000BC0180E090E00E941B330895CF93DF9367
:103B7000EC010E94E628CE0101960E941202CE01BD
:103B800002960E949128CE0103960E94B60266E832
:103B900070E0CE010E94F228CE010E94A41D8FEF9A
:103BA0008ABB1E821D8218861F82DF91CF910895E5
:103BB00075B321E030E0C901062E02C0880F991FBD
:103BC0000A94E2F78095872385BB85B302C0440F32
:103BD000551F6A95E2F7482B45BB08952FEF24BB8C
:103BE00040E050E064E070E00E94D81D0895AF927C
:103BF000BF92CF92DF92EF92FF920F931F93CF93DA
:103C0000DF9300D000D000D0CDB7DEB78C01CB0160
:103C10008F7099279A838983CB01807F9927959507
:103C200087959595879595958795959587959C8387
:103C30008B8366277F70872F880F880B7D838E8309
:103C40008FEF8ABB84BB89818BBB41E050E062E08F
:103C500070E0C8010E94D81D41E050E063E070E0D0
:103C6000C8010E94D81D40E050E063E070E0C80148
:103C70000E94D81D40E050E062E070E0C8010E9460
:103C8000D81D680184E0C80ED11C6AE070E0C6014E
:103C90000E94C6297E0193E0E90EF11C5E01E7E077
:103CA000AE0EB11C41E050E063E070E0C8010E943C
:103CB000D81D40E050E063E070E0C8010E94D81DCC
:103CC000F7018081F2E0EF0EF11C8BBB6AE070E03F
:103CD000C6010E94C629EA14FB0421F741E050E026
:103CE00063E070E0C8010E94D81D40E050E063E04E
:103CF00070E0C8010E94D81D41E050E064E070E02F
:103D0000C8010E94D81D26960FB6F894DEBF0FBEDC
:103D1000CDBFDF91CF911F910F91FF90EF90DF907A
:103D2000CF90BF90AF9008957BB321E030E0C90100
:103D3000062E02C0880F991F0A94E2F78095872308
:103D40008BBB8BB302C0440F551F6A95E2F7482B1B
:103D50004BBB0895FF920F931F93CF93DF93EC011A
:103D60008A01FF24FA94F7BAF7BA28BB0E94F71D1C
:103D7000A80164E070E0CE010E94941E41E050E092
:103D800066E070E0CE010E94941E40E050E066E0E4
:103D900070E0CE010E94941EF7BA18BACE010E94BC
:103DA000EE1DDF91CF911F910F91FF900895FF922B
:103DB0000F931F93CF93DF93EC018A01F22E17BA72
:103DC0000E94F71D41E050E065E070E0CE010E94E6
:103DD000941EA80164E070E0CE010E94941E06B318
:103DE00010E08FEF87BBF11004C01BBACE010E9418
:103DF000EE1DC801DF91CF911F910F91FF900895A3
:103E0000CF93DF93EC01882777FD8095982F0E9450
:103E10006C2B2BED3FE049E450E40E944E2D20E056
:103E200030E044EB53E40E94A02A0E94B12DAB0184
:103E3000BC0122E030E0CE0104960E94D429AB01FF
:103E4000BC01CE0103960E942303DF91CF91089518
:103E50008F929F92AF92BF92CF92DF92EF92FF929A
:103E60000F931F93CF93DF93CDB7DEB728970FB68D
:103E7000F894DEBF0FBECDBF5C0119821A821B828F
:103E80001C821D821E821F8218864B01880C991C81
:103E9000880C991C880C991CE12CF12C8E010F5F69
:103EA0001F4F0F2EFAE9CF2EF0E0DF2EF02DB701D5
:103EB000680D791D20E040E050E0C5010E94D71E4A
:103EC000BC01C5010E94001F9F938F931F930F9306
:103ED000DF92CF921F930F930E9421318FEFE81A48
:103EE000F80A0FB6F894DEBF0FBECDBF98E0E91612
:103EF000F104E9F6CE0101960E94113142E050E052
:103F000060E070E0CE0101960E94D52FCB0128968B
:103F10000FB6F894DEBF0FBECDBFDF91CF911F91DA
:103F20000F91FF90EF90DF90CF90BF90AF909F9058
:103F30008F900895CF92DF92EF92FF920F931F938D
:103F4000CF93DF936C018B01BA0148E050E00496F7
:103F50000E941329D82FC92F0E941131ED2EFC2E5B
:103F6000000F111F000F111F000F111FC0E0D0E044
:103F7000F70181917F01813349F424EB30E040E087
:103F800050E0B801C6010E94AA1E08C020E030E03F
:103F900040E050E0B801C6010E94AA1E21960F5FC2
:103FA0001F4FC830D10521F7DF91CF911F910F919D
:103FB000FF90EF90DF90CF9008956F927F928F9255
:103FC0009F92AF92BF92CF92DF92EF92FF920F93A8
:103FD0001F93CF93DF93682E792EE82EF92E68EC8D
:103FE00070E00E9407296FE970E0862D972D0E94EE
:103FF0000729C0E0D0E009EB10E083E090E00E94E8
:10400000502EA82EB92E20E040E050E0BE01862DB3
:10401000972D0E94D71E9F938F931F930F93BF924C
:10402000AF920E94213183E090E00E94502EC82E72
:10403000D92E20E041E050E0BE01862D972D0E9450
:10404000D71E9F938F931F930F93DF92CF920E945F
:10405000213181E090E00E94502E882E992EDF932E
:10406000CF931F930F939F928F920E9421316CEBFD
:1040700070E08E2D9F2D0E94F228682D792D8E2DB7
:104080009F2D0E94F2286EEB70E08E2D9F2D0E94D6
:10409000F2286A2D7B2D8E2D9F2D0E94F22869EC2F
:1040A00070E08E2D9F2D0E94F2286C2D7D2D8E2D7F
:1040B0009F2D0E94072921968DB79EB742960FB675
:1040C000F8949EBF0FBE8DBFC830D10509F095CFC3
:1040D000DF91CF911F910F91FF90EF90DF90CF90E4
:1040E000BF90AF909F908F907F906F9008952F9288
:1040F0003F924F925F926F927F928F929F92AF9278
:10410000BF92CF92DF92EF92FF920F931F93CF93C4
:10411000DF93CDB7DEB72A970FB6F894DEBF0FBE98
:10412000CDBF4C011B0129013A01A982BA82CB8281
:10413000DC828CE090E00E94502E8C01F1013197DE
:10414000E432F10508F0B0C5E65DFF4F0C94362E61
:1041500020E040E050E06E2D7F2DC4010E94D71E6C
:104160009C0140E050E0B201C4010E94AA1E20E080
:1041700041E050E06E2D7F2DC4010E94D71E9C01AE
:1041800041E050E0B201C4010E94AA1E8DC582E048
:10419000880E911C6E2DC4010E94AA28482F642D00
:1041A000C4010E94C92880C56E2D7F2DC4010E94C4
:1041B000281F482F642DC40102960E94C92874C587
:1041C0006E2DC40102960E94AA28482F552747FD4C
:1041D0005095B201C4010E949A1F66C54E2D642DF0
:1041E000C40102960E94C9285FC54E2D5F2DB20101
:1041F000C4010E949A1F58C52E2D3F2D40E050E06B
:10420000B201C4010E94AA1E4FC52E2D3F2D41E0D0
:1042100050E0B201C4010E94AA1E46C5E1E04E1A58
:104220005108F401568245823FC5B201C40104968B
:104230000E94C62939C5F4018781908596838583BC
:1042400033C520E041E050E0B201C4010E94D71E16
:104250008C0120E040E050E0B201C4010E94D71E72
:10426000A801BC01C40103960E94EF088C01FC0167
:104270002081318140E050E0B201C4010E94AA1EB9
:10428000F8012281338141E050E0B201C4010E9473
:10429000AA1E0AC520E041E050E0B201C4010E941C
:1042A000D71E8C0120E040E050E0B201C4010E9422
:1042B000D71EA801BC01C40103960E9459098C01B4
:1042C000FC012081318140E050E0B201C4010E9434
:1042D000AA1EF8012281338141E050E0B201C401FD
:1042E0000E94AA1EE1C420E041E050E0B201C401F6
:1042F0000E94D71E8C0120E040E050E0B201C401D2
:104300000E94D71EA801BC01C40103960E94C309E4
:104310008C01FC012081318140E050E0B201C401F8
:104320000E94AA1EF8012281338141E050E0B201CF
:10433000C4010E94AA1EB8C420E041E050E0B201CE
:10434000C4010E94D71E8C0120E040E050E0B20181
:10435000C4010E94D71EA801BC01C40103960E949B
:104360002D0A8C01FC012081318140E050E0B20136
:10437000C4010E94AA1EF8012281338141E050E06D
:10438000B201C4010E94AA1E8FC420E041E050E0A7
:10439000B201C4010E94D71E8C0120E040E050E031
:1043A000B201C4010E94D71EA801BC01C40103963A
:1043B0000E949B0A8C01FC012081318140E050E089
:1043C000B201C4010E94AA1EF8012281338141E09A
:1043D00050E0B201C4010E94AA1E66C420E041E080
:1043E00050E0B201C4010E94D71E8C0120E040E0E1
:1043F00050E0B201C4010E94D71EA801BC01C40153
:1044000003960E94050B8C01FC012081318140E064
:1044100050E0B201C4010E94AA1EF801228133813A
:1044200041E050E0B201C4010E94AA1E3DC420E058
:1044300041E050E0B201C4010E94D71E8C0120E08F
:1044400040E050E0B201C4010E94D71E2E2D3F2D46
:10445000A801BC01C40103960E9480128C01FC01DA
:104460002081318140E050E0B201C4010E94AA1EC7
:10447000F8012281338141E050E0B201C4010E9481
:10448000AA1E12C420E041E050E0B201C4010E9423
:10449000D71E8C0120E040E050E0B201C4010E9430
:1044A000D71E2E2D3F2DA801BC01C40103960E94EA
:1044B0001F138C01FC012081318140E050E0B201EA
:1044C000C4010E94AA1EF8012281338141E050E01C
:1044D000B201C4010E94AA1EE7C320E041E050E0FF
:1044E000B201C4010E94D71E8C0120E040E050E0E0
:1044F000B201C4010E94D71E2E2D3F2DA801BC0180
:10450000C40103960E94BB138C01FC012081318100
:1045100040E050E0B201C4010E94AA1EF8012281CD
:10452000338141E050E0B201C4010E94AA1EBCC325
:10453000CE2CDF2C20E041E050E06E2D7F2DC40119
:104540000E94D71E8C0120E040E050E06E2D7F2DB0
:10455000C4010E94D71E5C0120E041E050E0B2019E
:10456000C4010E94D71E7C0120E040E050E0B2016F
:10457000C4010E94D71E9501A701BC01C401039686
:104580000E946E0B8C01FC012081318140E050E0E3
:10459000B201C4010E94AA1EF8012281338141E0C8
:1045A00050E0B201C4010E94AA1EF80124813581A5
:1045B00040E050E06C2D7D2DC4010E94AA1EF80140
:1045C0002681378141E050E06C2D7D2DC4010E9491
:1045D000AA1E6AC3CE2CDF2C20E041E050E06E2DF5
:1045E0007F2DC4010E94D71E8C0120E040E050E0E6
:1045F0006E2D7F2DC4010E94D71E5C0120E041E09A
:1046000050E0B201C4010E94D71E7C0120E040E0CE
:1046100050E0B201C4010E94D71E9501A701BC0160
:10462000C40103960E94700C8C01FC012081318131
:1046300040E050E0B201C4010E94AA1EF8012281AC
:10464000338141E050E0B201C4010E94AA1EF8018A
:104650002481358140E050E06C2D7D2DC4010E9405
:10466000AA1EF8012681378141E050E06C2D7D2D96
:10467000C4010E94AA1E18C3CE2CDF2C20E041E00A
:1046800050E06E2D7F2DC4010E94D71E8C0120E0CA
:1046900040E050E06E2D7F2DC4010E94D71E5C01CA
:1046A00020E041E050E0B201C4010E94D71E7C012D
:1046B00020E040E050E0B201C4010E94D71E950105
:1046C000A701BC01C40103960E94720D8C01FC017C
:1046D0002081318140E050E0B201C4010E94AA1E55
:1046E000F8012281338141E050E0B201C4010E940F
:1046F000AA1EF8012481358140E050E06C2D7D2D0B
:10470000C4010E94AA1EF8012681378141E050E0D1
:104710006C2D7D2DC4010E94AA1EC6C2CE2CDF2C9A
:1047200020E041E050E06E2D7F2DC4010E94D71E95
:104730008C0120E040E050E06E2D7F2DC4010E94EE
:10474000D71E5C0120E041E050E0B201C4010E94AC
:10475000D71E7C0120E040E050E0B201C4010E947D
:10476000D71E9501A701BC01C40103960E94740ED7
:104770008C01FC012081318140E050E0B201C40194
:104780000E94AA1EF8012281338141E050E0B2016B
:10479000C4010E94AA1EF8012481358140E050E046
:1047A0006C2D7D2DC4010E94AA1EF801268137813F
:1047B00041E050E06C2D7D2DC4010E94AA1E74C200
:1047C000CE2CDF2C20E041E050E06E2D7F2DC40187
:1047D0000E94D71E8C0120E040E050E06E2D7F2D1E
:1047E000C4010E94D71E5C0120E041E050E0B2010C
:1047F000C4010E94D71E7C0120E040E050E0B201DD
:10480000C4010E94D71E9501A701BC01C4010396F3
:104810000E94760F8C01FC012081318140E050E044
:10482000B201C4010E94AA1EF8012281338141E035
:1048300050E0B201C4010E94AA1EF8012481358112
:1048400040E050E06C2D7D2DC4010E94AA1EF801AD
:104850002681378141E050E06C2D7D2DC4010E94FE
:10486000AA1E22C2CE2CDF2C20E041E050E06E2DAB
:104870007F2DC4010E94D71E8C0120E040E050E053
:104880006E2D7F2DC4010E94D71E5C0120E041E007
:1048900050E0B201C4010E94D71E7C0120E040E03C
:1048A00050E0B201C4010E94D71E9501A701BC01CE
:1048B000C40103960E9478108C01FC012081318193
:1048C00040E050E0B201C4010E94AA1EF80122811A
:1048D000338141E050E0B201C4010E94AA1EF801F8
:1048E0002481358140E050E06C2D7D2DC4010E9473
:1048F000AA1EF8012681378141E050E06C2D7D2D04
:10490000C4010E94AA1ED0C1CE2CDF2C20E041E0C1
:1049100050E06E2D7F2DC4010E94D71E8C0120E037
:1049200040E050E06E2D7F2DC4010E94D71E5C0137
:1049300020E041E050E0B201C4010E94D71E7C019A
:1049400020E040E050E0B201C4010E94D71E950172
:10495000A701BC01C40103960E947E118C01FC01D9
:104960002081318140E050E0B201C4010E94AA1EC2
:10497000F8012281338141E050E0B201C4010E947C
:10498000AA1EF8012481358140E050E06C2D7D2D78
:10499000C4010E94AA1EF8012681378141E050E03F
:1049A0006C2D7D2DC4010E94AA1E7EC120E041E035
:1049B00050E069817A81C4010E94D71E6C0120E019
:1049C00040E050E069817A81C4010E94D71E8C01C9
:1049D000EF82F98620E041E050E06E2D7F2DC4018A
:1049E0000E94D71E5C0120E040E050E06F81798595
:1049F000C4010E94D71E1C0120E041E050E0B2013A
:104A0000C4010E94D71E9E838D8320E040E050E0C9
:104A1000B201C4010E94D71E7801850191014D8128
:104A20005E81BC01C40103960E9451148C01FC01FB
:104A30002081318140E050E0B201C4010E94AA1EF1
:104A4000F8012281338141E050E0B201C4010E94AB
:104A5000AA1EF8012481358140E050E06F817985FC
:104A6000C4010E94AA1EF8012681378141E050E06E
:104A70006F817985C4010E94AA1EF80120853185C5
:104A800040E050E069817A81C4010E94AA1EF801C9
:104A90002285338541E050E069817A81C4010E941A
:104AA000AA1E02C120E041E050E069817A81C40180
:104AB0000E94D71E6C0120E040E050E069817A81BD
:104AC000C4010E94D71E8C01EF82F98620E041E0EC
:104AD00050E06E2D7F2DC4010E94D71E5C0120E0A6
:104AE00040E050E06F817985C4010E94D71E1C010F
:104AF00020E041E050E0B201C4010E94D71E9E8335
:104B00008D8320E040E050E0B201C4010E94D71E36
:104B10007801850191014D815E81BC01C40103963C
:104B20000E944F178C01FC012081318140E050E050
:104B3000B201C4010E94AA1EF8012281338141E022
:104B400050E0B201C4010E94AA1EF80124813581FF
:104B500040E050E06F817985C4010E94AA1EF801EF
:104B60002681378141E050E06F817985C4010E9440
:104B7000AA1EF8012085318540E050E069817A81E4
:104B8000C4010E94AA1EF8012285338541E050E04D
:104B900069817A81C4010E94AA1E86C020E040E09B
:104BA00050E060E070E0C4010E94D71E5C0120E08C
:104BB00041E050E069817A81C4010E94D71E6C01F6
:104BC00020E040E050E069817A81C4010E94D71E54
:104BD0008C01E986FA8620E041E050E06E2D7F2DC1
:104BE000C4010E94D71E1C0120E040E050E069850E
:104BF0007A85C4010E94D71E9E838D8320E041E008
:104C000050E0B201C4010E94D71E98878F8320E034
:104C100040E050E0B201C4010E94D71E780181013A
:104C20002D813E814F815885BC01C40103960E94AD
:104C30004D1A8C01FC012081318140E050E0B2012D
:104C4000C4010E94AA1EF8012281338141E050E094
:104C5000B201C4010E94AA1EF8012481358140E0FE
:104C600050E069857A85C4010E94AA1EF801268158
:104C7000378141E050E069857A85C4010E94AA1E0F
:104C8000F8012085318540E050E069817A81C401D6
:104C90000E94AA1EF8012285338541E050E0698117
:104CA0007A81C4010E94AA1EC8010E94E82E2A9699
:104CB0000FB6F894DEBF0FBECDBFDF91CF911F912D
:104CC0000F91FF90EF90DF90CF90BF90AF909F90AB
:104CD0008F907F906F905F904F903F902F900895AE
:104CE0002F923F924F925F926F927F928F929F92FC
:104CF000AF92BF92CF92DF92EF92FF920F931F93EA
:104D0000CF93DF93CDB7DEB7CB52D2400FB6F89436
:104D1000DEBF0FBECDBF1C0163ED70E00E9407290E
:104D200068EC70E0C1010E940729C10101960E9450
:104D30007102BC01C10104960E943E29FC01389712
:104D400020E030E0408551854F3F5105A1F4468178
:104D500057814F3F510579F4448155814F3F5105AB
:104D600051F4428153814F3F510529F440815181D3
:104D70004F3F510521F02F5F3F4F3296E3CFA901FE
:104D80004450510914161506B4F5DC0125503109BB
:104D900040E050E080E090E060E070E01DE0712CC9
:104DA000812C2D010BC0ED30F1052CF06F5F7F4F92
:104DB000872D982D01C0CF014F5F5F4FFC013196C9
:104DC000D201CD90DD902D01169F5001179FB00CA0
:104DD00011248A0D9B1D880F991FEE24E394F12C5A
:104DE000EC0EFD1E8E0D9F1DDC01CD92DC92421754
:104DF0005307C9F602C060E070E0F1017087678375
:104E000016821582161617060CF056C180E090E047
:104E10009E01295E3D4FC25EDD4F39832883CE510E
:104E2000D2402E0130EF431A3DEF530A3E01A7EF67
:104E30006A1AADEF7A0A0F2EFAE98F2EF0E09F2E54
:104E4000F02DC25EDD4FB881CE51D240CA5DDD4F3C
:104E5000B883C652D240C15EDD4FE881CF51D24007
:104E6000C95DDD4FE883C752D240C85DDD4F48823F
:104E7000C852D240C75DDD4F5882C952D240C65D8C
:104E8000DD4F6882CA52D240C55DDD4F7882CB5279
:104E9000D240C95EDD4F188219821A821B82C75127
:104EA000D240C55EDD4F188219821A82CB51D240A2
:104EB000D2011D921D921D921C921397F201148231
:104EC00015821682D3011D921D921D921C9213977A
:104ED000F3011482158216822AE1289FF001299F8E
:104EE000F00D1124EE24E394F12CEC0EFD1EEE0DDA
:104EF000FF1D20813181C05EDD4F39832883C05280
:104F0000D240C12CD12C3FEFC31AD30AD101159640
:104F10008D919C911697BDE0B89FF001B99FF00D5F
:104F20001124EC0DFD1DEE0FFF1FEE24E394F12C78
:104F3000EC0EFD1EEE0DFF1D81818F9380818F93FE
:104F4000C15EDD4FF880CF51D240FF92C25EDD4F8F
:104F50002881CE51D2402F939F928F92FF922F9310
:104F60000E942131D10115968D919C911697BDE03B
:104F7000B89FF001B99FF00D1124EC0DFD1D349682
:104F8000EE0FFF1FEE24E394F12CEC0EFD1EEE0D50
:104F9000FF1D81818F9380818F935F924F929F92AB
:104FA0008F925F924F920E942131D10115968D917F
:104FB0009C911697BDE0B89FF001B99FF00D1124A8
:104FC000EC0DFD1D3896EE0FFF1FEE0DFF1D8181CC
:104FD0008F9380818F937F926F929F928F927F9217
:104FE0006F920E9421310FB6F894DEBF0FBECDBF85
:104FF000F4E0CF16D10409F086CF40E150E060E044
:1050000070E0C65DDD4F8881CA52D240C55DDD4F7C
:105010009881CB52D2400E94D52F5B016C0140E1B8
:1050200050E060E070E0C85DDD4F8881C852D2403A
:10503000C75DDD4F9881C952D2400E94D52FCE5D09
:10504000DD4F688379838A839B83C252D24040E1DB
:1050500050E060E070E0CA5DDD4F8881C652D2400A
:10506000C95DDD4F9881C752D2400E94D52F9B0168
:10507000AC01CE5DDD4FE880F9800A811B81C25210
:10508000D240C05EDD4F68817981C052D240C101FB
:105090000E947720D10115968D919C9116970196CB
:1050A00016969C938E93159717962D913C91189771
:1050B000821793070CF4EDCEC1010E94DD1F6DED48
:1050C00070E0C1010E94F228C55DDD4F0FB6F89473
:1050D000DEBF0FBECDBFDF91CF911F910F91FF902B
:1050E000EF90DF90CF90BF90AF909F908F907F9088
:1050F0006F905F904F903F902F900895CF93DF93E4
:10510000CDB7DEB729970FB6F894DEBF0FBECDBF7F
:10511000CE0101960E94B61DCE0101960E94702616
:10512000FFCF8FEF84BB089575B321E030E0C90154
:10513000062E02C0880F991F0A94E2F780958723F4
:1051400085BB85B302C0440F551F6A95E2F7482B13
:1051500045BB08950F931F93CF93DF93EC011FEF8F
:105160001ABB6BBB17BA41E050E066E070E00E94EA
:10517000942806B340E050E066E070E0CE010E9463
:10518000942817BB1BBA802FDF91CF911F910F91ED
:1051900008951F93CF93DF93EC011FEF1ABB6BBBF6
:1051A00017BB48BB41E050E065E070E00E949428E6
:1051B00040E050E065E070E0CE010E9494281BBA08
:1051C00017BB18BADF91CF911F91089583E389B976
:1051D00010BC86E880BD88E18AB908955D9BFECF4A
:1051E0006CB908950F931F93CF93DF938C01EB015C
:1051F0006881662339F02196C8010E94EE286991E2
:105200006111FACFDF91CF911F910F910895CF9344
:10521000DF93EC010E94F2286DE0CE010E94EE289F
:10522000DF91CF9108950F931F93CF93DF93062FB4
:10523000172FEA01CA0101960E94502E0097B9F07B
:10524000FC01EC0FFD1F1082202F312FBE01615099
:105250007109CD2B71F020FF02C041E301C040E392
:1052600042933695279561507109A8F702C080E0F6
:1052700090E0DF91CF911F910F910895CF92DF922F
:10528000EF92FF920F931F93CF93DF93D62FC72FE9
:10529000E62FF72F80E090E021912F3F89F4DF0186
:1052A00012974C914F3F61F411974C914F3F41F44D
:1052B00011974C914F3F21F411972C912F3F11F0F2
:1052C0000196EACF8C01045011096C012FEFC21A2C
:1052D000D20A7601EE0CFF1CC7010E94502E101658
:1052E000110674F4DC01ED2FFC2F20E030E0419139
:1052F00050E04D935D932F5F3F4F20173107BCF374
:105300000C151D057CF4F7013A97E80FF91F25E00D
:1053100030E04FEF50E04193519321503109211576
:105320003105C9F7DF91CF911F910F91FF90EF9059
:10533000DF90CF9008950F931F93CF93DF93CDB756
:10534000DEB72A970FB6F894DEBF0FBECDBF7F93AE
:105350006F9389EB90E09F938F938E010F5F1F4FA8
:105360001F930F930E9421310F900F900F900F9079
:105370000F900F90C8012A960FB6F894DEBF0FBEAB
:10538000CDBFDF91CF911F910F91089561157105E8
:1053900051F086E69EE00197F1F700006150710937
:1053A00061157105B1F70895CF92DF92EF92FF92E8
:1053B0000F931F93CF93DF936A017B01890112162C
:1053C00013067CF4C0E0D0E060E070E080E89FE38A
:1053D000A70196010E944E2D2196C017D107C1F753
:1053E00004C060E070E080E89FE3DF91CF911F91FF
:1053F0000F91FF90EF90DF90CF9008959F939F774C
:10540000A6D10F9000203AF49058A2EA2AED3FE08E
:1054100049E450E413D03EC25058BB27AA270ED00F
:1054200039C202D230F007D220F031F49F3F11F49C
:105430001EF4D2C10EF4E095E7FBC8C1E92F4CD2AF
:1054400080F3BA17620773078407950718F071F4A1
:105450009EF564C20EF4E0950B2EBA2FA02D0B0121
:10546000B90190010C01CA01A0011124FF27591BA9
:1054700099F0593F50F4503E68F11A16F040A22FAF
:10548000232F342F4427585FF3CF46953795279520
:10549000A795F0405395C9F77EF41F16BA0B620B1F
:1054A000730B840BBAF09150A1F0FF0FBB1F661F66
:1054B000771F881FC2F70EC0BA0F621F731F841FA9
:1054C00048F4879577956795B795F7959E3F08F0CF
:1054D000B3CF9395880F08F09927EE0F979587958E
:1054E0000895DF93DD27B92FBF7740E85FE31616F5
:1054F000170648075B0710F4D92F1BD29F938F9391
:105500007F936F9376D3ECE9F0E069D1C3D12F910B
:105510003F914F915F91CED2DD2349F09058A2EA9E
:105520002AED3FE049EC5FE3D0785D2787DFDF912C
:10553000B1C128D108F481E0089585D1E395BBC1BC
:105540000CD0A8C178D140F06FD130F021F45F3F8A
:1055500019F03CC15111E3C13FC1BED198F3992369
:10556000C9F35523B1F3951B550BBB27AA27621727
:105570007307840738F09F5F5F4F220F331F441F6C
:10558000AA1FA9F333D00E2E3AF0E0E830D09150A4
:105590005040E695001CCAF729D0FE2F27D0660F91
:1055A000771F881FBB1F261737074807AB07B0E8D0
:1055B00009F0BB0B802DBF01FF2793585F4F2AF0E6
:1055C0009E3F510568F002C1AAC15F3FECF3983ECF
:1055D000DCF3869577956795B795F7959F5FC9F743
:1055E000880F911D9695879597F90895E1E0660FCC
:1055F000771F881FBB1F621773078407BA0720F045
:10560000621B730B840BBA0BEE1F88F7E0950895AD
:1056100019F40EF0DBC082C1DFC066D1C8F3963842
:10562000C0F707F80F92E8942BE33AEA48EB5FE7FC
:1056300043D20F920F920F924DB75EB70F92FBD1EC
:10564000E9ECF0E0CCD04F915F91EF91FF91E595BF
:10565000EE1FFF1F49F0FE57E0684427EE0F441F7E
:10566000FA95E1F74195550B6DD10F9007FE61C199
:10567000089504D06894B11152C1089535D188F0CD
:105680009F5790F0B92F9927B751A0F0D1F0660F2E
:10569000771F881F991F1AF0BA95C9F712C0B13049
:1056A00081F03CD1B1E0089539C1672F782F882768
:1056B000B85F39F0B93FCCF3869577956795B39588
:1056C000D9F73EF490958095709561957F4F8F4FF7
:1056D0009F4F0895E89409C097FB3EF490958095FC
:1056E000709561957F4F8F4F9F4F9923A9F0F92FA8
:1056F00096E9BB279395F695879577956795B79526
:10570000F111F8CFFAF4BB0F11F460FF1BC06F5F0B
:105710007F4F8F4F9F4F16C0882311F096E911C01D
:10572000772321F09EE8872F762F05C0662371F03E
:1057300096E8862F70E060E02AF09A95660F771F52
:10574000881FDAF7880F9695879597F90895DF9364
:10575000CF931F930F938B01EC01E1EFF0E03FD06B
:1057600099D09801AE018B01EC0160E070E080E817
:105770009FE352DE00D29801AE010F911F91CF91AD
:10578000DF9198C1990F0008550FAA0BE0E8FEEFD2
:1057900016161706E807F907C0F012161306E407F5
:1057A000F50798F0621B730B840B950B39F40A26EE
:1057B00061F0232B242B252B21F408950A2609F4CC
:1057C000A140A6958FEF811D811D089597F99F67D0
:1057D00080E870E060E008959FEF80EC0895DF932B
:1057E000CF931F930F93FF92EF92DF927B018C0177
:1057F000689405C0DA2EEF015DD1FE01E894A59111
:105800002591359145915591AEF3EF0117DEFE01DB
:105810009701A801DA9479F7DF90EF90FF900F914C
:105820001F91CF91DF91089500240A941616170650
:1058300018060906089500240A9412161306140681
:1058400005060895C9CF50D0E8F3E894E0E0BB27FF
:105850009F57F0F02AED3FE049EC06C0EE0FBB0F7A
:10586000661F771F881F28F0B23A62077307840704
:1058700028F0B25A620B730B840BE3959A9572F77A
:10588000803830F49A95BB0F661F771F881FD2F7B8
:105890009048B4C1092E0394000C11F4882352F0EF
:1058A000BB0F40F4BF2B11F460FF04C06F5F7F4F4C
:1058B0008F4F9F4F0895EF93E0FF06C0A2EA2AEDB5
:1058C0003FE049EC5FEBBADDE5DF0F90039401FCAC
:1058D0009058E9E1F1E0A5C157FD9058440F551FDC
:1058E00059F05F3F71F04795880F97FB991F61F062
:1058F0009F3F79F087950895121613061406551FD9
:10590000F2CF4695F1DF08C0161617061806991F44
:10591000F1CF86957105610508940895E894BB2739
:1059200066277727CB0197F908952CDF08F48FEFCE
:1059300008959B01AC0160E070E080E89FE300CE39
:1059400045CF5AC1D1DFE8F39923D9F3940F511D04
:10595000BBF39150504094F059F0882332F0660F19
:10596000771F881F91505040C1F79E3F510544F763
:10597000880F911D9695879597F908955F3FACF034
:10598000983E9CF0BB27869577956795B79508F468
:10599000B1609395C1F7BB0F58F711F460FFE8CFE2
:1059A0006F5F7F4F8F4F9F4FE3CFB9CF0EF024C172
:1059B00013CF68940BCF98DFC8F39923D1F3C6F3C4
:1059C000DF93CF931F930F93FF92C92FDD27882377
:1059D0002AF02197660F771F881FDAF720E030E062
:1059E00040E85FEB9FE3883920F0803E30F021965D
:1059F0008F7713DDE7E3F1E003C00FDDE4E6F1E0CC
:105A0000EEDE8B01BE01EC01FB2E6F57710975951F
:105A1000771F880B990B60DE28E132E741E35FE3F3
:105A200049D0AF2D9801AE01FF900F911F91CF91FA
:105A3000DF9104DD2FCFFA01DC01AA0FBB1F9B0110
:105A4000AC01BF5728F422273327442750781FC0C2
:105A5000B75188F4AB2F0024469537952795011C44
:105A6000A395D2F3002069F0220F331F441FB39592
:105A7000DAF30DD0D1CC61307105A0E88A07B946C0
:105A800030F49B01AC016627772788279078309601
:105A900021F0208331834283538308950BD0FACEC3
:105AA000C3DE28F0C8DE18F0952309F08FCE94CE1F
:105AB000112435CF11DFA0F3959FD1F3950F50E05E
:105AC000551F629FF001729FBB27F00DB11D639FB0
:105AD000AA27F00DB11DAA1F649F6627B00DA11D56
