S01D0000514550555F50726F6A6563745F41746D65676133322E7372656383
S11300000C94F7000C941F010C941F010C941F0115
S11300100C941F010C941F010C941F010C941F01DC
S11300200C941F010C941F010C941F010C941F01CC
S11300300C941F010C941F010C941F010C941F01BC
S11300400C941F010C941F010C941F010C941F01AC
S11300500C941F01721F951FAD1FBF1FCC1FDC1F07
S1130060E41FEC1FF71F02200C20162028202F204D
S11300703D2041205B207A209920B820D720F6200B
S113008015213421472152215C2178218E21AA2176
S1130090C021D521EC210622252240225A22722297
S11300A087229C22B422C922DE22F8220F2326238F
S11300B03E235323682382239923B023C323E023BD
S11300C0F7230F242C2443245B245F244A2A652429
S11300D07024A024D0240025302560259025C22535
S11300E0F42526267F26D82631278A27E3273C288D
S11300F095282329B129084AD73B3BCE016E84BCFD
S1130100BFFDC12F3D6C74319ABD56833DDA3D006D
S1130110C77F11BED9E4BB4C3E916BAAAABE0000B6
S113012000803F07634236B79BD8A71A3968561830
S1130130AEBAAB558C1D3CB7CC5763BD6DEDFD75A8
S11301403EF6177231BF000000803F072C7AA5BA33
S11301506CC590DA3B9365FC8BBC53F810FD3C56A0
S113016092834DBD879D3AB63DCBC9BF5BBE73DA62
S11301700FC93F05A84CCDB2D44EB93836A9020CEC
S113018050B9918688083CA6AAAA2ABE000000801D
S11301903F08000000BE922449123EABAAAA2ABE20
S11301A0CDCCCC4C3E00000080BEABAAAAAA3E0037
S11301B0000000BF000000803F0000000000084174
S11301C078D3BB4387D1133D190E3CC3BD4282ADE6
S11301D02B3E68EC8276BED98FE1A93E4C80EFFFBE
S11301E0BE01C4FF7F3F000000000000AF1D1124CA
S11301F01FBECFE5D8E0DEBFCDBF10E0A0E6B0E083
S1130200E4ECF4E702C005900D92A43FB107D9F7DE
S113021021E0A4EFB0E001C01D92A430B207E1F7E1
S113022011E0CEEED1E004C02297FE010E942734F3
S1130230CC3ED107C9F70E94902B0C94603A0C94E1
S113024000000F931F93FC014083518362837383E7
S113025004831583268337831F910F910895FC012E
S113026010821182128213821482158216821782DE
S11302700895AF92BF92CF92DF92EF92FF920F93C5
S11302801F93CF93DF93CDB7DEB768970FB6F8947B
S1130290DEBF0FBECDBF5C01098B1A8B2B8B3C8B51
S11302A04D8B5E8B6F8B788F2D893E894F89588D4E
S11302B0FC0164817581868197810E94DD2F6B0129
S11302C07C0129893A894B895C89F50160817181B6
S11302D0828193810E94DD2FAB01BC0197018601CD
S11302E0CE0101960E94210188E0FE013196DE01D3
S11302F0199601900D928A95E1F729853A854B85E7
S11303005C856D857E858F85988968960FB6F8948F
S1130310DEBF0FBECDBFDF91CF911F910F91FF9034
S1130320EF90DF90CF90BF90AF9008954F925F927F
S11303306F927F928F929F92AF92BF92CF92DF92F1
S1130340EF92FF920F931F93CF93DF93CDB7DEB756
S1130350A0970FB6F894DEBF0FBECDBF098B1A8BE2
S11303602B8B3C8B4D8B5E8B6F8B788F89889A8817
S1130370AB88BC882D893E894F89588D2D8F3E8F3F
S11303804F8F58A3FC01C080D180E280F380248188
S1130390358146815781298F3A8F4B8F5C8F2D8D04
S11303A03E8D4F8D58A1C701B6010E941E332B010B
S11303B03C01A5019401698D7A8D8B8D9C8D0E94E1
S11303C01E339B01AC01C301B2010E94DD2F2B013E
S11303D03C01A5019401C701B6010E941E336B01C3
S11303E07C012D8D3E8D4F8D58A1698D7A8D8B8D1D
S11303F09C8D0E941E339B01AC01C701B6010E9473
S1130400DC2FAB01BC0193018201CE0101960E9455
S1130410210188E0FE013196DE01199601900D92CA
S11304208A95E1F729853A854B855C856D857E85BE
S11304308F859889A0960FB6F894DEBF0FBECDBF06
S1130440DF91CF911F910F91FF90EF90DF90CF90AC
S1130450BF90AF909F908F907F906F905F904F90E0
S11304600895FC0120813181428153816481758129
S1130470868197810E9470300E944130089585E002
S113048080B981B18C7F81B9089594EA30EA24E877
S113049096BF06B607FEFDCF81B1887F883009F08C
S11304A041C033B926BF06B607FEFDCF81B1887FB0
S11304B0883171F773B984E886BF06B607FEFDCFAD
S11304C081B1887F883281F563B984E886BF06B636
S11304D007FEFDCF81B1887F883241F584EA86BF6B
S11304E006B607FEFDCF81B1887F803109F581EA28
S11304F083B984E886BF06B607FEFDCF81B1887F45
S11305008034C1F484E886BF06B607FEFDCF81B10E
S1130510887F883589F483B194E996BF06B604FCD4
S1130520FDCF089580E0089580E0089580E0089567
S113053080E0089580E0089580E008956F927F92AE
S11305408F929F92AF92BF92CF92DF92EF92FF92DF
S11305500F931F93CF93DF93CDB7DEB76C970FB68E
S1130560F894DEBF0FBECDBF5C01E12CF12CC12C91
S1130570D12C812C912C8E01055E1F4F612C712C86
S1130580B701C5010E944502F401EE0FFF1F21E0EF
S113059030E02C0F3D1FE20FF31F90E09183808326
S11305A03DE08316910474F08FEFC81AD80AFE0157
S11305B0319681919191E017F107D9F78F3F910519
S11305C029F40AC02FEF821A920A02C0862C972CB3
S11305D03FEFE31AF30AD4CFC6016C960FB6F89432
S11305E0DEBF0FBECDBFDF91CF911F910F91FF9062
S11305F0EF90DF90CF90BF90AF909F908F907F90BF
S11306006F90089581E08093FC00089521E086179F
S113061097070CF020E02093F40021E06817790795
S11306200CF420E02093F50021E08617970709F0E9
S113063020E02093F60021E0861797070CF420E0D1
S11306402093F70021E0681779070CF020E020934D
S1130650F80021E08617970709F420E02093F900B9
S113066021E0009709F020E02093FA0021E0892B93
S113067009F420E02093FB0008950895CF92DF92BF
S1130680EF92FF92CF93DF936A017B010E94D635EC
S1130690EC0120E03EEF4FEF56E4C701B6010E94A3
S11306A01E336B017C01BE01882777FD8095982F4E
S11306B00E943C319B01AC01C1E0D0E0C701B6010E
S11306C00E946532882314F4C0E0D0E0CE01DF91AB
S11306D0CF91FF90EF90DF90CF9008952F923F92AB
S11306E04F925F926F927F928F929F92AF92BF923E
S11306F0CF92DF92EF92FF920F931F93CF93DF93EA
S1130700CDB7DEB7A4970FB6F894DEBF0FBECDBF4A
S11307108C016B015A01BA01882777FD8095982FC7
S11307200E943C310E94AB3228E132E741E35FE3AF
S11307300E9470302B013C019B01AC010E94DD2F13
S11307400E94093169A37AA38BA39CA329A03AA090
S1130750C101880F991F880F991F880F991F0E9444
S113076061344C011A141B040CF09DC020E030E0ED
S113077040E85FE3F60160817181828193810E9488
S11307806930811187C011C0F8E0CF0ED11C20E080
S113079030E040E85FE3F6016081718182819381FA
S11307A00E946930811178C002C0E12CF12CC30190
S11307B0B2010E940931AB01B701C8010E943E2F6A
S11307C0121413040CF06FC07C0154016401F8E0AE
S11307D0CF0ED11C49A05AA0480E591E6894772404
S11307E073F8F70181917F01813329F500E010E06E
S11307F09801B901A801CE0149960E942101FE0188
S11308007996D501872D01900D928A95E1F700E044
S113081010E0980140E050E060E87FE3CE014196AB
S11308200E942101FE017196D601872D01900D923F
S11308308A95E1F724C000E010E0980140E050E020
S113084060E87FE3CE0109960E942101FE013996FA
S1130850D501872D01900D928A95E1F700E010E013
S11308609801B901A801CE0101960E942101FE015F
S11308703196D601872D01900D928A95E1F7F0E12A
S1130880AF0EB11C20E1C20ED11CE414F50409F032
S1130890A8CF09C0E12CF12C8FEFE81AF80AEA146A
S11308A0FB0409F071CFC401A4960FB6F894DEBF1F
S11308B00FBECDBFDF91CF911F910F91FF90EF90AD
S11308C0DF90CF90BF90AF909F908F907F906F906C
S11308D05F904F903F902F9008952F923F924F92A8
S11308E05F926F927F928F929F92AF92BF92CF92BC
S11308F0DF92EF92FF920F931F93CF93DF93CDB7C5
S1130900DEB728970FB6F894DEBF0FBECDBF6C01DB
S11309103B011A013E832D834130510509F4B8C0CF
S11309209A0140E050E060E070E40E94772F0E945A
S113093009317B01FB01EE0FFF1FEE0FFF1FEE0FCE
S1130940FF1FFA83E983CF010E9461348B839C8368
S11309501E141F040CF04FC0220C331C082F192F37
S1130960812C912CE2E0F0E0412C512C18870F836C
S1130970560167012E163F0629F4FFEF4F1A5F0A4E
S1130980E2E0F0E07F012FEFE21AF20AEE0FFF1F20
S1130990EE0FFF1FEE0FFF1FE60DF71D0081118103
S11309A0228133814481558166817781C201880F18
S11309B0991F880F991F880F991F860D971D0E94F4
S11309C09601EF81F88520833183428353836483C6
S11309D0758386839783FFEF8F1A9F0A2F8138854B
S11309E0285F3F4F38872F838C149D0411F0F70143
S11309F0C1CF760165018D819E81892BA9F542C005
S1130A000D811E81F8014081518162817381C6018B
S1130A100E943E030197D9F489819A81880D991D1A
S1130A20F4011082118212821382148215821682BA
S1130A3017823896E817F907A1F780E090E0A0E85C
S1130A40BFE3F80180839183A283B3831BC0FFEFCC
S1130A50AF1ABF0A2D813E81285F3F4F3E832D830D
S1130A60AE14BF0469F604C04B805C80212C312C89
S1130A701E141F04ECF7842C952C4D825E82A22C4C
S1130A80B32CBECFC3010E94F9348B819C8102C078
S1130A90862F972D28960FB6F894DEBF0FBECDBFD4
S1130AA0DF91CF911F910F91FF90EF90DF90CF9046
S1130AB0BF90AF909F908F907F906F905F904F907A
S1130AC03F902F9008952F923F924F925F926F9292
S1130AD07F928F929F92AF92BF92CF92DF92EF92CA
S1130AE0FF920F931F93CF93DF93CDB7DEB7299770
S1130AF00FB6F894DEBF0FBECDBF998788877F837A
S1130B006E83A42EB52EC22ED32ECB018295929540
S1130B10907F9827807F98270E9461349D838C83DF
S1130B20892B51F08E819F81880F991F9B838A8323
S1130B301816190664F0B1C0CE0101960E940D2F5B
S1130B406AE670E0CE0101960E941D2FFFCF0C8152
S1130B501D81EA2CFB2C2C2C3D2CC12CD12C5701B3
S1130B60F701419051907F01662457FC6094762CE4
S1130B70C301B2010E943C312BED3FE049E450E453
S1130B800E941E3320E030E044EB53E40E947030B6
S1130B900E946D30F8016083718382839383C30163
S1130BA0B2010E943C312BED3FE049E450E40E9445
S1130BB01E3320E030E044EB53E40E9470300E9486
S1130BC081332B013C014101F101619171911F01BC
S1130BD0882777FD8095982F0E943C312BED3FE0CC
S1130BE049E450E40E941E3320E030E044E353E43F
S1130BF00E9470300E946D309B01AC01C301B201B0
S1130C000E941E33F8016087718782879387F501FC
S1130C1060817181882777FD8095982F0E943C31EF
S1130C202BED3FE049E450E40E941E3320E030E025
S1130C3044EB53E40E9470300E9481332B013C0149
S1130C40F40160817181882777FD8095982F0E9437
S1130C503C312BED3FE049E450E40E941E3320E098
S1130C6030E044E353E40E9470300E9481339B01DE
S1130C70AC01C301B2010E941E33F8016487758779
S1130C8086879787F2E0CF0ED11C005F1F4F8A81C1
S1130C909B81C816D9060CF462CF21E030E04E8166
S1130CA05F816C817D81888599850E946D04299678
S1130CB00FB6F894DEBF0FBECDBFDF91CF911F9169
S1130CC00F91FF90EF90DF90CF90BF90AF909F90E7
S1130CD08F907F906F905F904F903F902F900895EA
S1130CE08F929F92AF92BF92CF92DF92EF92FF9238
S1130CF00F931F93CF93DF93EC01A62EB72E6A01B7
S1130D009A0140E050E060E070E40E94772F22E016
S1130D10C216D10454F00E940931AB016A2D7B2D17
S1130D20CE010E946E03A82EB92EC601880F991F0A
S1130D30880F991F0E946134882E992ECC0CDD1CDB
S1130D401C141D04F4F5EA2CFB2C082F192FC0E009
S1130D50D0E0C0FD19C0F701608171818281938167
S1130D600E94CE2F20E030E044EB53E40E941E3377
S1130D702BED3FE049E450E40E9470300E940931B9
S1130D80F8017183608314C0C7010E94310220E01E
S1130D9030E044E353E40E941E332BED3FE049E48A
S1130DA050E40E9470300E940931F801718360831D
S1130DB02196F8E0EF0EF11C0E5F1F4FCC15DD05F8
S1130DC041F68A2D9B2D0E94F934882D992DDF91AF
S1130DD0CF911F910F91FF90EF90DF90CF90BF9034
S1130DE0AF909F908F9008952F923F924F925F9271
S1130DF06F927F928F929F92AF92BF92CF92DF9227
S1130E00EF92FF920F931F93CF93DF93CDB7DEB78B
S1130E1060970FB6F894DEBF0FBECDBF4B013A0109
S1130E2080E190E00E946134382E292EC82ED92EFC
S1130E30A12CB12C240188E0480E511CCE01099646
S1130E400E942F017501EE0CFF1CEE0CFF1CEE0C32
S1130E50FF1CE60CF71CD7010C9111961C911197FD
S1130E6012962C91129713963C91139714964C91C9
S1130E70149715965C91159716966C91169717967C
S1130E807C91C4010E949601022F132F242F352F29
S1130E90462F572F682F792FCE0109960E943901CA
S1130EA029873A874B875C876D877E878F87988BE6
S1130EB0F7017096D70150960C91118122813381EC
S1130EC04481558166817781C2010E949601022F77
S1130ED0132F242F352F462F572F682F792FCE010C
S1130EE009960E94390129873A874B875C876D8769
S1130EF07E878F87988B89859A85AB85BC85F6011B
S1130F0080839183A283B3838D859E85AF85B889C1
S1130F1084839583A683B783FFEFAF1ABF0A88E063
S1130F20C80ED11CA2E0AA16B10409F087CFC401EF
S1130F300E94F934832D922D60960FB6F894DEBF8B
S1130F400FBECDBFDF91CF911F910F91FF90EF9016
S1130F50DF90CF90BF90AF909F908F907F906F90D5
S1130F605F904F903F902F9008952F923F924F9211
S1130F705F926F927F928F929F92AF92BF92CF9225
S1130F80DF92EF92FF920F931F93CF93DF93CDB72E
S1130F90DEB764970FB6F894DEBF0FBECDBF3B013A
S1130FA0E42EF52E80E290E00E9461348B8B9C8BC2
S1130FB0482E592E812C912CE98AFA8A212C312C25
S1130FC0CE0109960E942F01C988DA88E22CF32CFD
S1130FD05401AA0CBB1CAA0CBB1CAA0CBB1CF5011B
S1130FE0EC0DFD1D008111812281338144815581E5
S1130FF066817781C3018E0D9F1D0E94960129830E
S11310003A834B835C836D837E838F839887022F1F
S1131010132F242F352F462F572F682F792FCE01CA
S113102009960E94390129873A874B875C876D8727
S11310307E878F87988B88E0E80EF11CE0E2CE0E65
S1131040D11CF0E2EF16F10451F689859A85AB853F
S1131050BC85F20180839183A283B3838D859E85B1
S1131060AF85B88984839583A683B783FFEF8F1AEE
S11310709F0A88E0480E511CE4E08E16910409F0A2
S11310809FCF8B899C8964960FB6F894DEBF0FBE00
S1131090CDBFDF91CF911F910F91FF90EF90DF9023
S11310A0CF90BF90AF909F908F907F906F905F9004
S11310B04F903F902F9008952F923F924F925F92BE
S11310C06F927F928F929F92AF92BF92CF92DF9254
S11310D0EF92FF920F931F93CF93DF93CDB7DEB7B9
S11310E062970FB6F894DEBF0FBECDBF4B01342E0E
S11310F0252E80E490E00E946134898B9A8B482EDF
S1131100592E612C712CCE0109960E942F01C32CFB
S1131110D22CE12CF12C5301AA0CBB1CAA0CBB1C35
S1131120AA0CBB1CF501EC0DFD1D0081118122816F
S113113033814481558166817781C4018E0D9F1D61
S11311400E94960129833A834B835C836D837E835B
S11311508F839887022F132F242F352F462F572F35
S1131160682F792FCE0109960E94390129873A8781
S11311704B875C876D877E878F87988B88E0E80E26
S1131180F11CE0E4CE0ED11CF0E4EF16F10451F6AC
S113119089859A85AB85BC85F20180839183A2837E
S11311A0B3838D859E85AF85B88984839583A68313
S11311B0B783FFEF6F1A7F0A88E0480E511CE8E0FE
S11311C06E16710409F09FCF89899A8962960FB6C9
S11311D0F894DEBF0FBECDBFDF91CF911F910F9169
S11311E0FF90EF90DF90CF90BF90AF909F908F9043
S11311F07F906F905F904F903F902F900895AF92A3
S1131200BF92CF92DF92EF92FF920F931F93CF93EF
S1131210DF93CDB7DEB7A4970FB6F894DEBF0FBE49
S1131220CDBF7C015B016A0100E010E09801B901C7
S1131230A801CE0101960E94210100E010E098016E
S113124040E050E060E87FE3CE0109960E9421016E
S113125000E010E0980140E050E060E87FE3CE0158
S113126041960E94210100E010E09801B901A80113
S1131270CE0149960E942101BCA2ABA2DAA2C9A266
S11312809E012F5D3F4FAE014D5D5F4F61E070E009
S1131290C7010E946305AE014F5F5F4FBC01C701E8
S11312A00E94F40641E050E0BC01C7010E947006B0
S11312B0A4960FB6F894DEBF0FBECDBFDF91CF91D9
S11312C01F910F91FF90EF90DF90CF90BF90AF9060
S11312D00895AF92BF92CF92DF92EF92FF920F9355
S11312E01F93CF93DF93CDB7DEB7A4970FB6F894CF
S11312F0DEBF0FBECDBF7C015B016A0100E010E0E0
S11313009801B901A801CE0101960E94210100E0D3
S113131010E020E83FEB40E050E0BA01CE0109962E
S11313200E94210100E010E020E83FE340E050E0AB
S1131330BA01CE0141960E94210100E010E098011B
S1131340B901A801CE0149960E942101BCA2ABA219
S1131350DAA2C9A29E012F5D3F4FAE014D5D5F4FE2
S113136061E070E0C7010E946305AE014F5F5F4F0B
S1131370BC01C7010E94F40641E050E0BC01C70172
S11313800E947006A4960FB6F894DEBF0FBECDBFC0
S1131390DF91CF911F910F91FF90EF90DF90CF904D
S11313A0BF90AF900895AF92BF92CF92DF92EF9229
S11313B0FF920F931F93CF93DF93CDB7DEB7A4971C
S11313C00FB6F894DEBF0FBECDBF7C015B016A018E
S11313D000E010E0980140E050E060E87FE3CE01D7
S11313E001960E94210100E010E09801B901A801D2
S11313F0CE0109960E94210100E010E09801B90194
S1131400A801CE0141960E94210100E010E098015C
S113141040E050E060E87FEBCE0149960E94210154
S1131420BCA2ABA2DAA2C9A29E012F5D3F4FAE01BE
S11314304D5D5F4F61E070E0C7010E946305AE013E
S11314404F5F5F4FBC01C7010E94F40641E050E0CA
S1131450BC01C7010E947006A4960FB6F894DEBFC3
S11314600FBECDBFDF91CF911F910F91FF90EF90F1
S1131470DF90CF90BF90AF900895AF92BF92CF927C
S1131480DF92EF92FF920F931F93CF93DF93CDB729
S1131490DEB7A4970FB6F894DEBF0FBECDBF7C01B4
S11314A05B016A0100E010E0980143EF54E065E35A
S11314B07FE3CE0101960E94210100E010E0980133
S11314C043EF54E065E37FE3CE0109960E942101D6
S11314D000E010E0980143EF54E065E37FE3CE01C0
S11314E041960E94210100E010E0980143EF54E08E
S11314F065E37FEBCE0149960E942101BCA2ABA219
S1131500DAA2C9A29E012F5D3F4FAE014D5D5F4F30
S113151061E070E0C7010E946305AE014F5F5F4F59
S1131520BC01C7010E94F40641E050E0BC01C701C0
S11315300E947006A4960FB6F894DEBF0FBECDBF0E
S1131540DF91CF911F910F91FF90EF90DF90CF909B
S1131550BF90AF900895AF92BF92CF92DF92EF9277
S1131560FF920F931F93CF93DF93CDB7DEB7A4976A
S11315700FB6F894DEBF0FBECDBF7C015B016A01DC
S113158000E010E0980140E050E060E87FE3CE0125
S113159001960E94210100E010E09801B901A80120
S11315A0CE0109960E94210100E010E09801B901E2
S11315B0A801CE0141960E94210100E010E020E83C
S11315C03FE340E050E0BA01CE0149960E94210178
S11315D0BCA2ABA2DAA2C9A29E012F5D3F4FAE010D
S11315E04D5D5F4F61E070E0C7010E946305AE018D
S11315F04F5F5F4FBC01C7010E94F40641E050E019
S1131600BC01C7010E947006A4960FB6F894DEBF11
S11316100FBECDBFDF91CF911F910F91FF90EF903F
S1131620DF90CF90BF90AF900895AF92BF92CF92CA
S1131630DF92EF92FF920F931F93CF93DF93CDB777
S1131640DEB7A4970FB6F894DEBF0FBECDBF7C0102
S11316505B016A0100E010E0980140E050E060E8BE
S11316607FE3CE0101960E94210100E010E0980181
S1131670B901A801CE0109960E94210100E010E001
S11316809801B901A801CE0141960E94210103EFFE
S113169014E025E33FE3B901A801CE0149960E9475
S11316A02101BCA2ABA2DAA2C9A29E012F5D3F4FC9
S11316B0AE014D5D5F4F61E070E0C7010E946305BC
S11316C0AE014F5F5F4FBC01C7010E94F40641E0C9
S11316D050E0BC01C7010E947006A4960FB6F894AE
S11316E0DEBF0FBECDBFDF91CF911F910F91FF9051
S11316F0EF90DF90CF90BF90AF9008956F927F925C
S11317008F929F92AF92BF92CF92DF92EF92FF920D
S11317100F931F93CF93DF93CDB7DEB7C858D1098A
S11317200FB6F894DEBF0FBECDBF7C013B015A015A
S11317304901680100E010E0980140E050E060E8F1
S11317407FE3CE0101960E94210100E010E09801A0
S1131750B901A801CE0109960E94210100E010E020
S11317609801B901A801CE0141960E94210100E02F
S113177010E09801B901A801CE0149960E94210107
S113178000E010E09801B901A801CE0181960E9401
S1131790210100E010E0980140E050E060E87FE3C0
S11317A0CE0189960E94210100E010E09801B90160
S11317B0A801CE01C1960E94210100E010E0980129
S11317C0B901A801CE01C9960E94210100E010E0F0
S11317D09801B901A801CE018F5B9F4F0E9421019E
S11317E000E010E09801B901A801CE01875B9F4F8A
S11317F00E94210100E010E09801B901A801CE0186
S11318008F5A9F4F0E94210100E010E0980140E0B0
S113181050E060E87FE3CE01875A9F4F0E94210188
S113182000E010E09801B901A801CE018F599F4F43
S11318300E94210100E010E09801B901A801CE0145
S113184087599F4F0E94210100E010E0980140E079
S113185050E060E87FE3CE018F589F4F0E94210142
S113186000E010E09801B901A801CE0187589F4F0C
S11318700E942101CB57DF4F79826882C558D0403E
S1131880C957DF4F99828882C758D040CF57DF4F5E
S1131890B982A882C158D040CD57DF4FD982C882BF
S11318A0C358D0409E012F573F4FAE014B575F4F57
S11318B062E070E0C7010E946305AE014F5F5F4FB5
S11318C0BC01C7010E94B50742E050E0BC01C7015A
S11318D00E947006C857DF4F0FB6F894DEBF0FBEE4
S11318E0CDBFDF91CF911F910F91FF90EF90DF90CB
S11318F0CF90BF90AF909F908F907F906F900895FE
S11319006F927F928F929F92AF92BF92CF92DF920B
S1131910EF92FF920F931F93CF93DF93CDB7DEB770
S1131920C858D1090FB6F894DEBF0FBECDBF7C01F5
S11319303B015A014901680100E010E0980140E0D0
S113194050E060E87FE3CE0101960E94210100E0AF
S113195010E09801B901A801CE0109960E94210165
S113196000E010E09801B901A801CE0141960E945F
S1131970210100E010E09801B901A801CE014996C7
S11319800E94210100E010E09801B901A801CE01F4
S113199081960E94210100E010E0980140E050E0AF
S11319A060E87FE3CE0189960E94210100E010E007
S11319B09801B901A801CE01C1960E94210100E05D
S11319C010E09801B901A801CE01C9960E94210135
S11319D000E010E09801B901A801CE018F5B9F4F90
S11319E00E94210100E010E09801B901A801CE0194
S11319F0875B9F4F0E94210100E010E0980140E0C6
S1131A0050E060E87FE3CE018F5A9F4F0E9421018E
S1131A1000E010E09801B901A801CE01875A9F4F58
S1131A200E94210100E010E09801B901A801CE0153
S1131A308F599F4F0E94210100E010E09801B901E5
S1131A40A801CE0187599F4F0E94210100E010E0B8
S1131A509801B901A801CE018F589F4F0E9421011E
S1131A6000E010E0980140E050E060E87FEBCE0138
S1131A7087589F4F0E942101CB57DF4F798268829C
S1131A80C558D040C957DF4F99828882C758D04083
S1131A90CF57DF4FB982A882C158D040CD57DF4F0E
S1131AA0D982C882C358D0409E012F573F4FAE0100
S1131AB04B575F4F62E070E0C7010E946305AE01BF
S1131AC04F5F5F4FBC01C7010E94B50742E050E081
S1131AD0BC01C7010E947006C857DF4F0FB6F894C7
S1131AE0DEBF0FBECDBFDF91CF911F910F91FF904D
S1131AF0EF90DF90CF90BF90AF909F908F907F90AA
S1131B006F9008956F927F928F929F92AF92BF923F
S1131B10CF92DF92EF92FF920F931F93CF93DF93B5
S1131B20CDB7DEB7C858D1090FB6F894DEBF0FBEE3
S1131B30CDBF7C013B015A014901680100E010E07E
S1131B40980140E050E060E87FE3CE0101960E94F6
S1131B50210100E010E09801B901A801CE01099625
S1131B600E94210100E010E09801B901A801CE0112
S1131B7041960E94210100E010E09801B901A801FA
S1131B80CE0149960E94210100E010E09801B901BC
S1131B90A801CE0181960E94210100E010E0980185
S1131BA0B901A801CE0189960E94210100E010E04C
S1131BB0980140E050E060E87FE3CE01C1960E94C6
S1131BC0210100E010E09801B901A801CE01C996F5
S1131BD00E94210100E010E09801B901A801CE01A2
S1131BE08F5B9F4F0E94210100E010E0980140E0CC
S1131BF050E060E87FE3CE01875B9F4F0E942101A4
S1131C0000E010E09801B901A801CE018F5A9F4F5E
S1131C100E94210100E010E09801B901A801CE0161
S1131C20875A9F4F0E94210100E010E09801B901FA
S1131C30A801CE018F599F4F0E94210100E010E0BE
S1131C409801B901A801CE0187599F4F0E94210133
S1131C5000E010E09801B901A801CE018F589F4F10
S1131C600E94210100E010E0980140E050E060E8AB
S1131C707FE3CE0187589F4F0E942101CB57DF4F4E
S1131C8079826882C558D040C957DF4F99828882CB
S1131C90C758D040CF57DF4FB982A882C158D0402F
S1131CA0CD57DF4FD982C882C358D0409E012F57E9
S1131CB03F4FAE014B575F4F62E070E0C7010E9497
S1131CC06305AE014F5F5F4FBC01C7010E94B507BA
S1131CD042E050E0BC01C7010E947006C857DF4FC4
S1131CE00FB6F894DEBF0FBECDBFDF91CF911F9129
S1131CF00F91FF90EF90DF90CF90BF90AF909F90A7
S1131D008F907F906F9008956F927F928F929F92A1
S1131D10AF92BF92CF92DF92EF92FF920F931F93F5
S1131D20CF93DF93CDB7DEB7C858D1090FB6F89477
S1131D30DEBF0FBECDBF7C013B015A0149016801E2
S1131D4000E010E09801B901A801CE0101960E94BB
S1131D50210100E010E0980140E050E060E87FE3FA
S1131D60CE0109960E94210100E010E09801B9011A
S1131D70A801CE0141960E94210100E010E09801E3
S1131D80B901A801CE0149960E94210100E010E0AA
S1131D909801B901A801CE0181960E94210100E0B9
S1131DA010E09801B901A801CE0189960E94210191
S1131DB000E010E0980140E050E060E87FE3CE01ED
S1131DC0C1960E94210100E010E09801B901A80128
S1131DD0CE01C9960E94210100E010E09801B901EA
S1131DE0A801CE018F5B9F4F0E94210100E010E00B
S1131DF09801B901A801CE01875B9F4F0E94210180
S1131E0000E010E09801B901A801CE018F5A9F4F5C
S1131E100E94210100E010E0980140E050E060E8F9
S1131E207FE3CE01875A9F4F0E94210100E010E01A
S1131E30980140E050E060E87FE3CE018F599F4F66
S1131E400E94210100E010E09801B901A801CE012F
S1131E5087599F4F0E94210100E010E09801B901C9
S1131E60A801CE018F589F4F0E94210100E010E08D
S1131E709801B901A801CE0187589F4F0E94210102
S1131E80CB57DF4F79826882C558D040C957DF4F9E
S1131E9099828882C758D040CF57DF4FB982A88231
S1131EA0C158D040CD57DF4FD982C882C358D040E3
S1131EB09E012F573F4FAE014B575F4F62E070E0DA
S1131EC0C7010E946305AE014F5F5F4FBC01C701AC
S1131ED00E94B50742E050E0BC01C7010E947006B1
S1131EE0C857DF4F0FB6F894DEBF0FBECDBFDF91EA
S1131EF0CF911F910F91FF90EF90DF90CF90BF9003
S1131F00AF909F908F907F906F9008956F927F9283
S1131F108F929F92AF92BF92CF92DF92EF92FF92F5
S1131F200F931F93CF93DF93CDB7DEB7C858D10972
S1131F300FB6F894DEBF0FBECDBF7C013B015A0142
S1131F404901680100E010E09801B901A801CE013F
S1131F5001960E94210100E010E09801B901A80156
S1131F60CE0109960E94210100E010E09801B90118
S1131F70A801CE0141960E94210100E010E09801E1
S1131F8040E050E060E87FE3CE0149960E942101E1
S1131F9000E010E0980140E050E060E87FE3CE010B
S1131FA081960E94210100E010E09801B901A80186
S1131FB0CE0189960E94210100E010E09801B90148
S1131FC0A801CE01C1960E94210100E010E0980111
S1131FD0B901A801CE01C9960E94210100E010E0D8
S1131FE09801B901A801CE018F5B9F4F0E94210186
S1131FF000E010E0980140E050E060E87FE3CE01AB
S1132000875B9F4F0E94210100E010E09801B90115
S1132010A801CE018F5A9F4F0E94210100E010E0D9
S11320209801B901A801CE01875A9F4F0E9421014E
S113203000E010E09801B901A801CE018F599F4F2B
S11320400E94210100E010E09801B901A801CE012D
S113205087599F4F0E94210100E010E0980140E061
S113206050E060E87FE3CE018F589F4F0E9421012A
S113207000E010E09801B901A801CE0187589F4FF4
S11320800E942101CB57DF4F79826882C558D04026
S1132090C957DF4F99828882C758D040CF57DF4F46
S11320A0B982A882C158D040CD57DF4FD982C882A7
S11320B0C358D0409E012F573F4FAE014B575F4F3F
S11320C062E070E0C7010E946305AE014F5F5F4F9D
S11320D0BC01C7010E94B50742E050E0BC01C70142
S11320E00E947006C857DF4F0FB6F894DEBF0FBECC
S11320F0CDBFDF91CF911F910F91FF90EF90DF90B3
S1132100CF90BF90AF909F908F907F906F900895E5
S11321106F927F928F929F92AF92BF92CF92DF92F3
S1132120EF92FF920F931F93CF93DF93CDB7DEB758
S1132130C858D1090FB6F894DEBF0FBECDBF7C01DD
S11321403B015A014901680100E010E0980140E0B8
S113215050E060E87FE3CE0101960E94210100E097
S113216010E09801B901A801CE0109960E9421014D
S113217000E010E09801B901A801CE0141960E9447
S1132180210100E010E09801B901A801CE014996AF
S11321900E94210100E010E09801B901A801CE01DC
S11321A081960E94210100E010E020E03FE3B901A4
S11321B0A801CE0189960E94210100E010E020E0F0
S11321C03FEB40E050E060E07FE3CE01C1960E9427
S11321D0210100E010E09801B901A801CE01C996DF
S11321E00E94210100E010E09801B901A801CE018C
S11321F08F5B9F4F0E94210100E010E020E03FEB45
S113220040E050E060E07FE3CE01875B9F4F0E9497
S1132210210100E010E020E03FE3B901A801CE0174
S11322208F5A9F4F0E94210100E010E09801B901EC
S1132230A801CE01875A9F4F0E94210100E010E0BF
S11322409801B901A801CE018F599F4F0E94210125
S113225000E010E09801B901A801CE0187599F4F11
S11322600E94210100E010E09801B901A801CE010B
S11322708F589F4F0E94210100E010E0980140E038
S113228050E060E87FE3CE0187589F4F0E94210110
S1132290CB57DF4F79826882C558D040C957DF4F8A
S11322A099828882C758D040CF57DF4FB982A8821D
S11322B0C158D040CD57DF4FD982C882C358D040CF
S11322C09E012F573F4FAE014B575F4F62E070E0C6
S11322D0C7010E946305AE014F5F5F4FBC01C70198
S11322E00E94B50742E050E0BC01C7010E9470069D
S11322F0C857DF4F0FB6F894DEBF0FBECDBFDF91D6
S1132300CF911F910F91FF90EF90DF90CF90BF90EE
S1132310AF909F908F907F906F9008956F927F926F
S11323208F929F92AF92BF92CF92DF92EF92FF92E1
S11323300F931F93CF93DF93CDB7DEB7C858D1095E
S11323400FB6F894DEBF0FBECDBF7C013B015A012E
S11323504901680100E010E0980140E050E060E8C5
S11323607FE3CE0101960E94210100E010E0980174
S1132370B901A801CE0109960E94210100E010E0F4
S11323809801B901A801CE0141960E94210100E003
S113239010E09801B901A801CE0149960E942101DB
S11323A000E010E09801B901A801CE0181960E94D5
S11323B0210100E010E09801B901A801CE0189963D
S11323C00E94210100E010E020E83FE340E050E0FB
S11323D0BA01CE01C1960E94210100E010E09801EB
S11323E0B901A801CE01C9960E94210100E010E0C4
S11323F09801B901A801CE018F5B9F4F0E94210172
S113240000E010E020E83FE340E050E0BA01CE01F4
S1132410875B9F4F0E94210100E010E09801B90101
S1132420A801CE018F5A9F4F0E94210100E010E0C5
S11324309801B901A801CE01875A9F4F0E9421013A
S113244000E010E09801B901A801CE018F599F4F17
S11324500E94210100E010E09801B901A801CE0119
S113246087599F4F0E94210100E010E09801B901B3
S1132470A801CE018F589F4F0E94210100E010E077
S1132480980140E050E060E87FE3CE0187589F4F19
S11324900E942101CB57DF4F79826882C558D04012
S11324A0C957DF4F99828882C758D040CF57DF4F32
S11324B0B982A882C158D040CD57DF4FD982C88293
S11324C0C358D0409E012F573F4FAE014B575F4F2B
S11324D062E070E0C7010E946305AE014F5F5F4F89
S11324E0BC01C7010E94B50742E050E0BC01C7012E
S11324F00E947006C857DF4F0FB6F894DEBF0FBEB8
S1132500CDBFDF91CF911F910F91FF90EF90DF909E
S1132510CF90BF90AF909F908F907F906F900895D1
S11325202F923F924F925F926F927F928F929F92DF
S1132530AF92BF92CF92DF92EF92FF920F931F93CD
S1132540CF93DF93CDB7DEB7A4970FB6F894DEBF71
S11325500FBECDBF7C011B016A01B901882777FD3D
S11325608095982F0E943C312BED3FE049E450E4E4
S11325700E941E3320E030E044E353E40E947030B4
S113258020E030E040E05FE30E941E334B015C0139
S11325900E946D302B013C0100E010E09801AB017A
S11325A0BC01CE0101960E942101C501B4010E9423
S11325B081334B015C01B7FAB094B7F8B09495013C
S11325C0840140E050E0BA01CE0109960E94210145
S11325D09501840140E050E0BA01CE0141960E9489
S11325E0210100E010E09801B301A201CE01499657
S11325F00E9421013CA22BA2DAA2C9A29E012F5D56
S11326003F4FAE014D5D5F4F61E070E0C7010E9436
S11326106305AE014F5F5F4FBC01C7010E94F40622
S113262041E050E0BC01C7010E947006A4960FB6B9
S1132630F894DEBF0FBECDBFDF91CF911F910F91F4
S1132640FF90EF90DF90CF90BF90AF909F908F90CE
S11326507F906F905F904F903F902F9008952F92AE
S11326603F924F925F926F927F928F929F92AF921E
S1132670BF92CF92DF92EF92FF920F931F93CF936B
S1132680DF93CDB7DEB7A4970FB6F894DEBF0FBEC5
S1132690CDBF7C011B016A01B901882777FD8095B4
S11326A0982F0E943C312BED3FE049E450E40E9416
S11326B01E3320E030E044E353E40E94703020E015
S11326C030E040E05FE30E941E334B015C010E9456
S11326D06D302B013C0100E010E09801AB01BC011E
S11326E0CE0101960E942101C501B4010E948133EB
S11326F04B015C01AB01BC01705800E010E0980193
S1132700CE0109960E94210100E010E09801B50174
S1132710A401CE0141960E94210100E010E098013D
S1132720B301A201CE0149960E9421013CA22BA231
S1132730DAA2C9A29E012F5D3F4FAE014D5D5F4FEE
S113274061E070E0C7010E946305AE014F5F5F4F17
S1132750BC01C7010E94F40641E050E0BC01C7017E
S11327600E947006A4960FB6F894DEBF0FBECDBFCC
S1132770DF91CF911F910F91FF90EF90DF90CF9059
S1132780BF90AF909F908F907F906F905F904F908D
S11327903F902F9008954F925F926F927F92AF92E5
S11327A0BF92CF92DF92EF92FF920F931F93CF933A
S11327B0DF93CDB7DEB7A4970FB6F894DEBF0FBE94
S11327C0CDBF7C015B016A01B901882777FD809543
S11327D0982F0E943C312BED3FE049E450E40E94E5
S11327E01E3320E030E044E353E40E9470302B01B8
S11327F03C01905820E030E040E05FE30E941E334B
S11328000E94DD308B019C0140E050E0BA01CE0112
S113281001960E94210100E010E09801B901A8018D
S1132820CE0109960E94210100E010E09801B9014F
S1132830A801CE0141960E94210120E030E040E051
S11328405FE3C301B2010E941E330E94DD308B019D
S11328509C0140E050E0BA01CE0149960E9421015A
S1132860BCA2ABA2DAA2C9A29E012F5D3F4FAE016A
S11328704D5D5F4F61E070E0C7010E946305AE01EA
S11328804F5F5F4FBC01C7010E94F40641E050E076
S1132890BC01C7010E947006A4960FB6F894DEBF6F
S11328A00FBECDBFDF91CF911F910F91FF90EF909D
S11328B0DF90CF90BF90AF907F906F905F904F90DC
S11328C008952F923F924F925F926F927F928F92D0
S11328D09F92AF92BF92CF92DF92EF92FF920F93AB
S11328E01F93CF93DF93CDB7DEB7CC50D2400FB652
S11328F0F894DEBF0FBECDBF5C013B012A01490144
S1132900180100E010E0980140E050E060E87FE347
S1132910CE0101960E94210100E010E09801B90166
S1132920A801CE0109960E94210100E010E098015F
S1132930B901A801CE0141960E94210100E010E0F6
S11329409801B901A801CE0149960E94210100E035
S113295010E09801B901A801CE0181960E942101DD
S113296000E010E09801B901A801CE0189960E9407
S1132970210100E010E09801B901A801CE01C1963F
S11329800E94210100E010E09801B901A801CE01E4
S1132990C9960E94210100E010E09801B901A80144
S11329A0CE018F5B9F4F0E94210100E010E098014F
S11329B040E050E060E87FE3CE01875B9F4F0E94D8
S11329C0210100E010E09801B901A801CE018F5A5D
S11329D09F4F0E94210100E010E09801B901A80175
S11329E0CE01875A9F4F0E94210100E010E0980118
S11329F0B901A801CE018F599F4F0E94210100E027
S1132A0010E09801B901A801CE0187599F4F0E9497
S1132A10210100E010E09801B901A801CE018F580E
S1132A209F4F0E94210100E010E09801B901A80124
S1132A30CE0187589F4F0E94210100E010E09801C9
S1132A40B901A801CE018F579F4F0E94210100E0D8
S1132A5010E09801B901A801CE0187579F4F0E9449
S1132A60210100E010E0980140E050E060E87FE3DD
S1132A70CE018F569F4F0E94210100E010E0980183
S1132A80B901A801CE0187569F4F0E94210100E0A1
S1132A9010E09801B901A801CE018F559F4F0E9403
S1132AA0210100E010E09801B901A801CE01875589
S1132AB09F4F0E94210100E010E09801B901A80194
S1132AC0CE018F549F4F0E94210100E010E0980135
S1132AD0B901A801CE0187549F4F0E94210100E053
S1132AE010E09801B901A801CE018F539F4F0E94B5
S1132AF0210100E010E09801B901A801CE0187533B
S1132B009F4F0E94210100E010E09801B901A80143
S1132B10CE018F529F4F0E94210100E010E09801E6
S1132B2040E050E060E87FE3CE0187529F4F0E946F
S1132B30210100E010E09801B901A801CE018F51F4
S1132B409F4F0E94210100E010E09801B901A80103
S1132B50CE0187519F4F0E94210100E010E09801AF
S1132B60B901A801CE018F509F4F0E94210100E0BE
S1132B7010E09801B901A801CE0187509F4F0E942F
S1132B80210100E010E09801B901A801CE018F5F96
S1132B909E4F0E94210100E010E09801B901A801B4
S1132BA0CE01875F9E4F0E94210100E010E0980152
S1132BB0B901A801CE018F5E9E4F0E94210100E061
S1132BC010E09801B901A801CE01875E9E4F0E94D2
S1132BD0210100E010E0980140E050E060E87FE36C
S1132BE0CE018F5D9E4F0E94210100E010E098010C
S1132BF0B901A801CE01875D9E4F0E94210100E02A
S1132C0010E09801B901A801CE018F5C9E4F0E948B
S1132C10210100E010E09801B901A801CE01875C10
S1132C209E4F0E94210100E010E09801B901A80123
S1132C30CE018F5B9E4F0E94210100E010E09801BD
S1132C40B901A801CE01875B9E4F0E94210100E0DB
S1132C5010E09801B901A801CE018F5A9E4F0E943D
S1132C60210100E010E09801B901A801CE01875AC2
S1132C709E4F0E94210100E010E09801B901A801D3
S1132C80CE018F599E4F0E94210100E010E098016F
S1132C90B901A801CE0187599E4F0E94210100E08D
S1132CA010E0980140E050E060E87FE3CE018F58E7
S1132CB09E4F0E94210100E010E09801B901A80193
S1132CC0CE0187589E4F0E94210100E010E0980138
S1132CD0B901A801CE018F579E4F0E94210100E047
S1132CE010E09801B901A801CE0187579E4F0E94B8
S1132CF0210100E010E09801B901A801CE018F562E
S1132D009E4F0E94210100E010E09801B901A80142
S1132D10CE0187569E4F0E94210100E010E09801E9
S1132D20B901A801CE018F559E4F0E94210100E0F8
S1132D3010E0980140E050E060E87FE3CE01875561
S1132D409E4F0E94210100E010E09801B901A80102
S1132D50CE018F549E4F0E94210100E010E09801A3
S1132D60B901A801CE0187549E4F0E94210100E0C1
S1132D7010E09801B901A801CE018F539E4F0E9423
S1132D80210100E010E09801B901A801CE018753A8
S1132D909E4F0E94210100E010E09801B901A801B2
S1132DA0CE018F529E4F0E94210100E010E0980155
S1132DB0B901A801CE0187529E4F0E94210100E073
S1132DC010E09801B901A801CE018F519E4F0E94D5
S1132DD0210100E010E09801B901A801CE0187515A
S1132DE09E4F0E94210100E010E09801B901A80162
S1132DF0CE018F509E4F0E94210100E010E0980107
S1132E0040E050E060E87FE3CE0187509E4F0E948F
S1132E102101C95FDD4F79826882C750D240C75F04
S1132E20DD4F99828882C950D240C55FDD4FF98257
S1132E30E882CB50D240CF5FDD4F59824882C150E7
S1132E40D240CD5FDD4F39822882C350D240CB5F60
S1132E50DD4FD982C882C550D2409E012F5F3D4FBD
S1132E60AE01495F5D4F63E070E0C5010E946305F8
S1132E70AE014F5F5F4FBC01C5010E945C0843E097
S1132E8050E0BC01C5010E947006C45FDD4F0FB65F
S1132E90F894DEBF0FBECDBFDF91CF911F910F918C
S1132EA0FF90EF90DF90CF90BF90AF909F908F9066
S1132EB07F906F905F904F903F902F9008952F9246
S1132EC03F924F925F926F927F928F929F92AF92B6
S1132ED0BF92CF92DF92EF92FF920F931F93CF9303
S1132EE0DF93CDB7DEB7CC50D2400FB6F894DEBF37
S1132EF00FBECDBF5C013B012A014901180100E06E
S1132F0010E0980140E050E060E87FE3CE010196D4
S1132F100E94210100E010E09801B901A801CE014E
S1132F2009960E94210100E010E09801B901A8016E
S1132F30CE0141960E94210100E010E09801B90100
S1132F40A801CE0149960E94210100E010E09801F9
S1132F50B901A801CE0181960E94210100E010E090
S1132F609801B901A801CE0189960E94210100E0CF
S1132F7010E09801B901A801CE01C1960E94210177
S1132F8000E010E09801B901A801CE01C9960E94A1
S1132F90210100E010E09801B901A801CE018F5B86
S1132FA09F4F0E94210100E010E0980140E050E0B2
S1132FB060E87FE3CE01875B9F4F0E94210100E020
S1132FC010E09801B901A801CE018F5A9F4F0E94C9
S1132FD0210100E010E09801B901A801CE01875A4F
S1132FE09F4F0E94210100E010E09801B901A8015F
S1132FF0CE018F599F4F0E94210100E010E09801FB
S1133000B901A801CE0187599F4F0E94210100E018
S113301010E09801B901A801CE018F589F4F0E947A
S1133020210100E010E09801B901A801CE01875800
S11330309F4F0E94210100E010E09801B901A8010E
S1133040CE018F579F4F0E94210100E010E09801AC
S1133050B901A801CE0187579F4F0E94210100E0CA
S113306010E0980140E050E060E87FE3CE018F5625
S11330709F4F0E94210100E010E09801B901A801CE
S1133080CE0187569F4F0E94210100E010E0980175
S1133090B901A801CE018F559F4F0E94210100E084
S11330A010E09801B901A801CE0187559F4F0E94F5
S11330B0210100E010E09801B901A801CE018F546C
S11330C09F4F0E94210100E010E09801B901A8017E
S11330D0CE0187549F4F0E94210100E010E0980127
S11330E0B901A801CE018F539F4F0E94210100E036
S11330F010E09801B901A801CE0187539F4F0E94A7
S1133100210100E010E09801B901A801CE018F521D
S11331109F4F0E94210100E010E0980140E050E040
S113312060E87FE3CE0187529F4F0E94210100E0B7
S113313010E09801B901A801CE018F519F4F0E9460
S1133140210100E010E09801B901A801CE018751E6
S11331509F4F0E94210100E010E09801B901A801ED
S1133160CE018F509F4F0E94210100E010E0980192
S1133170B901A801CE0187509F4F0E94210100E0B0
S113318010E09801B901A801CE018F5F9E4F0E9403
S1133190210100E010E09801B901A801CE01875F88
S11331A09E4F0E94210100E010E09801B901A8019E
S11331B0CE018F5E9E4F0E94210100E010E0980135
S11331C0B901A801CE01875E9E4F0E94210100E053
S11331D010E0980140E050E060E87FE3CE018F5DAD
S11331E09E4F0E94210100E010E09801B901A8015E
S11331F0CE01875D9E4F0E94210100E010E09801FE
S1133200B901A801CE018F5C9E4F0E94210100E00C
S113321010E09801B901A801CE01875C9E4F0E947D
S1133220210100E010E09801B901A801CE018F5BF3
S11332309E4F0E94210100E010E09801B901A8010D
S1133240CE01875B9E4F0E94210100E010E09801AF
S1133250B901A801CE018F5A9E4F0E94210100E0BE
S113326010E09801B901A801CE01875A9E4F0E942F
S1133270210100E010E09801B901A801CE018F59A5
S11332809E4F0E94210100E010E0980140E050E0D0
S113329060E87FE3CE0187599E4F0E94210100E040
S11332A010E09801B901A801CE018F589E4F0E94E9
S11332B0210100E010E09801B901A801CE0187586E
S11332C09E4F0E94210100E010E09801B901A8017D
S11332D0CE018F579E4F0E94210100E010E098011B
S11332E0B901A801CE0187579E4F0E94210100E039
S11332F010E09801B901A801CE018F569E4F0E949B
S1133300210100E010E09801B901A801CE0187561F
S11333109E4F0E94210100E010E09801B901A8012C
S1133320CE018F559E4F0E94210100E010E09801CC
S1133330B901A801CE0187559E4F0E94210100E0EA
S113334010E09801B901A801CE018F549E4F0E944C
S1133350210100E010E0980140E050E060E87FE3E4
S1133360CE0187549E4F0E94210100E010E0980195
S1133370B901A801CE018F539E4F0E94210100E0A4
S113338010E09801B901A801CE0187539E4F0E9415
S1133390210100E010E09801B901A801CE018F528B
S11333A09E4F0E94210100E010E09801B901A8019C
S11333B0CE0187529E4F0E94210100E010E0980147
S11333C0B901A801CE018F519E4F0E94210100E056
S11333D010E09801B901A801CE0187519E4F0E94C7
S11333E0210100E010E0980140E050E060E87FE354
S11333F0CE018F509E4F0E94210100E010E0980101
S1133400B901A801CE0187509E4F0E942101C95FD6
S1133410DD4F79826882C750D240C75FDD4F998201
S11334208882C950D240C55FDD4FF982E882CB5013
S1133430D240CF5FDD4F59824882C150D240CD5F28
S1133440DD4F39822882C350D240CB5FDD4FD98211
S1133450C882C550D2409E012F5F3D4FAE01495FE7
S11334605D4F63E070E0C5010E946305AE014F5FEC
S11334705F4FBC01C5010E945C0843E050E0BC0101
S1133480C5010E947006C45FDD4F0FB6F894DEBF1D
S11334900FBECDBFDF91CF911F910F91FF90EF90A1
S11334A0DF90CF90BF90AF909F908F907F906F9060
S11334B05F904F903F902F9008952F923F924F929C
S11334C05F926F927F928F929F92AF92BF92CF92B0
S11334D0DF92EF92FF920F931F93CF93DF93CDB7B9
S11334E0DEB7C451D2400FB6F894DEBF0FBECDBFD5
S11334F0C35FDD4F99838883CD50D2402B01C15FD8
S1133500DD4F59834883CF50D2403901CF5EDD4F20
S113351019830883C151D2401701CD5EDD4FD98292
S1133520C882C351D240B501882777FD8095982F72
S11335300E943C312BED3FE049E450E40E941E33ED
S113354020E030E044E353E40E9470304B015C011E
S113355000E010E0980140E050E060E87FE3CE0135
S113356001960E94210100E010E09801B901A80130
S1133570CE0109960E94210100E010E09801B901F2
S1133580A801CE0141960E94210100E010E09801BB
S1133590B901A801CE0149960E94210100E010E082
S11335A09801B901A801CE0181960E94210100E091
S11335B010E09801B901A801CE0189960E94210169
S11335C000E010E09801B901A801CE01C1960E9463
S11335D0210100E010E09801B901A801CE01C996CB
S11335E00E94210100E010E09801B901A801CE0178
S11335F08F5B9F4F0E94210100E010E0980140E0A2
S113360050E060E87FE3CE01875B9F4F0E94210179
S113361000E010E09801B901A801CE018F5A9F4F34
S11336200E94210100E010E09801B901A801CE0137
S1133630875A9F4F0E94210100E010E09801B901D0
S1133640A801CE018F599F4F0E94210100E010E094
S11336509801B901A801CE0187599F4F0E94210109
S113366000E010E09801B901A801CE018F589F4FE6
S11336700E94210100E010E09801B901A801CE01E7
S113368087589F4F0E94210100E010E09801B90182
S1133690A801CE018F579F4F0E94210100E010E046
S11336A09801B901A801CE0187579F4F0E942101BB
S11336B000E010E0980140E050E060E87FE3CE01D4
S11336C08F569F4F0E94210100E010E09801B9013C
S11336D0A801CE0187569F4F0E94210100E010E00F
S11336E09801B901A801CE018F559F4F0E94210175
S11336F000E010E09801B901A801CE0187559F4F61
S11337000E94210100E010E09801B901A801CE0156
S11337108F549F4F0E94210100E010E09801B901ED
S1133720A801CE0187549F4F0E94210100E010E0C0
S11337309801B901A801CE018F539F4F0E94210126
S113374000E010E09801B901A801CE0187539F4F12
S11337500E94210100E010E09801B901A801CE0106
S11337608F529F4F0E94210100E010E0980140E039
S113377050E060E87FE3CE0187529F4F0E94210111
S113378000E010E09801B901A801CE018F519F4FCC
S11337900E94210100E010E09801B901A801CE01C6
S11337A087519F4F0E94210100E010E09801B90168
S11337B0A801CE018F509F4F0E94210100E010E02C
S11337C09801B901A801CE0187509F4F0E942101A1
S11337D000E010E09801B901A801CE018F5F9E4F6F
S11337E00E94210100E010E09801B901A801CE0176
S11337F0875F9E4F0E94210100E010E09801B9010B
S1133800A801CE018F5E9E4F0E94210100E010E0CE
S11338109801B901A801CE01875E9E4F0E94210143
S113382000E010E0980140E050E060E87FE3CE0162
S11338308F5D9E4F0E94210100E010E09801B901C4
S1133840A801CE01875D9E4F0E94210100E010E097
S11338509801B901A801CE018F5C9E4F0E942101FD
S113386000E010E09801B901A801CE01875C9E4FE9
S11338700E94210100E010E09801B901A801CE01E5
S11338808F5B9E4F0E94210100E010E09801B90176
S1133890A801CE01875B9E4F0E94210100E010E049
S11338A09801B901A801CE018F5A9E4F0E942101AF
S11338B000E010E09801B901A801CE01875A9E4F9B
S11338C00E94210100E010E09801B901A801CE0195
S11338D08F599E4F0E94210100E010E0980140E0C2
S11338E050E060E87FE3CE0187599E4F0E9421019A
S11338F000E010E09801B901A801CE018F589E4F55
S11339000E94210100E010E09801B901A801CE0154
S113391087589E4F0E94210100E010E09801B901F0
S1133920A801CE018F579E4F0E94210100E010E0B4
S11339309801B901A801CE0187579E4F0E94210129
S113394000E010E09801B901A801CE018F569E4F06
S11339500E94210100E010E09801B901A801CE0104
S113396087569E4F0E94210100E010E09801B901A2
S1133970A801CE018F559E4F0E94210100E010E066
S11339809801B901A801CE0187559E4F0E942101DB
S1133990C501B4010E946D306B017C018B019C0157
S11339A040E050E0BA01CE018F549E4F0E942101A5
S11339B0C501B4010E9481334B015C0100E010E0B9
S11339C09801AB01BC01CE0187549E4F0E94210196
S11339D000E010E09801B901A801CE018F539E4F79
S11339E00E94210100E010E09801B901A801CE0174
S11339F087539E4F0E94210100E010E09801B90115
S1133A00A801CE018F529E4F0E94210100E010E0D8
S1133A109801B901A801CE0187529E4F0E9421014D
S1133A2000E010E09801B901A801CE018F519E4F2A
S1133A300E94210100E010E09801B901A801CE0123
S1133A4087519E4F0E94210100E010E09801B501CA
S1133A50A401CE018F509E4F0E942101970186013F
S1133A6040E050E0BA01CE0187509E4F0E942101F0
S1133A70C95FDD4F59824882C750D240C75FDD4FCE
S1133A8079826882C950D240C55FDD4F398228826D
S1133A90CB50D240C15FDD4F88819981CF50D24055
S1133AA0CF5FDD4F99838883C150D240CF5EDD4F15
S1133AB088819981C151D240CD5FDD4F998388833C
S1133AC0C350D240CD5EDD4F88819981C351D2402D
S1133AD0CB5FDD4F99838883C550D2409E012F5F11
S1133AE03D4FAE01495F5D4F63E070E0C35FDD4F62
S1133AF088819981CD50D2400E946305AE014F5F09
S1133B005F4FBC01C35FDD4F88819981CD50D240A6
S1133B100E945C0843E050E0BC01C35FDD4F888134
S1133B209981CD50D2400E947006CC5EDD4F0FB615
S1133B30F894DEBF0FBECDBFDF91CF911F910F91DF
S1133B40FF90EF90DF90CF90BF90AF909F908F90B9
S1133B507F906F905F904F903F902F9008958DEFDE
S1133B6090E00E940D2F08953F924F925F926F92C2
S1133B707F928F929F92AF92BF92CF92DF92EF92F9
S1133B80FF920F931F93CF93DF9300D000D0CDB754
S1133B90DEB79A8389834B018C010F5F1F4F60E06E
S1133BA070E0C8010E94012D2C0161E070E0C801A1
S1133BB00E94012D5C011C821B8209811A8103521F
S1133BC01F4FE980FA8084E0E80EF11CC980DA8096
S1133BD096E0C90ED11C33243394BDC0A2E08A16EA
S1133BE09104B1F144F48114910489F0E1E08E165A
S1133BF09104C1F0F3CFF4E08F16910409F44BC0A3
S1133C00B4F195E08916910409F472C0E7CFB201CA
S1133C10C6010E94102E682FC7010E94192FD801D7
S1133C203C9299C06B817C81640D751DC6010E9414
S1133C30102E843219F4F80130828DC0682FC70128
S1133C400E94192F8B819C8101969C838B8383C056
S1133C50C7010E94152F482F50E06B817C816A0DAB
S1133C607B1DC6010E947B2ED8013C9274C0C70103
S1133C700E94152F782E682FC7010E94192F472DF7
S1133C8050E06B817C816A0D7B1DC6010E947B2EF6
S1133C90F801308260C0C7010E94152F482F50E000
S1133CA04D30510561F4D8013C9244E250E06B81FF
S1133CB07C816A0D7B1DC6010E947B2E4CC048305E
S1133CC0510549F4EB81FC811E161F0624F431973B
S1133CD0FC83EB8340C06B817C816A0D7B1DC60134
S1133CE00E947B2E8B819C8101969C838B8333C0A5
S1133CF0C7010E94152F682E712C682FC7010E94DE
S1133D00192F9DE06916710461F4D8013C9244E2D4
S1133D1050E06B817C816A0D7B1DC6010E947B2E65
S1133D201AC0B8E06B16710449F4EB81FC811E16CD
S1133D301F0624F43197FC83EB830DC06B817C81D7
S1133D406A0D7B1DA301C6010E947B2E8B819C8181
S1133D5001969C838B83D8018C91882309F43ECFF0
S1133D60E981FA81E352FF4F10820F900F900F9078
S1133D700F90DF91CF911F910F91FF90EF90DF9003
S1133D80CF90BF90AF909F908F907F906F905F90F7
S1133D904F903F900895FC01118210820895FC0118
S1133DA0208131812F5F3F4FF901EE0FFF1FE80F94
S1133DB0F91F71836083FC01318320830895FC0122
S1133DC020813181121613068CF421503109F90136
S1133DD0EE0FFF1FE80FF91F5281438113821282F5
S1133DE0FC0131832083852F942F089580E492E48D
S1133DF0089580E090E00E9426390E94DB350E94FD
S1133E00D63560E177E20E94F233BC0180E090E0B5
S1133E100E942C3908950F931F93CF93DF93EC01E5
S1133E200E940203CE0101960E94A42B8E010C5F16
S1133E301F4FC8010E940D2FCE0105960E943F021C
S1133E40CE0106960E94C62DCE010D960E943D031A
S1133E50CE010E960E94CB1E60E770E0C8010E945E
S1133E601D2FCE010E94F91EFE01E752FF4F118261
S1133E701082C552DF4F19821882DF91CF911F91B2
S1133E800F9108952F923F924F925F926F927F927B
S1133E908F929F92AF92BF92CF92DF92EF92FF9256
S1133EA00F931F93CF93DF93CDB7DEB72C970FB645
S1133EB0F894DEBF0FBECDBF4C0129013A01E9825F
S1133EC0FA820B831C83AD82BE82CF82D886FB012B
S1133ED03197E135F10510F00C944A2AE65DFF4F65
S1133EE00C9425342FEF821A920A20E040E050E02F
S1133EF069817A81C4010E94B12C9C0140E050E0A8
S1133F00B201C4010E94842C20E041E050E06981A8
S1133F107A81C4010E94B12C9C0141E050E0B201BD
S1133F20C4010E94842C0C944A2A3FEF831A930AFA
S1133F30B201C4010E94012DAC01B201C4010E946E
S1133F40762D69817A81C4010E94012DAC01B201F0
S1133F50C4010E94762D0C944A2A86E0880E911C96
S1133F6069817A81C4010E94102E482F552747FD8C
S1133F705095B201C4010E947B2E0C944A2A698197
S1133F807A8101960E94012DAC01B201C40106960A
S1133F900E947B2E0C944A2A69817A8106960E949B
S1133FA0102E482F552747FD5095B201C4010196A4
S1133FB00E94762D0C944A2A49815A81B2010696B0
S1133FC00E947B2E0C944A2A49815A81B20101969F
S1133FD00E94762D0C944A2A06960E94A32EAC01C8
S1133FE0B201C40101960E94762D0C944A2AB901AB
S1133FF001960E94012DBC01C40106960E94C12EA7
S11340000C944A2A29813A8140E050E0B201019699
S11340100E94842C0C944A2A29813A8141E050E080
S1134020B20101960E94842C0C944A2A9FEF891AAB
S1134030990A69817A81C4010E94012D8C01B2011F
S1134040C4010E94012DB8010E9406030C944A2A5F
S1134050F901EC50FF4FA981A0830C944A2AE9810D
S1134060FA81EC50FF4F4081552747FD5095B2012E
S113407006960E947B2E0C944A2A2093FC000C94F2
S11340804A2A8091F400882311F40C944A2A84016A
S113409007521F4FF801608171816F5F7F4FC40128
S11340A00E960E94CF1EF1E04F1A5108D8014D928E
S11340B05C920C944A2A8091F500882311F40C94A4
S11340C04A2A8091FC00882359F0F401E752FF4FFB
S11340D0608171816F5F7F4FC4010E960E94CF1E75
S11340E0F401E752FF4FB1E04B1A5108518240826C
S11340F00C944A2A8091F600882311F40C944A2ADD
S11341008091FC00882359F0F401E752FF4F60814D
S113411071816F5F7F4FC4010E960E94CF1EF40120
S1134120E752FF4F21E0421A5108518240820C9419
S11341304A2A8091F700882311F40C944A2A80912A
S1134140FC00882359F0F401E752FF4F608171812C
S11341506F5F7F4FC4010E960E94CF1EF401E75299
S1134160FF4F31E0431A5108518240820C944A2A8D
S11341708091F800882311F40C944A2A8091FC0061
S1134180882359F0F401E752FF4F608171816F5F1A
S11341907F4FC4010E960E94CF1EF401E752FF4FD9
S11341A081E0481A5108518240820C944A2A809135
S11341B0F900882311F40C944A2A8091FC00882386
S11341C059F0F401E752FF4F608171816F5F7F4FB7
S11341D0C4010E960E94CF1EF401E752FF4F91E0F6
S11341E0491A5108518240820C944A2A8091FA005B
S11341F0882311F40C944A2A8091FC00882359F0F6
S1134200F401E752FF4F608171816F5F7F4FC401FA
S11342100E960E94CF1EF401E752FF4FA1E04A1A06
S11342205108518240820C944A2A8091FB008823D1
S113423011F40C944A2A8091FC00882359F0F4016B
S1134240E752FF4F608171816F5F7F4FC4010E960B
S11342500E94CF1EF401E752FF4FB1E04B1A510800
S1134260518240820C944A2A8C0107521F4FF80154
S1134270608171816F5F7F4F0E960E94CF1EF1E0C7
S11342804F1A5108D8014D925C920C944A2A0E960A
S11342900E94DF1EF401E752FF4F01979183808350
S11342A00C944A2AFC01E752FF4FB1E04B1A510823
S11342B0518240820C944A2AE6E08E0E911C698158
S11342C07A81C4010E94102E182F6D817E81C40151
S11342D00E94102E482F552747FD5095410F511D20
S11342E017FD5A95B201C4010E947B2E0C944A2AF0
S11342F0F6E08F0E911C69817A81C4010E94102E10
S1134300482F552747FD50952D813E81420F531F5D
S1134310B201C4010E947B2E0C944A2A36E0830E1B
S1134320911C69817A81C4010E94102E182F6D811D
S11343307E81C4010E94102E412F552747FD5095C0
S1134340481B510987FD5395B201C4010E947B2E7D
S11343500C944A2A86E0880E911C69817A81C401F2
S11343600E94102E482F552747FD5095AD81BE81E0
S11343704A1B5B0BB201C4010E947B2E0C944A2A97
S1134380B6E08B0E911C6D817E81C4010E94102EBB
S1134390992787FD909549815A81481B590BB20191
S11343A0C4010E947B2E0C944A2AE6E08E0E911CD6
S11343B069817A81C4010E94102E182F6D817E813B
S11343C0C4010E94102E1802A0011124B201C401DC
S11343D00E947B2E0C944A2AF6E08F0E911C698170
S11343E07A81C4010E94102E992787FD90952D8112
S11343F03E81829FA001839F500D929F500D1124F6
S1134400B201C4010E947B2E0C944A2A36E0830E2A
S1134410911C69817A81C4010E94102E182F6D812C
S11344207E81C4010E94102E682F812F992787FD59
S11344309095772767FD70950E94F233AB01B20126
S1134440C4010E947B2E0C944A2A86E0880E911C9B
S113445069817A81C4010E94102E682F772767FD35
S11344607095872F972F2D813E814F8158850E940B
S11344700634A901B201C4010E947B2E0C944A2A7D
S113448096E0890E911C6D817E81C4010E94102EDC
S1134490282F332727FD3095432F532F69817A81A5
S11344A08B819C810E940634A901B201C4010E943F
S11344B07B2EF0C7A6E08A0E911C69817A81C40123
S11344C00E94102E182F6D817E81C4010E94102E2F
S11344D08123482F552747FD5095B201C4010E94FE
S11344E07B2ED8C7B6E08B0E911C69817A81C401FA
S11344F00E94102E482F552747FD5095ED81FE81CF
S11345004E235F23B201C4010E947B2EC3C7F6E091
S11345108F0E911C6D817E81C4010E94102E482F44
S1134520552747FD509529813A8142235323B201EF
S1134530C4010E947B2EAEC736E0830E911C6981B4
S11345407A81C4010E94102E182F6D817E81C401CE
S11345500E94102E812B482F552747FD5095B201FC
S1134560C4010E947B2E96C786E0880E911C698147
S11345707A81C4010E94102E482F552747FD50957B
S1134580AD81BE814A2B5B2BB201C4010E947B2EFC
S113459081C7B6E08B0E911C6D817E81C4010E949F
S11345A0102E482F552747FD5095E981FA814E2B4F
S11345B05F2BB201C4010E947B2E6CC7F6E08F0E04
S11345C0911C69817A81C4010E94102E182F6D817B
S11345D07E81C4010E94102E812B482F552747FD50
S11345E0509540955095B201C4010E947B2E52C74C
S11345F026E0820E911C69817A81C4010E94102EEA
S1134600482F552747FD50958D819E81482B592B66
S113461040955095B201C4010E947B2E3BC796E0A1
S1134620890E911C6D817E81C4010E94102E482F39
S1134630552747FD5095A981BA814A2B5B2B40959C
S11346405095B201C4010E947B2E24C7B6E08B0EA4
S1134650911C69817A81C4010E94102E182F6D81EA
S11346607E81C4010E94102E8127482F552747FDC3
S11346705095B201C4010E947B2E0CC7E6E08E0E59
S1134680911C69817A81C4010E94102E482F5527FC
S113469047FD50952D813E8142275327B201C40125
S11346A00E947B2EF7C636E0830E911C6D817E81BD
S11346B0C4010E94102E482F552747FD509589812B
S11346C09A8148275927B201C4010E947B2EE2C671
S11346D096E0890E911C69817A81C4010E94102E92
S11346E0182F6D817E81C4010E94102E8123482FD2
S11346F0552747FD509540955095B201C4010E943D
S11347007B2EC8C6A6E08A0E911C69817A81C401F9
S11347100E94102E482F552747FD5095ED81FE81AC
S11347204E235F2340955095B201C4010E947B2E15
S1134730B1C6F6E08F0E911C6D817E81C4010E948A
S1134740102E482F552747FD509529813A81422341
S1134750532340955095B201C4010E947B2E9AC602
S113476036E0830E911C69817A81C4010E94102E67
S1134770482F552747FD509540955095B201C401E7
S11347800E947B2E87C686E0880E911C69817A81FF
S1134790C4010E94102E182F6D817E81C4010E94D5
S11347A0102E212F332727FD3095A90102C0440F75
S11347B0551F8A95E2F7B201C4010E947B2E6AC696
S11347C096E0890E911C69817A81C4010E94102EA1
S11347D0482F552747FD50950D8002C0440F551FA3
S11347E00A94E2F7B201C4010E947B2E53C6A6E0EC
S11347F08A0E911C69817A81C4010E94102E49811C
S11348005A816B817C8104C0440F551F661F771F3A
S11348108A95D2F7B201C4010E947B2E3BC6B6E052
S11348208B0E911C69817A81C4010E94102E182F6D
S11348306D817E81C4010E94102E212F332727FD14
S11348403095A90102C0559547958A95E2F7B201C2
S1134850C4010E947B2E1EC6E6E08E0E911C698167
S11348607A81C4010E94102E482F552747FD509588
S11348700D8002C0559547950A94E2F7B201C40130
S11348800E947B2E07C6F6E08F0E911C69817A8107
S1134890C4010E94102E49815A816B817C8104C01D
S11348A075956795579547958A95D2F7B201C401D6
S11348B00E947B2EEFC5B9010E94B41DEBC5B9015E
S11348C088529F4F0E94692FE5C5FC01E752FF4FB4
S11348D0DC01A552BF4F8D919C9191838083DAC5F1
S11348E07C012FEFE21AF20A20E041E050E0B2012D
S11348F0C7010E94B12C8C0120E040E050E0B201DD
S1134900C7010E94B12CA801BC01C4010D960E94EC
S1134910FF088C01DC012D913C9140E050E0B20194
S1134920C7010E94842CF8012281338141E050E0C8
S1134930B201C7010E94842CC8010E94F934AAC59F
S11349407C01FFEFEF1AFF0A20E041E050E0B201E2
S1134950C7010E94B12C8C0120E040E050E0B2017C
S1134960C7010E94B12CA801BC01C4010D960E948C
S113497069098C01DC012D913C9140E050E0B201C9
S1134980C7010E94842CF8012281338141E050E068
S1134990B201C7010E94842CC8010E94F9347AC56F
S11349A07C01FFEFEF1AFF0A20E041E050E0B20182
S11349B0C7010E94B12C8C0120E040E050E0B2011C
S11349C0C7010E94B12CA801BC01C4010D960E942C
S11349D0D3098C01DC012D913C9140E050E0B201FF
S11349E0C7010E94842CF8012281338141E050E008
S11349F0B201C7010E94842CC8010E94F9344AC53F
S1134A007C01FFEFEF1AFF0A20E041E050E0B20121
S1134A10C7010E94B12C8C0120E040E050E0B201BB
S1134A20C7010E94B12CA801BC01C4010D960E94CB
S1134A303D0A8C01DC012D913C9140E050E0B20133
S1134A40C7010E94842CF8012281338141E050E0A7
S1134A50B201C7010E94842CC8010E94F9341AC50E
S1134A607C01FFEFEF1AFF0A20E041E050E0B201C1
S1134A70C7010E94B12C8C0120E040E050E0B2015B
S1134A80C7010E94B12CA801BC01C4010D960E946B
S1134A90AB0A8C01DC012D913C9140E050E0B20165
S1134AA0C7010E94842CF8012281338141E050E047
S1134AB0B201C7010E94842CC8010E94F934EAC4DF
S1134AC07C01FFEFEF1AFF0A20E041E050E0B20161
S1134AD0C7010E94B12C8C0120E040E050E0B201FB
S1134AE0C7010E94B12CA801BC01C4010D960E940B
S1134AF0150B8C01DC012D913C9140E050E0B2019A
S1134B00C7010E94842CF8012281338141E050E0E6
S1134B10B201C7010E94842CC8010E94F934BAC4AE
S1134B207C01FFEFEF1AFF0A20E041E050E0B20100
S1134B30C7010E94B12C8C0120E040E050E0B2019A
S1134B40C7010E94B12C29813A81A801BC01C4018A
S1134B500D960E9490128C01DC012D913C9140E055
S1134B6050E0B201C7010E94842CF80122813381F4
S1134B7041E050E0B201C7010E94842CC8010E94A8
S1134B80F93488C47C01FFEFEF1AFF0A20E041E00A
S1134B9050E0B201C7010E94B12C8C0120E040E03A
S1134BA050E0B201C7010E94B12C29813A81A801C9
S1134BB0BC01C4010D960E942F138C01DC012D91C0
S1134BC03C9140E050E0B201C7010E94842CF801FE
S1134BD02281338141E050E0B201C7010E94842C5C
S1134BE0C8010E94F93456C47C01FFEFEF1AFF0A92
S1134BF020E041E050E0B201C7010E94B12C8C01D9
S1134C0020E040E050E0B201C7010E94B12C2981AC
S1134C103A81A801BC01C4010D960E94CB138C01FA
S1134C20DC012D913C9140E050E0B201C7010E94AB
S1134C30842CF8012281338141E050E0B201C701A4
S1134C400E94842CC8010E94F93424C45C01FFEF43
S1134C50AF1ABF0A20E041E050E069817A81C501C2
S1134C600E94B12C8C0120E040E050E069817A81FF
S1134C70C5010E94B12C7C0120E041E050E0B2016A
S1134C80C5010E94B12C6C0120E040E050E0B2016B
S1134C90C5010E94B12C9701A601BC01C4010D9667
S1134CA00E947E0B8C01DC012D913C9140E050E090
S1134CB0B201C5010E94842CF8012281338141E0B4
S1134CC050E0B201C5010E94842CD80114962D91A4
S1134CD03C91159740E050E069817A81C5010E94BA
S1134CE0842CF8012681378141E050E069817A8182
S1134CF0C5010E94842CC8010E94F934CBC35C0115
S1134D00FFEFAF1ABF0A20E041E050E069817A81E9
S1134D10C5010E94B12C8C0120E040E050E0698183
S1134D207A81C5010E94B12C7C0120E041E050E071
S1134D30B201C5010E94B12C6C0120E040E050E0BA
S1134D40B201C5010E94B12C9701A601BC01C401A6
S1134D500D960E94800C8C01DC012D913C9140E069
S1134D6050E0B201C5010E94842CF80122813381F4
S1134D7041E050E0B201C5010E94842CD801149690
S1134D802D913C91159740E050E069817A81C501ED
S1134D900E94842CF8012681378141E050E069812A
S1134DA07A81C5010E94842CC8010E94F93472C31F
S1134DB05C01FFEFAF1ABF0A20E041E050E06981D7
S1134DC07A81C5010E94B12C8C0120E040E050E0C2
S1134DD069817A81C5010E94B12C7C0120E041E007
S1134DE050E0B201C5010E94B12C6C0120E040E00A
S1134DF050E0B201C5010E94B12C9701A601BC018B
S1134E00C4010D960E94820D8C01DC012D913C9110
S1134E1040E050E0B201C5010E94842CF8012281D7
S1134E20338141E050E0B201C5010E94842CD801D5
S1134E3014962D913C91159740E050E069817A8158
S1134E40C5010E94842CF8012681378141E050E09D
S1134E5069817A81C5010E94842CC8010E94F934B9
S1134E6019C35C01FFEFAF1ABF0A20E041E050E034
S1134E7069817A81C5010E94B12C8C0120E040E057
S1134E8050E069817A81C5010E94B12C7C0120E047
S1134E9041E050E0B201C5010E94B12C6C0120E058
S1134EA040E050E0B201C5010E94B12C9701A60177
S1134EB0BC01C4010D960E94840E8C01DC012D916D
S1134EC03C9140E050E0B201C5010E94842CF801FD
S1134ED02281338141E050E0B201C5010E94842C5B
S1134EE0D80114962D913C91159740E050E06981CA
S1134EF07A81C5010E94842CF8012681378141E022
S1134F0050E069817A81C5010E94842CC8010E9405
S1134F10F934C0C25C01FFEFAF1ABF0A20E041E0E0
S1134F2050E069817A81C5010E94B12C8C0120E096
S1134F3040E050E069817A81C5010E94B12C7C0176
S1134F4020E041E050E0B201C5010E94B12C6C01A7
S1134F5020E040E050E0B201C5010E94B12C97016D
S1134F60A601BC01C4010D960E94860F8C01DC01D0
S1134F702D913C9140E050E0B201C5010E94842C87
S1134F80F8012281338141E050E0B201C5010E9461
S1134F90842CD80114962D913C91159740E050E053
S1134FA069817A81C5010E94842CF80126813781A8
S1134FB041E050E069817A81C5010E94842CC801D6
S1134FC00E94F93467C25C01FFEFAF1ABF0A20E008
S1134FD041E050E069817A81C5010E94B12C8C01C5
S1134FE020E040E050E069817A81C5010E94B12C43
S1134FF07C0120E041E050E0B201C5010E94B12CE7
S11350006C0120E040E050E0B201C5010E94B12CE7
S11350109701A601BC01C4010D960E9488108C0161
S1135020DC012D913C9140E050E0B201C5010E94A9
S1135030842CF8012281338141E050E0B201C501A2
S11350400E94842CD80114962D913C91159740E030
S113505050E069817A81C5010E94842CF80126817F
S1135060378141E050E069817A81C5010E94842C36
S1135070C8010E94F9340EC25C01FFEFAF1ABF0AE7
S113508020E041E050E069817A81C5010E94B12CA1
S11350908C0120E040E050E069817A81C5010E94E2
S11350A0B12C7C0120E041E050E0B201C5010E9436
S11350B0B12C6C0120E040E050E0B201C5010E9437
S11350C0B12C9701A601BC01C4010D960E948E115A
S11350D08C01DC012D913C9140E050E0B201C5010E
S11350E00E94842CF8012281338141E050E0B20116
S11350F0C5010E94842CD80114962D913C911597DA
S113510040E050E069817A81C5010E94842CF80155
S11351102681378141E050E069817A81C5010E948E
S1135120842CC8010E94F934B5C19C012F5F3F4F04
S11351303A87298720E041E050E06D817E818985AE
S11351409A850E94B12C6C0120E040E050E06D8112
S11351507E8189859A850E94B12C7C0120E041E002
S113516050E069817A8189859A850E94B12C8C01ED
S113517020E040E050E069817A8189859A850E9427
S1135180B12C1C0120E041E050E0B20189859A85F0
S11351900E94B12C5C0120E040E050E0B20189851E
S11351A09A850E94B12C9101A501BC01C4010D9600
S11351B00E9461148C01DC012D913C9140E050E08F
S11351C0B20189859A850E94842CF8012281338159
S11351D041E050E0B20189859A850E94842CD8016F
S11351E014962D913C91159740E050E069817A81A5
S11351F089859A850E94842CF8012681378141E0B3
S113520050E069817A8189859A850E94842CD8012D
S113521018962D913C91199740E050E06D817E8164
S113522089859A850E94842CF8012285338541E082
S113523050E06D817E8189859A850E94842CC80105
S11352400E94F93427C19C012F5F3F4F3A87298779
S113525020E041E050E06D817E8189859A850E943D
S1135260B12C6C0120E040E050E06D817E818985A5
S11352709A850E94B12C7C0120E041E050E06981D4
S11352807A8189859A850E94B12C8C0120E040E0C6
S113529050E069817A8189859A850E94B12C1C012C
S11352A020E041E050E0B20189859A850E94B12C4A
S11352B05C0120E040E050E0B20189859A850E94BB
S11352C0B12C9101A501BC01C4010D960E945F1788
S11352D08C01DC012D913C9140E050E0B2018985C4
S11352E09A850E94842CF8012281338141E050E0A8
S11352F0B20189859A850E94842CD80114962D9137
S11353003C91159740E050E069817A8189859A85BE
S11353100E94842CF8012681378141E050E06981A4
S11353207A8189859A850E94842CD80118962D91BA
S11353303C91199740E050E06D817E8189859A8582
S11353400E94842CF8012285338541E050E06D8170
S11353507E8189859A850E94842CC8010E94F93433
S113536099C09C012F5F3F4F3C872B8720E040E092
S113537050E060E070E08B859C850E94B12C5C015C
S113538020E041E050E06D817E818B859C850E9408
S1135390B12C6C0120E040E050E06D817E818B8572
S11353A09C850E94B12C7C0120E041E050E06981A1
S11353B07A818B859C850E94B12C8C0120E040E091
S11353C050E069817A818B859C850E94B12C9A87F3
S11353D0898720E041E050E0B2018B859C850E94E2
S11353E0B12C1C0120E040E050E0B2018B859C858B
S11353F00E94B12C29853A85A101BC01C4010D96F6
S11354000E945D1A8C01DC012D913C9140E050E03A
S1135410B2018B859C850E94842CF8012281338102
S113542041E050E0B2018B859C850E94842CD80118
S113543014962D913C91159740E050E069817A8152
S11354408B859C850E94842CF8012681378141E05C
S113545050E069817A818B859C850E94842CD801D7
S113546018962D913C91199740E050E06D817E8112
S11354708B859C850E94842CF8012285338541E02C
S113548050E06D817E818B859C850E94842CC801AF
S11354900E94F9342C960FB6F894DEBF0FBECDBF30
S11354A0DF91CF911F910F91FF90EF90DF90CF90FC
S11354B0BF90AF909F908F907F906F905F904F9030
S11354C03F902F9008952F923F924F925F926F9248
S11354D07F928F929F92AF92BF92CF92DF92EF9280
S11354E0FF920F931F93CF93DF93CDB7DEB7AB97A4
S11354F00FB6F894DEBF0FBECDBF99A388A3049660
S11355009BA78AA764E870E00E94322F68EE70E0DF
S11355108AA59BA50E94322F68A079A025E0620E7F
S1135520711CC3010E949E02E8A1F9A1E552FF4F3C
S113553091838083E8A1F9A1E752FF4F1182108281
S1135540181619060CF0C7C080E090E01E013FE079
S1135550230E311C0F2EFEE88F2EF0E09F2EF02D2F
S11355602E01E8E04E0E511C9E012F5F3F4F3F8BF2
S11355702E8B2CA23DA24EA25FA23E8938A7EF89B2
S1135580E9A728A139A127523F4F398F288FE8A1D5
S1135590F9A1E552FF4FFBA3EAA3FDE0F89F5001F8
S11355A0F99FB00C11241F86188A198A1A8A1B8A3B
S11355B01C8A1D8A188619861A861B861C861D86D7
S11355C01E8619821A821B821C821D821E821F82E1
S11355D0B501C3010E944502282F30E03B8F2A8F7A
S11355E065013FEFC31AD30A85E0A80EB11CB601CA
S11355F0C3010E9445021F928F933F922F929F9264
S11356008F923F922F920E943237B6016C5F7F4F88
S1135610C3010E9445021F928F935F924F929F9203
S11356208F925F924F920E943237B601685F7F4F2C
S1135630C3010E9445021F928F939F899F93EE8915
S1135640EF939F928F929F93EF930E943237FFEFD5
S1135650CF1ADF0A0FB6F894DEBF0FBECDBFCA144F
S1135660DB0429F640E150E060E070E088A599A5EC
S11356700E94E6355B016C0140E150E060E070E0BF
S11356808EA19FA10E94E6356C8F7D8F8E8F9F8F98
S113569040E150E060E070E08CA19DA10E94E635FD
S11356A09B01AC01EC8CFD8C0E8D1F8D6A8D7B8D66
S11356B088A199A10E94421FE88DF98D8081918172
S11356C0019691838083EAA1FBA120813181821715
S11356D093070CF462CF68EE70E08AA59BA50E9444
S11356E0322F63E970E08AA59BA50E941D2FAB961B
S11356F00FB6F894DEBF0FBECDBFDF91CF911F91DF
S11357000F91FF90EF90DF90CF90BF90AF909F905C
S11357108F907F906F905F904F903F902F9008955F
S1135720CF93DF93CDB7DEB7CE5DD1090FB6F89432
S1135730DEBF0FBECDBFCE0101960E940B1FCE016E
S113574001960E94632AFFCFCF93DF93EC010E945E
S11357503D03CE0101960E940D2F8FEF8ABBDF918E
S1135760CF91089575B321E030E0C901062E02C03F
S1135770880F991F0A94E2F78095872385BB85B328
S113578002C0440F551F6A95E2F7482B45BB0895A4
S11357902FEF24BB40E050E064E070E00E94B22BA5
S11357A00895AF92BF92CF92DF92EF92FF920F9340
S11357B01F93CF93DF9300D000D000D0CDB7DEB7D6
S11357C08C01CB018F7099279A838983CB01807FC9
S11357D09927959587959595879595958795959509
S11357E087959C838B8366277F70872F880F880B10
S11357F07D838E838FEF8ABB84BB89818BBB41E021
S113580050E062E070E0C8010E94B22B41E050E039
S113581063E070E0C8010E94B22B40E050E063E016
S113582070E0C8010E94B22B40E050E062E070E0FA
S1135830C8010E94B22B680182E0C80ED11C60E04E
S113584070E0C6010E94692F7E0193E0E90EF11C0D
S11358505E01E7E0AE0EB11C41E050E063E070E0B1
S1135860C8010E94B22B40E050E063E070E0C80140
S11358700E94B22BF7018081F2E0EF0EF11C8BBB8A
S113588060E070E0C6010E94692FEA14FB0421F76E
S113589041E050E063E070E0C8010E94B22B40E0B8
S11358A050E063E070E0C8010E94B22B41E050E098
S11358B064E070E0C8010E94B22B26960FB6F894FB
S11358C0DEBF0FBECDBFDF91CF911F910F91FF902F
S11358D0EF90DF90CF90BF90AF9008957BB321E01D
S11358E030E0C901062E02C0880F991F0A94E2F71E
S11358F0809587238BBB8BB302C0440F551F6A95D9
S1135900E2F7482B4BBB0895FF920F931F93CF935D
S1135910DF93EC018A01FF24FA94F7BAF7BA28BBA3
S11359200E94D12BA80164E070E0CE010E946E2C8D
S113593041E050E066E070E0CE010E946E2C40E051
S113594050E066E070E0CE010E946E2CF7BA18BAFF
S1135950CE010E94C82BDF91CF911F910F91FF9030
S11359600895FF920F931F93CF93DF93EC018A0165
S1135970F22E17BA0E94D12B41E050E065E070E0AE
S1135980CE010E946E2CA80164E070E0CE010E945A
S11359906E2C06B310E08FEF87BBF11004C01BBA66
S11359A0CE010E94C82BC801DF91CF911F910F91A6
S11359B0FF900895CF93DF93EC01882777FD8095BE
S11359C0982F0E943C312BED3FE049E450E40E94C3
S11359D01E3320E030E044EB53E40E9470300E9418
S11359E08133AB01BC0122E030E0CE0102960E947B
S11359F0772FAB01BC01CE010E943E03DF91CF9112
S1135A0008958F929F92AF92BF92CF92DF92EF92BE
S1135A10FF920F931F93CF93DF93CDB7DEB72997F0
S1135A200FB6F894DEBF0FBECDBF5C0119821A8297
S1135A301B821C82FE01359685E0DF011D928A954A
S1135A40E9F74B01880C991C880C991C880C991C4B
S1135A50E12CF12C8E010F5F1F4F0F2EFDEBCF2E8B
S1135A60F0E0DF2EF02DB701680D791D20E040E055
S1135A7050E0C5010E94B12CBC01C5010E94DA2C82
S1135A809F938F931F930F93DF92CF921F930F9344
S1135A900E943237BFEFEB1AFB0A0FB6F894DEBF51
S1135AA00FBECDBF98E0E916F104E9F6CE010196E8
S1135AB00E94223742E050E060E070E0CE0101969F
S1135AC00E94E635CB0129960FB6F894DEBF0FBECF
S1135AD0CDBFDF91CF911F910F91FF90EF90DF9099
S1135AE0CF90BF90AF909F908F900895CF92DF9208
S1135AF0EF92FF920F931F93CF93DF936C018B016F
S1135B00BA0148E050E002960E943E2FD82FC92FD8
S1135B100E942237ED2EFC2E000F111F000F111FC3
S1135B20000F111FC0E0D0E0F70181917F018133A4
S1135B3049F424EB30E040E050E0B801C6010E9493
S1135B40842C08C020E030E040E050E0B801C601F9
S1135B500E94842C21960F5F1F4FC830D10521F776
S1135B60DF91CF911F910F91FF90EF90DF90CF9035
S1135B700895FC018FEF84BB84E190E091838083DE
S1135B8080E091E09583848316820895CF93DF9318
S1135B90EC0103960E940D2FCE010E94B92DDF91D6
S1135BA0CF9108952FEF2ABBFC01268121110FC04C
S1135BB02081318184819581A901460F571F841763
S1135BC0950714F48BBB0895620F6BBB08956BBBF0
S1135BD0089575B321E030E0C901062E02C0880F94
S1135BE0991F0A94E2F78095872385BB85B302C089
S1135BF0440F551F6A95E2F7482B45BB0895FC01F5
S1135C0020813181448155814217530734F021307A
S1135C10314018F44130514010F00E94B92D0895DC
S1135C200F931F93CF93DF93EC018B010E94FF2D01
S1135C30B801CE010E94D22D17BA41E050E066E0CF
S1135C4070E0CE010E94E92D16B340E050E066E01A
S1135C5070E0CE010E94E92D8FEF87BB1BBA812F24
S1135C60DF91CF911F910F910895CF92DF92EF9220
S1135C70FF920F931F93CF93DF93CDB7DEB7D2502C
S1135C800FB6F894DEBF0FBECDBF7C01FC010081CE
S1135C9011818481958108171907E4F46801CC0CFB
S1135CA0DD1C81E090E08C0F9D1FC80ED91EB80149
S1135CB0C7010E94102E992787FD9095F6018193C4
S1135CC091936F010F5F1F4FF7018481958108172E
S1135CD019076CF3CE010196DE5F0FB6F894DEBFB0
