S01D0000514550555F50726F6A6563745F41746D65676133322E7372656383
S11300000C94F7000C941F010C941F010C941F0115
S11300100C941F010C941F010C941F010C941F01DC
S11300200C941F010C941F010C941F010C941F01CC
S11300300C941F010C941F010C941F010C941F01BC
S11300400C941F010C941F010C941F010C941F01AC
S11300500C941F01611F841F9C1FAE1FBC1FCD1F6A
S1130060D61FDF1FEB1FF71F02200D201F202620A5
S113007035203920542073209220B120D020EF2045
S11300800E212D2142214E21582174218A21A6219D
S1130090BC21D121E921032221223B2255226D22B8
S11300A082229722AF22C422D922F3220A232123B7
S11300B039234E2363237D239423AB23BE23DB23E5
S11300C0F2230A2427243E2456245B240E2A622485
S11300D06D249A24C724F42421254E257B25AA25A2
S11300E0D92508265E26B4260A276027B6270C28B9
S11300F06228ED287829084AD73B3BCE016E84BCA0
S1130100BFFDC12F3D6C74319ABD56833DDA3D006D
S1130110C77F11BED9E4BB4C3E916BAAAABE0000B6
S113012000803F07634236B79BD8A71A3968561830
S1130130AEBAAB558C1D3CB7CC5763BD6DEDFD75A8
S11301403EF6177231BF000000803F072C7AA5BA33
S11301506CC590DA3B9365FC8BBC53F810FD3C56A0
S113016092834DBD879D3AB63DCBC9BF5BBE73DA62
S11301700FC93F05A84CCDB2D44EB93836A9020CEC
S113018050B9918688083CA6AAAA2ABE000000801D
S11301903F08000000BE922449123EABAAAA2ABE20
S11301A0CDCCCC4C3E00000080BEABAAAAAA3E0037
S11301B0000000BF000000803F0000000000084174
S11301C078D3BB4387D1133D190E3CC3BD4282ADE6
S11301D02B3E68EC8276BED98FE1A93E4C80EFFFBE
S11301E0BE01C4FF7F3F0000000000009E1D1124DB
S11301F01FBECFE5D8E0DEBFCDBF10E0A0E6B0E083
S1130200E2E5F4E702C005900D92AE3EB107D9F7DE
S113021020E0AEEEB0E001C01D92AE3FB207E1F7C0
S113022011E0CEEED1E004C02297FE010E94EE332D
S1130230CC3ED107C9F70E94572B0C94273A0C9453
S113024000000F931F93FC014083518362837383E7
S113025004831583268337831F910F910895FC012E
S113026010821182128213821482158216821782DE
S11302700895AF92BF92CF92DF92EF92FF920F93C5
S11302801F93CF93DF93CDB7DEB768970FB6F8947B
S1130290DEBF0FBECDBF5C01098B1A8B2B8B3C8B51
S11302A04D8B5E8B6F8B788F2D893E894F89588D4E
S11302B0FC0164817581868197810E94A42F6B0162
S11302C07C0129893A894B895C89F50160817181B6
S11302D0828193810E94A42FAB01BC019701860106
S11302E0CE0101960E94210188E0FE013196DE01D3
S11302F0199601900D928A95E1F729853A854B85E7
S11303005C856D857E858F85988968960FB6F8948F
S1130310DEBF0FBECDBFDF91CF911F910F91FF9034
S1130320EF90DF90CF90BF90AF9008954F925F927F
S11303306F927F928F929F92AF92BF92CF92DF92F1
S1130340EF92FF920F931F93CF93DF93CDB7DEB756
S1130350A0970FB6F894DEBF0FBECDBF098B1A8BE2
S11303602B8B3C8B4D8B5E8B6F8B788F89889A8817
S1130370AB88BC882D893E894F89588D2D8F3E8F3F
S11303804F8F58A3FC01C080D180E280F380248188
S1130390358146815781298F3A8F4B8F5C8F2D8D04
S11303A03E8D4F8D58A1C701B6010E94E5322B0145
S11303B03C01A5019401698D7A8D8B8D9C8D0E94E1
S11303C0E5329B01AC01C301B2010E94A42F2B01B1
S11303D03C01A5019401C701B6010E94E5326B01FD
S11303E07C012D8D3E8D4F8D58A1698D7A8D8B8D1D
S11303F09C8D0E94E5329B01AC01C701B6010E94AD
S1130400A32FAB01BC0193018201CE0101960E948E
S1130410210188E0FE013196DE01199601900D92CA
S11304208A95E1F729853A854B855C856D857E85BE
S11304308F859889A0960FB6F894DEBF0FBECDBF06
S1130440DF91CF911F910F91FF90EF90DF90CF90AC
S1130450BF90AF909F908F907F906F905F904F90E0
S11304600895FC0120813181428153816481758129
S1130470868197810E9437300E940830089585E074
S113048080B981B18C7F81B9089594EA30EA24E877
S113049096BF06B607FEFDCF81B1887F883009F08C
S11304A041C033B926BF06B607FEFDCF81B1887FB0
S11304B0883171F773B984E886BF06B607FEFDCFAD
S11304C081B1887F883281F563B984E886BF06B636
S11304D007FEFDCF81B1887F883241F584EA86BF6B
S11304E006B607FEFDCF81B1887F803109F581EA28
S11304F083B984E886BF06B607FEFDCF81B1887F45
S11305008034C1F484E886BF06B607FEFDCF81B10E
S1130510887F883589F483B194E996BF06B604FCD4
S1130520FDCF089580E0089580E0089580E0089567
S113053080E0089580E0089580E008956F927F92AE
S11305408F929F92AF92BF92CF92DF92EF92FF92DF
S11305500F931F93CF93DF93CDB7DEB76C970FB68E
S1130560F894DEBF0FBECDBF5C01E12CF12CC12C91
S1130570D12C812C912C8E01055E1F4F612C712C86
S1130580B701C5010E944502F401EE0FFF1F21E0EF
S113059030E02C0F3D1FE20FF31F90E09183808326
S11305A03DE08316910474F08FEFC81AD80AFE0157
S11305B0319681919191E017F107D9F78F3F910519
S11305C029F40AC02FEF821A920A02C0862C972CB3
S11305D03FEFE31AF30AD4CFC6016C960FB6F89432
S11305E0DEBF0FBECDBFDF91CF911F910F91FF9062
S11305F0EF90DF90CF90BF90AF909F908F907F90BF
S11306006F90089581E08093F600089521E08617A5
S113061097070CF020E02093EE0021E0681779079B
S11306200CF420E02093EF0021E08617970709F0EF
S113063020E02093F00021E0861797070CF420E0D7
S11306402093F10021E0681779070CF020E0209353
S1130650F20021E08617970709F420E02093F300C5
S113066021E0009709F020E02093F40021E0892B99
S113067009F420E02093F50008950895CF92DF92C5
S1130680EF92FF92CF93DF936A017B010E949D3525
S1130690EC0120E03EEF4FEF56E4C701B6010E94A3
S11306A0E5326B017C01BE01882777FD8095982F88
S11306B00E9403319B01AC01C1E0D0E0C701B60147
S11306C00E942C32882314F4C0E0D0E0CE01DF91E4
S11306D0CF91FF90EF90DF90CF9008952F923F92AB
S11306E04F925F926F927F928F929F92AF92BF923E
S11306F0CF92DF92EF92FF920F931F93CF93DF93EA
S1130700CDB7DEB7A4970FB6F894DEBF0FBECDBF4A
S11307108C016B015A01BA01882777FD8095982FC7
S11307200E9403310E94723228E132E741E35FE321
S11307300E9437302B013C019B01AC010E94A42F85
S11307400E94D03069A37AA38BA39CA329A03AA0CA
S1130750C101880F991F880F991F880F991F0E9444
S113076028344C011A141B040CF09DC020E030E026
S113077040E85FE3F60160817181828193810E9488
S11307803030811187C011C0F8E0CF0ED11C20E0B9
S113079030E040E85FE3F6016081718182819381FA
S11307A00E943030811178C002C0E12CF12CC301C9
S11307B0B2010E94D030AB01B701C8010E94052FDD
S11307C0121413040CF06FC07C0154016401F8E0AE
S11307D0CF0ED11C49A05AA0480E591E6894772404
S11307E073F8F70181917F01813329F500E010E06E
S11307F09801B901A801CE0149960E942101FE0188
S11308007996D501872D01900D928A95E1F700E044
S113081010E0980140E050E060E87FE3CE014196AB
S11308200E942101FE017196D601872D01900D923F
S11308308A95E1F724C000E010E0980140E050E020
S113084060E87FE3CE0109960E942101FE013996FA
S1130850D501872D01900D928A95E1F700E010E013
S11308609801B901A801CE0101960E942101FE015F
S11308703196D601872D01900D928A95E1F7F0E12A
S1130880AF0EB11C20E1C20ED11CE414F50409F032
S1130890A8CF09C0E12CF12C8FEFE81AF80AEA146A
S11308A0FB0409F071CFC401A4960FB6F894DEBF1F
S11308B00FBECDBFDF91CF911F910F91FF90EF90AD
S11308C0DF90CF90BF90AF909F908F907F906F906C
S11308D05F904F903F902F9008952F923F924F92A8
S11308E05F926F927F928F929F92AF92BF92CF92BC
S11308F0DF92EF92FF920F931F93CF93DF93CDB7C5
S1130900DEB728970FB6F894DEBF0FBECDBF7C01CB
S11309105B018A013E832D834130510509F4BBC03C
S11309209A0140E050E060E070E40E943E2F0E9493
S1130930D03078876F839B01220F331F220F331F20
S1130940220F331F3C832B83C9010E9428348983DF
S11309509A838F819885181619060CF053C01801D4
S1130960220C331CC980DA80612C712CE2E0F0E0A7
S1130970412C512CC601CF80D884470198878F839E
S11309802E163F0629F49FEF491A590AE2E0F0E0D7
S11309907F012FEFE21AF20AEE0FFF1FEE0FFF1F87
S11309A0EE0FFF1FEA0DFB1D0081118122813381AF
S11309B04481558166817781C201880F991F880F10
S11309C0991F880F991F8A0D9B1D0E949601EF8124
S11309D0F8852083318342835383648375838683BC
S11309E09783FFEF6F1A7F0A2F813885285F3F4F67
S11309F038872F836C147D0411F0F701C1CFD8869A
S1130A00CF8274018D819E81892BA9F589819A8178
S1130A1044C05101F1014081518162817381C70158
S1130A200E943E030197E9F48B819C81860D971DFA
S1130A30F3011082118212821382148215821682AB
S1130A4017823896E817F907A1F780E090E0A0E84C
S1130A50BFE3F50180839183A283B38389819A8163
S1130A601CC0FFEFCF1ADF0A28E0220E311CC81485
S1130A70D90479F606C049805A8000E010E08F80DE
S1130A80988418141904ECF7642C752C242C352C38
S1130A90C02ED12EBECF862F9B2D28960FB6F8944C
S1130AA0DEBF0FBECDBFDF91CF911F910F91FF909D
S1130AB0EF90DF90CF90BF90AF909F908F907F90FA
S1130AC06F905F904F903F902F9008952F923F9298
S1130AD04F925F926F927F928F929F92AF92BF924A
S1130AE0CF92DF92EF92FF920F931F93CF93DF93F6
S1130AF0CDB7DEB728970FB6F894DEBF0FBECDBFD3
S1130B009E838D837A836983042F152FC22ED32E5F
S1130B10CB0182959295907F9827807F98270E9499
S1130B2028348B839C8329803A80220C331C121432
S1130B3013040CF0ACC0A82EB92EE02EF12E0C2D0F
S1130B401D2D812C912CB886AF826701F70141904D
S1130B5051907F01662457FC6094762CC301B20146
S1130B600E9403312BED3FE049E450E40E94E5325A
S1130B7020E030E044EB53E40E9437300E943430EC
S1130B80EF81F8856083718382839383C301B2010B
S1130B900E9403312BED3FE049E450E40E94E5322A
S1130BA020E030E044EB53E40E9437300E944833A5
S1130BB02B013C015801F801619171918F01882743
S1130BC077FD8095982F0E9403312BED3FE049E497
S1130BD050E40E94E53220E030E044E353E40E9414
S1130BE037300E9434309B01AC01C301B2010E9432
S1130BF0E532EF81F8856087718782879387F601F4
S1130C0060817181882777FD8095982F0E94033138
S1130C102BED3FE049E450E40E94E53220E030E06F
S1130C2044EB53E40E9437300E9448332B013C01CB
S1130C30F50160817181882777FD8095982F0E9446
S1130C4003312BED3FE049E450E40E94E53220E01B
S1130C5030E044E353E40E9437300E9448339B0160
S1130C60AC01C301B2010E94E532EF81F8856487CB
S1130C70758786879787F2E08F0E911C8F81988500
S1130C80409698878F83821493040CF45ECF21E0FE
S1130C9030E049815A816B817C818D819E810E94E3
S1130CA06D0428960FB6F894DEBF0FBECDBFDF915A
S1130CB0CF911F910F91FF90EF90DF90CF90BF9055
S1130CC0AF909F908F907F906F905F904F903F90E8
S1130CD02F900895AF92BF92CF92DF92EF92FF923E
S1130CE00F931F93CF93DF93EC01062F172F6A0105
S1130CF09A0140E050E060E070E40E943E2F22E060
S1130D00C216D10454F00E94D030AB01602F712F71
S1130D10CE010E946E03082F192FC601880F991F58
S1130D20880F991F0E942834A82EB92ECC0CDD1CE4
S1130D301C141D04F4F5E02EF12E082F192FC0E029
S1130D40D0E0C0FD19C0F701608171818281938177
S1130D500E94952F20E030E044EB53E40E94E532FA
S1130D602BED3FE049E450E40E9437300E94D0303C
S1130D70F8017183608314C0C7010E94310220E02E
S1130D8030E044E353E40E94E5322BED3FE049E4D4
S1130D9050E40E9437300E94D030F80171836083A0
S1130DA02196F8E0EF0EF11C0E5F1F4FCC15DD0508
S1130DB041F68A2D9B2DDF91CF911F910F91FF90CA
S1130DC0EF90DF90CF90BF90AF9008952F923F9215
S1130DD04F925F926F927F928F929F92AF92BF9247
S1130DE0CF92DF92EF92FF920F931F93CF93DF93F3
S1130DF0CDB7DEB760970FB6F894DEBF0FBECDBF98
S1130E004B013A0180E190E00E942834382E292ECB
S1130E10C82ED92EA12CB12C240188E0480E511CD7
S1130E20CE0109960E942F017501EE0CFF1CEE0CF9
S1130E30FF1CEE0CFF1CE60CF71CD7010C9111965D
S1130E401C91119712962C91129713963C9113971B
S1130E5014964C91149715965C91159716966C916F
S1130E60169717967C91C4010E949601022F132FA6
S1130E70242F352F462F572F682F792FCE0109960F
S1130E800E94390129873A874B875C876D877E8763
S1130E908F87988BF7017096D70150960C9111812A
S1130EA0228133814481558166817781C2010E9408
S1130EB09601022F132F242F352F462F572F682FDB
S1130EC0792FCE0109960E94390129873A874B87E9
S1130ED05C876D877E878F87988B89859A85AB859C
S1130EE0BC85F60180839183A283B3838D859E851F
S1130EF0AF85B88984839583A683B783FFEFAF1A40
S1130F00BF0A88E0C80ED11CA2E0AA16B10409F0F9
S1130F1087CF832D922D60960FB6F894DEBF0FBE57
S1130F20CDBFDF91CF911F910F91FF90EF90DF9094
S1130F30CF90BF90AF909F908F907F906F905F9075
S1130F404F903F902F9008952F923F924F925F922F
S1130F506F927F928F929F92AF92BF92CF92DF92C5
S1130F60EF92FF920F931F93CF93DF93CDB7DEB72A
S1130F7064970FB6F894DEBF0FBECDBF3B01E42EDD
S1130F80F52E80E290E00E9428348B8B9C8B482EB7
S1130F90592E812C912CE98AFA8A212C312CCE01EC
S1130FA009960E942F01C988DA88E22CF32C540197
S1130FB0AA0CBB1CAA0CBB1CAA0CBB1CF501EC0D97
S1130FC0FD1D008111812281338144815581668117
S1130FD07781C3018E0D9F1D0E94960129833A8358
S1130FE04B835C836D837E838F839887022F132FBB
S1130FF0242F352F462F572F682F792FCE0109968E
S11310000E94390129873A874B875C876D877E87E1
S11310108F87988B88E0E80EF11CE0E2CE0ED11C9D
S1131020F0E2EF16F10451F689859A85AB85BC850B
S1131030F20180839183A283B3838D859E85AF85DE
S1131040B88984839583A683B783FFEF8F1A9F0A99
S113105088E0480E511CE4E08E16910409F09FCFFD
S11310608B899C8964960FB6F894DEBF0FBECDBF02
S1131070DF91CF911F910F91FF90EF90DF90CF9070
S1131080BF90AF909F908F907F906F905F904F90A4
S11310903F902F9008952F923F924F925F926F92BC
S11310A07F928F929F92AF92BF92CF92DF92EF92F4
S11310B0FF920F931F93CF93DF93CDB7DEB7629761
S11310C00FB6F894DEBF0FBECDBF4B01342E252ED4
S11310D080E490E00E942834898B9A8B482E592E04
S11310E0612C712CCE0109960E942F01C32CD22CA5
S11310F0E12CF12C5301AA0CBB1CAA0CBB1CAA0C9E
S1131100BB1CF501EC0DFD1D008111812281338191
S11311104481558166817781C4018E0D9F1D0E9493
S1131120960129833A834B835C836D837E838F830B
S11311309887022F132F242F352F462F572F682FD0
S1131140792FCE0109960E94390129873A874B8766
S11311505C876D877E878F87988B88E0E80EF11C0B
S1131160E0E4CE0ED11CF0E4EF16F10451F68985CB
S11311709A85AB85BC85F20180839183A283B38376
S11311808D859E85AF85B88984839583A683B7832F
S1131190FFEF6F1A7F0A88E0480E511CE8E06E16D4
S11311A0710409F09FCF89899A8962960FB6F894E1
S11311B0DEBF0FBECDBFDF91CF911F910F91FF9086
S11311C0EF90DF90CF90BF90AF909F908F907F90E3
S11311D06F905F904F903F902F900895AF92BF9281
S11311E0CF92DF92EF92FF920F931F93CF93DF93EF
S11311F0CDB7DEB7A4970FB6F894DEBF0FBECDBF50
S11312007C015B016A0100E010E09801B901A801CA
S1131210CE0101960E94210100E010E0980140E017
S113122050E060E87FE3CE0109960E94210100E0CE
S113123010E0980140E050E060E87FE3CE01419681
S11312400E94210100E010E09801B901A801CE013B
S113125049960E942101BCA2ABA2DAA2C9A29E01B6
S11312602F5D3F4FAE014D5D5F4F61E070E0C70100
S11312700E946605AE014F5F5F4FBC01C7010E942B
S1131280E60641E050E0BC01C7010E946A06A4964C
S11312900FB6F894DEBF0FBECDBFDF91CF911F9183
S11312A00F91FF90EF90DF90CF90BF90AF90089593
S11312B0AF92BF92CF92DF92EF92FF920F931F9360
S11312C0CF93DF93CDB7DEB7A4970FB6F894DEBF04
S11312D00FBECDBF7C015B016A0100E010E0980104
S11312E0B901A801CE0101960E94210100E010E09D
S11312F020E83FEB40E050E0BA01CE0109960E949D
S1131300210100E010E020E83FE340E050E0BA01B2
S1131310CE0141960E94210100E010E09801B9013C
S1131320A801CE0149960E942101BCA2ABA2DAA277
S1131330C9A29E012F5D3F4FAE014D5D5F4F61E03D
S113134070E0C7010E946605AE014F5F5F4FBC01AC
S1131350C7010E94E60641E050E0BC01C7010E94BB
S11313606A06A4960FB6F894DEBF0FBECDBFDF9118
S1131370CF911F910F91FF90EF90DF90CF90BF908E
S1131380AF900895AF92BF92CF92DF92EF92FF9207
S11313900F931F93CF93DF93CDB7DEB7A4970FB608
S11313A0F894DEBF0FBECDBF7C015B016A0100E093
S11313B010E0980140E050E060E87FE3CE01019640
S11313C00E94210100E010E09801B901A801CE01BA
S11313D009960E94210100E010E09801B901A801DA
S11313E0CE0141960E94210100E010E0980140E006
S11313F050E060E87FEBCE0149960E942101BCA237
S1131400ABA2DAA2C9A29E012F5D3F4FAE014D5D92
S11314105F4F61E070E0C7010E946605AE014F5F57
S11314205F4FBC01C7010E94E60641E050E0BC01E9
S1131430C7010E946A06A4960FB6F894DEBF0FBED9
S1131440CDBFDF91CF911F910F91FF90EF90DF906F
S1131450CF90BF90AF900895AF92BF92CF92DF929A
S1131460EF92FF920F931F93CF93DF93CDB7DEB725
S1131470A4970FB6F894DEBF0FBECDBF7C015B010D
S11314806A0100E010E0980143EF54E065E37FE374
S1131490CE0101960E94210100E010E0980143EF83
S11314A054E065E37FE3CE0109960E94210100E048
S11314B010E0980143EF54E065E37FE3CE014196E9
S11314C00E94210100E010E0980143EF54E065E33D
S11314D07FEBCE0149960E942101BCA2ABA2DAA205
S11314E0C9A29E012F5D3F4FAE014D5D5F4F61E08C
S11314F070E0C7010E946605AE014F5F5F4FBC01FB
S1131500C7010E94E60641E050E0BC01C7010E9409
S11315106A06A4960FB6F894DEBF0FBECDBFDF9166
S1131520CF911F910F91FF90EF90DF90CF90BF90DC
S1131530AF900895AF92BF92CF92DF92EF92FF9255
S11315400F931F93CF93DF93CDB7DEB7A4970FB656
S1131550F894DEBF0FBECDBF7C015B016A0100E0E1
S113156010E0980140E050E060E87FE3CE0101968E
S11315700E94210100E010E09801B901A801CE0108
S113158009960E94210100E010E09801B901A80128
S1131590CE0141960E94210100E010E020E83FE3E3
S11315A040E050E0BA01CE0149960E942101BCA25C
S11315B0ABA2DAA2C9A29E012F5D3F4FAE014D5DE1
S11315C05F4F61E070E0C7010E946605AE014F5FA6
S11315D05F4FBC01C7010E94E60641E050E0BC0138
S11315E0C7010E946A06A4960FB6F894DEBF0FBE28
S11315F0CDBFDF91CF911F910F91FF90EF90DF90BE
S1131600CF90BF90AF900895AF92BF92CF92DF92E8
S1131610EF92FF920F931F93CF93DF93CDB7DEB773
S1131620A4970FB6F894DEBF0FBECDBF7C015B015B
S11316306A0100E010E0980140E050E060E87FE3D8
S1131640CE0101960E94210100E010E09801B90149
S1131650A801CE0109960E94210100E010E0980142
S1131660B901A801CE0141960E94210103EF14E0C3
S113167025E33FE3B901A801CE0149960E94210167
S1131680BCA2ABA2DAA2C9A29E012F5D3F4FAE015C
S11316904D5D5F4F61E070E0C7010E946605AE01D9
S11316A04F5F5F4FBC01C7010E94E60641E050E076
S11316B0BC01C7010E946A06A4960FB6F894DEBF67
S11316C00FBECDBFDF91CF911F910F91FF90EF908F
S11316D0DF90CF90BF90AF9008956F927F928F92DA
S11316E09F92AF92BF92CF92DF92EF92FF920F93AD
S11316F01F93CF93DF93CDB7DEB7C858D1090FB688
S1131700F894DEBF0FBECDBF7C013B015A014901F5
S1131710680100E010E0980140E050E060E87FE3F9
S1131720CE0101960E94210100E010E09801B90168
S1131730A801CE0109960E94210100E010E0980161
S1131740B901A801CE0141960E94210100E010E0F8
S11317509801B901A801CE0149960E94210100E037
S113176010E09801B901A801CE0181960E942101DF
S113177000E010E0980140E050E060E87FE3CE0133
S113178089960E94210100E010E09801B901A801A6
S1131790CE01C1960E94210100E010E09801B90138
S11317A0A801CE01C9960E94210100E010E0980131
S11317B0B901A801CE018F5B9F4F0E94210100E077
S11317C010E09801B901A801CE01875B9F4F0E94E8
S11317D0210100E010E09801B901A801CE018F5A5F
S11317E09F4F0E94210100E010E0980140E050E08A
S11317F060E87FE3CE01875A9F4F0E94210100E0F9
S113180010E09801B901A801CE018F599F4F0E94A1
S1131810210100E010E09801B901A801CE01875927
S11318209F4F0E94210100E010E0980140E050E049
S113183060E87FE3CE018F589F4F0E94210100E0B2
S113184010E09801B901A801CE0187589F4F0E946A
S11318502101CB57DF4F79826882C558D040C957E0
S1131860DF4F99828882C758D040CF57DF4FB98263
S1131870A882C158D040CD57DF4FD982C882C358FF
S1131880D0409E012F573F4FAE014B575F4F62E050
S113189070E0C7010E946605AE014F5F5F4FBC0157
S11318A0C7010E94A40742E050E0BC01C7010E94A6
S11318B06A06C857DF4F0FB6F894DEBF0FBECDBF20
S11318C0DF91CF911F910F91FF90EF90DF90CF9018
S11318D0BF90AF909F908F907F906F9008956F927C
S11318E07F928F929F92AF92BF92CF92DF92EF92AC
S11318F0FF920F931F93CF93DF93CDB7DEB7C858F2
S1131900D1090FB6F894DEBF0FBECDBF7C013B01F9
S11319105A014901680100E010E0980140E050E0FC
S113192060E87FE3CE0101960E94210100E010E00F
S11319309801B901A801CE0109960E94210100E095
S113194010E09801B901A801CE0141960E9421013D
S113195000E010E09801B901A801CE0149960E9467
S1131960210100E010E09801B901A801CE0181969F
S11319700E94210100E010E0980140E050E060E89E
S11319807FE3CE0189960E94210100E010E09801D6
S1131990B901A801CE01C1960E94210100E010E026
S11319A09801B901A801CE01C9960E94210100E065
S11319B010E09801B901A801CE018F5B9F4F0E94EE
S11319C0210100E010E09801B901A801CE01875B74
S11319D09F4F0E94210100E010E0980140E050E098
S11319E060E87FE3CE018F5A9F4F0E94210100E0FF
S11319F010E09801B901A801CE01875A9F4F0E94B7
S1131A00210100E010E09801B901A801CE018F592D
S1131A109F4F0E94210100E010E09801B901A80144
S1131A20CE0187599F4F0E94210100E010E09801E8
S1131A30B901A801CE018F589F4F0E94210100E0F7
S1131A4010E0980140E050E060E87FEBCE01875859
S1131A509F4F0E942101CB57DF4F79826882C5587E
S1131A60D040C957DF4F99828882C758D040CF579A
S1131A70DF4FB982A882C158D040CD57DF4FD982F9
S1131A80C882C358D0409E012F573F4FAE014B57D9
S1131A905F4F62E070E0C7010E946605AE014F5FD0
S1131AA05F4FBC01C7010E94A40742E050E0BC01A3
S1131AB0C7010E946A06C857DF4F0FB6F894DEBF0D
S1131AC00FBECDBFDF91CF911F910F91FF90EF908B
S1131AD0DF90CF90BF90AF909F908F907F906F904A
S1131AE008956F927F928F929F92AF92BF92CF92FE
S1131AF0DF92EF92FF920F931F93CF93DF93CDB7B3
S1131B00DEB7C858D1090FB6F894DEBF0FBECDBFFB
S1131B107C013B015A014901680100E010E0980191
S1131B2040E050E060E87FE3CE0101960E9421018D
S1131B3000E010E09801B901A801CE0109960E94C5
S1131B40210100E010E09801B901A801CE014196FD
S1131B500E94210100E010E09801B901A801CE0122
S1131B6049960E94210100E010E09801B901A80102
S1131B70CE0181960E94210100E010E09801B90194
S1131B80A801CE0189960E94210100E010E098018D
S1131B9040E050E060E87FE3CE01C1960E9421015D
S1131BA000E010E09801B901A801CE01C9960E9495
S1131BB0210100E010E09801B901A801CE018F5B7A
S1131BC09F4F0E94210100E010E0980140E050E0A6
S1131BD060E87FE3CE01875B9F4F0E94210100E014
S1131BE010E09801B901A801CE018F5A9F4F0E94BD
S1131BF0210100E010E09801B901A801CE01875A43
S1131C009F4F0E94210100E010E09801B901A80152
S1131C10CE018F599F4F0E94210100E010E09801EE
S1131C20B901A801CE0187599F4F0E94210100E00C
S1131C3010E09801B901A801CE018F589F4F0E946E
S1131C40210100E010E0980140E050E060E87FE30B
S1131C50CE0187589F4F0E942101CB57DF4F7982D5
S1131C606882C558D040C957DF4F99828882C758C7
S1131C70D040CF57DF4FB982A882C158D040CD574A
S1131C80DF4FD982C882C358D0409E012F573F4F9F
S1131C90AE014B575F4F62E070E0C7010E946605DA
S1131CA0AE014F5F5F4FBC01C7010E94A40742E031
S1131CB050E0BC01C7010E946A06C857DF4F0FB647
S1131CC0F894DEBF0FBECDBFDF91CF911F910F916E
S1131CD0FF90EF90DF90CF90BF90AF909F908F9048
S1131CE07F906F9008956F927F928F929F92AF92A0
S1131CF0BF92CF92DF92EF92FF920F931F93CF93F5
S1131D00DF93CDB7DEB7C858D1090FB6F894DEBF5C
S1131D100FBECDBF7C013B015A014901680100E0BF
S1131D2010E09801B901A801CE0101960E94210199
S1131D3000E010E0980140E050E060E87FE3CE016D
S1131D4009960E94210100E010E09801B901A80160
S1131D50CE0141960E94210100E010E09801B901F2
S1131D60A801CE0149960E94210100E010E09801EB
S1131D70B901A801CE0181960E94210100E010E082
S1131D809801B901A801CE0189960E94210100E0C1
S1131D9010E0980140E050E060E87FE3CE01C19696
S1131DA00E94210100E010E09801B901A801CE01D0
S1131DB0C9960E94210100E010E09801B901A80130
S1131DC0CE018F5B9F4F0E94210100E010E098013B
S1131DD0B901A801CE01875B9F4F0E94210100E059
S1131DE010E09801B901A801CE018F5A9F4F0E94BB
S1131DF0210100E010E0980140E050E060E87FE35A
S1131E00CE01875A9F4F0E94210100E010E0980103
S1131E1040E050E060E87FE3CE018F599F4F0E947D
S1131E20210100E010E09801B901A801CE01875911
S1131E309F4F0E94210100E010E09801B901A80120
S1131E40CE018F589F4F0E94210100E010E09801BD
S1131E50B901A801CE0187589F4F0E942101CB5799
S1131E60DF4F79826882C558D040C957DF4F9982C5
S1131E708882C758D040CF57DF4FB982A882C15853
S1131E80D040CD57DF4FD982C882C358D0409E017D
S1131E902F573F4FAE014B575F4F62E070E0C701D1
S1131EA00E946605AE014F5F5F4FBC01C7010E94EF
S1131EB0A40742E050E0BC01C7010E946A06C8576B
S1131EC0DF4F0FB6F894DEBF0FBECDBFDF91CF91C9
S1131ED01F910F91FF90EF90DF90CF90BF90AF9044
S1131EE09F908F907F906F9008956F927F928F92C2
S1131EF09F92AF92BF92CF92DF92EF92FF920F9395
S1131F001F93CF93DF93CDB7DEB7C858D1090FB66F
S1131F10F894DEBF0FBECDBF7C013B015A014901DD
S1131F20680100E010E09801B901A801CE01019612
S1131F300E94210100E010E09801B901A801CE013E
S1131F4009960E94210100E010E09801B901A8015E
S1131F50CE0141960E94210100E010E0980140E08A
S1131F6050E060E87FE3CE0149960E94210100E041
S1131F7010E0980140E050E060E87FE3CE018196F4
S1131F800E94210100E010E09801B901A801CE01EE
S1131F9089960E94210100E010E09801B901A8018E
S1131FA0CE01C1960E94210100E010E09801B90120
S1131FB0A801CE01C9960E94210100E010E0980119
S1131FC0B901A801CE018F5B9F4F0E94210100E05F
S1131FD010E0980140E050E060E87FE3CE01875BC9
S1131FE09F4F0E94210100E010E09801B901A8016F
S1131FF0CE018F5A9F4F0E94210100E010E098010A
S1132000B901A801CE01875A9F4F0E94210100E027
S113201010E09801B901A801CE018F599F4F0E9489
S1132020210100E010E09801B901A801CE0187590F
S11320309F4F0E94210100E010E0980140E050E031
S113204060E87FE3CE018F589F4F0E94210100E09A
S113205010E09801B901A801CE0187589F4F0E9452
S11320602101CB57DF4F79826882C558D040C957C8
S1132070DF4F99828882C758D040CF57DF4FB9824B
S1132080A882C158D040CD57DF4FD982C882C358E7
S1132090D0409E012F573F4FAE014B575F4F62E038
S11320A070E0C7010E946605AE014F5F5F4FBC013F
S11320B0C7010E94A40742E050E0BC01C7010E948E
S11320C06A06C857DF4F0FB6F894DEBF0FBECDBF08
S11320D0DF91CF911F910F91FF90EF90DF90CF9000
S11320E0BF90AF909F908F907F906F9008956F9264
S11320F07F928F929F92AF92BF92CF92DF92EF9294
S1132100FF920F931F93CF93DF93CDB7DEB7C858D9
S1132110D1090FB6F894DEBF0FBECDBF7C013B01E1
S11321205A014901680100E010E0980140E050E0E4
S113213060E87FE3CE0101960E94210100E010E0F7
S11321409801B901A801CE0109960E94210100E07D
S113215010E09801B901A801CE0141960E94210125
S113216000E010E09801B901A801CE0149960E944F
S1132170210100E010E09801B901A801CE01819687
S11321800E94210100E010E020E03FE3B901A80132
S1132190CE0189960E94210100E010E020E03FEB8F
S11321A040E050E060E07FE3CE01C1960E9421014F
S11321B000E010E09801B901A801CE01C9960E947F
S11321C0210100E010E09801B901A801CE018F5B64
S11321D09F4F0E94210100E010E020E03FEB40E02F
S11321E050E060E07FE3CE01875B9F4F0E942101B6
S11321F000E010E020E03FE3B901A801CE018F5ACE
S11322009F4F0E94210100E010E09801B901A8014C
S1132210CE01875A9F4F0E94210100E010E09801EF
S1132220B901A801CE018F599F4F0E94210100E0FE
S113223010E09801B901A801CE0187599F4F0E946F
S1132240210100E010E09801B901A801CE018F58E6
S11322509F4F0E94210100E010E0980140E050E00F
S113226060E87FE3CE0187589F4F0E942101CB573E
S1132270DF4F79826882C558D040C957DF4F9982B1
S11322808882C758D040CF57DF4FB982A882C1583F
S1132290D040CD57DF4FD982C882C358D0409E0169
S11322A02F573F4FAE014B575F4F62E070E0C701BD
S11322B00E946605AE014F5F5F4FBC01C7010E94DB
S11322C0A40742E050E0BC01C7010E946A06C85757
S11322D0DF4F0FB6F894DEBF0FBECDBFDF91CF91B5
S11322E01F910F91FF90EF90DF90CF90BF90AF9030
S11322F09F908F907F906F9008956F927F928F92AE
S11323009F92AF92BF92CF92DF92EF92FF920F9380
S11323101F93CF93DF93CDB7DEB7C858D1090FB65B
S1132320F894DEBF0FBECDBF7C013B015A014901C9
S1132330680100E010E0980140E050E060E87FE3CD
S1132340CE0101960E94210100E010E09801B9013C
S1132350A801CE0109960E94210100E010E0980135
S1132360B901A801CE0141960E94210100E010E0CC
S11323709801B901A801CE0149960E94210100E00B
S113238010E09801B901A801CE0181960E942101B3
S113239000E010E09801B901A801CE0189960E94DD
S11323A0210100E010E020E83FE340E050E0BA0102
S11323B0CE01C1960E94210100E010E09801B9010C
S11323C0A801CE01C9960E94210100E010E0980105
S11323D0B901A801CE018F5B9F4F0E94210100E04B
S11323E010E020E83FE340E050E0BA01CE01875B13
S11323F09F4F0E94210100E010E09801B901A8015B
S1132400CE018F5A9F4F0E94210100E010E09801F5
S1132410B901A801CE01875A9F4F0E94210100E013
S113242010E09801B901A801CE018F599F4F0E9475
S1132430210100E010E09801B901A801CE018759FB
S11324409F4F0E94210100E010E09801B901A8010A
S1132450CE018F589F4F0E94210100E010E09801A7
S113246040E050E060E87FE3CE0187589F4F0E9430
S11324702101CB57DF4F79826882C558D040C957B4
S1132480DF4F99828882C758D040CF57DF4FB98237
S1132490A882C158D040CD57DF4FD982C882C358D3
S11324A0D0409E012F573F4FAE014B575F4F62E024
S11324B070E0C7010E946605AE014F5F5F4FBC012B
S11324C0C7010E94A40742E050E0BC01C7010E947A
S11324D06A06C857DF4F0FB6F894DEBF0FBECDBFF4
S11324E0DF91CF911F910F91FF90EF90DF90CF90EC
S11324F0BF90AF909F908F907F906F9008952F9290
S11325003F924F925F926F927F928F929F92AF927F
S1132510BF92CF92DF92EF92FF920F931F93CF93CC
S1132520DF93CDB7DEB7A4970FB6F894DEBF0FBE26
S1132530CDBF7C011B016A01B901882777FD809515
S1132540982F0E9403312BED3FE049E450E40E94B0
S1132550E53220E030E044E353E40E94373020E0E9
S113256030E040E05FE30E94E5324B015C010E94F1
S113257034302B013C0100E010E09801AB01BC01B8
S1132580CE0101960E942101C501B4010E94483385
S11325904B015C01B7FAB094B7F8B094950184018B
S11325A040E050E0BA01CE0109960E942101950154
S11325B0840140E050E0BA01CE0141960E9421011D
S11325C000E010E09801B301A201CE0149960E94F7
S11325D021013CA22BA2DAA2C9A29E012F5D3F4F8A
S11325E0AE014D5D5F4F61E070E0C7010E9466057A
S11325F0AE014F5F5F4FBC01C7010E94E60641E098
S113260050E0BC01C7010E946A06A4960FB6F89474
S1132610DEBF0FBECDBFDF91CF911F910F91FF9011
S1132620EF90DF90CF90BF90AF909F908F907F906E
S11326306F905F904F903F902F9008952F923F920C
S11326404F925F926F927F928F929F92AF92BF92BE
S1132650CF92DF92EF92FF920F931F93CF93DF936A
S1132660CDB7DEB7A4970FB6F894DEBF0FBECDBFCB
S11326707C011B016A01B901882777FD8095982F99
S11326800E9403312BED3FE049E450E40E94E5321F
S113269020E030E044E353E40E94373020E030E0AF
S11326A040E05FE30E94E5324B015C010E9434305C
S11326B02B013C0100E010E09801AB01BC01CE010C
S11326C001960E942101C501B4010E9448334B01C7
S11326D05C01AB01BC01705800E010E09801CE0130
S11326E009960E94210100E010E09801B501A401BF
S11326F0CE0141960E94210100E010E09801B3014F
S1132700A201CE0149960E9421013CA22BA2DAA289
S1132710C9A29E012F5D3F4FAE014D5D5F4F61E049
S113272070E0C7010E946605AE014F5F5F4FBC01B8
S1132730C7010E94E60641E050E0BC01C7010E94C7
S11327406A06A4960FB6F894DEBF0FBECDBFDF9124
S1132750CF911F910F91FF90EF90DF90CF90BF909A
S1132760AF909F908F907F906F905F904F903F902D
S11327702F9008954F925F926F927F92AF92BF9283
S1132780CF92DF92EF92FF920F931F93CF93DF9339
S1132790CDB7DEB7A4970FB6F894DEBF0FBECDBF9A
S11327A07C015B016A01B901882777FD8095982F28
S11327B00E9403312BED3FE049E450E40E94E532EE
S11327C020E030E044E353E40E9437302B013C0125
S11327D0905820E030E040E05FE30E94E5320E9440
S11327E0A4308B019C0140E050E0BA01CE01019677
S11327F00E94210100E010E09801B901A801CE0176
S113280009960E94210100E010E09801B901A80195
S1132810CE0141960E94210120E030E040E05FE3D8
S1132820C301B2010E94E5320E94A4308B019C01D5
S113283040E050E0BA01CE0149960E942101BCA2B9
S1132840ABA2DAA2C9A29E012F5D3F4FAE014D5D3E
S11328505F4F61E070E0C7010E946605AE014F5F03
S11328605F4FBC01C7010E94E60641E050E0BC0195
S1132870C7010E946A06A4960FB6F894DEBF0FBE85
S1132880CDBFDF91CF911F910F91FF90EF90DF901B
S1132890CF90BF90AF907F906F905F904F900895CE
S11328A02F923F924F925F926F927F928F929F925C
S11328B0AF92BF92CF92DF92EF92FF920F931F934A
S11328C0CF93DF93CDB7DEB7CC50D2400FB6F89498
S11328D0DEBF0FBECDBF5C013B012A0149011801D7
S11328E000E010E0980140E050E060E87FE3CE01B2
S11328F001960E94210100E010E09801B901A801AD
S1132900CE0109960E94210100E010E09801B9016E
S1132910A801CE0141960E94210100E010E0980137
S1132920B901A801CE0149960E94210100E010E0FE
S11329309801B901A801CE0181960E94210100E00D
S113294010E09801B901A801CE0189960E942101E5
S113295000E010E09801B901A801CE01C1960E94DF
S1132960210100E010E09801B901A801CE01C99647
S11329700E94210100E010E09801B901A801CE01F4
S11329808F5B9F4F0E94210100E010E0980140E01E
S113299050E060E87FE3CE01875B9F4F0E942101F6
S11329A000E010E09801B901A801CE018F5A9F4FB1
S11329B00E94210100E010E09801B901A801CE01B4
S11329C0875A9F4F0E94210100E010E09801B9014D
S11329D0A801CE018F599F4F0E94210100E010E011
S11329E09801B901A801CE0187599F4F0E94210186
S11329F000E010E09801B901A801CE018F589F4F63
S1132A000E94210100E010E09801B901A801CE0163
S1132A1087589F4F0E94210100E010E09801B901FE
S1132A20A801CE018F579F4F0E94210100E010E0C2
S1132A309801B901A801CE0187579F4F0E94210137
S1132A4000E010E0980140E050E060E87FE3CE0150
S1132A508F569F4F0E94210100E010E09801B901B8
S1132A60A801CE0187569F4F0E94210100E010E08B
S1132A709801B901A801CE018F559F4F0E942101F1
S1132A8000E010E09801B901A801CE0187559F4FDD
S1132A900E94210100E010E09801B901A801CE01D3
S1132AA08F549F4F0E94210100E010E09801B9016A
S1132AB0A801CE0187549F4F0E94210100E010E03D
S1132AC09801B901A801CE018F539F4F0E942101A3
S1132AD000E010E09801B901A801CE0187539F4F8F
S1132AE00E94210100E010E09801B901A801CE0183
S1132AF08F529F4F0E94210100E010E0980140E0B6
S1132B0050E060E87FE3CE0187529F4F0E9421018D
S1132B1000E010E09801B901A801CE018F519F4F48
S1132B200E94210100E010E09801B901A801CE0142
S1132B3087519F4F0E94210100E010E09801B901E4
S1132B40A801CE018F509F4F0E94210100E010E0A8
S1132B509801B901A801CE0187509F4F0E9421011D
S1132B6000E010E09801B901A801CE018F5F9E4FEB
S1132B700E94210100E010E09801B901A801CE01F2
S1132B80875F9E4F0E94210100E010E09801B90187
S1132B90A801CE018F5E9E4F0E94210100E010E04B
S1132BA09801B901A801CE01875E9E4F0E942101C0
S1132BB000E010E0980140E050E060E87FE3CE01DF
S1132BC08F5D9E4F0E94210100E010E09801B90141
S1132BD0A801CE01875D9E4F0E94210100E010E014
S1132BE09801B901A801CE018F5C9E4F0E9421017A
S1132BF000E010E09801B901A801CE01875C9E4F66
S1132C000E94210100E010E09801B901A801CE0161
S1132C108F5B9E4F0E94210100E010E09801B901F2
S1132C20A801CE01875B9E4F0E94210100E010E0C5
S1132C309801B901A801CE018F5A9E4F0E9421012B
S1132C4000E010E09801B901A801CE01875A9E4F17
S1132C500E94210100E010E09801B901A801CE0111
S1132C608F599E4F0E94210100E010E09801B901A4
S1132C70A801CE0187599E4F0E94210100E010E077
S1132C80980140E050E060E87FE3CE018F589E4F0A
S1132C900E94210100E010E09801B901A801CE01D1
S1132CA087589E4F0E94210100E010E09801B9016D
S1132CB0A801CE018F579E4F0E94210100E010E031
S1132CC09801B901A801CE0187579E4F0E942101A6
S1132CD000E010E09801B901A801CE018F569E4F83
S1132CE00E94210100E010E09801B901A801CE0181
S1132CF087569E4F0E94210100E010E09801B9011F
S1132D00A801CE018F559E4F0E94210100E010E0E2
S1132D10980140E050E060E87FE3CE0187559E4F84
S1132D200E94210100E010E09801B901A801CE0140
S1132D308F549E4F0E94210100E010E09801B901D8
S1132D40A801CE0187549E4F0E94210100E010E0AB
S1132D509801B901A801CE018F539E4F0E94210111
S1132D6000E010E09801B901A801CE0187539E4FFD
S1132D700E94210100E010E09801B901A801CE01F0
S1132D808F529E4F0E94210100E010E09801B9018A
S1132D90A801CE0187529E4F0E94210100E010E05D
S1132DA09801B901A801CE018F519E4F0E942101C3
S1132DB000E010E09801B901A801CE0187519E4FAF
S1132DC00E94210100E010E09801B901A801CE01A0
S1132DD08F509E4F0E94210100E010E0980140E0D6
S1132DE050E060E87FE3CE0187509E4F0E942101AE
S1132DF0C95FDD4F79826882C750D240C75FDD4F1B
S1132E0099828882C950D240C55FDD4FF982E88239
S1132E10CB50D240CF5FDD4F59824882C150D2405F
S1132E20CD5FDD4F39822882C350D240CB5FDD4F66
S1132E30D982C882C550D2409E012F5F3D4FAE015A
S1132E40495F5D4F63E070E0C5010E946605AE0115
S1132E504F5F5F4FBC01C5010E944B0843E050E047
S1132E60BC01C5010E946A06C45FDD4F0FB6F89429
S1132E70DEBF0FBECDBFDF91CF911F910F91FF90A9
S1132E80EF90DF90CF90BF90AF909F908F907F9006
S1132E906F905F904F903F902F9008952F923F92A4
S1132EA04F925F926F927F928F929F92AF92BF9256
S1132EB0CF92DF92EF92FF920F931F93CF93DF9302
S1132EC0CDB7DEB7CC50D2400FB6F894DEBF0FBEFC
S1132ED0CDBF5C013B012A014901180100E010E06B
S1132EE0980140E050E060E87FE3CE0101960E9443
S1132EF0210100E010E09801B901A801CE01099672
S1132F000E94210100E010E09801B901A801CE015E
S1132F1041960E94210100E010E09801B901A80146
S1132F20CE0149960E94210100E010E09801B90108
S1132F30A801CE0181960E94210100E010E09801D1
S1132F40B901A801CE0189960E94210100E010E098
S1132F509801B901A801CE01C1960E94210100E0A7
S1132F6010E09801B901A801CE01C9960E9421017F
S1132F7000E010E09801B901A801CE018F5B9F4FDA
S1132F800E94210100E010E0980140E050E060E878
S1132F907FE3CE01875B9F4F0E94210100E010E098
S1132FA09801B901A801CE018F5A9F4F0E942101B7
S1132FB000E010E09801B901A801CE01875A9F4FA3
S1132FC00E94210100E010E09801B901A801CE019E
S1132FD08F599F4F0E94210100E010E09801B90130
S1132FE0A801CE0187599F4F0E94210100E010E003
S1132FF09801B901A801CE018F589F4F0E94210169
S113300000E010E09801B901A801CE0187589F4F54
S11330100E94210100E010E09801B901A801CE014D
S11330208F579F4F0E94210100E010E09801B901E1
S1133030A801CE0187579F4F0E94210100E010E0B4
S1133040980140E050E060E87FE3CE018F569F4F47
S11330500E94210100E010E09801B901A801CE010D
S113306087569F4F0E94210100E010E09801B901AA
S1133070A801CE018F559F4F0E94210100E010E06E
S11330809801B901A801CE0187559F4F0E942101E3
S113309000E010E09801B901A801CE018F549F4FC0
S11330A00E94210100E010E09801B901A801CE01BD
S11330B087549F4F0E94210100E010E09801B9015C
S11330C0A801CE018F539F4F0E94210100E010E020
S11330D09801B901A801CE0187539F4F0E94210195
S11330E000E010E09801B901A801CE018F529F4F72
S11330F00E94210100E010E0980140E050E060E807
S11331007FE3CE0187529F4F0E94210100E010E02F
S11331109801B901A801CE018F519F4F0E9421014E
S113312000E010E09801B901A801CE0187519F4F3A
S11331300E94210100E010E09801B901A801CE012C
S11331408F509F4F0E94210100E010E09801B901C7
S1133150A801CE0187509F4F0E94210100E010E09A
S11331609801B901A801CE018F5F9E4F0E942101F1
S113317000E010E09801B901A801CE01875F9E4FDD
S11331800E94210100E010E09801B901A801CE01DC
S11331908F5E9E4F0E94210100E010E09801B9016A
S11331A0A801CE01875E9E4F0E94210100E010E03D
S11331B0980140E050E060E87FE3CE018F5D9E4FD0
S11331C00E94210100E010E09801B901A801CE019C
S11331D0875D9E4F0E94210100E010E09801B90133
S11331E0A801CE018F5C9E4F0E94210100E010E0F7
S11331F09801B901A801CE01875C9E4F0E9421016C
S113320000E010E09801B901A801CE018F5B9E4F48
S11332100E94210100E010E09801B901A801CE014B
S1133220875B9E4F0E94210100E010E09801B901E4
S1133230A801CE018F5A9E4F0E94210100E010E0A8
S11332409801B901A801CE01875A9E4F0E9421011D
S113325000E010E09801B901A801CE018F599E4FFA
S11332600E94210100E010E0980140E050E060E895
S11332707FE3CE0187599E4F0E94210100E010E0B8
S11332809801B901A801CE018F589E4F0E942101D7
S113329000E010E09801B901A801CE0187589E4FC3
S11332A00E94210100E010E09801B901A801CE01BB
S11332B08F579E4F0E94210100E010E09801B90150
S11332C0A801CE0187579E4F0E94210100E010E023
S11332D09801B901A801CE018F569E4F0E94210189
S11332E000E010E09801B901A801CE0187569E4F75
S11332F00E94210100E010E09801B901A801CE016B
S11333008F559E4F0E94210100E010E09801B90101
S1133310A801CE0187559E4F0E94210100E010E0D4
S11333209801B901A801CE018F549E4F0E9421013A
S113333000E010E0980140E050E060E87FE3CE0157
S113334087549E4F0E94210100E010E09801B901CA
S1133350A801CE018F539E4F0E94210100E010E08E
S11333609801B901A801CE0187539E4F0E94210103
S113337000E010E09801B901A801CE018F529E4FE0
S11333800E94210100E010E09801B901A801CE01DA
S113339087529E4F0E94210100E010E09801B9017C
S11333A0A801CE018F519E4F0E94210100E010E040
S11333B09801B901A801CE0187519E4F0E942101B5
S11333C000E010E0980140E050E060E87FE3CE01C7
S11333D08F509E4F0E94210100E010E09801B90136
S11333E0A801CE0187509E4F0E942101C95FDD4F85
S11333F079826882C750D240C75FDD4F9982888244
S1133400C950D240C55FDD4FF982E882CB50D2402B
S1133410CF5FDD4F59824882C150D240CD5FDD4F2E
S113342039822882C350D240CB5FDD4FD982C88213
S1133430C550D2409E012F5F3D4FAE01495F5D4FA5
S113344063E070E0C5010E946605AE014F5F5F4F07
S1133450BC01C5010E944B0843E050E0BC01C5011A
S11334600E946A06C45FDD4F0FB6F894DEBF0FBE3C
S1133470CDBFDF91CF911F910F91FF90EF90DF901F
S1133480CF90BF90AF909F908F907F906F905F9000
S11334904F903F902F9008952F923F924F925F92BA
S11334A06F927F928F929F92AF92BF92CF92DF9250
S11334B0EF92FF920F931F93CF93DF93CDB7DEB7B5
S11334C0C451D2400FB6F894DEBF0FBECDBFC35F68
S11334D0DD4F99838883CD50D2402B01C15FDD4FEE
S11334E059834883CF50D2403901CF5EDD4F1983D1
S11334F00883C151D2401701CD5EDD4FD982C88205
S1133500C351D240B501882777FD8095982F0E943A
S113351003312BED3FE049E450E40E94E53220E022
S113352030E044E353E40E9437304B015C0100E097
S113353010E0980140E050E060E87FE3CE0101969E
S11335400E94210100E010E09801B901A801CE0118
S113355009960E94210100E010E09801B901A80138
S1133560CE0141960E94210100E010E09801B901CA
S1133570A801CE0149960E94210100E010E09801C3
S1133580B901A801CE0181960E94210100E010E05A
S11335909801B901A801CE0189960E94210100E099
S11335A010E09801B901A801CE01C1960E94210141
S11335B000E010E09801B901A801CE01C9960E946B
S11335C0210100E010E09801B901A801CE018F5B50
S11335D09F4F0E94210100E010E0980140E050E07C
S11335E060E87FE3CE01875B9F4F0E94210100E0EA
S11335F010E09801B901A801CE018F5A9F4F0E9493
S1133600210100E010E09801B901A801CE01875A18
S11336109F4F0E94210100E010E09801B901A80128
S1133620CE018F599F4F0E94210100E010E09801C4
S1133630B901A801CE0187599F4F0E94210100E0E2
S113364010E09801B901A801CE018F589F4F0E9444
S1133650210100E010E09801B901A801CE018758CA
S11336609F4F0E94210100E010E09801B901A801D8
S1133670CE018F579F4F0E94210100E010E0980176
S1133680B901A801CE0187579F4F0E94210100E094
S113369010E0980140E050E060E87FE3CE018F56EF
S11336A09F4F0E94210100E010E09801B901A80198
S11336B0CE0187569F4F0E94210100E010E098013F
S11336C0B901A801CE018F559F4F0E94210100E04E
S11336D010E09801B901A801CE0187559F4F0E94BF
S11336E0210100E010E09801B901A801CE018F5436
S11336F09F4F0E94210100E010E09801B901A80148
S1133700CE0187549F4F0E94210100E010E09801F0
S1133710B901A801CE018F539F4F0E94210100E0FF
S113372010E09801B901A801CE0187539F4F0E9470
S1133730210100E010E09801B901A801CE018F52E7
S11337409F4F0E94210100E010E0980140E050E00A
S113375060E87FE3CE0187529F4F0E94210100E081
S113376010E09801B901A801CE018F519F4F0E942A
S1133770210100E010E09801B901A801CE018751B0
S11337809F4F0E94210100E010E09801B901A801B7
S1133790CE018F509F4F0E94210100E010E098015C
S11337A0B901A801CE0187509F4F0E94210100E07A
S11337B010E09801B901A801CE018F5F9E4F0E94CD
S11337C0210100E010E09801B901A801CE01875F52
S11337D09E4F0E94210100E010E09801B901A80168
S11337E0CE018F5E9E4F0E94210100E010E09801FF
S11337F0B901A801CE01875E9E4F0E94210100E01D
S113380010E0980140E050E060E87FE3CE018F5D76
S11338109E4F0E94210100E010E09801B901A80127
S1133820CE01875D9E4F0E94210100E010E09801C7
S1133830B901A801CE018F5C9E4F0E94210100E0D6
S113384010E09801B901A801CE01875C9E4F0E9447
S1133850210100E010E09801B901A801CE018F5BBD
S11338609E4F0E94210100E010E09801B901A801D7
S1133870CE01875B9E4F0E94210100E010E0980179
S1133880B901A801CE018F5A9E4F0E94210100E088
S113389010E09801B901A801CE01875A9E4F0E94F9
S11338A0210100E010E09801B901A801CE018F596F
S11338B09E4F0E94210100E010E0980140E050E09A
S11338C060E87FE3CE0187599E4F0E94210100E00A
S11338D010E09801B901A801CE018F589E4F0E94B3
S11338E0210100E010E09801B901A801CE01875838
S11338F09E4F0E94210100E010E09801B901A80147
S1133900CE018F579E4F0E94210100E010E09801E4
S1133910B901A801CE0187579E4F0E94210100E002
S113392010E09801B901A801CE018F569E4F0E9464
S1133930210100E010E09801B901A801CE018756E9
S11339409E4F0E94210100E010E09801B901A801F6
S1133950CE018F559E4F0E94210100E010E0980196
S1133960B901A801CE0187559E4F0E942101C501CE
S1133970B4010E9434306B017C018B019C0140E056
S113398050E0BA01CE018F549E4F0E942101C5011F
S1133990B4010E9448334B015C0100E010E098013F
S11339A0AB01BC01CE0187549E4F0E94210100E06F
S11339B010E09801B901A801CE018F539E4F0E94D7
S11339C0210100E010E09801B901A801CE0187535C
S11339D09E4F0E94210100E010E09801B901A80166
S11339E0CE018F529E4F0E94210100E010E0980109
S11339F0B901A801CE0187529E4F0E94210100E027
S1133A0010E09801B901A801CE018F519E4F0E9488
S1133A10210100E010E09801B901A801CE0187510D
S1133A209E4F0E94210100E010E09801B501A4011D
S1133A30CE018F509E4F0E9421019701860140E0E4
S1133A4050E0BA01CE0187509E4F0E942101C95F08
S1133A50DD4F59824882C750D240C75FDD4F79821B
S1133A606882C950D240C55FDD4F39822882CB506D
S1133A70D240C15FDD4F88819981CF50D240CF5F62
S1133A80DD4F99838883C150D240CF5EDD4F88815A
S1133A909981C151D240CD5FDD4F99838883C35052
S1133AA0D240CD5EDD4F88819981C351D240CB5F36
S1133AB0DD4F99838883C550D2409E012F5F3D4FCF
S1133AC0AE01495F5D4F63E070E0C35FDD4F888105
S1133AD09981CD50D2400E946605AE014F5F5F4F81
S1133AE0BC01C35FDD4F88819981CD50D2400E94D3
S1133AF04B0843E050E0BC01C35FDD4F88819981EE
S1133B00CD50D2400E946A06CC5EDD4F0FB6F894C9
S1133B10DEBF0FBECDBFDF91CF911F910F91FF90FC
S1133B20EF90DF90CF90BF90AF909F908F907F9059
S1133B306F905F904F903F902F90089587EF90E0A3
S1133B400E94D42E08952F923F925F926F927F929B
S1133B508F929F92AF92BF92CF92DF92EF92FF9299
S1133B600F931F93CF93DF931C014B01C0E0D0E070
S1133B708C0103521F4F7C0184E0E80EF11C5101BB
S1133B80EFEFAE1ABE0A6101F6E0CF0ED11C552448
S1133B905394CFC082E088169104E1F144F4811477
S1133BA0910491F0F1E08F169104F1F0F3CF84E0E9
S1133BB08816910409F45AC00CF440C0F5E08F163D
S1133BC0910409F483C0E6CF60E070E0C5010E946F
S1133BD0C82CBC01C6010E94D72D682FC7010E94C2
S1133BE0E02EF8015082A5C060E070E0C5010E949B
S1133BF0C82CBC016C0F7D1FC6010E94D72D8432D6
S1133C0019F4F801508295C0682FC7010E94E02E74
S1133C1021968FC0C7010E94DC2E782E61E070E0EF
S1133C20C5010E94C82C472D50E0BC016C0F7D1FBC
S1133C30C6010E94422EF80150827BC0C7010E9437
S1133C40DC2E782E682FC7010E94E02E61E070E020
S1133C50C5010E94C82C472D50E0BE01680F791F92
S1133C60C6010E94422EF801508263C0C7010E941F
S1133C70DC2E682E712CFDE06F16710481F4F801BE
S1133C80508261E070E0C5010E94C82CBE01680F3B
S1133C90791F44E250E0C6010E94422E4AC0F8E077
S1133CA06F16710429F41C161D0614F4219741C0E3
S1133CB061E070E0C5010E94C82CBE01680F791F45
S1133CC0A301C6010E94422E219633C0C7010E945F
S1133CD0DC2E682E712C682FC7010E94E02E8DE027
S1133CE06816710481F4F801508261E070E0C50146
S1133CF00E94C82CBE01680F791F44E250E0C6013F
S1133D000E94422E16C0F8E06F16710429F41C16A6
S1133D101D0614F421970DC061E070E0C5010E94F6
S1133D20C82CBE01680F791FA301C6010E94422E50
S1133D302196F8018081882309F42CCFF101E35204
S1133D40FF4F1082DF91CF911F910F91FF90EF9061
S1133D50DF90CF90BF90AF909F908F907F906F90A7
S1133D605F903F902F900895FC0111821082089576
S1133D70FC01208131812F5F3F4FF901EE0FFF1FBE
S1133D80E80FF91F71836083FC0131832083089558
S1133D90FC0120813181121613068CF42150310963
S1133DA0F901EE0FFF1FE80FF91F528143811382BF
S1133DB01282FC0131832083852F942F089580E49F
S1133DC092E4089580E090E00E94ED380E94A235CC
S1133DD00E949D3560E177E20E94B933BC0180E026
S1133DE090E00E94F33808950F931F93CF93DF93CD
S1133DF0EC010E940203CE0101960E946B2B8E01FE
S1133E000C5F1F4FC8010E94D42ECE0105960E945C
S1133E103F02CE0106960E948D2DCE010D960E9482
S1133E203D03CE010E960E94B41E6AE670E0C801FE
S1133E300E94E42ECE010E94E21EFE01E752FF4FD3
S1133E4011821082C552DF4F19821882DF91CF91FF
S1133E501F910F9108952F923F924F925F926F920C
S1133E607F928F929F92AF92BF92CF92DF92EF9206
S1133E70FF920F931F93CF93DF93CDB7DEB72C97A9
S1133E800FB6F894DEBF0FBECDBF4C011B01290154
S1133E903A01E982FA820B831C83AD82BE82CF820F
S1133EA0D8868CE090E00E9428348C01F10131978F
S1133EB0E135F10510F00C940E2AE65DFF4F0C94E9
S1133EC0EC332FEF821A920A20E040E050E069813F
S1133ED07A81C4010E94782C9C0140E050E0B20138
S1133EE0C4010E944B2C20E041E050E069817A81BA
S1133EF0C4010E94782C9C0141E050E0B201C4014D
S1133F000E944B2C0C940E2A3FEF831A930AB201A1
S1133F10C4010E94C82CAC01B201C4010E943D2D11
S1133F2069817A81C4010E94C82CAC01B201C40128
S1133F300E943D2D0C940E2A86E0880E911C698106
S1133F407A81C4010E94D72D482F552747FD5095EB
S1133F50B201C4010E94422E0C940E2A69817A8116
S1133F60C40101960E94C82CAC01B201C40106969A
S1133F700E94422E0C940E2A69817A81C40106960D
S1133F800E94D72D482F552747FD5095B201C401F3
S1133F9001960E943D2D0C940E2A49815A81B2014A
S1133FA0C40106960E94422E0C940E2A49815A811D
S1133FB0B201C40101960E943D2D0C940E2AC40145
S1133FC006960E946A2EAC01B201C40101960E94B9
S1133FD03D2D0C940E2AB201C40101960E94C82CF6
S1133FE0BC01C40106960E94882E0C940E2A2981D5
S1133FF03A8140E050E0B201C40101960E944B2C8A
S11340000C940E2A29813A8141E050E0B201C401A6
S113401001960E944B2C0C940E2A9FEF891A990A40
S113402069817A81C4010E94C82C7C01B201C40157
S11340300E94C82CB7010E9406030C940E2AF201B8
S1134040E251FF4FA981A0830C940E2AE981FA81E1
S1134050E251FF4F4081552747FD5095B201C401FD
S113406006960E94422E0C940E2A4092F6000C945E
S11340700E2A8091EE00882311F40C940E2A740108
S1134080B9EDEB0EF11CF701608171816F5F7F4F19
S1134090C4010E960E94B81EF1E04F1A5108D701D0
S11340A04D925C920C940E2A8091EF00882311F4B7
S11340B00C940E2A8091F600882359F0F401E752FB
S11340C0FF4F608171816F5F7F4FC4010E960E9424
S11340D0B81EF401E752FF4FB1E04B1A5108518268
S11340E040820C940E2A8091F000882311F40C94E1
S11340F00E2A8091F600882359F0F401E752FF4F0D
S1134100608171816F5F7F4FC4010E960E94B81E5B
S1134110F401E752FF4F21E0421A510851824082D4
S11341200C940E2A8091F100882311F40C940E2A29
S11341308091F600882359F0F401E752FF4F608123
S113414071816F5F7F4FC4010E960E94B81EF40107
S1134150E752FF4F31E0431A5108518240820C94D8
S11341600E2A8091F200882311F40C940E2A809177
S1134170F600882359F0F401E752FF4F6081718102
S11341806F5F7F4FC4010E960E94B81EF401E75280
S1134190FF4F81E0481A5108518240820C940E2A44
S11341A08091F300882311F40C940E2A8091F60078
S11341B0882359F0F401E752FF4F608171816F5FEA
S11341C07F4FC4010E960E94B81EF401E752FF4FC0
S11341D091E0491A5108518240820C940E2A809130
S11341E0F400882311F40C940E2A8091F60088239D
S11341F059F0F401E752FF4F608171816F5F7F4F87
S1134200C4010E960E94B81EF401E752FF4FA1E0CC
S11342104A1A5108518240820C940E2A8091F5006A
S1134220882311F40C940E2A8091F600882359F007
S1134230F401E752FF4F608171816F5F7F4FC401CA
S11342400E960E94B81EF401E752FF4FB1E04B1ADC
S11342505108518240820C940E2A7401E9EDEE0E4D
S1134260F11CD7016D917C916F5F7F4FC4010E9655
S11342700E94B81EB1E04B1A5108F70151824082E6
S11342800C940E2AC4010E960E94C81EF401E75233
S1134290FF4F0197918380830C940E2AF401E75217
S11342A0FF4F21E0421A5108518240820C940E2A99
S11342B036E0830E911C69817A81C4010E94D72D56
S11342C0F82E6D817E81C4010E94D72D482F552779
S11342D047FD50954F0D511DF7FC5A95B201C4018D
S11342E00E94422E0C940E2A86E0880E911C69814D
S11342F07A81C4010E94D72D482F552747FD509538
S1134300AD81BE814A0F5B1FB201C4010E94422EDF
S11343100C940E2AB6E08B0E911C69817A81C4013B
S11343200E94D72DF82E6D817E81C4010E94D72D65
S11343304F2D552747FD5095481B510987FD53952F
S1134340B201C4010E94422E0C940E2AE6E08E0EA5
S1134350911C69817A81C4010E94D72D482F552769
S113436047FD50952D813E81421B530BB201C40180
S11343700E94422E0C940E2A36E0830E911C6D810D
S11343807E81C4010E94D72D992787FD909549818C
S11343905A81481B590BB201C4010E94422E0C944D
S11343A00E2A86E0880E911C69817A81C4010E94DC
S11343B0D72DF82E6D817E81C4010E94D72D9F2DAB
S11343C09802A0011124B201C4010E94422E0C944F
S11343D00E2AA6E08A0E911C69817A81C4010E948A
S11343E0D72D992787FD9095ED81FE818E9FA001A1
S11343F08F9F500D9E9F500D1124B201C4010E9445
S1134400422E0C940E2AF6E08F0E911C69817A815B
S1134410C4010E94D72DF82E6D817E81C4010E94B3
S1134420D72D682F8F2D992787FD9095772767FDC6
S113443070950E94B933AB01B201C4010E94422EAF
S1134440EDC726E0820E911C69817A81C4010E9425
S1134450D72D682F772767FD7095872F972F2D818C
S11344603E814F8158850E94CD33A901B201C40118
S11344700E94422ED3C736E0830E911C6D817E814B
S1134480C4010E94D72D282F332727FD3095432FB1
S1134490532F69817A818B819C810E94CD33A9013C
S11344A0B201C4010E94422EB9C786E0880E911C55
S11344B069817A81C4010E94D72DF82E6D817E8195
S11344C0C4010E94D72D8F21482F552747FD5095B1
S11344D0B201C4010E94422EA1C796E0890E911C2C
S11344E069817A81C4010E94D72D482F552747FD41
S11344F05095AD81BE814A235B23B201C4010E9461
S1134500422E8CC7B6E08B0E911C6D817E81C40156
S11345100E94D72D482F552747FD5095E981FA81F0
S11345204E235F23B201C4010E94422E77C7F6E0F6
S11345308F0E911C69817A81C4010E94D72DF82EB7
S11345406D817E81C4010E94D72D8F29482F552764
S113455047FD5095B201C4010E94422E5FC726E078
S1134560820E911C69817A81C4010E94D72D482F43
S1134570552747FD50958D819E81482B592BB201BB
S1134580C4010E94422E4AC796E0890E911C6D8197
S11345907E81C4010E94D72D482F552747FD509591
S11345A0A981BA814A2B5B2BB201C4010E94422E1D
S11345B035C7B6E08B0E911C69817A81C4010E94D3
S11345C0D72DF82E6D817E81C4010E94D72D8F29AD
S11345D0482F552747FD509540955095B201C40189
S11345E00E94422E1BC7E6E08E0E911C69817A81DF
S11345F0C4010E94D72D482F552747FD50952D8182
S11346003E81422B532B40955095B201C4010E9428
S1134610422E04C736E0830E911C6D817E81C40155
S11346200E94D72D482F552747FD509589819A819F
S1134630482B592B40955095B201C4010E94422E3B
S1134640EDC696E0890E911C69817A81C4010E94AD
S1134650D72DF82E6D817E81C4010E94D72D8F2520
S1134660482F552747FD5095B201C4010E94422EA0
S1134670D5C6A6E08A0E911C69817A81C4010E9484
S1134680D72D482F552747FD5095ED81FE814E27A4
S11346905F27B201C4010E94422EC0C6F6E08F0E0D
S11346A0911C6D817E81C4010E94D72D482F55270E
S11346B047FD509529813A8142275327B201C4010D
S11346C00E94422EABC636E0830E911C69817A812A
S11346D0C4010E94D72DF82E6D817E81C4010E94F1
S11346E0D72D8F21482F552747FD5095409550953C
S11346F0B201C4010E94422E91C686E0880E911C2C
S113470069817A81C4010E94D72D482F552747FD1E
S11347105095AD81BE814A235B2340955095B201EB
S1134720C4010E94422E7AC6B6E08B0E911C6D81A4
S11347307E81C4010E94D72D482F552747FD5095EF
S1134740E981FA814E235F2340955095B201C4015B
S11347500E94422E63C6F6E08F0E911C69817A8115
S1134760C4010E94D72D482F552747FD50954095E9
S11347705095B201C4010E94422E50C626E0820E1A
S1134780911C69817A81C4010E94D72DF82E6D8114
S11347907E81C4010E94D72D2F2D332727FD30950C
S11347A0A90102C0440F551F8A95E2F7B201C40162
S11347B00E94422E33C636E0830E911C69817A81B1
S11347C0C4010E94D72D482F552747FD50950D80D1
S11347D002C0440F551F0A94E2F7B201C4010E94BB
S11347E0422E1CC686E0880E911C69817A81C40120
S11347F00E94D72D49815A816B817C8104C0440F6A
S1134800551F661F771F8A95D2F7B201C4010E9413
S1134810422E04C696E0890E911C69817A81C401F6
S11348200E94D72DF82E6D817E81C4010E94D72D60
S11348302F2D332727FD3095A90102C055954795A3
S11348408A95E2F7B201C4010E94422EE7C5A6E0B0
S11348508A0E911C69817A81C4010E94D72D482F48
S1134860552747FD50950D8002C0559547950A94EC
S1134870E2F7B201C4010E94422ED0C5B6E08B0E0D
S1134880911C69817A81C4010E94D72D49815A8182
S11348906B817C8104C075956795579547958A957A
S11348A0D2F7B201C4010E94422EB8C5B201C401BC
S11348B00E94A31DB3C5B201C40188529F4F0E9438
S11348C0302FACC5F401E752FF4FD401A552BF4FBE
S11348D08D919C9191838083A1C57401EFEFEE1AB1
S11348E0FE0A20E041E050E0B201C7010E94782CAA
S11348F08C0120E040E050E0B201C7010E94782C16
S1134900A801BC01C4010D960E94EE088C01DC01D3
S11349102D913C9140E050E0B201C7010E944B2C24
S1134920F8012281338141E050E0B201C7010E94C5
S11349304B2C74C57401FFEFEF1AFF0A20E041E02D
S113494050E0B201C7010E94782C8C0120E040E0C5
S113495050E0B201C7010E94782CA801BC01C40137
S11349600D960E9458098C01DC012D913C9140E088
S113497050E0B201C7010E944B2CF801228133811F
S113498041E050E0B201C7010E944B2C47C57401BD
S1134990FFEFEF1AFF0A20E041E050E0B201C70147
S11349A00E94782C8C0120E040E050E0B201C70165
S11349B00E94782CA801BC01C4010D960E94C20972
S11349C08C01DC012D913C9140E050E0B201C70123
S11349D00E944B2CF8012281338141E050E0B20166
S11349E0C7010E944B2C1AC57401FFEFEF1AFF0A8E
S11349F020E041E050E0B201C7010E94782C8C0114
S1134A0020E040E050E0B201C7010E94782CA801E8
S1134A10BC01C4010D960E942C0A8C01DC012D916D
S1134A203C9140E050E0B201C7010E944B2CF801D8
S1134A302281338141E050E0B201C7010E944B2C36
S1134A40EDC47401FFEFEF1AFF0A20E041E050E0EB
S1134A50B201C7010E94782C8C0120E040E050E0B4
S1134A60B201C7010E94782CA801BC01C4010D96B3
S1134A700E949A0A8C01DC012D913C9140E050E0A7
S1134A80B201C7010E944B2CF8012281338141E01D
S1134A9050E0B201C7010E944B2CC0C47401FFEF67
S1134AA0EF1AFF0A20E041E050E0B201C7010E9482
S1134AB0782C8C0120E040E050E0B201C7010E9454
S1134AC0782CA801BC01C4010D960E94040B8C0132
S1134AD0DC012D913C9140E050E0B201C7010E94FD
S1134AE04B2CF8012281338141E050E0B201C7012F
S1134AF00E944B2C93C47401FFEFEF1AFF0A20E0CD
S1134B0041E050E0B201C7010E94782C8C0120E002
S1134B1040E050E0B201C7010E94782C29813A811B
S1134B20A801BC01C4010D960E947F128C01DC0116
S1134B302D913C9140E050E0B201C7010E944B2C02
S1134B40F8012281338141E050E0B201C7010E94A3
S1134B504B2C64C47401FFEFEF1AFF0A20E041E01C
S1134B6050E0B201C7010E94782C8C0120E040E0A3
S1134B7050E0B201C7010E94782C29813A81A80132
S1134B80BC01C4010D960E941E138C01DC012D9101
S1134B903C9140E050E0B201C7010E944B2CF80167
S1134BA02281338141E050E0B201C7010E944B2CC5
S1134BB035C47401FFEFEF1AFF0A20E041E050E032
S1134BC0B201C7010E94782C8C0120E040E050E043
S1134BD0B201C7010E94782C29813A81A801BC0145
S1134BE0C4010D960E94BA138C01DC012D913C91F5
S1134BF040E050E0B201C7010E944B2CF801228131
S1134C00338141E050E0B201C7010E944B2C06C43D
S1134C105401FFEFAF1ABF0A20E041E050E0698180
S1134C207A81C5010E94782C8C0120E040E050E09C
S1134C3069817A81C5010E94782C7C0120E041E0E1
S1134C4050E0B201C5010E94782C6C0120E040E0E4
S1134C5050E0B201C5010E94782C9701A601BC0165
S1134C60C4010D960E946D0B8C01DC012D913C91C9
S1134C7040E050E0B201C5010E944B2CF8012281B2
S1134C80338141E050E0B201C5010E944B2CD801B0
S1134C9014962D913C91159740E050E069817A81FA
S1134CA0C5010E944B2CF8012681378141E050E078
S1134CB069817A81C5010E944B2CB0C35401FFEF76
S1134CC0AF1ABF0A20E041E050E069817A81C50152
S1134CD00E94782C8C0120E040E050E069817A81C8
S1134CE0C5010E94782C7C0120E041E050E0B20133
S1134CF0C5010E94782C6C0120E040E050E0B20134
S1134D00C5010E94782C9701A601BC01C4010D962F
S1134D100E946F0C8C01DC012D913C9140E050E02D
S1134D20B201C5010E944B2CF8012281338141E07C
S1134D3050E0B201C5010E944B2CD80114962D916C
S1134D403C91159740E050E069817A81C5010E9449
S1134D504B2CF8012681378141E050E069817A814A
S1134D60C5010E944B2C5AC35401FFEFAF1ABF0A6E
S1134D7020E041E050E069817A81C5010E94782CED
S1134D808C0120E040E050E069817A81C5010E94F5
S1134D90782C7C0120E041E050E0B201C5010E9482
S1134DA0782C6C0120E040E050E0B201C5010E9483
S1134DB0782C9701A601BC01C4010D960E94710DC7
S1134DC08C01DC012D913C9140E050E0B201C50121
S1134DD00E944B2CF8012281338141E050E0B20162
S1134DE0C5010E944B2CD80114962D913C91159726
S1134DF040E050E069817A81C5010E944B2CF801A2
S1134E002681378141E050E069817A81C5010E94A1
S1134E104B2C04C35401FFEFAF1ABF0A20E041E05A
S1134E2050E069817A81C5010E94782C8C0120E0D0
S1134E3040E050E069817A81C5010E94782C7C01B0
S1134E4020E041E050E0B201C5010E94782C6C01E1
S1134E5020E040E050E0B201C5010E94782C9701A7
S1134E60A601BC01C4010D960E94730E8C01DC01E5
S1134E702D913C9140E050E0B201C5010E944B2CC1
S1134E80F8012281338141E050E0B201C5010E9462
S1134E904B2CD80114962D913C91159740E050E08D
S1134EA069817A81C5010E944B2CF80126813781E2
S1134EB041E050E069817A81C5010E944B2CAEC269
S1134EC05401FFEFAF1ABF0A20E041E050E06981CE
S1134ED07A81C5010E94782C8C0120E040E050E0EA
S1134EE069817A81C5010E94782C7C0120E041E02F
S1134EF050E0B201C5010E94782C6C0120E040E032
S1134F0050E0B201C5010E94782C9701A601BC01B2
S1134F10C4010D960E94750F8C01DC012D913C910A
S1134F2040E050E0B201C5010E944B2CF8012281FF
S1134F30338141E050E0B201C5010E944B2CD801FD
S1134F4014962D913C91159740E050E069817A8147
S1134F50C5010E944B2CF8012681378141E050E0C5
S1134F6069817A81C5010E944B2C58C25401FFEF1C
S1134F70AF1ABF0A20E041E050E069817A81C5019F
S1134F800E94782C8C0120E040E050E069817A8115
S1134F90C5010E94782C7C0120E041E050E0B20180
S1134FA0C5010E94782C6C0120E040E050E0B20181
S1134FB0C5010E94782C9701A601BC01C4010D967D
S1134FC00E9477108C01DC012D913C9140E050E06F
S1134FD0B201C5010E944B2CF8012281338141E0CA
S1134FE050E0B201C5010E944B2CD80114962D91BA
S1134FF03C91159740E050E069817A81C5010E9497
S11350004B2CF8012681378141E050E069817A8197
S1135010C5010E944B2C02C25401FFEFAF1ABF0A14
S113502020E041E050E069817A81C5010E94782C3A
S11350308C0120E040E050E069817A81C5010E9442
S1135040782C7C0120E041E050E0B201C5010E94CF
S1135050782C6C0120E040E050E0B201C5010E94D0
S1135060782C9701A601BC01C4010D960E947D1104
S11350708C01DC012D913C9140E050E0B201C5016E
S11350800E944B2CF8012281338141E050E0B201AF
S1135090C5010E944B2CD80114962D913C91159773
S11350A040E050E069817A81C5010E944B2CF801EF
S11350B02681378141E050E069817A81C5010E94EF
S11350C04B2CACC194012F5F3F4F3A87298720E0D6
S11350D041E050E06D817E8189859A850E94782C1B
S11350E06C0120E040E050E06D817E8189859A85E5
S11350F00E94782C7C0120E041E050E069817A81B3
S113510089859A850E94782C8C0120E040E050E04B
S113511069817A8189859A850E94782C1C0120E016
S113512041E050E0B20189859A850E94782C5C01A7
S113513020E040E050E0B20189859A850E94782CF5
S11351409101A501BC01C4010D960E9450148C016B
S1135150DC012D913C9140E050E0B20189859A85B3
S11351600E944B2CF8012281338141E050E0B201CE
S113517089859A850E944B2CD80114962D913C91D7
S1135180159740E050E069817A8189859A850E946B
S11351904B2CF8012681378141E050E069817A8106
S11351A089859A850E944B2CD80118962D913C91A3
S11351B0199740E050E06D817E8189859A850E942F
S11351C04B2CF8012285338541E050E06D817E81CE
S11351D089859A850E944B2C21C194012F5F3F4FF2
S11351E03A87298720E041E050E06D817E818985FE
S11351F09A850E94782C6C0120E040E050E06D819B
S11352007E8189859A850E94782C7C0120E041E08A
S113521050E069817A8189859A850E94782C8C0175
S113522020E040E050E069817A8189859A850E9476
S1135230782C1C0120E041E050E0B20189859A8578
S11352400E94782C5C0120E040E050E0B2018985A6
S11352509A850E94782C9101A501BC01C4010D9688
S11352600E944E178C01DC012D913C9140E050E0EE
S1135270B20189859A850E944B2CF80122813381E1
S113528041E050E0B20189859A850E944B2CD801F7
S113529014962D913C91159740E050E069817A81F4
S11352A089859A850E944B2CF8012681378141E03B
S11352B050E069817A8189859A850E944B2CD801B6
S11352C018962D913C91199740E050E06D817E81B4
S11352D089859A850E944B2CF8012285338541E00B
S11352E050E06D817E8189859A850E944B2C96C001
S11352F094012F5F3F4F3C872B8720E040E050E034
S113530060E070E08B859C850E94782C5C0120E035
S113531041E050E06D817E818B859C850E94782CD4
S11353206C0120E040E050E06D817E818B859C859E
S11353300E94782C7C0120E041E050E069817A8170
S11353408B859C850E94782C8C0120E040E050E005
S113535069817A818B859C850E94782C9A878987BC
S113536020E041E050E0B2018B859C850E94782CBE
S11353701C0120E040E050E0B2018B859C850E9436
S1135380782C29853A85A101BC01C4010D960E949F
S11353904C1A8C01DC012D913C9140E050E0B201AB
S11353A08B859C850E944B2CF8012281338141E03E
S11353B050E0B2018B859C850E944B2CD801149639
S11353C02D913C91159740E050E069817A818B855D
S11353D09C850E944B2CF8012681378141E050E0E6
S11353E069817A818B859C850E944B2CD801189603
S11353F02D913C91199740E050E06D817E818B8521
S11354009C850E944B2CF8012285338541E050E0B5
S11354106D817E818B859C850E944B2CC8010E94E6
S1135420C0342C960FB6F894DEBF0FBECDBFDF910B
S1135430CF911F910F91FF90EF90DF90CF90BF908D
S1135440AF909F908F907F906F905F904F903F9020
S11354502F9008952F923F924F925F926F927F9276
S11354608F929F92AF92BF92CF92DF92EF92FF9270
S11354700F931F93CF93DF93CDB7DEB7AB970FB6E0
S1135480F894DEBF0FBECDBF99A388A304969BA753
S11354908AA76EE770E00E94F92E62EE70E08AA59A
S11354A09BA50E94F92E68A079A025E0620E711CCC
S11354B0C3010E949E02E8A1F9A1E552FF4F918326
S11354C08083E8A1F9A1E752FF4F118210821816D8
S11354D019060CF0C7C080E090E01E013FE0230EE7
S11354E0311C0F2EF8E88F2EF0E09F2EF02D2E01A8
S11354F0E8E04E0E511C9E012F5F3F4F3F8B2E8BD9
S11355002CA23DA24EA25FA23E8938A7EF89E9A74B
S113551028A139A127523F4F398F288FE8A1F9A13B
S1135520E552FF4FFBA3EAA3FDE0F89F5001F99F6A
S1135530B00C11241F86188A198A1A8A1B8A1C8A9D
S11355401D8A188619861A861B861C861D861E8649
S113555019821A821B821C821D821E821F82B5013F
S1135560C3010E944502282F30E03B8F2A8F65013A
S11355703FEFC31AD30A85E0A80EB11CB601C301DC
S11355800E9445021F928F933F922F929F928F9277
S11355903F922F920E94F936B6016C5F7F4FC30190
S11355A00E9445021F928F935F924F929F928F9217
S11355B05F924F920E94F936B601685F7F4FC30134
S11355C00E9445021F928F939F899F93EE89EF93C8
S11355D09F928F929F93EF930E94F936FFEFCF1A19
S11355E0DF0A0FB6F894DEBF0FBECDBFCA14DB04CA
S11355F029F640E150E060E070E088A599A50E949A
S1135600AD355B016C0140E150E060E070E08EA1DB
S11356109FA10E94AD356C8F7D8F8E8F9F8F40E14F
S113562050E060E070E08CA19DA10E94AD359B012B
S1135630AC01EC8CFD8C0E8D1F8D6A8D7B8D88A149
S113564099A10E942B1FE88DF98D8081918101968B
S113565091838083EAA1FBA1208131818217930782
S11356600CF462CF62EE70E08AA59BA50E94F92E2D
S11356706DE870E08AA59BA50E94E42EAB960FB658
S1135680F894DEBF0FBECDBFDF91CF911F910F9174
S1135690FF90EF90DF90CF90BF90AF909F908F904E
S11356A07F906F905F904F903F902F900895CF938D
S11356B0DF93CDB7DEB7CE5DD1090FB6F894DEBF68
S11356C00FBECDBFCE0101960E94F41ECE010196FD
S11356D00E942A2AFFCFCF93DF93EC010E943D035F
S11356E0CE0101960E94D42E8FEF8ABBDF91CF9119
S11356F0089575B321E030E0C901062E02C0880F79
S1135700991F0A94E2F78095872385BB85B302C06D
S1135710440F551F6A95E2F7482B45BB08952FEFB8
S113572024BB40E050E064E070E00E94792B0895CF
S1135730AF92BF92CF92DF92EF92FF920F931F939B
S1135740CF93DF9300D000D000D0CDB7DEB78C016B
S1135750CB018F7099279A838983CB01807F992706
S1135760959587959595879595958795959587951D
S11357709C838B8366277F70872F880F880B7D839C
S11357808E838FEF8ABB84BB89818BBB41E050E061
S113579062E070E0C8010E94792B41E050E063E0D0
S11357A070E0C8010E94792B40E050E063E070E0B3
S11357B0C8010E94792B40E050E062E070E0C8012B
S11357C00E94792B680182E0C80ED11C61E070E070
S11357D0C6010E94302F7E0193E0E90EF11C5E01A8
S11357E0E7E0AE0EB11C41E050E063E070E0C801B8
S11357F00E94792B40E050E063E070E0C8010E9411
S1135800792BF7018081F2E0EF0EF11C8BBB61E094
S113581070E0C6010E94302FEA14FB0421F741E036
S113582050E063E070E0C8010E94792B40E050E052
S113583063E070E0C8010E94792B41E050E064E02D
S113584070E0C8010E94792B26960FB6F894DEBF4B
S11358500FBECDBFDF91CF911F910F91FF90EF90BD
S1135860DF90CF90BF90AF9008957BB321E030E0FC
S1135870C901062E02C0880F991F0A94E2F7809589
S113588087238BBB8BB302C0440F551F6A95E2F785
S1135890482B4BBB0895FF920F931F93CF93DF9335
S11358A0EC018A01FF24FA94F7BAF7BA28BB0E94E4
S11358B0982BA80164E070E0CE010E94352C41E0F1
S11358C050E066E070E0CE010E94352C40E050E0EC
S11358D066E070E0CE010E94352CF7BA18BACE010A
S11358E00E948F2BDF91CF911F910F91FF9008950C
S11358F0FF920F931F93CF93DF93EC018A01F22E53
S113590017BA0E94982B41E050E065E070E0CE01A8
S11359100E94352CA80164E070E0CE010E94352C71
S113592006B310E08FEF87BBF11004C01BBACE01A1
S11359300E948F2BC801DF91CF911F910F91FF908F
S11359400895CF93DF93EC01882777FD8095982FF6
S11359500E9403312BED3FE049E450E40E94E5321C
S113596020E030E044EB53E40E9437300E94483397
S1135970AB01BC0122E030E0CE0102960E943E2F32
S1135980AB01BC01CE010E943E03DF91CF9108958B
S11359908F929F92AF92BF92CF92DF92EF92FF923B
S11359A00F931F93CF93DF93CDB7DEB729970FB62D
S11359B0F894DEBF0FBECDBF5C0119821A821B8230
S11359C01C82FE01359685E0DF011D928A95E9F778
S11359D04B01880C991C880C991C880C991CE12C8F
S11359E0F12C8E010F5F1F4F0F2EF7EBCF2EF0E03F
S11359F0DF2EF02DB701680D791D20E040E050E066
S1135A00C5010E94782CBC01C5010E94A12C9F9362
S1135A108F931F930F93DF92CF921F930F930E9444
S1135A20F936BFEFEB1AFB0A0FB6F894DEBF0FBED0
S1135A30CDBF98E0E916F104E9F6CE0101960E9483
S1135A40E93642E050E060E070E0CE0101960E9449
S1135A50AD35CB0129960FB6F894DEBF0FBECDBF8E
S1135A60DF91CF911F910F91FF90EF90DF90CF9036
S1135A70BF90AF909F908F900895CF92DF92EF9256
S1135A80FF920F931F93CF93DF936C018B01BA01A5
S1135A9048E050E002960E94052FD82FC92F0E949B
S1135AA0E936ED2EFC2E000F111F000F111F000F01
S1135AB0111FC0E0D0E0F70181917F01813349F4E7
S1135AC024EB30E040E050E0B801C6010E944B2CCA
S1135AD008C020E030E040E050E0B801C6010E9478
S1135AE04B2C21960F5F1F4FC830D10521F7DF9152
S1135AF0CF911F910F91FF90EF90DF90CF90089579
S1135B00FC018FEF84BB84E190E09183808380E08B
S1135B1091E09583848316820895CF93DF93EC01FB
S1135B2003960E94D42ECE010E94802DDF91CF9146
S1135B3008952FEF2ABBFC01268121110FC020817B
S1135B40318184819581A901460F571F84179507D8
S1135B5014F48BBB0895620F6BBB08956BBB08955F
S1135B6075B321E030E0C901062E02C0880F991FE9
S1135B700A94E2F78095872385BB85B302C0440F5E
S1135B80551F6A95E2F7482B45BB0895FC01208117
S1135B903181448155814217530734F0213031401B
S1135BA018F44130514010F00E94802D08950F9355
S1135BB01F93CF93DF93EC018B010E94C62DB80194
S1135BC0CE010E94992D17BA41E050E066E070E0E2
S1135BD0CE010E94B02D16B340E050E066E070E0C4
S1135BE0CE010E94B02D8FEF87BB1BBA812FDF91AE
S1135BF0CF911F910F910895CF92DF92EF92FF9270
S1135C000F931F93CF93DF93CDB7DEB7D2500FB668
S1135C10F894DEBF0FBECDBF7C01FC010081118171
S1135C208481958108171907E4F46801CC0CDD1C04
S1135C3081E090E08C0F9D1FC80ED91EB801C701EA
S1135C400E94D72D992787FD9095F6018193919312
S1135C506F010F5F1F4FF7018481958108171907A2
S1135C606CF3CE010196DE5F0FB6F894DEBF0FBE73
S1135C70CDBFDF91CF911F910F91FF90EF90DF90F7
S1135C80CF900895FF920F931F93CF93DF93EC016E
S1135C908B01F42E0E94C62DB801CE010E94992DCD
S1135CA01FEF17BBF8BA41E050E065E070E0CE01A9
S1135CB00E94B02D40E050E065E070E0CE010E940B
S1135CC0B02D1BBA17BB18BADF91CF911F910F915A
S1135CD0FF900895CF93DF93EC010E94C62D60E0FE
