:100000000C94C8000C94F0000C94F0000C94F000D8
:100010000C94F0000C94F0000C94F0000C94F000A0
:100020000C94F0000C94F0000C94F0000C94F00090
:100030000C94F0000C94F0000C94F0000C94F00080
:100040000C94F0000C94F0000C94F0000C94F00070
:100050000C94F000C815E315581958195819581977
:10006000581958195819E915581958195819EF15E8
:10007000F715FF1526164D1674169B16C216E916AF
:1000800031177917C11709185819581958195118E3
:100090009918E11809193119084AD73B3BCE016E6E
:1000A00084BCBFFDC12F3D6C74319ABD56833DDACF
:1000B0003D00C77F11BED9E4BB4C3E916BAAAABEDE
:1000C000000000803F07634236B79BD8A71A396803
:1000D0005618AEBAAB558C1D3CB7CC5763BD6DED11
:1000E000FD753EF6177231BF000000803F072C7A85
:1000F000A5BA6CC590DA3B9365FC8BBC53F810FD38
:100100003C5692834DBD879D3AB63DCBC9BF5BBE81
:1001100073DA0FC93F05A84CCDB2D44EB93836A911
:10012000020C50B9918688083CA6AAAA2ABE0000F3
:1001300000803F08000000BE922449123EABAAAAEC
:100140002ABECDCCCC4C3E00000080BEABAAAAAAF1
:100150003E00000000BF000000803F0000000000E3
:10016000084178D3BB4387D1133D190E3CC3BD4230
:1001700082AD2B3E68EC8276BED98FE1A93E4C80E1
:10018000EFFFBE01C4FF7F3F000000000000D61358
:1001900011241FBECFE5D8E0DEBFCDBF10E0A0E642
:1001A000B0E0ECE5FBE402C005900D92AE3DB10776
:1001B000D9F720E0AEEDB0E001C01D92A63EB20737
:1001C000E1F711E0C0E9D1E004C02297FE010E94EE
:1001D000641FCE38D107C9F70E94ED1A0C94AC25E4
:1001E0000C9400000F931F93FC01408351836283A2
:1001F000738304831583268337831F910F9108959A
:10020000FC011082118212821382148215821682DE
:1002100017820895AF92BF92CF92DF92EF92FF9232
:100220000F931F93CF93DF93CDB7DEB768970FB6C9
:10023000F894DEBF0FBECDBF5C01098B1A8B2B8BF0
:100240003C8B4D8B5E8B6F8B788F2D893E894F89D0
:10025000588DFC0164817581868197810E94391BCC
:100260006B017C0129893A894B895C89F5016081A0
:100270007181828193810E94391BAB01BC0197017E
:100280008601CE0101960E94F20088E0FE013196BF
:10029000DE01199601900D928A95E1F729853A853C
:1002A0004B855C856D857E858F85988968960FB6B0
:1002B000F894DEBF0FBECDBFDF91CF911F910F919C
:1002C000FF90EF90DF90CF90BF90AF9008954F9246
:1002D0005F926F927F928F929F92AF92BF92CF92D6
:1002E000DF92EF92FF920F931F93CF93DF93CDB7DF
:1002F000DEB7A0970FB6F894DEBF0FBECDBF098B57
:100300001A8B2B8B3C8B4D8B5E8B6F8B788F8988F8
:100310009A88AB88BC882D893E894F89588D2D8F4E
:100320003E8F4F8F58A3FC01C080D180E280F380C4
:100330002481358146815781298F3A8F4B8F5C8F7D
:100340002D8D3E8D4F8D58A1C701B6010E947A1E9A
:100350002B013C01A5019401698D7A8D8B8D9C8DBB
:100360000E947A1E9B01AC01C301B2010E94391B9D
:100370002B013C01A5019401C701B6010E947A1E20
:100380006B017C012D8D3E8D4F8D58A1698D7A8D2D
:100390008B8D9C8D0E947A1E9B01AC01C701B6011A
:1003A0000E94381BAB01BC0193018201CE01019672
:1003B0000E94F20088E0FE013196DE01199601905C
:1003C0000D928A95E1F729853A854B855C856D8587
:1003D0007E858F859889A0960FB6F894DEBF0FBEF4
:1003E000CDBFDF91CF911F910F91FF90EF90DF90E4
:1003F000CF90BF90AF909F908F907F906F905F90C5
:100400004F900895FC0120813181428153816481A4
:100410007581868197810E94CC1B0E949D1B089547
:1004200085E080B981B18C7F81B9089594EA30EA82
:1004300024E896BF06B607FEFDCF81B1887F8830DD
:1004400009F041C033B926BF06B607FEFDCF81B122
:10045000887F883171F773B984E886BF06B607FED6
:10046000FDCF81B1887F883281F563B984E886BF8A
:1004700006B607FEFDCF81B1887F883241F584EA58
:1004800086BF06B607FEFDCF81B1887F803109F5B2
:1004900081EA83B984E886BF06B607FEFDCF81B145
:1004A000887F8034C1F484E886BF06B607FEFDCF9E
:1004B00081B1887F883589F483B194E996BF06B607
:1004C00004FCFDCF089580E0089580E0089580E069
:1004D000089580E0089580E0089580E00895CF9227
:1004E000DF92EF92FF920F931F93CF93DF93CDB7DD
:1004F000DEB7C456D1090FB6F894DEBF0FBECDBF2C
:100500006C01CE0101967C0100E010E0B801C6014B
:100510000E941602F70181937F018F3F81F4329789
:1005200020812F3F61F4319720812F3F41F4319793
:1005300020812F3F21F4319780818F3F19F00F5F89
:100540001F4FE4CFCE010196CC59DF4F0FB6F89480
:10055000DEBF0FBECDBFDF91CF911F910F91FF90F6
:10056000EF90DF90CF900895EF92FF920F931F933B
:10057000CF93DF937C01062F172FBA018FED90E008
:100580000E941E1B1E141F040CF047C0C02FD12F49
:1005900000E010E06AE670E08FED90E00E94091B39
:1005A00020E030E04AE754E4688179818A819B81C8
:1005B0000E947A1E0E94651C8EED90E00E946815D4
:1005C000BC018FED90E00E94091B6EE670E08FED9C
:1005D00090E00E94091B20E030E04AE754E46C817F
:1005E0007D818E819F810E947A1E0E94651C8EED06
:1005F00090E00E946815BC018FED90E00E94091BFD
:1006000063EC70E08FED90E00E941E1B0F5F1F4FA8
:1006100028960E151F0509F0BDCFDF91CF911F91D0
:100620000F91FF90EF90089580E090E00E943124B8
:100630000E94F6200E94F12060E177E20E944E1FA6
:10064000BC0180E090E00E94372408950E941403CA
:100650000895CF92DF92EF92FF92CF93DF936A01DA
:100660007B010E94F120EC0120E03EEF4FEF56E4C9
:10067000C701B6010E947A1E6B017C01BE0188276A
:1006800077FD8095982F0E94981C9B01AC01C1E0DA
:10069000D0E0C701B6010E94C11D882314F4C0E058
:1006A000D0E0CE01DF91CF91FF90EF90DF90CF901F
:1006B00008954F925F926F927F928F929F92AF9226
:1006C000BF92CF92DF92EF92FF920F931F93CF933F
:1006D000DF93CDB7DEB7A4970FB6F894DEBF0FBE99
:1006E000CDBF6B015A01BA01882777FD8095982FFD
:1006F0000E94981C0E94071E28E132E741E35FE355
:100700000E94CC1B2B013C019B01AC010E94391BB8
:100710000E94651C69A37AA38BA39CA309A11AA1BB
:10072000C801880F991F880F991F880F991F0E9471
:100730007C1F4C011A141B040CF09EC020E030E01A
:1007400040E85FE3F60160817181828193810E94BC
:10075000C51B811188C011C0F8E0CF0ED11C20E06C
:1007600030E040E85FE3F60160817181828193812E
:100770000E94C51B811179C002C0E12CF12CC3017C
:10078000B2010E94651CAB01B7018EED90E00E94A2
:10079000E014101611060CF06FC07C0154016401C6
:1007A000F8E0CF0ED11C49A05AA0480E591E6894FB
:1007B000772473F8F70181917F01813329F500E0F7
:1007C00010E09801B901A801CE0149960E94F200FB
:1007D000FE017996D501872D01900D928A95E1F75A
:1007E00000E010E0980140E050E060E87FE3CE01D7
:1007F00041960E94F200FE017196D601872D01906C
:100800000D928A95E1F724C000E010E0980140E0E5
:1008100050E060E87FE3CE0109960E94F200FE01FD
:100820003996D501872D01900D928A95E1F700E068
:1008300010E09801B901A801CE0101960E94F200D2
:10084000FE013196D601872D01900D928A95E1F730
:10085000F0E1AF0EB11C20E1C20ED11CE414F5048E
:1008600009F0A8CF09C0E12CF12C8FEFE81AF80AA3
:10087000EA14FB0409F070CFC401A4960FB6F894F3
:10088000DEBF0FBECDBFDF91CF911F910F91FF90C3
:10089000EF90DF90CF90BF90AF909F908F907F9020
:1008A0006F905F904F9008952F923F924F925F927A
:1008B0006F927F928F929F92AF92BF92CF92DF9270
:1008C000EF92FF920F931F93CF93DF93CDB7DEB7D5
:1008D00028970FB6F894DEBF0FBECDBF7C015B0139
:1008E0004A013E832D834130510509F4C1C01416DD
:1008F00015060CF0C0C080E090E021E030E0220F4F
:10090000331F019688159905D1F738872F83C901C0
:10091000880F991F880F991F880F991F0E947C1FAD
:1009200089839A83EF81F8851E161F060CF4ADC0EB
:100930004EC02E163F0629F4FFEF4F1A5F0AEB81D7
:10094000FC817F012FEFE21AF20AEE0FFF1FEE0F7C
:10095000FF1FEE0FFF1FEA0DFB1D00811181228199
:1009600033814481558166817781C201880F991F47
:10097000880F991F880F991F8A0D9B1D0E94670180
:10098000AF81B8852C9311963C93119712964C9396
:10099000129713965C93139714966C93149715966D
:1009A0007C93159716968C93169717969C93BFEF8A
:1009B0006B1A7B0AEF81F8853896F887EF836C1401
:1009C0007D0414F4F701B5CFD886CF8274012D8150
:1009D0003E81232BE9F589819A816AC05101D101B9
:1009E0004D915D916D917C91C7010E942903019702
:1009F00029F598868F828F819885880F991F880F97
:100A0000991F880F991F860D971DF301108211827F
:100A10001282138214821582168217823896E81782
:100A2000F907A1F780E090E0A0E8BFE3F50180833B
:100A30009183A283B38389819A813AC0FFEFCF1A51
:100A4000DF0A28E0220E311CC814D90439F606C08A
:100A500049805A8000E010E08F80988418141904AF
:100A6000ECF7642C752C242C352CC02ED12EB6CF4F
:100A7000862F9B2D1DC088E090E00E947C1F8983FB
:100A80009A8381E090E098878F831401220C331CB5
:100A9000C980DA80F401612C712C412C512C8B829D
:100AA0009C82C601CF80D884470198878F8341CF2D
:100AB00028960FB6F894DEBF0FBECDBFDF91CF9161
:100AC0001F910F91FF90EF90DF90CF90BF90AF906C
:100AD0009F908F907F906F905F904F903F902F905E
:100AE00008952F923F924F925F926F927F928F92D2
:100AF0009F92AF92BF92CF92DF92EF92FF920F93AD
:100B00001F93CF93DF93CDB7DEB728970FB6F89436
:100B1000DEBF0FBECDBF9E838D837A836983042F92
:100B2000152FC22ED32ECB0182959295907F9827B8
:100B3000807F98270E947C1F8B839C8329803A802A
:100B4000220C331C121413040CF0ACC0A82EB92EC6
:100B5000E02EF12E0C2D1D2D812C912CB886AF820C
:100B60006701F701419051907F01662457FC609422
:100B7000762CC301B2010E94981C2BED3FE049E4A2
:100B800050E40E947A1E20E030E044EB53E40E94DF
:100B9000CC1B0E94C91BEF81F8856083718382831F
:100BA0009383C301B2010E94981C2BED3FE049E4FE
:100BB00050E40E947A1E20E030E044EB53E40E94AF
:100BC000CC1B0E94DD1E2B013C015801F8016191F4
:100BD00071918F01882777FD8095982F0E94981C2E
:100BE0002BED3FE049E450E40E947A1E20E030E023
:100BF00044E353E40E94CC1B0E94C91B9B01AC013F
:100C0000C301B2010E947A1EEF81F8856087718767
:100C100082879387F60160817181882777FD8095AF
:100C2000982F0E94981C2BED3FE049E450E40E946D
:100C30007A1E20E030E044EB53E40E94CC1B0E947B
:100C4000DD1E2B013C01F50160817181882777FD54
:100C50008095982F0E94981C2BED3FE049E450E4CA
:100C60000E947A1E20E030E044E353E40E94CC1B53
:100C70000E94DD1E9B01AC01C301B2010E947A1EDD
:100C8000EF81F8856487758786879787F2E08F0EF6
:100C9000911C8F819885409698878F838214930446
:100CA0000CF45ECF45E750E06B817C81C1010E946E
:100CB000B40221E030E049815A816B817C818D81D1
:100CC0009E810E94540428960FB6F894DEBF0FBE92
:100CD000CDBFDF91CF911F910F91FF90EF90DF90EB
:100CE000CF90BF90AF909F908F907F906F905F90CC
:100CF0004F903F902F9008956F927F928F929F9286
:100D0000AF92BF92CF92DF92EF92FF920F931F9319
:100D1000CF93DF93862E972E5A01141615066CF486
:100D200020E030E0CC24C394D12CCC0CDD1C2F5F10
:100D30003F4F2A153B05C9F703C0CC24C394D12CDF
:100D400022E0A216B1043CF0A601682D792D0E9484
:100D50005903882E992EC501880F991F880F991F56
:100D60000E947C1F682E792EAA0CBB1C1A141B042F
:100D7000F4F5E82CF92C082F192FC0E0D0E0C0FDC5
:100D800019C0F70160817181828193810E942A1BC1
:100D900020E030E044EB53E40E947A1E2BED3FE06C
:100DA00049E450E40E94CC1B0E94651CF801718349
:100DB000608314C0C7010E94020220E030E044E3D7
:100DC00053E40E947A1E2BED3FE049E450E40E9478
:100DD000CC1B0E94651CF801718360832196F8E0AA
:100DE000EF0EF11C0E5F1F4FCA15DB0541F64EE7F3
:100DF00050E0682D792DC6010E94B402862D972DF2
:100E0000DF91CF911F910F91FF90EF90DF90CF90E6
:100E1000BF90AF909F908F907F906F9008952F928A
:100E20003F924F925F926F927F928F929F92AF927A
:100E3000BF92CF92DF92EF92FF920F931F93CF93C7
:100E4000DF93CDB7DEB760970FB6F894DEBF0FBE65
:100E5000CDBF4B013A0180E190E00E947C1F382E0B
:100E6000292EC82ED92EA12CB12C240188E0480EA1
:100E7000511CCE0109960E9400017501EE0CFF1C69
:100E8000EE0CFF1CEE0CFF1CE60CF71CD7010C91BE
:100E900011961C91119712962C91129713963C91D2
:100EA000139714964C91149715965C911597169676
:100EB0006C91169717967C91C4010E946701022FCE
:100EC000132F242F352F462F572F682F792FCE0120
:100ED00009960E940A0129873A874B875C876D87AC
:100EE0007E878F87988BF7017096D70150960C916B
:100EF0001181228133814481558166817781C201CC
:100F00000E946701022F132F242F352F462F572FB2
:100F1000682F792FCE0109960E940A0129873A8706
:100F20004B875C876D877E878F87988B89859A85AD
:100F3000AB85BC85F60180839183A283B3838D85C5
:100F40009E85AF85B88984839583A683B783FFEF99
:100F5000AF1ABF0A88E0C80ED11CA2E0AA16B104DD
:100F600009F087CF832D922D60960FB6F894DEBFDF
:100F70000FBECDBFDF91CF911F910F91FF90EF90EA
:100F8000DF90CF90BF90AF909F908F907F906F90A9
:100F90005F904F903F902F9008952F923F924F92E5
:100FA0005F926F927F928F929F92AF92BF92CF92F9
:100FB000DF92EF92FF920F931F93CF93DF93CDB702
:100FC000DEB764970FB6F894DEBF0FBECDBF3B010E
:100FD000E42EF52E80E290E00E947C1F8B8B9C8B90
:100FE000482E592E812C912CE98AFA8A212C312CF9
:100FF000CE0109960E940001C988DA88E22CF32C00
:101000005401AA0CBB1CAA0CBB1CAA0CBB1CF501EE
:10101000EC0DFD1D008111812281338144815581B8
:1010200066817781C3018E0D9F1D0E946701298310
:101030003A834B835C836D837E838F839887022FF3
:10104000132F242F352F462F572F682F792FCE019E
:1010500009960E940A0129873A874B875C876D872A
:101060007E878F87988B88E0E80EF11CE0E2CE0E39
:10107000D11CF0E2EF16F10451F689859A85AB8513
:10108000BC85F20180839183A283B3838D859E8585
:10109000AF85B88984839583A683B783FFEF8F1AC2
:1010A0009F0A88E0480E511CE4E08E16910409F076
:1010B0009FCF8B899C8964960FB6F894DEBF0FBED4
:1010C000CDBFDF91CF911F910F91FF90EF90DF90F7
:1010D000CF90BF90AF909F908F907F906F905F90D8
:1010E0004F903F902F900895AF92BF92CF92DF9292
:1010F000EF92FF920F931F93CF93DF93CDB7DEB79D
:10110000A4970FB6F894DEBF0FBECDBF7C015B0184
:101110006A0100E010E09801B901A801CE01019632
:101120000E94F20000E010E0980140E050E060E82A
:101130007FE3CE0109960E94F20000E010E09801E2
:1011400040E050E060E87FE3CE0141960E94F2006B
:1011500000E010E09801B901A801CE0149960E9473
:10116000F200BCA2ABA2DAA2C9A29E012F5D3F4F42
:10117000AE014D5D5F4F61E070E0C7010E947105F7
:10118000AE014F5F5F4FBC01C7010E940F0741E0F6
:1011900050E0BC01C7010E947C06A4960FB6F894EB
:1011A000DEBF0FBECDBFDF91CF911F910F91FF909A
:1011B000EF90DF90CF90BF90AF900895AF92BF9225
:1011C000CF92DF92EF92FF920F931F93CF93DF9313
:1011D000CDB7DEB7A4970FB6F894DEBF0FBECDBF74
:1011E0007C015B016A0100E010E09801B901A801EF
:1011F000CE0101960E94F20000E010E020E83FEBF3
:1012000040E050E0BA01CE0109960E94F20000E0F1
:1012100010E020E83FE340E050E0BA01CE01419603
:101220000E94F20000E010E09801B901A801CE018F
:1012300049960E94F200BCA2ABA2DAA2C9A29E010A
:101240002F5D3F4FAE014D5D5F4F61E070E0C70124
:101250000E947105AE014F5F5F4FBC01C7010E9444
:101260000F0741E050E0BC01C7010E947C06A49634
:101270000FB6F894DEBF0FBECDBFDF91CF911F91A7
:101280000F91FF90EF90DF90CF90BF90AF900895B7
:10129000AF92BF92CF92DF92EF92FF920F931F9384
:1012A000CF93DF93CDB7DEB7A4970FB6F894DEBF28
:1012B0000FBECDBF7C015B016A0100E010E0980128
:1012C00040E050E060E87FE3CE0101960E94F2002A
:1012D00000E010E09801B901A801CE0109960E9432
:1012E000F20000E010E09801B901A801CE0141969A
:1012F0000E94F20000E010E0980140E050E060E859
:101300007FEBCE0149960E94F200BCA2ABA2DAA20A
:10131000C9A29E012F5D3F4FAE014D5D5F4F61E061
:1013200070E0C7010E947105AE014F5F5F4FBC01C5
:10133000C7010E940F0741E050E0BC01C7010E94B5
:101340007C06A4960FB6F894DEBF0FBECDBFDF912A
:10135000CF911F910F91FF90EF90DF90CF90BF90B2
:10136000AF900895AF92BF92CF92DF92EF92FF922B
:101370000F931F93CF93DF93CDB7DEB7A4970FB62C
:10138000F894DEBF0FBECDBF7C015B016A0100E0B7
:1013900010E0980143EF54E065E37FE3CE0101964E
:1013A0000E94F20000E010E0980143EF54E065E392
:1013B0007FE3CE0109960E94F20000E010E0980160
:1013C00043EF54E065E37FE3CE0141960E94F200D3
:1013D00000E010E0980143EF54E065E37FEBCE01BD
:1013E00049960E94F200BCA2ABA2DAA2C9A29E0159
:1013F0002F5D3F4FAE014D5D5F4F61E070E0C70173
:101400000E947105AE014F5F5F4FBC01C7010E9492
:101410000F0741E050E0BC01C7010E947C06A49682
:101420000FB6F894DEBF0FBECDBFDF91CF911F91F5
:101430000F91FF90EF90DF90CF90BF90AF90089505
:10144000AF92BF92CF92DF92EF92FF920F931F93D2
:10145000CF93DF93CDB7DEB7A4970FB6F894DEBF76
:101460000FBECDBF7C015B016A0100E010E0980176
:1014700040E050E060E87FE3CE0101960E94F20078
:1014800000E010E09801B901A801CE0109960E9480
:10149000F20000E010E09801B901A801CE014196E8
:1014A0000E94F20000E010E020E83FE340E050E05E
:1014B000BA01CE0149960E94F200BCA2ABA2DAA208
:1014C000C9A29E012F5D3F4FAE014D5D5F4F61E0B0
:1014D00070E0C7010E947105AE014F5F5F4FBC0114
:1014E000C7010E940F0741E050E0BC01C7010E9404
:1014F0007C06A4960FB6F894DEBF0FBECDBFDF9179
:10150000CF911F910F91FF90EF90DF90CF90BF9000
:10151000AF900895AF92BF92CF92DF92EF92FF9279
:101520000F931F93CF93DF93CDB7DEB7A4970FB67A
:10153000F894DEBF0FBECDBF7C015B016A0100E005
:1015400010E0980140E050E060E87FE3CE010196B2
:101550000E94F20000E010E09801B901A801CE015C
:1015600009960E94F20000E010E09801B901A8017C
:10157000CE0141960E94F20003EF14E025E33FE321
:10158000B901A801CE0149960E94F200BCA2ABA20B
:10159000DAA2C9A29E012F5D3F4FAE014D5D5F4FA4
:1015A00061E070E0C7010E947105AE014F5F5F4FBF
:1015B000BC01C7010E940F0741E050E0BC01C70118
:1015C0000E947C06A4960FB6F894DEBF0FBECDBF76
:1015D000DF91CF911F910F91FF90EF90DF90CF900F
:1015E000BF90AF9008956F927F928F929F92AF922B
:1015F000BF92CF92DF92EF92FF920F931F93CF9300
:10160000DF93CDB7DEB7C858D1090FB6F894DEBF67
:101610000FBECDBF7C013B015A014901680100E0CA
:1016200010E0980140E050E060E87FE3CE010196D1
:101630000E94F20000E010E09801B901A801CE017B
:1016400009960E94F20000E010E09801B901A8019B
:10165000CE0141960E94F20000E010E09801B9012D
:10166000A801CE0149960E94F20000E010E0980126
:10167000B901A801CE0181960E94F20000E010E0BD
:10168000980140E050E060E87FE3CE0189960E9437
:10169000F20000E010E09801B901A801CE01C19666
:1016A0000E94F20000E010E09801B901A801CE010B
:1016B000C9960E94F20000E010E09801B901A8016B
:1016C000CE018F5B9F4F0E94F20000E010E0980176
:1016D000B901A801CE01875B9F4F0E94F20000E094
:1016E00010E09801B901A801CE018F5A9F4F0E94C6
:1016F000F20000E010E0980140E050E060E87FE395
:10170000CE01875A9F4F0E94F20000E010E098013E
:10171000B901A801CE018F599F4F0E94F20000E04D
:1017200010E09801B901A801CE0187599F4F0E948E
:10173000F20000E010E0980140E050E060E87FE354
:10174000CE018F589F4F0E94F20000E010E09801F8
:10175000B901A801CE0187589F4F0E94F200CB57D4
:10176000DF4F79826882C558D040C957DF4F9982D0
:101770008882C758D040CF57DF4FB982A882C1585E
:10178000D040CD57DF4FD982C882C358D0409E0188
:101790002F573F4FAE014B575F4F62E070E0C701DC
:1017A0000E947105AE014F5F5F4FBC01C7010E94EF
:1017B000CD0742E050E0BC01C7010E947C06C8573B
:1017C000DF4F0FB6F894DEBF0FBECDBFDF91CF91D4
:1017D0001F910F91FF90EF90DF90CF90BF90AF904F
:1017E0009F908F907F906F9008956F927F928F92CD
:1017F0009F92AF92BF92CF92DF92EF92FF920F93A0
:101800001F93CF93DF93CDB7DEB7C858D1090FB67A
:10181000F894DEBF0FBECDBF7C013B015A014901E8
:10182000680100E010E0980140E050E060E87FE3EC
:10183000CE0101960E94F20000E010E09801B9018B
:10184000A801CE0109960E94F20000E010E0980184
:10185000B901A801CE0141960E94F20000E010E01B
:101860009801B901A801CE0149960E94F20000E05A
:1018700010E09801B901A801CE0181960E94F20002
:1018800000E010E0980140E050E060E87FE3CE0126
:1018900089960E94F20000E010E09801B901A801C9
:1018A000CE01C1960E94F20000E010E09801B9015B
:1018B000A801CE01C9960E94F20000E010E0980154
:1018C000B901A801CE018F5B9F4F0E94F20000E09A
:1018D00010E09801B901A801CE01875B9F4F0E94DB
:1018E000F20000E010E0980140E050E060E87FE3A3
:1018F000CE018F5A9F4F0E94F20000E010E0980145
:10190000B901A801CE01875A9F4F0E94F20000E062
:1019100010E09801B901A801CE018F599F4F0E9494
:10192000F20000E010E09801B901A801CE0187594A
:101930009F4F0E94F20000E010E09801B901A80159
:10194000CE018F589F4F0E94F20000E010E09801F6
:1019500040E050E060E87FEBCE0187589F4F0E9447
:10196000F200CB57DF4F79826882C558D040C95703
:10197000DF4F99828882C758D040CF57DF4FB98256
:10198000A882C158D040CD57DF4FD982C882C358F2
:10199000D0409E012F573F4FAE014B575F4F62E043
:1019A00070E0C7010E947105AE014F5F5F4FBC013F
:1019B000C7010E94CD0742E050E0BC01C7010E9470
:1019C0007C06C857DF4F0FB6F894DEBF0FBECDBF01
:1019D000DF91CF911F910F91FF90EF90DF90CF900B
:1019E000BF90AF909F908F907F906F9008956F926F
:1019F0007F928F929F92AF92BF92CF92DF92EF929F
:101A0000FF920F931F93CF93DF93CDB7DEB7C858E4
:101A1000D1090FB6F894DEBF0FBECDBF7C013B01EC
:101A20005A014901680100E010E0980140E050E0EF
:101A300060E87FE3CE0101960E94F20000E010E032
:101A40009801B901A801CE0109960E94F20000E0B8
:101A500010E09801B901A801CE0141960E94F20060
:101A600000E010E09801B901A801CE0149960E945A
:101A7000F20000E010E09801B901A801CE018196C2
:101A80000E94F20000E010E09801B901A801CE0127
:101A900089960E94F20000E010E0980140E050E0DA
:101AA00060E87FE3CE01C1960E94F20000E010E002
:101AB0009801B901A801CE01C9960E94F20000E088
:101AC00010E09801B901A801CE018F5B9F4F0E94E1
:101AD000F20000E010E0980140E050E060E87FE3B1
:101AE000CE01875B9F4F0E94F20000E010E098015A
:101AF000B901A801CE018F5A9F4F0E94F20000E069
:101B000010E09801B901A801CE01875A9F4F0E94A9
:101B1000F20000E010E09801B901A801CE018F5950
:101B20009F4F0E94F20000E010E09801B901A80167
:101B3000CE0187599F4F0E94F20000E010E098010B
:101B4000B901A801CE018F589F4F0E94F20000E01A
:101B500010E0980140E050E060E87FE3CE01875854
:101B60009F4F0E94F200CB57DF4F79826882C558A1
:101B7000D040C957DF4F99828882C758D040CF578D
:101B8000DF4FB982A882C158D040CD57DF4FD982EC
:101B9000C882C358D0409E012F573F4FAE014B57CC
:101BA0005F4F62E070E0C7010E947105AE014F5FB8
:101BB0005F4FBC01C7010E94CD0742E050E0BC016D
:101BC000C7010E947C06C857DF4F0FB6F894DEBFEE
:101BD0000FBECDBFDF91CF911F910F91FF90EF907E
:101BE000DF90CF90BF90AF909F908F907F906F903D
:101BF00008956F927F928F929F92AF92BF92CF92F1
:101C0000DF92EF92FF920F931F93CF93DF93CDB7A5
:101C1000DEB7C858D1090FB6F894DEBF0FBECDBFEE
:101C20007C013B015A014901680100E010E0980184
:101C3000B901A801CE0101960E94F20000E010E077
:101C4000980140E050E060E87FE3CE0109960E94F1
:101C5000F20000E010E09801B901A801CE01419620
:101C60000E94F20000E010E09801B901A801CE0145
:101C700049960E94F20000E010E09801B901A80125
:101C8000CE0181960E94F20000E010E09801B901B7
:101C9000A801CE0189960E94F20000E010E09801B0
:101CA00040E050E060E87FE3CE01C1960E94F20080
:101CB00000E010E09801B901A801CE01C9960E9488
:101CC000F20000E010E09801B901A801CE018F5B9D
:101CD0009F4F0E94F20000E010E09801B901A801B6
:101CE000CE01875B9F4F0E94F20000E010E0980158
:101CF000B901A801CE018F5A9F4F0E94F20000E067
:101D000010E0980140E050E060E87FE3CE01875AA0
:101D10009F4F0E94F20000E010E0980140E050E088
:101D200060E87FE3CE018F599F4F0E94F20000E0F0
:101D300010E09801B901A801CE0187599F4F0E9478
:101D4000F20000E010E09801B901A801CE018F581F
:101D50009F4F0E94F20000E010E09801B901A80135
:101D6000CE0187589F4F0E94F200CB57DF4F7982F8
:101D70006882C558D040C957DF4F99828882C758BA
:101D8000D040CF57DF4FB982A882C158D040CD573D
:101D9000DF4FD982C882C358D0409E012F573F4F92
:101DA000AE014B575F4F62E070E0C7010E947105C2
:101DB000AE014F5F5F4FBC01C7010E94CD0742E0FB
:101DC00050E0BC01C7010E947C06C857DF4F0FB628
:101DD000F894DEBF0FBECDBFDF91CF911F910F9161
:101DE000FF90EF90DF90CF90BF90AF909F908F903B
:101DF0007F906F9008956F927F928F929F92AF9293
:101E0000BF92CF92DF92EF92FF920F931F93CF93E7
:101E1000DF93CDB7DEB7C858D1090FB6F894DEBF4F
:101E20000FBECDBF7C013B015A014901680100E0B2
:101E300010E09801B901A801CE0101960E94F200BC
:101E400000E010E09801B901A801CE0109960E94B6
:101E5000F20000E010E09801B901A801CE0141961E
:101E60000E94F20000E010E0980140E050E060E8DD
:101E70007FE3CE0149960E94F20000E010E0980155
:101E800040E050E060E87FE3CE0181960E94F200DE
:101E900000E010E09801B901A801CE0189960E94E6
:101EA000F20000E010E09801B901A801CE01C1964E
:101EB0000E94F20000E010E09801B901A801CE01F3
:101EC000C9960E94F20000E010E09801B901A80153
:101ED000CE018F5B9F4F0E94F20000E010E098015E
:101EE00040E050E060E87FE3CE01875B9F4F0E94B7
:101EF000F20000E010E09801B901A801CE018F5A6C
:101F00009F4F0E94F20000E010E09801B901A80183
:101F1000CE01875A9F4F0E94F20000E010E0980126
:101F2000B901A801CE018F599F4F0E94F20000E035
:101F300010E09801B901A801CE0187599F4F0E9476
:101F4000F20000E010E0980140E050E060E87FE33C
:101F5000CE018F589F4F0E94F20000E010E09801E0
:101F6000B901A801CE0187589F4F0E94F200CB57BC
:101F7000DF4F79826882C558D040C957DF4F9982B8
:101F80008882C758D040CF57DF4FB982A882C15846
:101F9000D040CD57DF4FD982C882C358D0409E0170
:101FA0002F573F4FAE014B575F4F62E070E0C701C4
:101FB0000E947105AE014F5F5F4FBC01C7010E94D7
:101FC000CD0742E050E0BC01C7010E947C06C85723
:101FD000DF4F0FB6F894DEBF0FBECDBFDF91CF91BC
:101FE0001F910F91FF90EF90DF90CF90BF90AF9037
:101FF0009F908F907F906F9008956F927F928F92B5
:102000009F92AF92BF92CF92DF92EF92FF920F9387
:102010001F93CF93DF93CDB7DEB7C858D1090FB662
:10202000F894DEBF0FBECDBF7C013B015A014901D0
:10203000680100E010E0980140E050E060E87FE3D4
:10204000CE0101960E94F20000E010E09801B90173
:10205000A801CE0109960E94F20000E010E098016C
:10206000B901A801CE0141960E94F20000E010E003
:102070009801B901A801CE0149960E94F20000E042
:1020800010E09801B901A801CE0181960E94F200EA
:1020900000E010E020E03FE3B901A801CE018996FD
:1020A0000E94F20000E010E020E03FEB40E050E052
:1020B00060E07FE3CE01C1960E94F20000E010E0F4
:1020C0009801B901A801CE01C9960E94F20000E072
:1020D00010E09801B901A801CE018F5B9F4F0E94CB
:1020E000F20000E010E020E03FEB40E050E060E074
:1020F0007FE3CE01875B9F4F0E94F20000E010E07B
:1021000020E03FE3B901A801CE018F5A9F4F0E9402
:10211000F20000E010E09801B901A801CE01875A51
:102120009F4F0E94F20000E010E09801B901A80161
:10213000CE018F599F4F0E94F20000E010E09801FD
:10214000B901A801CE0187599F4F0E94F20000E01B
:1021500010E09801B901A801CE018F589F4F0E944D
:10216000F20000E010E0980140E050E060E87FE31A
:10217000CE0187589F4F0E94F200CB57DF4F7982E4
:102180006882C558D040C957DF4F99828882C758A6
:10219000D040CF57DF4FB982A882C158D040CD5729
:1021A000DF4FD982C882C358D0409E012F573F4F7E
:1021B000AE014B575F4F62E070E0C7010E947105AE
:1021C000AE014F5F5F4FBC01C7010E94CD0742E0E7
:1021D00050E0BC01C7010E947C06C857DF4F0FB614
:1021E000F894DEBF0FBECDBFDF91CF911F910F914D
:1021F000FF90EF90DF90CF90BF90AF909F908F9027
:102200007F906F9008956F927F928F929F92AF927E
:10221000BF92CF92DF92EF92FF920F931F93CF93D3
:10222000DF93CDB7DEB7C858D1090FB6F894DEBF3B
:102230000FBECDBF7C013B015A014901680100E09E
:1022400010E0980140E050E060E87FE3CE010196A5
:102250000E94F20000E010E09801B901A801CE014F
:1022600009960E94F20000E010E09801B901A8016F
:10227000CE0141960E94F20000E010E09801B90101
:10228000A801CE0149960E94F20000E010E09801FA
:10229000B901A801CE0181960E94F20000E010E091
:1022A0009801B901A801CE0189960E94F20000E0D0
:1022B00010E020E83FE340E050E0BA01CE01C196D3
:1022C0000E94F20000E010E09801B901A801CE01DF
:1022D000C9960E94F20000E010E09801B901A8013F
:1022E000CE018F5B9F4F0E94F20000E010E020E8DB
:1022F0003FE340E050E0BA01CE01875B9F4F0E9470
:10230000F20000E010E09801B901A801CE018F5A57
:102310009F4F0E94F20000E010E09801B901A8016F
:10232000CE01875A9F4F0E94F20000E010E0980112
:10233000B901A801CE018F599F4F0E94F20000E021
:1023400010E09801B901A801CE0187599F4F0E9462
:10235000F20000E010E09801B901A801CE018F5809
:102360009F4F0E94F20000E010E0980140E050E032
:1023700060E87FE3CE0187589F4F0E94F200CB5761
:10238000DF4F79826882C558D040C957DF4F9982A4
:102390008882C758D040CF57DF4FB982A882C15832
:1023A000D040CD57DF4FD982C882C358D0409E015C
:1023B0002F573F4FAE014B575F4F62E070E0C701B0
:1023C0000E947105AE014F5F5F4FBC01C7010E94C3
:1023D000CD0742E050E0BC01C7010E947C06C8570F
:1023E000DF4F0FB6F894DEBF0FBECDBFDF91CF91A8
:1023F0001F910F91FF90EF90DF90CF90BF90AF9023
:102400009F908F907F906F9008952F923F924F9260
:102410005F926F927F928F929F92AF92BF92CF9274
:10242000DF92EF92FF920F931F93CF93DF93CDB77D
:10243000DEB7A4970FB6F894DEBF0FBECDBF7C0108
:102440001B016A01B901882777FD8095982F0E94AA
:10245000981C2BED3FE049E450E40E947A1E20E0F6
:1024600030E044E353E40E94CC1B20E030E040E045
:102470005FE30E947A1E4B015C010E94C91B2B0185
:102480003C0100E010E09801AB01BC01CE010196D7
:102490000E94F200C501B4010E94DD1E4B015C01E7
:1024A000B7FAB094B7F8B0949501840140E050E0D9
:1024B000BA01CE0109960E94F2009501840140E024
:1024C00050E0BA01CE0141960E94F20000E010E017
:1024D0009801B301A201CE0149960E94F2003CA2EC
:1024E0002BA2DAA2C9A29E012F5D3F4FAE014D5D26
:1024F0005F4F61E070E0C7010E947105AE014F5F60
:102500005F4FBC01C7010E940F0741E050E0BC01D2
:10251000C7010E947C06A4960FB6F894DEBF0FBEDA
:10252000CDBFDF91CF911F910F91FF90EF90DF9082
:10253000CF90BF90AF909F908F907F906F905F9063
:102540004F903F902F9008952F923F924F925F921D
:102550006F927F928F929F92AF92BF92CF92DF92B3
:10256000EF92FF920F931F93CF93DF93CDB7DEB718
:10257000A4970FB6F894DEBF0FBECDBF7C011B0140
:102580006A01B901882777FD8095982F0E94981CD1
:102590002BED3FE049E450E40E947A1E20E030E059
:1025A00044E353E40E94CC1B20E030E040E05FE3D2
:1025B0000E947A1E4B015C010E94C91B2B013C0149
:1025C00000E010E09801AB01BC01CE0101960E9431
:1025D000F200C501B4010E94DD1E4B015C01AB019C
:1025E000BC01705800E010E09801CE0109960E94ED
:1025F000F20000E010E09801B501A401CE0141967F
:102600000E94F20000E010E09801B301A201CE01A7
:1026100049960E94F2003CA22BA2DAA2C9A29E0116
:102620002F5D3F4FAE014D5D5F4F61E070E0C70130
:102630000E947105AE014F5F5F4FBC01C7010E9450
:102640000F0741E050E0BC01C7010E947C06A49640
:102650000FB6F894DEBF0FBECDBFDF91CF911F91B3
:102660000F91FF90EF90DF90CF90BF90AF909F9031
:102670008F907F906F905F904F903F902F90089534
:102680004F925F926F927F92AF92BF92CF92DF9202
:10269000EF92FF920F931F93CF93DF93CDB7DEB7E7
:1026A000A4970FB6F894DEBF0FBECDBF7C015B01CF
:1026B0006A01B901882777FD8095982F0E94981CA0
:1026C0002BED3FE049E450E40E947A1E20E030E028
:1026D00044E353E40E94CC1B2B013C01905820E0C2
:1026E00030E040E05FE30E947A1E0E94391C8B01BB
:1026F0009C0140E050E0BA01CE0101960E94F20038
:1027000000E010E09801B901A801CE0109960E94ED
:10271000F20000E010E09801B901A801CE01419655
:102720000E94F20020E030E040E05FE3C301B2012C
:102730000E947A1E0E94391C8B019C0140E050E0EF
:10274000BA01CE0149960E94F200BCA2ABA2DAA265
:10275000C9A29E012F5D3F4FAE014D5D5F4F61E00D
:1027600070E0C7010E947105AE014F5F5F4FBC0171
:10277000C7010E940F0741E050E0BC01C7010E9461
:102780007C06A4960FB6F894DEBF0FBECDBFDF91D6
:10279000CF911F910F91FF90EF90DF90CF90BF905E
:1027A000AF907F906F905F904F9008958FED90E085
:1027B0000E94FD1A08950F931F93CF93DF93EC01AE
:1027C0000E9410028E010F5F1F4FC8010E94FD1A68
:1027D000CE0105960E94260366E870E0C8010E94BB
:1027E000091B8FEF8ABB1C821B82DF91CF911F9147
:1027F0000F9108957BB321E030E0C901062E02C09D
:10280000880F991F0A94E2F7809587238BBB8BB3BF
:1028100002C0440F551F6A95E2F7482B4BBB089541
:10282000CF93DF93EC018FEF87BB28BB6BBB64E0DA
:1028300070E0CE010E94FA1341E050E066E070E0E3
:10284000CE010E94FA1340E050E066E070E0CE0155
:102850000E94FA1318BADF91CF9108950F931F9336
:10286000CF93DF93EC018A0117BA6BBB41E050E0D4
:1028700065E070E00E94FA13A80164E070E0CE0108
:102880000E94FA1386B31BBA9FEF97BB90E0DF91CB
:10289000CF911F910F9108956F927F928F929F9287
:1028A000AF92BF92CF92DF92EF92FF920F931F935E
:1028B000CF93DF936C018C010F5F1F4F63EC70E0CF
:1028C000C8010E941E1B6AE970E0C8010E941E1B1D
:1028D000C0E0D0E00F2EF4EBEF2EF0E0FF2EF02D55
:1028E00083E090E00E947C1F882E992E40E050E00B
:1028F000BE01C6010E942E149F938F93FF92EF9208
:102900009F928F920E943D2283E090E00E947C1F64
:10291000A82EB92E41E050E0BE01C6010E942E143F
:102920009F938F93FF92EF92BF92AF920E943D22AE
:1029300081E090E00E947C1F682E792EDF93CF9378
:10294000FF92EF927F926F920E943D2267EB70E0C0
:10295000C8010E94091B662D772DC8010E94091B22
:1029600069EB70E0C8010E94091B682D792DC80130
:102970000E94091B64EC70E0C8010E94091B6A2DCB
:102980007B2DC8010E941E1B21968DB79EB74296D3
:102990000FB6F8949EBF0FBE8DBFC430D10509F0AD
:1029A0009FCFDF91CF911F910F91FF90EF90DF901C
:1029B000CF90BF90AF909F908F907F906F90089531
:1029C0000F931F93CF93DF93062F172FEA01CA01AE
:1029D00001960E947C1F0097B9F0FC01EC0FFD1FCF
:1029E0001082202F312FBE0161507109CD2B71F063
:1029F00020FF02C041E301C040E342933695279592
:102A000061507109A8F702C080E090E0DF91CF919A
:102A10001F910F910895CF92DF92EF92FF920F9343
:102A20001F93CF93DF93D62FC72FE62FF72F80E08A
:102A300090E021912F3F89F4DF0112974C914F3F95
:102A400061F411974C914F3F41F411974C914F3FD6
:102A500021F411972C912F3F11F00196EACF8C01B0
:102A6000045011096C012FEFC21AD20A7601EE0C44
:102A7000FF1CC7010E947C1F1016110674F4DC01B4
:102A8000ED2FFC2F20E030E0419150E04D935D931D
:102A90002F5F3F4F20173107BCF30C151D057CF449
:102AA000F7013A97E80FF91F25E030E04FEF50E0CB
:102AB000419351932150310921153105C9F7DF9117
:102AC000CF911F910F91FF90EF90DF90CF900895DD
:102AD0000F931F93CF93DF93CDB7DEB7C456D109C1
:102AE0000FB6F894DEBF0FBECDBF7F936F9384EB1C
:102AF00090E09F938F938E010F5F1F4F1F930F9353
:102B00000E943D220F900F900F900F900F900F900A
:102B1000C801CC59DF4F0FB6F894DEBF0FBECDBF52
:102B2000DF91CF911F910F9108956115710551F0BB
:102B300086E69EE00197F1F700006150710961158A
:102B40007105B1F708954F925F926F927F928F92C5
:102B50009F92AF92BF92CF92DF92EF92FF920F932C
:102B60001F93CF93DF93EC016B0149015A012701B9
:102B700038018AE090E00E947C1F8C01F6013197B9
:102B8000E232F10508F094C3E65DFF4F0C94621F3A
:102B900040E050E0B201CE010E942E149C0140E0C2
:102BA00050E0B401CE010E94101441E050E0B201A7
:102BB000CE010E942E149C0141E050E0B401CE01F0
:102BC0000E94101475C381E0881A91089C828B8240
:102BD0006FC3B401CE0102960E94951569C392019C
:102BE00040E050E0B401CE010E94101461C3920194
:102BF00041E050E0B401CE010E94101459C341E0FD
:102C000050E0B401CE010E942E148C0140E050E04F
:102C1000B401CE010E942E14A801BC01CE0105967C
:102C20000E9474088C01FC012081318140E050E059
:102C3000B401CE010E941014F8012281338141E0D9
:102C400050E0B401CE010E94101432C341E050E0C4
:102C5000B401CE010E942E148C0140E050E0B4017A
:102C6000CE010E942E14A801BC01CE0105960E943F
:102C7000DE088C01FC012081318140E050E0B4018C
:102C8000CE010E941014F8012281338141E050E00E
:102C9000B401CE010E9410140BC341E050E0B40116
:102CA000CE010E942E148C0140E050E0B401CE0110
:102CB0000E942E14A801BC01CE0105960E9448096D
:102CC0008C01FC012081318140E050E0B401CE0153
:102CD0000E941014F8012281338141E050E0B401D8
:102CE000CE010E941014E4C241E050E0B401CE01D4
:102CF0000E942E148C0140E050E0B401CE010E94ED
:102D00002E14A801BC01CE0105960E94B2098C01C7
:102D1000FC012081318140E050E0B401CE010E94ED
:102D20001014F8012281338141E050E0B401CE015A
:102D30000E941014BDC241E050E0B401CE010E94D7
:102D40002E148C0140E050E0B401CE010E942E14FC
:102D5000A801BC01CE0105960E94200A8C01FC014D
:102D60002081318140E050E0B401CE010E94101476
:102D7000F8012281338141E050E0B401CE010E948C
:102D8000101496C241E050E0B401CE010E942E140E
:102D90008C0140E050E0B401CE010E942E14A80145
:102DA000BC01CE0105960E948A0A8C01FC0120819B
:102DB000318140E050E0B401CE010E941014F801CE
:102DC0002281338141E050E0B401CE010E94101411
:102DD0006FC241E050E0B201CE010E942E148C017E
:102DE00040E050E0B201CE010E942E146C0141E09F
:102DF00050E0B401CE010E942E147C0140E050E06E
:102E0000B401CE010E942E149601A701BC01CE018F
:102E100005960E94F30A8C01FC012081318140E07B
:102E200050E0B401CE010E941014F80122813381D8
:102E300041E050E0B401CE010E941014F801248159
:102E4000358140E050E0B201CE010E941014F8013B
:102E50002681378141E050E0B201CE010E9410147A
:102E600027C241E050E0B201CE010E942E148C0135
:102E700040E050E0B201CE010E942E147C0141E0FE
:102E800050E0B401CE010E942E146C0140E050E0ED
:102E9000B401CE010E942E149701A601BC01CE01FF
:102EA00005960E94F50B8C01FC012081318140E0E8
:102EB00050E0B401CE010E941014F8012281338148
:102EC00041E050E0B401CE010E941014F8012481C9
:102ED000358140E050E0B201CE010E941014F801AB
:102EE0002681378141E050E0B201CE010E941014EA
:102EF000DFC141E050E0B201CE010E942E148C01EE
:102F000040E050E0B201CE010E942E147C0141E06D
:102F100050E0B401CE010E942E146C0140E050E05C
:102F2000B401CE010E942E149701A601BC01CE016E
:102F300005960E94F70C8C01FC012081318140E054
:102F400050E0B401CE010E941014F80122813381B7
:102F500041E050E0B401CE010E941014F801248138
:102F6000358140E050E0B201CE010E941014F8011A
:102F70002681378141E050E0B201CE010E94101459
:102F800097C141E050E0B201CE010E942E148C01A5
:102F900040E050E0B201CE010E942E147C0141E0DD
:102FA00050E0B401CE010E942E146C0140E050E0CC
:102FB000B401CE010E942E149701A601BC01CE01DE
:102FC00005960E94F90D8C01FC012081318140E0C1
:102FD00050E0B401CE010E941014F8012281338127
:102FE00041E050E0B401CE010E941014F8012481A8
:102FF000358140E050E0B201CE010E941014F8018A
:103000002681378141E050E0B201CE010E941014C8
:103010004FC141E050E0B201CE010E942E148C015C
:1030200040E050E0B201CE010E942E147C0141E04C
:1030300050E0B401CE010E942E146C0140E050E03B
:10304000B401CE010E942E149701A601BC01CE014D
:1030500005960E94FB0E8C01FC012081318140E02D
:1030600050E0B401CE010E941014F8012281338196
:1030700041E050E0B401CE010E941014F801248117
:10308000358140E050E0B201CE010E941014F801F9
:103090002681378141E050E0B201CE010E94101438
:1030A00007C141E050E0B201CE010E942E148C0114
:1030B00040E050E0B201CE010E942E147C0141E0BC
:1030C00050E0B401CE010E942E146C0140E050E0AB
:1030D000B401CE010E942E149701A601BC01CE01BD
:1030E00005960E94FD0F8C01FC012081318140E09A
:1030F00050E0B401CE010E941014F8012281338106
:1031000041E050E0B401CE010E941014F801248186
:10311000358140E050E0B201CE010E941014F80168
:103120002681378141E050E0B201CE010E941014A7
:10313000BFC041E050E0B201CE010E942E148C01CC
:1031400040E050E0B201CE010E942E147C0141E02B
:1031500050E0B401CE010E942E146C0140E050E01A
:10316000B401CE010E942E149701A601BC01CE012C
:1031700005960E9403118C01FC012081318140E001
:1031800050E0B401CE010E941014F8012281338175
:1031900041E050E0B401CE010E941014F8012481F6
:1031A000358140E050E0B201CE010E941014F801D8
:1031B0002681378141E050E0B201CE010E94101417
:1031C00077C041E050E0B401CE010E942E148C0182
:1031D00040E050E0B401CE010E942E149201A801FB
:1031E000BC01CE0105960E9405128C01FC012081D4
:1031F000318140E050E0B401CE010E941014F8018A
:103200002281338141E050E0B401CE010E941014CC
:103210004FC041E050E0B401CE010E942E148C0159
:1032200040E050E0B401CE010E942E149201A801AA
:10323000BC01CE0105960E94A4128C01FC012081E4
:10324000318140E050E0B401CE010E941014F80139
:103250002281338141E050E0B401CE010E9410147C
:1032600027C041E050E0B401CE010E942E148C0131
:1032700040E050E0B401CE010E942E149201A8015A
:10328000BC01CE0105960E9440138C01FC012081F7
:10329000318140E050E0B401CE010E941014F801E9
:1032A0002281338141E050E0B401CE010E9410142C
:1032B000C8010E941420DF91CF911F910F91FF90C0
:1032C000EF90DF90CF90BF90AF909F908F907F90C6
:1032D0006F905F904F9008952F923F924F925F9220
:1032E0006F927F928F929F92AF92BF92CF92DF9216
:1032F000EF92FF920F931F93CF93DF93CDB7DEB77B
:10330000C057D1090FB6F894DEBF0FBECDBF3C0148
:103310008C010F5F1F4F6EEC70E0C8010E941E1BF6
:1033200063EC70E0C8010E941E1BC3010E944C1494
:10333000C3010E946F02BC01C30102960E940B15DB
:10334000FC01389720E030E0408551854F3F510522
:10335000A1F4468157814F3F510579F4448155814D
:103360004F3F510551F4428153814F3F510529F49C
:10337000408151814F3F510521F02F5F3F4F3296E1
:10338000E3CFA90144505109141615060CF007C1EA
:10339000FC012550310940E050E080E090E0412CF4
:1033A000512CC12CD12C0CC06930710534F08FEF39
:1033B000481A580A8C2D9D2D01C0CB014F5F5F4FDD
:1033C000BC016F5F7F4F01911191D201AA0FBB1F0A
:1033D000AA0FBB1FAA0FBB1FA40DB51D8A0F9B1FF1
:1033E000DC01AA0FBB1F81E090E08C0F9D1FA80F8E
:1033F000B91F0D931C9342175307B1F6F3011482C2
:103400001382141415040CF0C6C080E090E05E0135
:10341000F2E6AF0EB11C6E012BE5C20ED11C0F2ED1
:10342000F8ED8F2EF0E09F2EF02DAE96AFAEAE975A
:10343000AF96BFAEAF97E096CFAEE097E196DFAE26
:10344000E197F50110821182128213821482158293
:103450001682F60110821182128213821482158262
:103460001682880F991FFC01EE0FFF1FEE0FFF1F42
:10347000EE0FFF1F8E0F9F1FE1E0F0E0EC0FFD1F2E
:10348000E80FF91F2080318000E010E00F5F1F4F30
:10349000F30183819481FC01EE0FFF1FEE0FFF1FEC
:1034A000EE0FFF1F8E0F9F1F800F911FFC01EE0F6D
:1034B000FF1F81E090E08C0F9D1FE80FF91F8181B5
:1034C0008F9380818F93BF92AF929F928F92BF9282
:1034D000AF920E943D22F30183819481FC01EE0FA3
:1034E000FF1FEE0FFF1FEE0FFF1FE80FF91FE00F8A
:1034F000F11F3496EE0FFF1F81E090E08C0F9D1FAF
:10350000E80FF91F81818F9380818F93DF92CF9293
:103510009F928F92DF92CF920E943D220FB6F89435
:10352000DEBF0FBECDBF0430110509F0AFCF40E1C3
:1035300050E060E070E0E0968FADE097E1969FADDF
:10354000E1970E940121AD966CAF7DAF8EAF9FAF2A
:10355000AD9740E150E060E070E0AE968FADAE9781
:10356000AF969FADAF970E9401219B01AC01AD9634
:10357000ECACFDAC0EAD1FADAD97B101C3010E9427
:10358000A315F30183819481019694838383841529
:1035900095050CF456CFC3010E944C1404C0F301EE
:1035A00014821382F8CFC059DF4F0FB6F894DEBFF4
:1035B0000FBECDBFDF91CF911F910F91FF90EF9084
:1035C000DF90CF90BF90AF909F908F907F906F9043
:1035D0005F904F903F902F900895CF93DF9300D04E
:1035E00000D000D0CDB7DEB7CE0101960E94DB132C
:1035F000CE0101960E946C19FFCF83E389B910BCFC
:1036000086E880BD88E18AB908955D9BFECF6CB9DC
:1036100008950F931F93CF93DF938C01EB01688183
:10362000662339F02196C8010E94051B699161113A
:10363000FACFDF91CF911F910F910895CF93DF9330
:10364000EC010E94091B6DE0CE010E94051BDF9179
:10365000CF9108959F939F77A6D10F9000203AF4C1
:103660009058A2EA2AED3FE049E450E413D03EC26C
:103670005058BB27AA270ED039C202D230F007D249
:1036800020F031F49F3F11F41EF4D2C10EF4E09506
:10369000E7FBC8C1E92F4CD280F3BA176207730762
:1036A0008407950718F071F49EF564C20EF4E09556
:1036B0000B2EBA2FA02D0B01B90190010C01CA01EC
:1036C000A0011124FF27591B99F0593F50F4503E97
:1036D00068F11A16F040A22F232F342F4427585F89
:1036E000F3CF469537952795A795F0405395C9F7A1
:1036F0007EF41F16BA0B620B730B840BBAF0915059
:10370000A1F0FF0FBB1F661F771F881FC2F70EC0F7
:10371000BA0F621F731F841F48F4879577956795CA
:10372000B795F7959E3F08F0B3CF9395880F08F0B3
:103730009927EE0F979587950895DF93DD27B92F89
:10374000BF7740E85FE31616170648075B0710F4DB
:10375000D92F1BD29F938F937F936F9376D3E8E9F2
:10376000F0E069D1C3D12F913F914F915F91CED2BB
:10377000DD2349F09058A2EA2AED3FE049EC5FE3EF
:10378000D0785D2787DFDF91B1C128D108F481E0CF
:10379000089585D1E395BBC10CD0A8C178D140F084
:1037A0006FD130F021F45F3F19F03CC15111E3C1FA
:1037B0003FC1BED198F39923C9F35523B1F3951BAB
:1037C000550BBB27AA2762177307840738F09F5F42
:1037D0005F4F220F331F441FAA1FA9F333D00E2EB1
:1037E0003AF0E0E830D091505040E695001CCAF71E
:1037F00029D0FE2F27D0660F771F881FBB1F2617E3
:1038000037074807AB07B0E809F0BB0B802DBF01B5
:10381000FF2793585F4F2AF09E3F510568F002C181
:10382000AAC15F3FECF3983EDCF3869577956795E8
:10383000B795F7959F5FC9F7880F911D9695879566
:1038400097F90895E1E0660F771F881FBB1F621785
:1038500073078407BA0720F0621B730B840BBA0B43
:10386000EE1F88F7E095089519F40EF0DBC082C1D1
:10387000DFC066D1C8F39638C0F707F80F92E89416
:103880002BE33AEA48EB5FE743D20F920F920F9295
:103890004DB75EB70F92FBD1E5ECF0E0CCD04F9185
:1038A0005F91EF91FF91E595EE1FFF1F49F0FE57E5
:1038B000E0684427EE0F441FFA95E1F74195550B58
:1038C0006DD10F9007FE61C1089504D06894B111C5
:1038D00052C1089535D188F09F5790F0B92F99279C
:1038E000B751A0F0D1F0660F771F881F991F1AF00B
:1038F000BA95C9F712C0B13081F03CD1B1E008955A
:1039000039C1672F782F8827B85F39F0B93FCCF3DA
:10391000869577956795B395D9F73EF49095809500
:10392000709561957F4F8F4F9F4F0895E89409C020
:1039300097FB3EF490958095709561957F4F8F4FE2
:103940009F4F9923A9F0F92F96E9BB279395F695F8
:10395000879577956795B795F111F8CFFAF4BB0F76
:1039600011F460FF1BC06F5F7F4F8F4F9F4F16C0DA
:10397000882311F096E911C0772321F09EE8872F64
:10398000762F05C0662371F096E8862F70E060E020
:103990002AF09A95660F771F881FDAF7880F969599
:1039A000879597F90895DF93CF931F930F938B011A
:1039B000EC01EDEEF0E03FD099D09801AE018B0123
:1039C000EC0160E070E080E89FE352DE00D29801F5
:1039D000AE010F911F91CF91DF9198C1990F00080F
:1039E000550FAA0BE0E8FEEF16161706E807F907D1
:1039F000C0F012161306E407F50798F0621B730B6C
:103A0000840B950B39F40A2661F0232B242B252BEC
:103A100021F408950A2609F4A140A6958FEF811D8F
:103A2000811D089597F99F6780E870E060E0089530
:103A30009FEF80EC0895DF93CF931F930F93FF9236
:103A4000EF92DF927B018C01689405C0DA2EEF01C2
:103A50005DD1FE01E894A59125913591459155914F
:103A6000AEF3EF0117DEFE019701A801DA9479F7B2
:103A7000DF90EF90FF900F911F91CF91DF9108950C
:103A800000240A941616170618060906089500243D
:103A90000A9412161306140605060895C9CF50D0CD
:103AA000E8F3E894E0E0BB279F57F0F02AED3FE011
:103AB00049EC06C0EE0FBB0F661F771F881F28F06A
:103AC000B23A62077307840728F0B25A620B730B8D
:103AD000840BE3959A9572F7803830F49A95BB0F72
:103AE000661F771F881FD2F79048B4C1092E039430
:103AF000000C11F4882352F0BB0F40F4BF2B11F4DB
:103B000060FF04C06F5F7F4F8F4F9F4F0895EF930B
:103B1000E0FF06C0A2EA2AED3FE049EC5FEBBADD28
:103B2000E5DF0F90039401FC9058E5E1F1E0A5C1B9
:103B300057FD9058440F551F59F05F3F71F047955E
:103B4000880F97FB991F61F09F3F79F08795089543
:103B5000121613061406551FF2CF4695F1DF08C062
:103B6000161617061806991FF1CF8695710561057F
:103B700008940895E894BB2766277727CB0197F927
:103B800008952CDF08F48FEF08959B01AC0160E0ED
:103B900070E080E89FE300CE45CF5AC1D1DFE8F363
:103BA0009923D9F3940F511DBBF39150504094F0D9
:103BB00059F0882332F0660F771F881F91505040CC
:103BC000C1F79E3F510544F7880F911D9695879543
:103BD00097F908955F3FACF0983E9CF0BB2786951F
:103BE00077956795B79508F4B1609395C1F7BB0FCA
:103BF00058F711F460FFE8CF6F5F7F4F8F4F9F4FF3
:103C0000E3CFB9CF0EF024C113CF68940BCF98DF68
:103C1000C8F39923D1F3C6F3DF93CF931F930F9388
:103C2000FF92C92FDD2788232AF02197660F771F7F
:103C3000881FDAF720E030E040E85FEB9FE3883947
:103C400020F0803E30F021968F7713DDE3E3F1E042
:103C500003C00FDDE0E6F1E0EEDE8B01BE01EC011A
:103C6000FB2E6F5771097595771F880B990B60DED6
:103C700028E132E741E35FE349D0AF2D9801AE017F
:103C8000FF900F911F91CF91DF9104DD2FCFFA01AB
:103C9000DC01AA0FBB1F9B01AC01BF5728F42227F0
:103CA0003327442750781FC0B75188F4AB2F002426
:103CB000469537952795011CA395D2F3002069F00E
:103CC000220F331F441FB395DAF30DD0D1CC6130EE
:103CD0007105A0E88A07B94630F49B01AC0166275C
:103CE000772788279078309621F02083318342838C
:103CF000538308950BD0FACEC3DE28F0C8DE18F047
:103D0000952309F08FCE94CE112435CF11DFA0F387
:103D1000959FD1F3950F50E0551F629FF001729F60
:103D2000BB27F00DB11D639FAA27F00DB11DAA1F7F
:103D3000649F6627B00DA11D661F829F2227B00DCC
:103D4000A11D621F739FB00DA11D621F839FA00D57
:103D5000611D221F749F3327A00D611D231F849FA7
:103D6000600D211D822F762F6A2F11249F575040FE
:103D70008AF0E1F088234AF0EE0FFF1FBB1F661F99
:103D8000771F881F91505040A9F79E3F510570F052
:103D900049CEF1CE5F3FECF3983EDCF38695779504
:103DA0006795B795F795E7959F5FC1F7FE2B880F4D
:103DB000911D9695879597F908959F9370DE0F90C2
:103DC00007FCEE5FA4CE11F40EF432CE41C0B8DE93
:103DD000D0F39923D9F3CEF39F57550B87FF46D0E5
:103DE0000024A0E640EA900180585695979528F463
:103DF000805C660F771F881F20F02617370748075B
:103E000030F4621B730B840B202931294A2BA695B1
:103E100017940794202531254A2758F7660F771FF6
:103E2000881F20F026173707480730F4620B730B02
:103E3000840B200D311D411DA09581F7B901842F00
:103E40009158880F9695879508959B01AC0152CFA4
:103E50009F3F31F0915020F4879577956795B795FE
:103E6000880F911D9695879597F908959150504028
:103E7000660F771F881FD2F708959F938F937F93C4
:103E80006F93FF93EF939B01AC0134DFEF91FF91B0
:103E9000D2DD2F913F914F915F912CCF97FB072E51
:103EA00016F4009407D077FD09D00E94681F07FC24
:103EB00005D03EF4909581959F4F0895709561953A
:103EC0007F4F0895EE0FFF1F0590F491E02D0994A8
:103ED000AA1BBB1B51E107C0AA1FBB1FA617B70730
:103EE00010F0A61BB70B881F991F5A95A9F780954C
:103EF0009095BC01CD010895CF93DF938230910559
:103F000010F482E090E0E091E200F091E30020E024
:103F100030E0A0E0B0E0309739F14081518148179E
:103F20005907B8F04817590771F4828193811097A7
:103F300029F013969C938E9312972CC09093E300D4
:103F40008093E20027C02115310531F04217530755
:103F500018F0A901DB0101C0EF019A01BD01DF01E9
:103F60000280F381E02DD7CF21153105F9F0281B10
:103F7000390B2430310580F48A819B8161157105EC
:103F800021F0FB019383828304C09093E30080932C
:103F9000E200FE01329644C0FE01E20FF31F81935E
:103FA000919322503109398328833AC02091E0004F
:103FB0003091E100232B41F42091620030916300A5
:103FC0003093E1002093E000209160003091610087
:103FD0002115310541F42DB73EB740916400509151
:103FE0006500241B350BE091E000F091E100E21741
:103FF000F307A0F42E1B3F0B2817390778F0AC010C
:104000004E5F5F4F2417350748F04E0F5F1F5093E8
:10401000E1004093E0008193919302C0E0E0F0E082
:10402000CF01DF91CF910895CF93DF93009709F4EB
:1040300087C0FC01329713821282C091E200D091B6
:10404000E300209781F420813181280F391F80916E
:10405000E0009091E1008217930779F5F093E10079
:10406000E093E0006DC0DE0120E030E0AE17BF0756
:1040700050F412964D915C9113979D014115510595
:1040800009F1DA01F3CFB383A28340815181840F18
:10409000951F8A179B0771F48D919C911197840F3E
:1040A000951F02969183808312968D919C91139710
:1040B000938382832115310529F4F093E300E09383
:1040C000E2003EC0D9011396FC93EE9312974D91F6
:1040D0005D91A40FB51FEA17FB0779F480819181E8
:1040E000840F951F0296D90111969C938E9382811D
:1040F000938113969C938E931297E0E0F0E08A816F
:104100009B81009719F0FE01EC01F9CFCE010296D8
:1041100028813981820F931F2091E0003091E100C6
:104120002817390769F4309729F41092E3001092A8
:10413000E20002C013821282D093E100C093E0003B
:10414000DF91CF9108958F929F92AF92BF92CF92BD
:10415000DF92EF92FF92CF93DF93EC016881798138
:104160008A819B81611571058105910521F464E2C5
:1041700079ED8BE597E02DE133EF41E050E00E94CF
:10418000342549015A019B01AC01A7EAB1E40E9420
:1041900053256B017C01ACEEB4EFA50194010E94A4
:1041A0006125C60ED71EE81EF91EF7FE06C081E087
:1041B000C81AD108E10880E8F80AC882D982EA82E0
:1041C000FB82C6019F77DF91CF91FF90EF90DF9048
:1041D000CF90BF90AF909F908F9008950E94A320A2
:1041E000089586E690E00E94A3200895A0E0B0E044
:1041F0008093660090936700A0936800B093690075
:1042000008952F923F925F926F927F928F929F922A
:10421000AF92BF92CF92DF92EF92FF920F931F93D4
:10422000CF93DF938B01EA016115710521F0DB016A
:104230008C9311969C93209739F09E01225031095E
:104240002332310508F0FBC07C016701BFEFCB1AB8
:10425000DB0A5601F7016080862D90E00E9435222E
:10426000892B11F07601F1CFFDE26F120AC05701E0
:1042700082E0A80EB11CD70111966C90772473943C
:104280000BC0BBE26B1207C05701E2E0AE0EB11CDF
:10429000D70111966C90712CCE018F7E892B89F4F9
:1042A000B0E36B1222C0F50180818F7D883541F526
:1042B0006180F2E0AF0EB11C872D8260782EC0E1E4
:1042C000D0E0C830D105F1F04CF4C230D10511F581
:1042D000C12CD12CE12CB0E4FB2E2FC0CA30D1056B
:1042E00031F0C031D10521F115C0209751F7CAE056
:1042F000D0E0ACECCA2EDC2CEC2CACE0FA2E1DC0CD
:104300002097F9F6C8E0D0E0C12CD12CE12CF0E1E7
:10431000FF2E13C060E070E080E090E89E0144272B
:1043200037FD4095542F0E94122569017A0105C07E
:10433000C12CD12CE12CE8E0FE2EF50160E020E05C
:1043400030E0A9014E01AA2497FCA094BA2C1F01C9
:1043500070ED572E560CA9E0A51570F48FEB860D65
:104360008A3118F499EC592E06C08FE9860D8A31EE
:1043700030F589EA582E560C852D90E08C179D0754
:10438000F4F467FD18C0C216D306E406F50680F003
:10439000C501B4010E9402259B01AC01250D311D10
:1043A000411D511D213031054105B0E85B0710F07A
:1043B0006FEF01C061E03196D1016C90C8CF872DBD
:1043C00081700115110571F0662329F03197D8012C
:1043D000ED93FC9307C071FE19C03297D801ED939D
:1043E000FC9314C067FF12C0882329F020E030E05E
:1043F00040E050E804C02FEF3FEF4FEF5FE782E26D
:1044000090E09093E5008093E40016C0882341F08B
:1044100050954095309521953F4F4F4F5F4F0CC0C1
:1044200057FF0AC082E290E09093E5008093E40099
:104430002FEF3FEF4FEF5FE7B901CA0104C060E023
:1044400070E080E090E0DF91CF911F910F91FF909D
:10445000EF90DF90CF90BF90AF909F908F907F9024
:104460006F905F903F902F900895911105C2803218
:1044700019F089508550D0F70895AEE0B0E0E3E43C
:10448000F2E20C9474250D891E8986E08C831A83D0
:1044900009838FEF9FE79E838D83AE01475E5F4F59
:1044A0006F89788DCE0101960E945F22EF81F88599
:1044B000E00FF11F10822E96E4E00C949025ACE002
:1044C000B0E0E5E6F2E20C9466257C016B018A011E
:1044D000FC0117821682838181FFBDC1CE01019646
:1044E0004C01F7019381F60193FD859193FF819132
:1044F0006F01882309F4ABC1853239F493FD8591AE
:1045000093FF81916F01853229F4B70190E00E94F9
:104510005524E7CF512C312C20E02032A0F48B32EF
:1045200069F030F4803259F0833269F420612CC094
:104530008D3239F0803339F4216026C02260246046
:1045400023C0286021C027FD27C030ED380F3A3046
:1045500078F426FF06C0FAE05F9E300D1124532E3A
:1045600013C08AE0389E300D1124332E20620CC017
:104570008E3221F426FD6BC1206406C08C3611F406
:10458000206802C0883641F4F60193FD859193FFBF
:1045900081916F018111C1CF982F9F7D95549330E8
:1045A00028F40C5F1F4FFFE3F9830DC0833631F011
:1045B000833771F0833509F05BC022C0F801808138
:1045C00089830E5F1F4F44244394512C540115C01E
:1045D0003801F2E06F0E711CF801A080B18026FF57
:1045E00003C0652D70E002C06FEF7FEFC5012C871F
:1045F0000E944A242C0183012C852F77222E17C07C
:104600003801F2E06F0E711CF801A080B18026FF26
:1046100003C0652D70E002C06FEF7FEFC5012C87EE
:104620000E943F242C012C852068222E830123FC2C
:104630001BC0832D90E048165906B0F4B70180E204
:1046400090E00E9455243A94F4CFF50127FC85911F
:1046500027FE81915F01B70190E00E94552431103F
:104660003A94F1E04F1A51084114510471F7E5C032
:10467000843611F0893639F5F80127FF07C06081CB
:104680007181828193810C5F1F4F08C060817181AD
:10469000882777FD8095982F0E5F1F4F2F76B22EBB
:1046A00097FF09C090958095709561957F4F8F4FCA
:1046B0009F4F2068B22E2AE030E0A4010E94872498
:1046C000A82EA81844C0853729F42F7EB22E2AE0E0
:1046D00030E025C0F22FF97FBF2E8F36C1F018F4DD
:1046E000883579F0B4C0803719F0883721F0AFC031
:1046F0002F2F2061B22EB4FE0DC08B2D8460B82EFA
:1047000009C024FF0AC09F2F9660B92E06C028E07A
:1047100030E005C020E130E002C020E132E0F801E5
:10472000B7FE07C060817181828193810C5F1F4F4A
:1047300006C06081718180E090E00E5F1F4FA40190
:104740000E948724A82EA818FB2DFF77BF2EB6FE47
:104750000BC02B2D2E7FA51450F4B4FE0AC0B2FC62
:1047600008C02B2D2E7E05C07A2C2B2D03C07A2C51
:1047700001C0752C24FF0DC0FE01EA0DF11D8081E2
:10478000803311F4297E09C022FF06C0739473940C
:1047900004C0822F867809F0739423FD13C020FF94
:1047A00006C05A2C731418F4530C5718732C731436
:1047B00068F4B70180E290E02C870E94552473943E
:1047C0002C85F5CF731410F4371801C0312C24FF59
:1047D00012C0B70180E390E02C870E9455242C85FD
:1047E00022FF17C021FF03C088E590E002C088E7E0
:1047F00090E0B7010CC0822F867859F021FD02C0ED
:1048000080E201C08BE227FD8DE2B70190E00E94BB
:104810005524A51438F4B70180E390E00E94552494
:104820005A94F7CFAA94F401EA0DF11D8081B701E3
:1048300090E00E945524A110F5CF332009F451CE09
:10484000B70180E290E00E9455243A94F6CFF70138
:104850008681978102C08FEF9FEF2C96E2E10C9446
:104860008225A8E1B0E042E050E00C94E7240E94E9
:10487000F524272F0C94F624992788270895FC0106
:104880000590615070400110D8F7809590958E0F7B
:104890009F1F0895FC016150704001900110D8F7EE
:1048A000809590958E0F9F1F08950F931F93CF9320
:1048B000DF93182F092FEB018B8181FD03C08FEF50
:1048C0009FEF20C082FF10C04E815F812C813D810F
:1048D000421753077CF4E881F9819F012F5F3F4F16
:1048E00039832883108306C0E885F985812F0995CF
:1048F000892B29F72E813F812F5F3F4F3F832E83E6
:10490000812F902FDF91CF911F910F910895FA0180
:10491000AA27283051F1203181F1E8946F936E7FFE
:104920006E5F7F4F8F4F9F4FAF4FB1E03ED0B4E0EF
:104930003CD0670F781F891F9A1FA11D680F791F30
:104940008A1F911DA11D6A0F711D811D911DA11D41
:1049500020D009F468943F912AE0269F1124301951
:10496000305D3193DEF6CF010895462F4770405DEC
:104970004193B3E00FD0C9F7F6CF462F4F70405D9B
:104980004A3318F0495D31FD4052419302D0A9F7F6
:10499000EACFB4E0A6959795879577956795BA95F0
:1049A000C9F700976105710508959B01AC010A2EB6
:1049B00006945795479537952795BA95C9F7620F8D
:1049C000731F841F951FA01D0895DC01CB01FC01FE
:1049D000E199FECF06C0FFBBEEBBE09A31960DB267
:1049E0000D9241505040B8F70895262FE199FECF1F
:1049F0009FBB8EBB2DBB0FB6F894E29AE19A0FBE17
:104A000001960895DB018F939F930E945325BF91D8
:104A1000AF91A29F800D911DA39F900DB29F900D0D
:104A200011240895A1E21A2EAA1BBB1BFD010DC083
:104A3000AA1FBB1FEE1FFF1FA217B307E407F5074E
:104A400020F0A21BB30BE40BF50B661F771F881F2A
:104A5000991F1A9469F760957095809590959B01C0
:104A6000AC01BD01CF010895052E97FB1EF4009403
:104A70000E944B2557FD07D00E94122507FC03D04A
:104A80004EF40C944B2550954095309521953F4F11
:104A90004F4F5F4F089590958095709561957F4F2A
:104AA0008F4F9F4F08950E949D25A59F900DB49F05
:104AB000900DA49F800D911D11240895B7FF0C94B3
:104AC00053250E945325821B930B08952F923F92EA
:104AD0004F925F926F927F928F929F92AF92BF920E
:104AE000CF92DF92EF92FF920F931F93CF93DF93BA
:104AF000CDB7DEB7CA1BDB0B0FB6F894DEBF0FBE17
:104B0000CDBF09942A88398848885F846E847D8463
:104B10008C849B84AA84B984C884DF80EE80FD8065
:104B20000C811B81AA81B981CE0FD11D0FB6F894DB
:104B3000DEBF0FBECDBFED010895A29FB001B39FB0
:104B4000C001A39F700D811D1124911DB29F700D96
:0C4B5000811D1124911D0895F894FFCFE1
:104B5C000000E600200001000000523A2000202E48
:104B6C0020493A20004265666F72653A2000416622
:104B7C007465723A2000494E495449414C495A498E
:104B8C004E47202E202E202E20002A2A205155411F
:104B9C004E54554D204D454D4F52592044554D5076
:104BAC00202A2A0025640051003A2054686574615B
:104BBC00202D2000202C20506869202D2000205210
:0E4BCC00554E4E494E472000257325780000B7
:00000001FF
