S01D0000514550555F50726F6A6563745F41746D65676133322E7372656383
S11300000C94F7000C941F010C941F010C941F0115
S11300100C941F010C941F010C941F010C941F01DC
S11300200C941F010C941F010C941F010C941F01CC
S11300300C941F010C941F010C941F010C941F01BC
S11300400C941F010C941F010C941F010C941F01AC
S11300500C941F01652185219A21AC21B921C92164
S1130060D221DA21E521F021FA21042213221A22D5
S113007029222D22482267228622A522C422E32295
S113008002232123362342234C2368237E239A23ED
S1130090B023C423DB23F42312242C2446245E241B
S11300A073248824A024B524CA24E424FB24122520
S11300B02A253F2554256E2585259C25AF25CC254D
S11300C0E325FB2518262F2647264C26B12B53263D
S11300D05E268926B426DF260A27352760278D2742
S11300E0BA27E7273B288F28E32837298B29DF29DC
S11300F0332AAF2A2B2B084AD73B3BCE016E84BC54
S1130100BFFDC12F3D6C74319ABD56833DDA3D006D
S1130110C77F11BED9E4BB4C3E916BAAAABE0000B6
S113012000803F07634236B79BD8A71A3968561830
S1130130AEBAAB558C1D3CB7CC5763BD6DEDFD75A8
S11301403EF6177231BF000000803F072C7AA5BA33
S11301506CC590DA3B9365FC8BBC53F810FD3C56A0
S113016092834DBD879D3AB63DCBC9BF5BBE73DA62
S11301700FC93F05A84CCDB2D44EB93836A9020CEC
S113018050B9918688083CA6AAAA2ABE000000801D
S11301903F08000000BE922449123EABAAAA2ABE20
S11301A0CDCCCC4C3E00000080BEABAAAAAA3E0037
S11301B0000000BF000000803F0000000000084174
S11301C078D3BB4387D1133D190E3CC3BD4282ADE6
S11301D02B3E68EC8276BED98FE1A93E4C80EFFFBE
S11301E0BE01C4FF7F3F0000000000009E1D1124DB
S11301F01FBECFE5D8E0DEBFCDBF10E0A0E6B0E083
S1130200EEE6F3E702C005900D92AE3EB107D9F7D2
S113021020E0AEEEB0E001C01D92AE3FB207E1F7C0
S113022011E0CEEED1E004C02297FE010E947C339F
S1130230CC3ED107C9F70E94FA2C0C94B5390C9422
S113024000000F931F93FC014083518362837383E7
S113025004831583268337831F910F910895FC012E
S113026010821182128213821482158216821782DE
S11302700895AF92BF92CF92DF92EF92FF920F93C5
S11302801F93CF93DF93CDB7DEB768970FB6F8947B
S1130290DEBF0FBECDBF5C01098B1A8B2B8B3C8B51
S11302A04D8B5E8B6F8B788F2D893E894F89588D4E
S11302B0FC0164817581868197810E94322F6B01D4
S11302C07C0129893A894B895C89F50160817181B6
S11302D0828193810E94322FAB01BC019701860178
S11302E0CE0101960E94210188E0FE013196DE01D3
S11302F0199601900D928A95E1F729853A854B85E7
S11303005C856D857E858F85988968960FB6F8948F
S1130310DEBF0FBECDBFDF91CF911F910F91FF9034
S1130320EF90DF90CF90BF90AF9008954F925F927F
S11303306F927F928F929F92AF92BF92CF92DF92F1
S1130340EF92FF920F931F93CF93DF93CDB7DEB756
S1130350A0970FB6F894DEBF0FBECDBF098B1A8BE2
S11303602B8B3C8B4D8B5E8B6F8B788F89889A8817
S1130370AB88BC882D893E894F89588D2D8F3E8F3F
S11303804F8F58A3FC01C080D180E280F380248188
S1130390358146815781298F3A8F4B8F5C8F2D8D04
S11303A03E8D4F8D58A1C701B6010E9473322B01B7
S11303B03C01A5019401698D7A8D8B8D9C8D0E94E1
S11303C073329B01AC01C301B2010E94322F2B0195
S11303D03C01A5019401C701B6010E9473326B016F
S11303E07C012D8D3E8D4F8D58A1698D7A8D8B8D1D
S11303F09C8D0E9473329B01AC01C701B6010E941F
S1130400312FAB01BC0193018201CE0101960E9400
S1130410210188E0FE013196DE01199601900D92CA
S11304208A95E1F729853A854B855C856D857E85BE
S11304308F859889A0960FB6F894DEBF0FBECDBF06
S1130440DF91CF911F910F91FF90EF90DF90CF90AC
S1130450BF90AF909F908F907F906F905F904F90E0
S11304600895FC0120813181428153816481758129
S1130470868197810E94C52F0E94962F089585E05A
S113048080B981B18C7F81B9089594EA30EA24E877
S113049096BF06B607FEFDCF81B1887F883009F08C
S11304A041C033B926BF06B607FEFDCF81B1887FB0
S11304B0883171F773B984E886BF06B607FEFDCFAD
S11304C081B1887F883281F563B984E886BF06B636
S11304D007FEFDCF81B1887F883241F584EA86BF6B
S11304E006B607FEFDCF81B1887F803109F581EA28
S11304F083B984E886BF06B607FEFDCF81B1887F45
S11305008034C1F484E886BF06B607FEFDCF81B10E
S1130510887F883589F483B194E996BF06B604FCD4
S1130520FDCF089580E0089580E0089580E0089567
S113053080E0089580E0089580E008956F927F92AE
S11305408F929F92AF92BF92CF92DF92EF92FF92DF
S11305500F931F93CF93DF93CDB7DEB76C970FB68E
S1130560F894DEBF0FBECDBF5C01E12CF12CC12C91
S1130570D12C812C912C8E01055E1F4F612C712C86
S1130580B701C5010E944502F401EE0FFF1F21E0EF
S113059030E02C0F3D1FE20FF31F90E09183808326
S11305A03DE08316910474F08FEFC81AD80AFE0157
S11305B0319681919191E017F107D9F78F3F910519
S11305C029F40AC02FEF821A920A02C0862C972CB3
S11305D03FEFE31AF30AD4CFC6016C960FB6F89432
S11305E0DEBF0FBECDBFDF91CF911F910F91FF9062
S11305F0EF90DF90CF90BF90AF909F908F907F90BF
S11306006F90089581E08093F600089521E08617A5
S113061097070CF020E02093EE0021E0681779079B
S11306200CF420E02093EF0021E08617970709F0EF
S113063020E02093F00021E0861797070CF420E0D7
S11306402093F10021E0681779070CF020E0209353
S1130650F20021E08617970709F420E02093F300C5
S113066021E0009709F020E02093F40021E0892B99
S113067009F420E02093F50008950895CF92DF92C5
S1130680EF92FF92CF93DF936A017B010E942B3597
S1130690EC0120E03EEF4FEF56E4C701B6010E94A3
S11306A073326B017C01BE01882777FD8095982FFA
S11306B00E9491309B01AC01C1E0D0E0C701B601BA
S11306C00E94BA31882314F4C0E0D0E0CE01DF9157
S11306D0CF91FF90EF90DF90CF9008952F923F92AB
S11306E04F925F926F927F928F929F92AF92BF923E
S11306F0CF92DF92EF92FF920F931F93CF93DF93EA
S1130700CDB7DEB7A4970FB6F894DEBF0FBECDBF4A
S11307108C016B015A01BA01882777FD8095982FC7
S11307200E9491300E94003228E132E741E35FE306
S11307300E94C52F2B013C019B01AC010E94322F6A
S11307400E945E3069A37AA38BA39CA329A03AA03C
S1130750C101880F991F880F991F880F991F0E9444
S1130760B6334C011A141B040CF09DC020E030E099
S113077040E85FE3F60160817181828193810E9488
S1130780BE2F811187C011C0F8E0CF0ED11C20E02C
S113079030E040E85FE3F6016081718182819381FA
S11307A00E94BE2F811178C002C0E12CF12CC3013C
S11307B0B2010E945E30AB01B701C8010E94932EC2
S11307C0121413040CF06FC07C0154016401F8E0AE
S11307D0CF0ED11C49A05AA0480E591E6894772404
S11307E073F8F70181917F01813329F500E010E06E
S11307F09801B901A801CE0149960E942101FE0188
S11308007996D501872D01900D928A95E1F700E044
S113081010E0980140E050E060E87FE3CE014196AB
S11308200E942101FE017196D601872D01900D923F
S11308308A95E1F724C000E010E0980140E050E020
S113084060E87FE3CE0109960E942101FE013996FA
S1130850D501872D01900D928A95E1F700E010E013
S11308609801B901A801CE0101960E942101FE015F
S11308703196D601872D01900D928A95E1F7F0E12A
S1130880AF0EB11C20E1C20ED11CE414F50409F032
S1130890A8CF09C0E12CF12C8FEFE81AF80AEA146A
S11308A0FB0409F071CFC401A4960FB6F894DEBF1F
S11308B00FBECDBFDF91CF911F910F91FF90EF90AD
S11308C0DF90CF90BF90AF909F908F907F906F906C
S11308D05F904F903F902F9008952F923F924F92A8
S11308E05F926F927F928F929F92AF92BF92CF92BC
S11308F0DF92EF92FF920F931F93CF93DF93CDB7C5
S1130900DEB728970FB6F894DEBF0FBECDBF7C01CB
S11309105B018A013E832D834130510509F4BBC03C
S11309209A0140E050E060E070E40E94CC2E0E9406
S11309305E3078876F839B01220F331F220F331F92
S1130940220F331F3C832B83C9010E94B633898352
S11309509A838F819885181619060CF053C01801D4
S1130960220C331CC980DA80612C712CE2E0F0E0A7
S1130970412C512CC601CF80D884470198878F839E
S11309802E163F0629F49FEF491A590AE2E0F0E0D7
S11309907F012FEFE21AF20AEE0FFF1FEE0FFF1F87
S11309A0EE0FFF1FEA0DFB1D0081118122813381AF
S11309B04481558166817781C201880F991F880F10
S11309C0991F880F991F8A0D9B1D0E949601EF8124
S11309D0F8852083318342835383648375838683BC
S11309E09783FFEF6F1A7F0A2F813885285F3F4F67
S11309F038872F836C147D0411F0F701C1CFD8869A
S1130A00CF8274018D819E81892BA9F589819A8178
S1130A1044C05101F1014081518162817381C70158
S1130A200E943E030197E9F48B819C81860D971DFA
S1130A30F3011082118212821382148215821682AB
S1130A4017823896E817F907A1F780E090E0A0E84C
S1130A50BFE3F50180839183A283B38389819A8163
S1130A601CC0FFEFCF1ADF0A28E0220E311CC81485
S1130A70D90479F606C049805A8000E010E08F80DE
S1130A80988418141904ECF7642C752C242C352C38
S1130A90C02ED12EBECF862F9B2D28960FB6F8944C
S1130AA0DEBF0FBECDBFDF91CF911F910F91FF909D
S1130AB0EF90DF90CF90BF90AF909F908F907F90FA
S1130AC06F905F904F903F902F9008952F923F9298
S1130AD04F925F926F927F928F929F92AF92BF924A
S1130AE0CF92DF92EF92FF920F931F93CF93DF93F6
S1130AF0CDB7DEB728970FB6F894DEBF0FBECDBFD3
S1130B009E838D837A836983042F152FC22ED32E5F
S1130B10CB0182959295907F9827807F98270E9499
S1130B20B6338B839C8329803A80220C331C1214A5
S1130B3013040CF0ACC0A82EB92EE02EF12E0C2D0F
S1130B401D2D812C912CB886AF826701F70141904D
S1130B5051907F01662457FC6094762CC301B20146
S1130B600E9491302BED3FE049E450E40E9473323F
S1130B7020E030E044EB53E40E94C52F0E94C22FD2
S1130B80EF81F8856083718382839383C301B2010B
S1130B900E9491302BED3FE049E450E40E9473320F
S1130BA020E030E044EB53E40E94C52F0E94D6328B
S1130BB02B013C015801F801619171918F01882743
S1130BC077FD8095982F0E9491302BED3FE049E40A
S1130BD050E40E94733220E030E044E353E40E9486
S1130BE0C52F0E94C22F9B01AC01C301B2010E9418
S1130BF07332EF81F8856087718782879387F60166
S1130C0060817181882777FD8095982F0E949130AB
S1130C102BED3FE049E450E40E94733220E030E0E1
S1130C2044EB53E40E94C52F0E94D6322B013C01B1
S1130C30F50160817181882777FD8095982F0E9446
S1130C4091302BED3FE049E450E40E94733220E000
S1130C5030E044E353E40E94C52F0E94D6329B0146
S1130C60AC01C301B2010E947332EF81F88564873D
S1130C70758786879787F2E08F0E911C8F81988500
S1130C80409698878F83821493040CF45ECF21E0FE
S1130C9030E049815A816B817C818D819E810E94E3
S1130CA06D0428960FB6F894DEBF0FBECDBFDF915A
S1130CB0CF911F910F91FF90EF90DF90CF90BF9055
S1130CC0AF909F908F907F906F905F904F903F90E8
S1130CD02F900895AF92BF92CF92DF92EF92FF923E
S1130CE00F931F93CF93DF93EC01062F172F6A0105
S1130CF09A0140E050E060E070E40E94CC2E22E0D3
S1130D00C216D10454F00E945E30AB01602F712FE3
S1130D10CE010E946E03082F192FC601880F991F58
S1130D20880F991F0E94B633A82EB92ECC0CDD1C57
S1130D301C141D04F4F5E02EF12E082F192FC0E029
S1130D40D0E0C0FD19C0F701608171818281938177
S1130D500E94232F20E030E044EB53E40E947332DE
S1130D602BED3FE049E450E40E94C52F0E945E3021
S1130D70F8017183608314C0C7010E94310220E02E
S1130D8030E044E353E40E9473322BED3FE049E446
S1130D9050E40E94C52F0E945E30F8017183608385
S1130DA02196F8E0EF0EF11C0E5F1F4FCC15DD0508
S1130DB041F68A2D9B2DDF91CF911F910F91FF90CA
S1130DC0EF90DF90CF90BF90AF9008952F923F9215
S1130DD04F925F926F927F928F929F92AF92BF9247
S1130DE0CF92DF92EF92FF920F931F93CF93DF93F3
S1130DF0CDB7DEB760970FB6F894DEBF0FBECDBF98
S1130E004B013A0180E190E00E94B633382E292E3E
S1130E10C82ED92EA12CB12C240188E0480E511CD7
S1130E20CE0109960E942F017501EE0CFF1CEE0CF9
S1130E30FF1CEE0CFF1CE60CF71CD7010C9111965D
S1130E401C91119712962C91129713963C9113971B
S1130E5014964C91149715965C91159716966C916F
S1130E60169717967C91C4010E949601022F132FA6
S1130E70242F352F462F572F682F792FCE0109960F
S1130E800E94390129873A874B875C876D877E8763
S1130E908F87988BF7017096D70150960C9111812A
S1130EA0228133814481558166817781C2010E9408
S1130EB09601022F132F242F352F462F572F682FDB
S1130EC0792FCE0109960E94390129873A874B87E9
S1130ED05C876D877E878F87988B89859A85AB859C
S1130EE0BC85F60180839183A283B3838D859E851F
S1130EF0AF85B88984839583A683B783FFEFAF1A40
S1130F00BF0A88E0C80ED11CA2E0AA16B10409F0F9
S1130F1087CF832D922D60960FB6F894DEBF0FBE57
S1130F20CDBFDF91CF911F910F91FF90EF90DF9094
S1130F30CF90BF90AF909F908F907F906F905F9075
S1130F404F903F902F9008952F923F924F925F922F
S1130F506F927F928F929F92AF92BF92CF92DF92C5
S1130F60EF92FF920F931F93CF93DF93CDB7DEB72A
S1130F7064970FB6F894DEBF0FBECDBF3B01E42EDD
S1130F80F52E80E290E00E94B6338B8B9C8B482E2A
S1130F90592E812C912CE98AFA8A212C312CCE01EC
S1130FA009960E942F01C988DA88E22CF32C540197
S1130FB0AA0CBB1CAA0CBB1CAA0CBB1CF501EC0D97
S1130FC0FD1D008111812281338144815581668117
S1130FD07781C3018E0D9F1D0E94960129833A8358
S1130FE04B835C836D837E838F839887022F132FBB
S1130FF0242F352F462F572F682F792FCE0109968E
S11310000E94390129873A874B875C876D877E87E1
S11310108F87988B88E0E80EF11CE0E2CE0ED11C9D
S1131020F0E2EF16F10451F689859A85AB85BC850B
S1131030F20180839183A283B3838D859E85AF85DE
S1131040B88984839583A683B783FFEF8F1A9F0A99
S113105088E0480E511CE4E08E16910409F09FCFFD
S11310608B899C8964960FB6F894DEBF0FBECDBF02
S1131070DF91CF911F910F91FF90EF90DF90CF9070
S1131080BF90AF909F908F907F906F905F904F90A4
S11310903F902F9008952F923F924F925F926F92BC
S11310A07F928F929F92AF92BF92CF92DF92EF92F4
S11310B0FF920F931F93CF93DF93CDB7DEB7629761
S11310C00FB6F894DEBF0FBECDBF4B01342E252ED4
S11310D080E490E00E94B633898B9A8B482E592E77
S11310E0612C712CCE0109960E942F01C32CD22CA5
S11310F0E12CF12C5301AA0CBB1CAA0CBB1CAA0C9E
S1131100BB1CF501EC0DFD1D008111812281338191
S11311104481558166817781C4018E0D9F1D0E9493
S1131120960129833A834B835C836D837E838F830B
S11311309887022F132F242F352F462F572F682FD0
S1131140792FCE0109960E94390129873A874B8766
S11311505C876D877E878F87988B88E0E80EF11C0B
S1131160E0E4CE0ED11CF0E4EF16F10451F68985CB
S11311709A85AB85BC85F20180839183A283B38376
S11311808D859E85AF85B88984839583A683B7832F
S1131190FFEF6F1A7F0A88E0480E511CE8E06E16D4
S11311A0710409F09FCF89899A8962960FB6F894E1
S11311B0DEBF0FBECDBFDF91CF911F910F91FF9086
S11311C0EF90DF90CF90BF90AF909F908F907F90E3
S11311D06F905F904F903F902F900895AF92BF9281
S11311E0CF92DF92EF92FF920F931F93CF93DF93EF
S11311F0CDB7DEB7A4970FB6F894DEBF0FBECDBF50
S11312007C015B016A0100E010E09801B901A801CA
S1131210CE0101960E94210100E010E0980140E017
S113122050E060E87FE3CE0109960E94210100E0CE
S113123010E0980140E050E060E87FE3CE01419681
S11312400E94210100E010E09801B901A801CE013B
S113125049960E942101BCA2ABA2DAA2C9A29E01B6
S11312602F5D3F4FAE014D5D5F4F61E070E0C70100
S11312700E946605AE014F5F5F4FBC01C7010E942B
S1131280E60641E050E0BC01C7010E946A06A4964C
S11312900FB6F894DEBF0FBECDBFDF91CF911F9183
S11312A00F91FF90EF90DF90CF90BF90AF90089593
S11312B0AF92BF92CF92DF92EF92FF920F931F9360
S11312C0CF93DF93CDB7DEB7A4970FB6F894DEBF04
S11312D00FBECDBF7C015B016A0100E010E0980104
S11312E0B901A801CE0101960E94210100E010E09D
S11312F020E83FEB40E050E0BA01CE0109960E949D
S1131300210100E010E020E83FE340E050E0BA01B2
S1131310CE0141960E94210100E010E09801B9013C
S1131320A801CE0149960E942101BCA2ABA2DAA277
S1131330C9A29E012F5D3F4FAE014D5D5F4F61E03D
S113134070E0C7010E946605AE014F5F5F4FBC01AC
S1131350C7010E94E60641E050E0BC01C7010E94BB
S11313606A06A4960FB6F894DEBF0FBECDBFDF9118
S1131370CF911F910F91FF90EF90DF90CF90BF908E
S1131380AF900895AF92BF92CF92DF92EF92FF9207
S11313900F931F93CF93DF93CDB7DEB7A4970FB608
S11313A0F894DEBF0FBECDBF7C015B016A0100E093
S11313B010E0980140E050E060E87FE3CE01019640
S11313C00E94210100E010E09801B901A801CE01BA
S11313D009960E94210100E010E09801B901A801DA
S11313E0CE0141960E94210100E010E0980140E006
S11313F050E060E87FEBCE0149960E942101BCA237
S1131400ABA2DAA2C9A29E012F5D3F4FAE014D5D92
S11314105F4F61E070E0C7010E946605AE014F5F57
S11314205F4FBC01C7010E94E60641E050E0BC01E9
S1131430C7010E946A06A4960FB6F894DEBF0FBED9
S1131440CDBFDF91CF911F910F91FF90EF90DF906F
S1131450CF90BF90AF900895AF92BF92CF92DF929A
S1131460EF92FF920F931F93CF93DF93CDB7DEB725
S1131470A4970FB6F894DEBF0FBECDBF7C015B010D
S11314806A0100E010E0980143EF54E065E37FE374
S1131490CE0101960E94210100E010E0980143EF83
S11314A054E065E37FE3CE0109960E94210100E048
S11314B010E0980143EF54E065E37FE3CE014196E9
S11314C00E94210100E010E0980143EF54E065E33D
S11314D07FEBCE0149960E942101BCA2ABA2DAA205
S11314E0C9A29E012F5D3F4FAE014D5D5F4F61E08C
S11314F070E0C7010E946605AE014F5F5F4FBC01FB
S1131500C7010E94E60641E050E0BC01C7010E9409
S11315106A06A4960FB6F894DEBF0FBECDBFDF9166
S1131520CF911F910F91FF90EF90DF90CF90BF90DC
S1131530AF900895AF92BF92CF92DF92EF92FF9255
S11315400F931F93CF93DF93CDB7DEB7A4970FB656
S1131550F894DEBF0FBECDBF7C015B016A0100E0E1
S113156010E0980140E050E060E87FE3CE0101968E
S11315700E94210100E010E09801B901A801CE0108
S113158009960E94210100E010E09801B901A80128
S1131590CE0141960E94210100E010E020E83FE3E3
S11315A040E050E0BA01CE0149960E942101BCA25C
S11315B0ABA2DAA2C9A29E012F5D3F4FAE014D5DE1
S11315C05F4F61E070E0C7010E946605AE014F5FA6
S11315D05F4FBC01C7010E94E60641E050E0BC0138
S11315E0C7010E946A06A4960FB6F894DEBF0FBE28
S11315F0CDBFDF91CF911F910F91FF90EF90DF90BE
S1131600CF90BF90AF900895AF92BF92CF92DF92E8
S1131610EF92FF920F931F93CF93DF93CDB7DEB773
S1131620A4970FB6F894DEBF0FBECDBF7C015B015B
S11316306A0100E010E0980140E050E060E87FE3D8
S1131640CE0101960E94210100E010E09801B90149
S1131650A801CE0109960E94210100E010E0980142
S1131660B901A801CE0141960E94210103EF14E0C3
S113167025E33FE3B901A801CE0149960E94210167
S1131680BCA2ABA2DAA2C9A29E012F5D3F4FAE015C
S11316904D5D5F4F61E070E0C7010E946605AE01D9
S11316A04F5F5F4FBC01C7010E94E60641E050E076
S11316B0BC01C7010E946A06A4960FB6F894DEBF67
S11316C00FBECDBFDF91CF911F910F91FF90EF908F
S11316D0DF90CF90BF90AF9008956F927F928F92DA
S11316E09F92AF92BF92CF92DF92EF92FF920F93AD
S11316F01F93CF93DF93CDB7DEB7C858D1090FB688
S1131700F894DEBF0FBECDBF7C013B015A014901F5
S1131710680100E010E0980140E050E060E87FE3F9
S1131720CE0101960E94210100E010E09801B90168
S1131730A801CE0109960E94210100E010E0980161
S1131740B901A801CE0141960E94210100E010E0F8
S11317509801B901A801CE0149960E94210100E037
S113176010E09801B901A801CE0181960E942101DF
S113177000E010E0980140E050E060E87FE3CE0133
S113178089960E94210100E010E09801B901A801A6
S1131790CE01C1960E94210100E010E09801B90138
S11317A0A801CE01C9960E94210100E010E0980131
S11317B0B901A801CE018F5B9F4F0E94210100E077
S11317C010E09801B901A801CE01875B9F4F0E94E8
S11317D0210100E010E09801B901A801CE018F5A5F
S11317E09F4F0E94210100E010E0980140E050E08A
S11317F060E87FE3CE01875A9F4F0E94210100E0F9
S113180010E09801B901A801CE018F599F4F0E94A1
S1131810210100E010E09801B901A801CE01875927
S11318209F4F0E94210100E010E0980140E050E049
S113183060E87FE3CE018F589F4F0E94210100E0B2
S113184010E09801B901A801CE0187589F4F0E946A
S11318502101CB57DF4F79826882C558D040C957E0
S1131860DF4F99828882C758D040CF57DF4FB98263
S1131870A882C158D040CD57DF4FD982C882C358FF
S1131880D0409E012F573F4FAE014B575F4F62E050
S113189070E0C7010E946605AE014F5F5F4FBC0157
S11318A0C7010E94A40742E050E0BC01C7010E94A6
S11318B06A06C857DF4F0FB6F894DEBF0FBECDBF20
S11318C0DF91CF911F910F91FF90EF90DF90CF9018
S11318D0BF90AF909F908F907F906F9008956F927C
S11318E07F928F929F92AF92BF92CF92DF92EF92AC
S11318F0FF920F931F93CF93DF93CDB7DEB7C858F2
S1131900D1090FB6F894DEBF0FBECDBF7C013B01F9
S11319105A014901680100E010E0980140E050E0FC
S113192060E87FE3CE0101960E94210100E010E00F
S11319309801B901A801CE0109960E94210100E095
S113194010E09801B901A801CE0141960E9421013D
S113195000E010E09801B901A801CE0149960E9467
S1131960210100E010E09801B901A801CE0181969F
S11319700E94210100E010E0980140E050E060E89E
S11319807FE3CE0189960E94210100E010E09801D6
S1131990B901A801CE01C1960E94210100E010E026
S11319A09801B901A801CE01C9960E94210100E065
S11319B010E09801B901A801CE018F5B9F4F0E94EE
S11319C0210100E010E09801B901A801CE01875B74
S11319D09F4F0E94210100E010E0980140E050E098
S11319E060E87FE3CE018F5A9F4F0E94210100E0FF
S11319F010E09801B901A801CE01875A9F4F0E94B7
S1131A00210100E010E09801B901A801CE018F592D
S1131A109F4F0E94210100E010E09801B901A80144
S1131A20CE0187599F4F0E94210100E010E09801E8
S1131A30B901A801CE018F589F4F0E94210100E0F7
S1131A4010E0980140E050E060E87FEBCE01875859
S1131A509F4F0E942101CB57DF4F79826882C5587E
S1131A60D040C957DF4F99828882C758D040CF579A
S1131A70DF4FB982A882C158D040CD57DF4FD982F9
S1131A80C882C358D0409E012F573F4FAE014B57D9
S1131A905F4F62E070E0C7010E946605AE014F5FD0
S1131AA05F4FBC01C7010E94A40742E050E0BC01A3
S1131AB0C7010E946A06C857DF4F0FB6F894DEBF0D
S1131AC00FBECDBFDF91CF911F910F91FF90EF908B
S1131AD0DF90CF90BF90AF909F908F907F906F904A
S1131AE008956F927F928F929F92AF92BF92CF92FE
S1131AF0DF92EF92FF920F931F93CF93DF93CDB7B3
S1131B00DEB7C858D1090FB6F894DEBF0FBECDBFFB
S1131B107C013B015A014901680100E010E0980191
S1131B2040E050E060E87FE3CE0101960E9421018D
S1131B3000E010E09801B901A801CE0109960E94C5
S1131B40210100E010E09801B901A801CE014196FD
S1131B500E94210100E010E09801B901A801CE0122
S1131B6049960E94210100E010E09801B901A80102
S1131B70CE0181960E94210100E010E09801B90194
S1131B80A801CE0189960E94210100E010E098018D
S1131B9040E050E060E87FE3CE01C1960E9421015D
S1131BA000E010E09801B901A801CE01C9960E9495
S1131BB0210100E010E09801B901A801CE018F5B7A
S1131BC09F4F0E94210100E010E0980140E050E0A6
S1131BD060E87FE3CE01875B9F4F0E94210100E014
S1131BE010E09801B901A801CE018F5A9F4F0E94BD
S1131BF0210100E010E09801B901A801CE01875A43
S1131C009F4F0E94210100E010E09801B901A80152
S1131C10CE018F599F4F0E94210100E010E09801EE
S1131C20B901A801CE0187599F4F0E94210100E00C
S1131C3010E09801B901A801CE018F589F4F0E946E
S1131C40210100E010E0980140E050E060E87FE30B
S1131C50CE0187589F4F0E942101CB57DF4F7982D5
S1131C606882C558D040C957DF4F99828882C758C7
S1131C70D040CF57DF4FB982A882C158D040CD574A
S1131C80DF4FD982C882C358D0409E012F573F4F9F
S1131C90AE014B575F4F62E070E0C7010E946605DA
S1131CA0AE014F5F5F4FBC01C7010E94A40742E031
S1131CB050E0BC01C7010E946A06C857DF4F0FB647
S1131CC0F894DEBF0FBECDBFDF91CF911F910F916E
S1131CD0FF90EF90DF90CF90BF90AF909F908F9048
S1131CE07F906F9008956F927F928F929F92AF92A0
S1131CF0BF92CF92DF92EF92FF920F931F93CF93F5
S1131D00DF93CDB7DEB7C858D1090FB6F894DEBF5C
S1131D100FBECDBF7C013B015A014901680100E0BF
S1131D2010E09801B901A801CE0101960E94210199
S1131D3000E010E0980140E050E060E87FE3CE016D
S1131D4009960E94210100E010E09801B901A80160
S1131D50CE0141960E94210100E010E09801B901F2
S1131D60A801CE0149960E94210100E010E09801EB
S1131D70B901A801CE0181960E94210100E010E082
S1131D809801B901A801CE0189960E94210100E0C1
S1131D9010E0980140E050E060E87FE3CE01C19696
S1131DA00E94210100E010E09801B901A801CE01D0
S1131DB0C9960E94210100E010E09801B901A80130
S1131DC0CE018F5B9F4F0E94210100E010E098013B
S1131DD0B901A801CE01875B9F4F0E94210100E059
S1131DE010E09801B901A801CE018F5A9F4F0E94BB
S1131DF0210100E010E0980140E050E060E87FE35A
S1131E00CE01875A9F4F0E94210100E010E0980103
S1131E1040E050E060E87FE3CE018F599F4F0E947D
S1131E20210100E010E09801B901A801CE01875911
S1131E309F4F0E94210100E010E09801B901A80120
S1131E40CE018F589F4F0E94210100E010E09801BD
S1131E50B901A801CE0187589F4F0E942101CB5799
S1131E60DF4F79826882C558D040C957DF4F9982C5
S1131E708882C758D040CF57DF4FB982A882C15853
S1131E80D040CD57DF4FD982C882C358D0409E017D
S1131E902F573F4FAE014B575F4F62E070E0C701D1
S1131EA00E946605AE014F5F5F4FBC01C7010E94EF
S1131EB0A40742E050E0BC01C7010E946A06C8576B
S1131EC0DF4F0FB6F894DEBF0FBECDBFDF91CF91C9
S1131ED01F910F91FF90EF90DF90CF90BF90AF9044
S1131EE09F908F907F906F9008956F927F928F92C2
S1131EF09F92AF92BF92CF92DF92EF92FF920F9395
S1131F001F93CF93DF93CDB7DEB7C858D1090FB66F
S1131F10F894DEBF0FBECDBF7C013B015A014901DD
S1131F20680100E010E09801B901A801CE01019612
S1131F300E94210100E010E09801B901A801CE013E
S1131F4009960E94210100E010E09801B901A8015E
S1131F50CE0141960E94210100E010E0980140E08A
S1131F6050E060E87FE3CE0149960E94210100E041
S1131F7010E0980140E050E060E87FE3CE018196F4
S1131F800E94210100E010E09801B901A801CE01EE
S1131F9089960E94210100E010E09801B901A8018E
S1131FA0CE01C1960E94210100E010E09801B90120
S1131FB0A801CE01C9960E94210100E010E0980119
S1131FC0B901A801CE018F5B9F4F0E94210100E05F
S1131FD010E0980140E050E060E87FE3CE01875BC9
S1131FE09F4F0E94210100E010E09801B901A8016F
S1131FF0CE018F5A9F4F0E94210100E010E098010A
S1132000B901A801CE01875A9F4F0E94210100E027
S113201010E09801B901A801CE018F599F4F0E9489
S1132020210100E010E09801B901A801CE0187590F
S11320309F4F0E94210100E010E0980140E050E031
S113204060E87FE3CE018F589F4F0E94210100E09A
S113205010E09801B901A801CE0187589F4F0E9452
S11320602101CB57DF4F79826882C558D040C957C8
S1132070DF4F99828882C758D040CF57DF4FB9824B
S1132080A882C158D040CD57DF4FD982C882C358E7
S1132090D0409E012F573F4FAE014B575F4F62E038
S11320A070E0C7010E946605AE014F5F5F4FBC013F
S11320B0C7010E94A40742E050E0BC01C7010E948E
S11320C06A06C857DF4F0FB6F894DEBF0FBECDBF08
S11320D0DF91CF911F910F91FF90EF90DF90CF9000
S11320E0BF90AF909F908F907F906F9008956F9264
S11320F07F928F929F92AF92BF92CF92DF92EF9294
S1132100FF920F931F93CF93DF93CDB7DEB7C858D9
S1132110D1090FB6F894DEBF0FBECDBF7C013B01E1
S11321205A014901680100E010E0980140E050E0E4
S113213060E87FE3CE0101960E94210100E010E0F7
S11321409801B901A801CE0109960E94210100E07D
S113215010E09801B901A801CE0141960E94210125
S113216000E010E09801B901A801CE0149960E944F
S1132170210100E010E09801B901A801CE01819687
S11321800E94210100E010E020E03FE3B901A80132
S1132190CE0189960E94210100E010E020E03FEB8F
S11321A040E050E060E07FE3CE01C1960E9421014F
S11321B000E010E09801B901A801CE01C9960E947F
S11321C0210100E010E09801B901A801CE018F5B64
S11321D09F4F0E94210100E010E020E03FEB40E02F
S11321E050E060E07FE3CE01875B9F4F0E942101B6
S11321F000E010E020E03FE3B901A801CE018F5ACE
S11322009F4F0E94210100E010E09801B901A8014C
S1132210CE01875A9F4F0E94210100E010E09801EF
S1132220B901A801CE018F599F4F0E94210100E0FE
S113223010E09801B901A801CE0187599F4F0E946F
S1132240210100E010E09801B901A801CE018F58E6
S11322509F4F0E94210100E010E0980140E050E00F
S113226060E87FE3CE0187589F4F0E942101CB573E
S1132270DF4F79826882C558D040C957DF4F9982B1
S11322808882C758D040CF57DF4FB982A882C1583F
S1132290D040CD57DF4FD982C882C358D0409E0169
S11322A02F573F4FAE014B575F4F62E070E0C701BD
S11322B00E946605AE014F5F5F4FBC01C7010E94DB
S11322C0A40742E050E0BC01C7010E946A06C85757
S11322D0DF4F0FB6F894DEBF0FBECDBFDF91CF91B5
S11322E01F910F91FF90EF90DF90CF90BF90AF9030
S11322F09F908F907F906F9008956F927F928F92AE
S11323009F92AF92BF92CF92DF92EF92FF920F9380
S11323101F93CF93DF93CDB7DEB7C858D1090FB65B
S1132320F894DEBF0FBECDBF7C013B015A014901C9
S1132330680100E010E0980140E050E060E87FE3CD
S1132340CE0101960E94210100E010E09801B9013C
S1132350A801CE0109960E94210100E010E0980135
S1132360B901A801CE0141960E94210100E010E0CC
S11323709801B901A801CE0149960E94210100E00B
S113238010E09801B901A801CE0181960E942101B3
S113239000E010E09801B901A801CE0189960E94DD
S11323A0210100E010E020E83FE340E050E0BA0102
S11323B0CE01C1960E94210100E010E09801B9010C
S11323C0A801CE01C9960E94210100E010E0980105
S11323D0B901A801CE018F5B9F4F0E94210100E04B
S11323E010E020E83FE340E050E0BA01CE01875B13
S11323F09F4F0E94210100E010E09801B901A8015B
S1132400CE018F5A9F4F0E94210100E010E09801F5
S1132410B901A801CE01875A9F4F0E94210100E013
S113242010E09801B901A801CE018F599F4F0E9475
S1132430210100E010E09801B901A801CE018759FB
S11324409F4F0E94210100E010E09801B901A8010A
S1132450CE018F589F4F0E94210100E010E09801A7
S113246040E050E060E87FE3CE0187589F4F0E9430
S11324702101CB57DF4F79826882C558D040C957B4
S1132480DF4F99828882C758D040CF57DF4FB98237
S1132490A882C158D040CD57DF4FD982C882C358D3
S11324A0D0409E012F573F4FAE014B575F4F62E024
S11324B070E0C7010E946605AE014F5F5F4FBC012B
S11324C0C7010E94A40742E050E0BC01C7010E947A
S11324D06A06C857DF4F0FB6F894DEBF0FBECDBFF4
S11324E0DF91CF911F910F91FF90EF90DF90CF90EC
S11324F0BF90AF909F908F907F906F9008952F9290
S11325003F924F925F926F927F928F929F92AF927F
S1132510BF92CF92DF92EF92FF920F931F93CF93CC
S1132520DF93CDB7DEB7A4970FB6F894DEBF0FBE26
S1132530CDBF7C011B016A01B901882777FD809515
S1132540982F0E9491302BED3FE049E450E40E9423
S1132550733220E030E044E353E40E94C52F20E0CE
S113256030E040E05FE30E9473324B015C010E9463
S1132570C22F2B013C0100E010E09801AB01BC012B
S1132580CE0101960E942101C501B4010E94D632F8
S11325904B015C01B7FAB094B7F8B094950184018B
S11325A040E050E0BA01CE0109960E942101950154
S11325B0840140E050E0BA01CE0141960E9421011D
S11325C000E010E09801B301A201CE0149960E94F7
S11325D021013CA22BA2DAA2C9A29E012F5D3F4F8A
S11325E0AE014D5D5F4F61E070E0C7010E9466057A
S11325F0AE014F5F5F4FBC01C7010E94E60641E098
S113260050E0BC01C7010E946A06A4960FB6F89474
S1132610DEBF0FBECDBFDF91CF911F910F91FF9011
S1132620EF90DF90CF90BF90AF909F908F907F906E
S11326306F905F904F903F902F9008952F923F920C
S11326404F925F926F927F928F929F92AF92BF92BE
S1132650CF92DF92EF92FF920F931F93CF93DF936A
S1132660CDB7DEB7A4970FB6F894DEBF0FBECDBFCB
S11326707C011B016A01B901882777FD8095982F99
S11326800E9491302BED3FE049E450E40E94733204
S113269020E030E044E353E40E94C52F20E030E022
S11326A040E05FE30E9473324B015C010E94C22F41
S11326B02B013C0100E010E09801AB01BC01CE010C
S11326C001960E942101C501B4010E94D6324B013A
S11326D05C01AB01BC01705800E010E09801CE0130
S11326E009960E94210100E010E09801B501A401BF
S11326F0CE0141960E94210100E010E09801B3014F
S1132700A201CE0149960E9421013CA22BA2DAA289
S1132710C9A29E012F5D3F4FAE014D5D5F4F61E049
S113272070E0C7010E946605AE014F5F5F4FBC01B8
S1132730C7010E94E60641E050E0BC01C7010E94C7
S11327406A06A4960FB6F894DEBF0FBECDBFDF9124
S1132750CF911F910F91FF90EF90DF90CF90BF909A
S1132760AF909F908F907F906F905F904F903F902D
S11327702F9008954F925F926F927F92AF92BF9283
S1132780CF92DF92EF92FF920F931F93CF93DF9339
S1132790CDB7DEB7A4970FB6F894DEBF0FBECDBF9A
S11327A07C015B016A01B901882777FD8095982F28
S11327B00E9491302BED3FE049E450E40E947332D3
S11327C020E030E044E353E40E94C52F2B013C0198
S11327D0905820E030E040E05FE30E9473320E94B2
S11327E032308B019C0140E050E0BA01CE010196E9
S11327F00E94210100E010E09801B901A801CE0176
S113280009960E94210100E010E09801B901A80195
S1132810CE0141960E94210120E030E040E05FE3D8
S1132820C301B2010E9473320E9432308B019C01B9
S113283040E050E0BA01CE0149960E942101BCA2B9
S1132840ABA2DAA2C9A29E012F5D3F4FAE014D5D3E
S11328505F4F61E070E0C7010E946605AE014F5F03
S11328605F4FBC01C7010E94E60641E050E0BC0195
S1132870C7010E946A06A4960FB6F894DEBF0FBE85
S1132880CDBFDF91CF911F910F91FF90EF90DF901B
S1132890CF90BF90AF907F906F905F904F900895CE
S11328A02F923F924F925F926F927F928F929F925C
S11328B0AF92BF92CF92DF92EF92FF920F931F934A
S11328C0CF93DF93CDB7DEB7CC50D2400FB6F89498
S11328D0DEBF0FBECDBF5C013B012A0149011801D7
S11328E000E010E0980140E050E060E87FE3CE01B2
S11328F001960E94210100E010E09801B901A801AD
S1132900CE0109960E94210100E010E09801B9016E
S1132910A801CE0141960E94210100E010E0980137
S1132920B901A801CE0149960E94210100E010E0FE
S11329309801B901A801CE0181960E94210100E00D
S113294010E09801B901A801CE0189960E942101E5
S113295000E010E09801B901A801CE01C1960E94DF
S1132960210100E010E09801B901A801CE01C99647
S11329700E94210100E010E09801B901A801CE01F4
S11329808F5B9F4F0E94210100E010E0980140E01E
S113299050E060E87FE3CE01875B9F4F0E942101F6
S11329A000E010E09801B901A801CE018F5A9F4FB1
S11329B00E94210100E010E09801B901A801CE01B4
S11329C0875A9F4F0E94210100E010E09801B9014D
S11329D0A801CE018F599F4F0E94210100E010E011
S11329E09801B901A801CE0187599F4F0E94210186
S11329F000E010E09801B901A801CE018F589F4F63
S1132A000E94210100E010E09801B901A801CE0163
S1132A1087589F4F0E94210100E010E09801B901FE
S1132A20A801CE018F579F4F0E94210100E010E0C2
S1132A309801B901A801CE0187579F4F0E94210137
S1132A4000E010E0980140E050E060E87FE3CE0150
S1132A508F569F4F0E94210100E010E09801B901B8
S1132A60A801CE0187569F4F0E94210100E010E08B
S1132A709801B901A801CE018F559F4F0E942101F1
S1132A8000E010E09801B901A801CE0187559F4FDD
S1132A900E94210100E010E09801B901A801CE01D3
S1132AA08F549F4F0E94210100E010E09801B9016A
S1132AB0A801CE0187549F4F0E94210100E010E03D
S1132AC09801B901A801CE018F539F4F0E942101A3
S1132AD000E010E09801B901A801CE0187539F4F8F
S1132AE00E94210100E010E09801B901A801CE0183
S1132AF08F529F4F0E94210100E010E0980140E0B6
S1132B0050E060E87FE3CE0187529F4F0E9421018D
S1132B1000E010E09801B901A801CE018F519F4F48
S1132B200E94210100E010E09801B901A801CE0142
S1132B3087519F4F0E94210100E010E09801B901E4
S1132B40A801CE018F509F4F0E94210100E010E0A8
S1132B509801B901A801CE0187509F4F0E9421011D
S1132B6000E010E09801B901A801CE018F5F9E4FEB
S1132B700E94210100E010E09801B901A801CE01F2
S1132B80875F9E4F0E94210100E010E09801B90187
S1132B90A801CE018F5E9E4F0E94210100E010E04B
S1132BA09801B901A801CE01875E9E4F0E942101C0
S1132BB000E010E0980140E050E060E87FE3CE01DF
S1132BC08F5D9E4F0E94210100E010E09801B90141
S1132BD0A801CE01875D9E4F0E94210100E010E014
S1132BE09801B901A801CE018F5C9E4F0E9421017A
S1132BF000E010E09801B901A801CE01875C9E4F66
S1132C000E94210100E010E09801B901A801CE0161
S1132C108F5B9E4F0E94210100E010E09801B901F2
S1132C20A801CE01875B9E4F0E94210100E010E0C5
S1132C309801B901A801CE018F5A9E4F0E9421012B
S1132C4000E010E09801B901A801CE01875A9E4F17
S1132C500E94210100E010E09801B901A801CE0111
S1132C608F599E4F0E94210100E010E09801B901A4
S1132C70A801CE0187599E4F0E94210100E010E077
S1132C80980140E050E060E87FE3CE018F589E4F0A
S1132C900E94210100E010E09801B901A801CE01D1
S1132CA087589E4F0E94210100E010E09801B9016D
S1132CB0A801CE018F579E4F0E94210100E010E031
S1132CC09801B901A801CE0187579E4F0E942101A6
S1132CD000E010E09801B901A801CE018F569E4F83
S1132CE00E94210100E010E09801B901A801CE0181
S1132CF087569E4F0E94210100E010E09801B9011F
S1132D00A801CE018F559E4F0E94210100E010E0E2
S1132D10980140E050E060E87FE3CE0187559E4F84
S1132D200E94210100E010E09801B901A801CE0140
S1132D308F549E4F0E94210100E010E09801B901D8
S1132D40A801CE0187549E4F0E94210100E010E0AB
S1132D509801B901A801CE018F539E4F0E94210111
S1132D6000E010E09801B901A801CE0187539E4FFD
S1132D700E94210100E010E09801B901A801CE01F0
S1132D808F529E4F0E94210100E010E09801B9018A
S1132D90A801CE0187529E4F0E94210100E010E05D
S1132DA09801B901A801CE018F519E4F0E942101C3
S1132DB000E010E09801B901A801CE0187519E4FAF
S1132DC00E94210100E010E09801B901A801CE01A0
S1132DD08F509E4F0E94210100E010E0980140E0D6
S1132DE050E060E87FE3CE0187509E4F0E942101AE
S1132DF0C95FDD4F79826882C750D240C75FDD4F1B
S1132E0099828882C950D240C55FDD4FF982E88239
S1132E10CB50D240CF5FDD4F59824882C150D2405F
S1132E20CD5FDD4F39822882C350D240CB5FDD4F66
S1132E30D982C882C550D2409E012F5F3D4FAE015A
S1132E40495F5D4F63E070E0C5010E946605AE0115
S1132E504F5F5F4FBC01C5010E944B0843E050E047
S1132E60BC01C5010E946A06C45FDD4F0FB6F89429
S1132E70DEBF0FBECDBFDF91CF911F910F91FF90A9
S1132E80EF90DF90CF90BF90AF909F908F907F9006
S1132E906F905F904F903F902F9008952F923F92A4
S1132EA04F925F926F927F928F929F92AF92BF9256
S1132EB0CF92DF92EF92FF920F931F93CF93DF9302
S1132EC0CDB7DEB7CC50D2400FB6F894DEBF0FBEFC
S1132ED0CDBF5C013B012A014901180100E010E06B
S1132EE0980140E050E060E87FE3CE0101960E9443
S1132EF0210100E010E09801B901A801CE01099672
S1132F000E94210100E010E09801B901A801CE015E
S1132F1041960E94210100E010E09801B901A80146
S1132F20CE0149960E94210100E010E09801B90108
S1132F30A801CE0181960E94210100E010E09801D1
S1132F40B901A801CE0189960E94210100E010E098
S1132F509801B901A801CE01C1960E94210100E0A7
S1132F6010E09801B901A801CE01C9960E9421017F
S1132F7000E010E09801B901A801CE018F5B9F4FDA
S1132F800E94210100E010E0980140E050E060E878
S1132F907FE3CE01875B9F4F0E94210100E010E098
S1132FA09801B901A801CE018F5A9F4F0E942101B7
S1132FB000E010E09801B901A801CE01875A9F4FA3
S1132FC00E94210100E010E09801B901A801CE019E
S1132FD08F599F4F0E94210100E010E09801B90130
S1132FE0A801CE0187599F4F0E94210100E010E003
S1132FF09801B901A801CE018F589F4F0E94210169
S113300000E010E09801B901A801CE0187589F4F54
S11330100E94210100E010E09801B901A801CE014D
S11330208F579F4F0E94210100E010E09801B901E1
S1133030A801CE0187579F4F0E94210100E010E0B4
S1133040980140E050E060E87FE3CE018F569F4F47
S11330500E94210100E010E09801B901A801CE010D
S113306087569F4F0E94210100E010E09801B901AA
S1133070A801CE018F559F4F0E94210100E010E06E
S11330809801B901A801CE0187559F4F0E942101E3
S113309000E010E09801B901A801CE018F549F4FC0
S11330A00E94210100E010E09801B901A801CE01BD
S11330B087549F4F0E94210100E010E09801B9015C
S11330C0A801CE018F539F4F0E94210100E010E020
S11330D09801B901A801CE0187539F4F0E94210195
S11330E000E010E09801B901A801CE018F529F4F72
S11330F00E94210100E010E0980140E050E060E807
S11331007FE3CE0187529F4F0E94210100E010E02F
S11331109801B901A801CE018F519F4F0E9421014E
S113312000E010E09801B901A801CE0187519F4F3A
S11331300E94210100E010E09801B901A801CE012C
S11331408F509F4F0E94210100E010E09801B901C7
S1133150A801CE0187509F4F0E94210100E010E09A
S11331609801B901A801CE018F5F9E4F0E942101F1
S113317000E010E09801B901A801CE01875F9E4FDD
S11331800E94210100E010E09801B901A801CE01DC
S11331908F5E9E4F0E94210100E010E09801B9016A
S11331A0A801CE01875E9E4F0E94210100E010E03D
S11331B0980140E050E060E87FE3CE018F5D9E4FD0
S11331C00E94210100E010E09801B901A801CE019C
S11331D0875D9E4F0E94210100E010E09801B90133
S11331E0A801CE018F5C9E4F0E94210100E010E0F7
S11331F09801B901A801CE01875C9E4F0E9421016C
S113320000E010E09801B901A801CE018F5B9E4F48
S11332100E94210100E010E09801B901A801CE014B
S1133220875B9E4F0E94210100E010E09801B901E4
S1133230A801CE018F5A9E4F0E94210100E010E0A8
S11332409801B901A801CE01875A9E4F0E9421011D
S113325000E010E09801B901A801CE018F599E4FFA
S11332600E94210100E010E0980140E050E060E895
S11332707FE3CE0187599E4F0E94210100E010E0B8
S11332809801B901A801CE018F589E4F0E942101D7
S113329000E010E09801B901A801CE0187589E4FC3
S11332A00E94210100E010E09801B901A801CE01BB
S11332B08F579E4F0E94210100E010E09801B90150
S11332C0A801CE0187579E4F0E94210100E010E023
S11332D09801B901A801CE018F569E4F0E94210189
S11332E000E010E09801B901A801CE0187569E4F75
S11332F00E94210100E010E09801B901A801CE016B
S11333008F559E4F0E94210100E010E09801B90101
S1133310A801CE0187559E4F0E94210100E010E0D4
S11333209801B901A801CE018F549E4F0E9421013A
S113333000E010E0980140E050E060E87FE3CE0157
S113334087549E4F0E94210100E010E09801B901CA
S1133350A801CE018F539E4F0E94210100E010E08E
S11333609801B901A801CE0187539E4F0E94210103
S113337000E010E09801B901A801CE018F529E4FE0
S11333800E94210100E010E09801B901A801CE01DA
S113339087529E4F0E94210100E010E09801B9017C
S11333A0A801CE018F519E4F0E94210100E010E040
S11333B09801B901A801CE0187519E4F0E942101B5
S11333C000E010E0980140E050E060E87FE3CE01C7
S11333D08F509E4F0E94210100E010E09801B90136
S11333E0A801CE0187509E4F0E942101C95FDD4F85
S11333F079826882C750D240C75FDD4F9982888244
S1133400C950D240C55FDD4FF982E882CB50D2402B
S1133410CF5FDD4F59824882C150D240CD5FDD4F2E
S113342039822882C350D240CB5FDD4FD982C88213
S1133430C550D2409E012F5F3D4FAE01495F5D4FA5
S113344063E070E0C5010E946605AE014F5F5F4F07
S1133450BC01C5010E944B0843E050E0BC01C5011A
S11334600E946A06C45FDD4F0FB6F894DEBF0FBE3C
S1133470CDBFDF91CF911F910F91FF90EF90DF901F
S1133480CF90BF90AF909F908F907F906F905F9000
S11334904F903F902F9008952F923F924F925F92BA
S11334A06F927F928F929F92AF92BF92CF92DF9250
S11334B0EF92FF920F931F93CF93DF93CDB7DEB7B5
S11334C0C451D2400FB6F894DEBF0FBECDBFC35F68
S11334D0DD4F99838883CD50D2402B01C15FDD4FEE
S11334E059834883CF50D2403901CF5EDD4F1983D1
S11334F00883C151D2401701CD5EDD4FD982C88205
S1133500C351D240B501882777FD8095982F0E943A
S113351091302BED3FE049E450E40E94733220E007
S113352030E044E353E40E94C52F4B015C0100E00A
S113353010E0980140E050E060E87FE3CE0101969E
S11335400E94210100E010E09801B901A801CE0118
S113355009960E94210100E010E09801B901A80138
S1133560CE0141960E94210100E010E09801B901CA
S1133570A801CE0149960E94210100E010E09801C3
S1133580B901A801CE0181960E94210100E010E05A
S11335909801B901A801CE0189960E94210100E099
S11335A010E09801B901A801CE01C1960E94210141
S11335B000E010E09801B901A801CE01C9960E946B
S11335C0210100E010E09801B901A801CE018F5B50
S11335D09F4F0E94210100E010E0980140E050E07C
S11335E060E87FE3CE01875B9F4F0E94210100E0EA
S11335F010E09801B901A801CE018F5A9F4F0E9493
S1133600210100E010E09801B901A801CE01875A18
S11336109F4F0E94210100E010E09801B901A80128
S1133620CE018F599F4F0E94210100E010E09801C4
S1133630B901A801CE0187599F4F0E94210100E0E2
S113364010E09801B901A801CE018F589F4F0E9444
S1133650210100E010E09801B901A801CE018758CA
S11336609F4F0E94210100E010E09801B901A801D8
S1133670CE018F579F4F0E94210100E010E0980176
S1133680B901A801CE0187579F4F0E94210100E094
S113369010E0980140E050E060E87FE3CE018F56EF
S11336A09F4F0E94210100E010E09801B901A80198
S11336B0CE0187569F4F0E94210100E010E098013F
S11336C0B901A801CE018F559F4F0E94210100E04E
S11336D010E09801B901A801CE0187559F4F0E94BF
S11336E0210100E010E09801B901A801CE018F5436
S11336F09F4F0E94210100E010E09801B901A80148
S1133700CE0187549F4F0E94210100E010E09801F0
S1133710B901A801CE018F539F4F0E94210100E0FF
S113372010E09801B901A801CE0187539F4F0E9470
S1133730210100E010E09801B901A801CE018F52E7
S11337409F4F0E94210100E010E0980140E050E00A
S113375060E87FE3CE0187529F4F0E94210100E081
S113376010E09801B901A801CE018F519F4F0E942A
S1133770210100E010E09801B901A801CE018751B0
S11337809F4F0E94210100E010E09801B901A801B7
S1133790CE018F509F4F0E94210100E010E098015C
S11337A0B901A801CE0187509F4F0E94210100E07A
S11337B010E09801B901A801CE018F5F9E4F0E94CD
S11337C0210100E010E09801B901A801CE01875F52
S11337D09E4F0E94210100E010E09801B901A80168
S11337E0CE018F5E9E4F0E94210100E010E09801FF
S11337F0B901A801CE01875E9E4F0E94210100E01D
S113380010E0980140E050E060E87FE3CE018F5D76
S11338109E4F0E94210100E010E09801B901A80127
S1133820CE01875D9E4F0E94210100E010E09801C7
S1133830B901A801CE018F5C9E4F0E94210100E0D6
S113384010E09801B901A801CE01875C9E4F0E9447
S1133850210100E010E09801B901A801CE018F5BBD
S11338609E4F0E94210100E010E09801B901A801D7
S1133870CE01875B9E4F0E94210100E010E0980179
S1133880B901A801CE018F5A9E4F0E94210100E088
S113389010E09801B901A801CE01875A9E4F0E94F9
S11338A0210100E010E09801B901A801CE018F596F
S11338B09E4F0E94210100E010E0980140E050E09A
S11338C060E87FE3CE0187599E4F0E94210100E00A
S11338D010E09801B901A801CE018F589E4F0E94B3
S11338E0210100E010E09801B901A801CE01875838
S11338F09E4F0E94210100E010E09801B901A80147
S1133900CE018F579E4F0E94210100E010E09801E4
S1133910B901A801CE0187579E4F0E94210100E002
S113392010E09801B901A801CE018F569E4F0E9464
S1133930210100E010E09801B901A801CE018756E9
S11339409E4F0E94210100E010E09801B901A801F6
S1133950CE018F559E4F0E94210100E010E0980196
S1133960B901A801CE0187559E4F0E942101C501CE
S1133970B4010E94C22F6B017C018B019C0140E0C9
S113398050E0BA01CE018F549E4F0E942101C5011F
S1133990B4010E94D6324B015C0100E010E09801B2
S11339A0AB01BC01CE0187549E4F0E94210100E06F
S11339B010E09801B901A801CE018F539E4F0E94D7
S11339C0210100E010E09801B901A801CE0187535C
S11339D09E4F0E94210100E010E09801B901A80166
S11339E0CE018F529E4F0E94210100E010E0980109
S11339F0B901A801CE0187529E4F0E94210100E027
S1133A0010E09801B901A801CE018F519E4F0E9488
S1133A10210100E010E09801B901A801CE0187510D
S1133A209E4F0E94210100E010E09801B501A4011D
S1133A30CE018F509E4F0E9421019701860140E0E4
S1133A4050E0BA01CE0187509E4F0E942101C95F08
S1133A50DD4F59824882C750D240C75FDD4F79821B
S1133A606882C950D240C55FDD4F39822882CB506D
S1133A70D240C15FDD4F88819981CF50D240CF5F62
S1133A80DD4F99838883C150D240CF5EDD4F88815A
S1133A909981C151D240CD5FDD4F99838883C35052
S1133AA0D240CD5EDD4F88819981C351D240CB5F36
S1133AB0DD4F99838883C550D2409E012F5F3D4FCF
S1133AC0AE01495F5D4F63E070E0C35FDD4F888105
S1133AD09981CD50D2400E946605AE014F5F5F4F81
S1133AE0BC01C35FDD4F88819981CD50D2400E94D3
S1133AF04B0843E050E0BC01C35FDD4F88819981EE
S1133B00CD50D2400E946A06CC5EDD4F0FB6F894C9
S1133B10DEBF0FBECDBFDF91CF911F910F91FF90FC
S1133B20EF90DF90CF90BF90AF909F908F907F9059
S1133B306F905F904F903F902F90089587EF90E0A3
S1133B400E94622E08955F926F927F928F929F924D
S1133B50AF92BF92CF92DF92EF92FF920F931F9397
S1133B60CF93DF936C014B01C0E0D0E08C0106528F
S1133B701F4F7C018FEFE81AF80A5601E3E0AE0EFE
S1133B80B11C55245394CFC0F2E08F169104E1F197
S1133B9044F48114910491F0E1E08E169104F1F063
S1133BA0F3CFF4E08F16910409F45AC00CF440C02A
S1133BB0E5E08E16910409F483C0E6CF60E070E07E
S1133BC0C6010E947620BC01C5010E94652D682FA4
S1133BD0C7010E946E2EF8015082A5C060E070E01B
S1133BE0C6010E947620BC016C0F7D1FC5010E9496
S1133BF0652D843219F4F801508295C0682FC701ED
S1133C000E946E2E21968FC0C7010E946A2E782EC4
S1133C1061E070E0C6010E947620472D50E0BC01AF
S1133C206C0F7D1FC5010E94D02DF80150827BC00E
S1133C30C7010E946A2E782E682FC7010E946E2E3B
S1133C4061E070E0C6010E947620472D50E0BE017D
S1133C50680F791FC5010E94D02DF801508263C0FE
S1133C60C7010E946A2E682E712CFDE06F16710444
S1133C7081F4F801508261E070E0C6010E94762070
S1133C80BE01680F791F44E250E0C5010E94D02DA7
S1133C904AC0F8E06F16710429F41C161D0614F4CA
S1133CA0219741C061E070E0C6010E947620BE0108
S1133CB0680F791FA301C5010E94D02D219633C03E
S1133CC0C7010E946A2E682E712C682FC7010E94BA
S1133CD06E2E8DE06816710481F4F801508261E063
S1133CE070E0C6010E947620BE01680F791F44E28D
S1133CF050E0C5010E94D02D16C0F8E06F16710483
S1133D0029F41C161D0614F421970DC061E070E01F
S1133D10C6010E947620BE01680F791FA301C50168
S1133D200E94D02D2196F8018081882309F42CCF9C
S1133D30F601E652FF4F1082DF91CF911F910F9150
S1133D40FF90EF90DF90CF90BF90AF909F908F90B7
S1133D507F906F905F900895FC0111821082089506
S1133D60FC01208131812F5F3F4FF901EE0FFF1FCE
S1133D70E80FF91F71836083FC0131832083089568
S1133D80FC018081918118161906ACF40197DC01BD
S1133D90AA0FBB1FAE0FBF1F12963C91129713962A
S1133DA02C91139713961C921E92129791838083E1
S1133DB0832F922F089580E090E0089580E090E0B2
S1133DC00E947B380E9430350E942B3560E177E2F7
S1133DD00E944733BC0180E090E00E94813808953E
S1133DE00F931F93CF93DF93EC010E9402038E0184
S1133DF00F5F1F4FC8010E94622ECE0102960E94DF
S1133E003F02CE0103960E941B2DCE010A960E940A
S1133E103D03CE010B960E94AC1E6AE670E0C80119
S1133E200E94722ECE010E94DE1E8FEF8ABBFE011D
S1133E30EA52FF4F11821082C852DF4F1982188252
S1133E40DF91CF911F910F91089575B321E030E078
S1133E50C901062E02C0880F991F0A94E2F78095C3
S1133E60872385BB85B302C0440F551F6A95E2F7CB
S1133E70482B45BB08952FEF24BB40E050E064E09D
S1133E8070E00E94251F0895AF92BF92CF92DF92F7
S1133E90EF92FF920F931F93CF93DF9300D000D044
S1133EA000D0CDB7DEB78C01CB018F7099279A83F0
S1133EB08983CB01807F99279595879595958795DB
S1133EC095958795959587959C838B8366277F70B9
S1133ED0872F880F880B7D838E838FEF8ABB84BBEB
S1133EE089818BBB41E050E062E070E0C8010E9430
S1133EF0251F41E050E063E070E0C8010E94251FE7
S1133F0040E050E063E070E0C8010E94251F40E0FB
S1133F1050E062E070E0C8010E94251F680185ED51
S1133F20C80ED11C61E070E0C6010E94BE2E7E0165
S1133F3093E0E90EF11C5E01E7E0AE0EB11C41E036
S1133F4050E063E070E0C8010E94251F40E050E0AB
S1133F5063E070E0C8010E94251FF7018081F2E050
S1133F60EF0EF11C8BBB61E070E0C6010E94BE2E17
S1133F70EA14FB0421F741E050E063E070E0C8017B
S1133F800E94251F40E050E063E070E0C8010E94F9
S1133F90251F41E050E064E070E0C8010E94251F45
S1133FA026960FB6F894DEBF0FBECDBFDF91CF913A
S1133FB01F910F91FF90EF90DF90CF90BF90AF9043
S1133FC008957BB321E030E0C901062E02C0880FBA
S1133FD0991F0A94E2F7809587238BBB8BB302C0A9
S1133FE0440F551F6A95E2F7482B4BBB0895FF9287
S1133FF00F931F93CF93DF93EC018A01FF24FA946C
S1134000F7BAF7BA28BB0E94441FA80164E070E025
S1134010CE010E94E11F41E050E066E070E0CE0175
S11340200E94E11F40E050E066E070E0CE010E9493
S1134030E11FF7BA18BACE010E943B1FDF91CF915E
S11340401F910F91FF900895FF920F931F93CF93A9
S1134050DF93EC018A01F22E17BA0E94441F41E05B
S113406050E065E070E0CE010E94E11FA80164E029
S113407070E0CE010E94E11F06B310E08FEF87BB12
S1134080F11004C01BBACE010E943B1FC801DF918E
S1134090CF911F910F91FF900895CF93DF93EC017F
S11340A0882777FD8095982F0E9491302BED3FE073
S11340B049E450E40E94733220E030E044EB53E4DE
S11340C00E94C52F0E94D632AB01BC0122E030E031
S11340D0CE018B529F4F0E94CC2EAB01BC01CE016E
S11340E00A960E943E03DF91CF9108958F929F928A
S11340F0AF92BF92CF92DF92EF92FF920F931F93F2
S1134100CF93DF93CDB7DEB729970FB6F894DEBF10
S11341100FBECDBF5C0119821A821B821C82FE0174
S1134120359685E0DF011D928A95E9F74B01880CED
S1134130991C880C991C880C991CE12CF12C8E017B
S11341400F5F1F4F0F2EFEE7CF2EF0E0DF2EF02D76
S1134150B701680D791D20E040E050E0C5010E94E0
S11341602420BC01C5010E944D209F938F931F936F
S11341700F93DF92CF921F930F930E948736BFEF66
S1134180EB1AFB0A0FB6F894DEBF0FBECDBF98E062
S1134190E916F104E9F6CE0101960E94773642E071
S11341A050E060E070E0CE0101960E943B35CB0107
S11341B029960FB6F894DEBF0FBECDBFDF91CF9125
S11341C01F910F91FF90EF90DF90CF90BF90AF9031
S11341D09F908F900895CF92DF92EF92FF920F936A
S11341E01F93CF93DF936C018B01BA0148E050E039
S11341F08B529F4F0E94932ED82FC92F0E9477363F
S1134200ED2EFC2E000F111F000F111F000F111FA8
S1134210C0E0D0E0F70181917F01813349F424EBC0
S113422030E040E050E0B801C6010E94F71F08C02A
S113423020E030E040E050E0B801C6010E94F71FE2
S113424021960F5F1F4FC830D10521F7DF91CF9121
S11342501F910F91FF90EF90DF90CF9008952F92D0
S11342603F924F925F926F927F928F929F92AF9202
S1134270BF92CF92DF92EF92FF920F931F93CF934F
S1134280DF93CDB7DEB72A970FB6F894DEBF0FBE23
S1134290CDBF4C011B0129013A01E982FA820B834B
S11342A01C83AD82BE82CF82D8868CE090E00E94CF
S11342B0B6338C01F1013197E135F10510F00C941E
S11342C0B12BE65DFF4F0C947A3320E040E050E0E0
S11342D069817A81C4010E9424209C0140E050E05D
S11342E0B201C4010E94F71F20E041E050E069815F
S11342F07A81C4010E9424209C0141E050E0B20173
S1134300C4010E94F71F0C94B12BB201C4010E9496
S11343107620AC01B201C4010E94EB2069817A814C
S1134320C4010E947620AC01B201C4010E94EB20BA
S11343300C94B12B23E0820E911C69817A81C40113
S11343400E94652D482F552747FD5095B201C401A1
S11343500E94D02D0C94B12B69817A81C4010E94F2
S11343607620AC01B201C40103960E94D02D0C94B6
S1134370B12B69817A81C40103960E94652D482F6F
S1134380552747FD5095B201C4010E94EB200C94BF
S1134390B12B49815A81B201C40103960E94D02DE8
S11343A00C94B12B49815A81B201C4010E94EB20C3
S11343B00C94B12BC40103960E94F82DAC01B201F8
S11343C0C4010E94EB200C94B12BB201C4010E94E1
S11343D07620BC01C40103960E94162E0C94B12BC6
S11343E029813A8140E050E0B201C4010E94F71FE4
S11343F00C94B12B29813A8141E050E0B201C4010F
S11344000E94F71F0C94B12B69817A81C4010E9428
S113441076207C01B201C4010E947620B7010E947B
S113442006030C94B12BF201E251FF4F3981308322
S11344300C94B12BE981FA81E251FF4F4081552759
S113444047FD5095B201C40103960E94D02D0C94EF
S1134450B12B4092F6000C94B12B8091EE0088238E
S113446011F40C94B12B740186EDE80EF11CD70104
S11344706D917C916F5F7F4FC4010B960E94B01EBB
S1134480B1E04B1A5108F701518240820C94B12BD0
S11344908091EF00882311F40C94B12B8091F600E5
S11344A0882359F0F401EA52FF4F608171816F5FF4
S11344B07F4FC4010B960E94B01EF401EA52FF4FD5
S11344C021E0421A5108518240820C94B12B809110
S11344D0F000882311F40C94B12B8091F60088230A
S11344E059F0F401EA52FF4F608171816F5F7F4F91
S11344F0C4010B960E94B01EF401EA52FF4F31E052
S1134500431A5108518240820C94B12B8091F100DE
S1134510882311F40C94B12B8091F600882359F070
S1134520F401EA52FF4F608171816F5F7F4FC401D4
S11345300B960E94B01EF401EA52FF4F81E0481A24
S11345405108518240820C94B12B8091F20088234F
S113455011F40C94B12B8091F600882359F0F401E6
S1134560EA52FF4F608171816F5F7F4FC4010B96E8
S11345700E94B01EF401EA52FF4F91E0491A51081B
S1134580518240820C94B12B8091F300882311F462
S11345900C94B12B8091F600882359F0F401EA526F
S11345A0FF4F608171816F5F7F4FC4010B960E9442
S11345B0B01EF401EA52FF4FA1E04A1A5108518299
S11345C040820C94B12B8091F400882311F40C9454
S11345D0B12B8091F600882359F0F401EA52FF4F81
S11345E0608171816F5F7F4FC4010B960E94B01E82
S11345F0F401EA52FF4FB1E04B1A51085182408254
S11346000C94B12B8091F500882311F40C94B12BF8
S11346108091F600882359F0F401EA52FF4F60813B
S113462071816F5F7F4FC4010B960E94B01EF4012D
S1134630EA52FF4F21E0421A5108518240820C9401
S1134640B12B740136EDE30EF11CD7016D917C9111
S11346506F5F7F4FC4010B960E94B01EB1E04B1AEE
S11346605108F701518240820C94B12BC4010B967E
S11346700E94C01EF401EA52FF4F01979183808388
S11346800C94B12BF401EA52FF4F21E0421A510875
S1134690518240820C94B12B33E0830E911C6981CA
S11346A07A81C4010E94652DF82E6D817E81C4013A
S11346B00E94652D482F552747FD50954F0D511DDC
S11346C0F7FC5A95B201C4010E94D02D0C94B12B71
S11346D083E0880E911C69817A81C4010E94652D52
S11346E0482F552747FD5095AD81BE814A0F5B1F6A
S11346F0B201C4010E94D02D0C94B12BB3E08B0EF7
S1134700911C69817A81C4010E94652DF82E6D8106
S11347107E81C4010E94652D4F2D552747FD50957C
S1134720481B510987FD5395B201C4010E94D02D45
S11347300C94B12BE3E08E0E911C69817A81C40143
S11347400E94652D482F552747FD50952D813E81A8
S1134750421B530BB201C4010E94D02D0C94B12B07
S113476033E0830E911C6D817E81C4010E94652D0E
S1134770992787FD909549815A81481B590BB201AD
S1134780C4010E94D02DEDC783E0880E911C69817D
S11347907A81C4010E94652DF82E6D817E81C40149
S11347A00E94652D9F2D9802A0011124B201C4011D
S11347B00E94D02DD6C7A3E08A0E911C69817A810C
S11347C0C4010E94652D992787FD9095ED81FE8196
S11347D08E9FA0018F9F500D9E9F500D1124B201FA
S11347E0C4010E94D02DBDC7F3E08F0E911C6981D6
S11347F07A81C4010E94652DF82E6D817E81C401E9
S11348000E94652D682F8F2D992787FD9095772716
S113481067FD70950E944733AB01B201C4010E9449
S1134820D02D9FC723E0820E911C69817A81C40137
S11348300E94652D682F772767FD7095872F972F26
S11348402D813E814F8158850E945B33A901B201BD
S1134850C4010E94D02D85C733E0830E911C6D8165
S11348607E81C4010E94652D282F332727FD3095B2
S1134870432F532F69817A818B819C810E945B3302
S1134880A901B201C4010E94D02D6BC783E0880E38
S1134890911C69817A81C4010E94652DF82E6D8175
S11348A07E81C4010E94652D8F21482F552747FD25
S11348B05095B201C4010E94D02D53C793E0890ED4
S11348C0911C69817A81C4010E94652D482F552766
S11348D047FD5095AD81BE814A235B23B201C401DB
S11348E00E94D02D3EC7B3E08B0E911C6D817E815A
S11348F0C4010E94652D482F552747FD5095E98135
S1134900FA814E235F23B201C4010E94D02D29C72E
S1134910F3E08F0E911C69817A81C4010E94652D98
S1134920F82E6D817E81C4010E94652D8F29482F48
S1134930552747FD5095B201C4010E94D02D11C7DF
S113494023E0820E911C69817A81C4010E94652D45
S1134950482F552747FD50958D819E81482B592B13
S1134960B201C4010E94D02DFCC693E0890E911CB3
S11349706D817E81C4010E94652D482F552747FD16
S11349805095A981BA814A2B5B2BB201C4010E94C4
S1134990D02DE7C6B3E08B0E911C69817A81C401E6
S11349A00E94652DF82E6D817E81C4010E94652DC3
S11349B08F29482F552747FD509540955095B201B2
S11349C0C4010E94D02DCDC6E3E08E0E911C6981F6
S11349D07A81C4010E94652D482F552747FD5095C3
S11349E02D813E81422B532B40955095B201C40139
S11349F00E94D02DB6C633E0830E911C6D817E815A
S1134A00C4010E94652D482F552747FD5095898183
S1134A109A81482B592B40955095B201C4010E94AC
S1134A20D02D9FC693E0890E911C69817A81C401BF
S1134A300E94652DF82E6D817E81C4010E94652D32
S1134A408F25482F552747FD5095B201C4010E9478
S1134A50D02D87C6A3E08A0E911C69817A81C40196
S1134A600E94652D482F552747FD5095ED81FE8105
S1134A704E275F27B201C4010E94D02D72C6F3E015
S1134A808F0E911C6D817E81C4010E94652D482F7B
S1134A90552747FD509529813A8142275327B20172
S1134AA0C4010E94D02D5DC633E0830E911C698140
S1134AB07A81C4010E94652DF82E6D817E81C40126
S1134AC00E94652D8F21482F552747FD509540950D
S1134AD05095B201C4010E94D02D43C683E0880ED4
S1134AE0911C69817A81C4010E94652D482F552744
S1134AF047FD5095AD81BE814A235B234095509577
S1134B00B201C4010E94D02D2CC6B3E08B0E911CBF
S1134B106D817E81C4010E94652D482F552747FD74
S1134B205095E981FA814E235F2340955095B20157
S1134B30C4010E94D02D15C6F3E08F0E911C69812B
S1134B407A81C4010E94652D482F552747FD509551
S1134B5040955095B201C4010E94D02D02C623E0B5
S1134B60820E911C69817A81C4010E94652DF82E00
S1134B706D817E81C4010E94652D2F2D332727FD71
S1134B803095A90102C0440F551F8A95E2F7B2017E
S1134B90C4010E94D02DE5C533E0830E911C6981C8
S1134BA07A81C4010E94652D482F552747FD5095F1
S1134BB00D8002C0440F551F0A94E2F7B201C401EC
S1134BC00E94D02DCEC583E0880E911C69817A8124
S1134BD0C4010E94652D49815A816B817C8104C086
S1134BE0440F551F661F771F8A95D2F7B201C4017F
S1134BF00E94D02DB6C593E0890E911C69817A81FB
S1134C00C4010E94652DF82E6D817E81C4010E942D
S1134C10652D2F2D332727FD3095A90102C0559509
S1134C2047958A95E2F7B201C4010E94D02D99C537
S1134C30A3E08A0E911C69817A81C4010E94652DCA
S1134C40482F552747FD50950D8002C0559547952F
S1134C500A94E2F7B201C4010E94D02D82C5B3E0E8
S1134C608B0E911C69817A81C4010E94652D498152
S1134C705A816B817C8104C07595679557954795DA
S1134C808A95D2F7B201C4010E94D02D6AC5B2013F
S1134C90C4010E94A31D65C5B201C4018B529F4F7C
S1134CA00E94BE2E5EC5F401EA52FF4FD401A85201
S1134CB0BF4F8D919C919183808353C520E041E047
S1134CC050E0B201C4010E9424208C0120E040E0A5
S1134CD050E0B201C4010E942420A801BC01C40117
S1134CE00A960E94EE088C01FC012081318140E08B
S1134CF050E0B201C4010E94F71FD80112962D9111
S1134D003C91139741E050E0B201C4010E94F71FA7
S1134D1028C520E041E050E0B201C4010E942420F3
S1134D208C0120E040E050E0B201C4010E94242044
S1134D30A801BC01C4010A960E9458098C01FC0117
S1134D402081318140E050E0B201C4010E94F71F8C
S1134D50D80112962D913C91139741E050E0B20195
S1134D60C4010E94F71FFDC420E041E050E0B201FD
S1134D70C4010E9424208C0120E040E050E0B201F4
S1134D80C4010E942420A801BC01C4010A960E9407
S1134D90C2098C01FC012081318140E050E0B20164
S1134DA0C4010E94F71FD80112962D913C911397CC
S1134DB041E050E0B201C4010E94F71FD2C420E0D8
S1134DC041E050E0B201C4010E9424208C0120E0A3
S1134DD040E050E0B201C4010E942420A801BC01BB
S1134DE0C4010A960E942C0A8C01FC0120813181A5
S1134DF040E050E0B201C4010E94F71FD8011296AE
S1134E002D913C91139741E050E0B201C4010E94FE
S1134E10F71FA7C420E041E050E0B201C4010E94A2
S1134E2024208C0120E040E050E0B201C4010E9443
S1134E302420A801BC01C4010A960E949A0A8C018C
S1134E40FC012081318140E050E0B201C4010E94A4
S1134E50F71FD80112962D913C91139741E050E031
S1134E60B201C4010E94F71F7CC420E041E050E07D
S1134E70B201C4010E9424208C0120E040E050E0F3
S1134E80B201C4010E942420A801BC01C4010A96F5
S1134E900E94040B8C01FC012081318140E050E030
S1134EA0B201C4010E94F71FD80112962D913C91C2
S1134EB0139741E050E0B201C4010E94F71F51C4AE
S1134EC020E041E050E0B201C4010E9424208C01A2
S1134ED020E040E050E0B201C4010E942420298176
S1134EE03A81A801BC01C4010A960E947F128C0178
S1134EF0FC012081318140E050E0B201C4010E94F4
S1134F00F71FD80112962D913C91139741E050E080
S1134F10B201C4010E94F71F24C420E041E050E024
S1134F20B201C4010E9424208C0120E040E050E042
S1134F30B201C4010E94242029813A81A801BC0144
S1134F40C4010A960E941E138C01FC012081318148
S1134F5040E050E0B201C4010E94F71FD80112964C
S1134F602D913C91139741E050E0B201C4010E949D
S1134F70F71FF7C320E041E050E0B201C4010E94F2
S1134F8024208C0120E040E050E0B201C4010E94E2
S1134F90242029813A81A801BC01C4010A960E94F7
S1134FA0BA138C01FC012081318140E050E0B20150
S1134FB0C4010E94F71FD80112962D913C911397BA
S1134FC041E050E0B201C4010E94F71FCAC320E0CF
S1134FD041E050E069817A81C4010E9424208C015F
S1134FE020E040E050E069817A81C4010E942420DD
S1134FF06C0120E041E050E0B201C4010E94242091
S11350007C0120E040E050E0B201C4010E94242071
S11350109601A701BC01C4010A960E946D0B8C0184
S1135020FC012081318140E050E0B201C4010E94C2
S1135030F71FD80112962D913C91139741E050E04F
S1135040B201C4010E94F71FF8012481358140E0B8
S113505050E069817A81C4010E94F71FD801169635
S11350602D913C91179741E050E069817A81C40108
S11350700E94F71F76C320E041E050E069817A8105
S1135080C4010E9424208C0120E040E050E06981AA
S11350907A81C4010E9424206C0120E041E050E0A8
S11350A0B201C4010E9424207C0120E040E050E0D1
S11350B0B201C4010E9424209601A701BC01C401CD
S11350C00A960E946F0C8C01FC012081318140E022
S11350D050E0B201C4010E94F71FD80112962D912D
S11350E03C91139741E050E0B201C4010E94F71FC4
S11350F0F8012481358140E050E069817A81C4015E
S11351000E94F71FD80116962D913C91179741E004
S113511050E069817A81C4010E94F71F22C320E014
S113512041E050E069817A81C4010E9424208C010D
S113513020E040E050E069817A81C4010E9424208B
S11351406C0120E041E050E0B201C4010E9424203F
S11351507C0120E040E050E0B201C4010E94242020
S11351609601A701BC01C4010A960E94710D8C012D
S1135170FC012081318140E050E0B201C4010E9471
S1135180F71FD80112962D913C91139741E050E0FE
S1135190B201C4010E94F71FF8012481358140E067
S11351A050E069817A81C4010E94F71FD8011696E4
S11351B02D913C91179741E050E069817A81C401B7
S11351C00E94F71FCEC220E041E050E069817A815D
S11351D0C4010E9424208C0120E040E050E0698159
S11351E07A81C4010E9424206C0120E041E050E057
S11351F0B201C4010E9424207C0120E040E050E080
S1135200B201C4010E9424209601A701BC01C4017B
S11352100A960E94730E8C01FC012081318140E0CA
S113522050E0B201C4010E94F71FD80112962D91DB
S11352303C91139741E050E0B201C4010E94F71F72
S1135240F8012481358140E050E069817A81C4010C
S11352500E94F71FD80116962D913C91179741E0B3
S113526050E069817A81C4010E94F71F7AC220E06C
S113527041E050E069817A81C4010E9424208C01BC
S113528020E040E050E069817A81C4010E9424203A
S11352906C0120E041E050E0B201C4010E942420EE
S11352A07C0120E040E050E0B201C4010E942420CF
S11352B09601A701BC01C4010A960E94750F8C01D6
S11352C0FC012081318140E050E0B201C4010E9420
S11352D0F71FD80112962D913C91139741E050E0AD
S11352E0B201C4010E94F71FF8012481358140E016
S11352F050E069817A81C4010E94F71FD801169693
S11353002D913C91179741E050E069817A81C40165
S11353100E94F71F26C220E041E050E069817A81B3
S1135320C4010E9424208C0120E040E050E0698107
S11353307A81C4010E9424206C0120E041E050E005
S1135340B201C4010E9424207C0120E040E050E02E
S1135350B201C4010E9424209601A701BC01C4012A
S11353600A960E9477108C01FC012081318140E073
S113537050E0B201C4010E94F71FD80112962D918A
S11353803C91139741E050E0B201C4010E94F71F21
S1135390F8012481358140E050E069817A81C401BB
S11353A00E94F71FD80116962D913C91179741E062
S11353B050E069817A81C4010E94F71FD2C120E0C4
S11353C041E050E069817A81C4010E9424208C016B
S11353D020E040E050E069817A81C4010E942420E9
S11353E06C0120E041E050E0B201C4010E9424209D
S11353F07C0120E040E050E0B201C4010E9424207E
S11354009601A701BC01C4010A960E947D118C017A
S1135410FC012081318140E050E0B201C4010E94CE
S1135420F71FD80112962D913C91139741E050E05B
S1135430B201C4010E94F71FF8012481358140E0C4
S113544050E069817A81C4010E94F71FD801169641
S11354502D913C91179741E050E069817A81C40114
S11354600E94F71F7EC120E041E050E06D817E8103
S1135470C4010E9424206C0120E040E050E06D81D2
S11354807E81C4010E9424207C0120E041E050E0A0
S113549069817A81C4010E9424208C0120E040E0CB
S11354A050E069817A81C4010E9424201C0120E01B
S11354B041E050E0B201C4010E9424205C0120E0DC
S11354C040E050E0B201C4010E9424209101A501F2
S11354D0BC01C4010A960E9450148C01FC01208175
S11354E0318140E050E0B201C4010E94F71FD801AD
S11354F012962D913C91139741E050E0B201C40102
S11355000E94F71FF8012481358140E050E0698151
S11355107A81C4010E94F71FD80116962D913C91FF
S1135520179741E050E069817A81C4010E94F71F16
S1135530F8012085318540E050E06D817E81C40111
S11355400E94F71FD8011A962D913C911B9741E0B8
S113555050E06D817E81C4010E94F71F02C120E0EA
S113556041E050E06D817E81C4010E9424206C01E1
S113557020E040E050E06D817E81C4010E9424203F
S11355807C0120E041E050E069817A81C4010E94FD
S113559024208C0120E040E050E069817A81C4013C
S11355A00E9424201C0120E041E050E0B201C4012B
S11355B00E9424205C0120E040E050E0B201C401DC
S11355C00E9424209101A501BC01C4010A960E94F5
S11355D04E178C01FC012081318140E050E0B20182
S11355E0C4010E94F71FD80112962D913C91139784
S11355F041E050E0B201C4010E94F71FF801248188
S1135600358140E050E069817A81C4010E94F71F2E
S1135610D80116962D913C91179741E050E069818D
S11356207A81C4010E94F71FF8012085318540E08A
S113563050E06D817E81C4010E94F71FD8011A9643
S11356402D913C911B9741E050E06D817E81C40116
S11356500E94F71F86C020E040E050E060E070E068
S1135660C4010E9424205C0120E041E050E06D81EF
S11356707E81C4010E9424206C0120E040E050E0BF
S11356806D817E81C4010E9424207C0120E041E0E0
S113569050E069817A81C4010E9424208C0120E0B9
S11356A040E050E069817A81C4010E9424201C01F9
S11356B020E041E050E0B201C4010E9424209A8716
S11356C0898720E040E050E0B201C4010E94242018
S11356D0910149855A85BC01C4010A960E944C1A5D
S11356E08C01FC012081318140E050E0B201C40111
S11356F00E94F71FD80112962D913C91139741E017
S113570050E0B201C4010E94F71FF80124813581E1
S113571040E050E069817A81C4010E94F71FD801FA
S113572016962D913C91179741E050E069817A815A
S1135730C4010E94F71FF8012085318540E050E044
S11357406D817E81C4010E94F71FD8011A962D91A4
S11357503C911B9741E050E06D817E81C4010E9421
S1135760F71FC8010E944E342A960FB6F894DEBF84
S11357700FBECDBFDF91CF911F910F91FF90EF909E
S1135780DF90CF90BF90AF909F908F907F906F905D
S11357905F904F903F902F9008952F923F924F9299
S11357A05F926F927F928F929F92AF92BF92CF92AD
S11357B0DF92EF92FF920F931F93CF93DF93CDB7B6
S11357C0DEB7AB970FB6F894DEBF0FBECDBF99A37B
S11357D088A301969BA78AA764EB70E00E94872E9A
S11357E069EA70E08AA59BA50E94872E68A079A02B
S11357F022E0620E711CC3010E949E02E8A1F9A17D
S1135800E852FF4F91838083E8A1F9A1EA52FF4F48
S113581011821082181619060CF0C7C080E090E0BF
S11358201E013FE0230E311C0F2EFEEB8F2EF0E005
S11358309F2EF02D2E01E8E04E0E511C9E012F5F8D
S11358403F4F3F8B2E8B2CA23DA24EA25FA23E89DE
S113585038A7EF89E9A728A139A12A523F4F398FE8
S1135860288FE8A1F9A1E852FF4FFBA3EAA3FDE0CA
S1135870F89F5001F99FB00C11241F86188A198AC9
S11358801A8A1B8A1C8A1D8A188619861A861B8600
S11358901C861D861E8619821A821B821C821D820A
S11358A01E821F82B501C3010E944502282F30E0E9
S11358B03B8F2A8F65013FEFC31AD30A85E0A80EF8
S11358C0B11CB601C3010E9445021F928F933F92FF
S11358D02F929F928F923F922F920E948736B60109
S11358E06C5F7F4FC3010E9445021F928F935F92AA
S11358F04F929F928F925F924F920E948736B60189
S1135900685F7F4FC3010E9445021F928F939F8956
S11359109F93EE89EF939F928F929F93EF930E94B0
S11359208736FFEFCF1ADF0A0FB6F894DEBF0FBE3B
S1135930CDBFCA14DB0429F640E150E060E070E01A
S113594088A599A50E943B355B016C0140E150E0BC
S113595060E070E08EA19FA10E943B356C8F7D8F2B
S11359608E8F9F8F40E150E060E070E08CA19DA19C
S11359700E943B359B01AC01EC8CFD8C0E8D1F8D80
S11359806A8D7B8D88A199A10E942F21E88DF98DC4
S113599080819181019691838083EAA1FBA120817A
S11359A03181821793070CF462CF69EA70E08AA50B
S11359B09BA50E94872E63EC70E08AA59BA50E949C
S11359C0722EAB960FB6F894DEBF0FBECDBFDF913B
S11359D0CF911F910F91FF90EF90DF90CF90BF90E8
S11359E0AF909F908F907F906F905F904F903F907B
S11359F02F900895CF93DF93CDB7DEB7CB5DD10958
S1135A000FB6F894DEBF0FBECDBFCE0101960E9443
S1135A10F01ECE0101960E94CD2BFFCFFC018FEF2B
S1135A2084BB84E190E09183808380E091E095835E
S1135A30848316820895CF93DF93EC0103960E942A
S1135A40622ECE010E940E2DDF91CF9108952FEF8B
S1135A502ABBFC01268121110FC020813181848160
S1135A609581A901460F571F8417950714F48BBB22
S1135A700895620F6BBB08956BBB089575B321E065
S1135A8030E0C901062E02C0880F991F0A94E2F77C
S1135A908095872385BB85B302C0440F551F6A9543
S1135AA0E2F7482B45BB0895FC01208131814481F4
S1135AB055814217530734F02130314018F44130F6
S1135AC0514010F00E940E2D08950F931F93CF9311
S1135AD0DF93EC018B010E94542DB801CE010E948A
S1135AE0272D17BA41E050E066E070E0CE010E9435
S1135AF03E2D16B340E050E066E070E0CE010E9417
S1135B003E2D8FEF87BB1BBA812FDF91CF911F9161
S1135B100F910895CF92DF92EF92FF920F931F930C
S1135B20CF93DF93CDB7DEB7D2500FB6F894DEBF74
S1135B300FBECDBF7C01FC01008111818481958160
S1135B4008171907E4F46801CC0CDD1C81E090E02F
S1135B508C0F9D1FC80ED91EB801C7010E94652D68
S1135B60992787FD9095F601819391936F010F5FBB
S1135B701F4FF70184819581081719076CF3CE0133
S1135B800196DE5F0FB6F894DEBF0FBECDBFDF9186
S1135B90CF911F910F91FF90EF90DF90CF900895D8
S1135BA0FF920F931F93CF93DF93EC018B01F42E9D
S1135BB00E94542DB801CE010E94272D1FEF17BB60
S1135BC0F8BA41E050E065E070E0CE010E943E2D5D
S1135BD040E050E065E070E0CE010E943E2D1BBA2B
S1135BE017BB18BADF91CF911F910F91FF900895C1
S1135BF0CF93DF93EC010E94542D60E070E0CE015E
S1135C000E94652D288139812F5F3F4F3983288376
S1135C104C815D814217530724F0992787FD9095A5
S1135C2002C080E090E0DF91CF910895EF92FF925F
S1135C300F931F93CF93DF938C01EB010E94542D9C
S1135C40F80180819181181619065CF1E480F580D1
S1135C50E81AF90AC8010E948A2D9701AE01BC0115
S1135C60C80102960E94F62EF801C081D1812481D8
S1135C703581C217D307FCF47E01EE0CFF1CE80E3D
S1135C80F91EF701419151917F01BE01C8010E94A3
S1135C90D02D2196F80184819581C817D9078CF3FA
S1135CA00AC00197F80191838083AE0160E070E03F
S1135CB0C8010E94D02DDF91CF911F910F91FF90C9
S1135CC0EF90089583E389B910BC86E880BD88E12C
S1135CD08AB908955F9BFECF8CB108955D9BFECF7A
