S01D0000514550555F50726F6A6563745F41746D65676133322E7372656383
S11300000C94D4000C94FC000C94FC000C94FC00A4
S11300100C94FC000C94FC000C94FC000C94FC006C
S11300200C94FC000C94FC000C94FC000C94FC005C
S11300300C94FC000C94FC000C94FC000C94FC004C
S11300400C94FC000C94FC000C94FC000C94FC003C
S11300500C94FC003C215F21772185219321A3216D
S1130060AB21B321BF21CB21D521DF21EF210822F0
S113007021223A2253226C2285229E22B722CB22AD
S1130080D822A928E122A928E922F62224235223EE
S11300908023AE23DC230A243A246A249A24F324FA
S11300A04C25A525FE255726B02609279027172875
S11300B0084AD73B3BCE016E84BCBFFDC12F3D6CCB
S11300C074319ABD56833DDA3D00C77F11BED9E431
S11300D0BB4C3E916BAAAABE000000803F0763425E
S11300E036B79BD8A71A39685618AEBAAB558C1DCB
S11300F03CB7CC5763BD6DEDFD753EF6177231BF4D
S1130100000000803F072C7AA5BA6CC590DA3B93B7
S113011065FC8BBC53F810FD3C5692834DBD879D06
S11301203AB63DCBC9BF5BBE73DA0FC93F05A84CD5
S1130130CDB2D44EB93836A9020C50B9918688088C
S11301403CA6AAAA2ABE000000803F08000000BE08
S1130150922449123EABAAAA2ABECDCCCC4C3E0076
S1130160000080BEABAAAAAA3E00000000BF0000A7
S113017000803F0000000000084178D3BB4387D1D2
S1130180133D190E3CC3BD4282AD2B3E68EC827612
S1130190BED98FE1A93E4C80EFFFBE01C4FF7F3F73
S11301A0000000000000E11D11241FBECFE5D8E0CF
S11301B0DEBFCDBF11E0A0E6B0E0EEE2F1E702C0A1
S11301C005900D92AC32B107D9F721E0ACE2B1E071
S11301D001C01D92AB33B207E1F711E0C8EAD1E0E8
S11301E004C02297FE010E943D32C63AD107C9F7E6
S11301F00E94582B0C9495380C9400000F931F9375
S1130200FC014083518362837383048315832683B3
S113021037831F910F910895FC011082118212827D
S1130220138214821582168217820895AF92BF92A8
S1130230CF92DF92EF92FF920F931F93CF93DF93AE
S1130240CDB7DEB768970FB6F894DEBF0FBECDBF4B
S11302505C01098B1A8B2B8B3C8B4D8B5E8B6F8BCC
S1130260788F2D893E894F89588DFC016481758171
S1130270868197810E94122E6B017C0129893A891B
S11302804B895C89F50160817181828193810E942F
S1130290122EAB01BC0197018601CE0101960E948A
S11302A0FE0088E0FE013196DE01199601900D9260
S11302B08A95E1F729853A854B855C856D857E8530
S11302C08F85988968960FB6F894DEBF0FBECDBFB0
S11302D0DF91CF911F910F91FF90EF90DF90CF901E
S11302E0BF90AF9008954F925F926F927F928F92DA
S11302F09F92AF92BF92CF92DF92EF92FF920F93B1
S11303001F93CF93DF93CDB7DEB7A0970FB6F894C2
S1130310DEBF0FBECDBF098B1A8B2B8B3C8B4D8B55
S11303205E8B6F8B788F89889A88AB88BC882D897F
S11303303E894F89588D2D8F3E8F4F8F58A3FC01D6
S1130340C080D180E280F380248135814681578149
S1130350298F3A8F4B8F5C8F2D8D3E8D4F8D58A1F9
S1130360C701B6010E9453312B013C01A501940140
S1130370698D7A8D8B8D9C8D0E9453319B01AC01CC
S1130380C301B2010E94122E2B013C01A50194016C
S1130390C701B6010E9453316B017C012D8D3E8D46
S11303A04F8D58A1698D7A8D8B8D9C8D0E94533110
S11303B09B01AC01C701B6010E94112EAB01BC0127
S11303C093018201CE0101960E94FE0088E0FE01A5
S11303D03196DE01199601900D928A95E1F72985EF
S11303E03A854B855C856D857E858F859889A09639
S11303F00FB6F894DEBF0FBECDBFDF91CF911F9132
S11304000F91FF90EF90DF90CF90BF90AF909F90AF
S11304108F907F906F905F904F900895FC012081A2
S113042031814281538164817581868197810E94E3
S1130430A52E0E94762E089585E080B981B18C7F27
S113044081B9089594EA30EA24E896BF06B607FE17
S1130450FDCF81B1887F883009F041C033B926BF10
S113046006B607FEFDCF81B1887F883171F773B975
S113047084E886BF06B607FEFDCF81B1887F883247
S113048081F563B984E886BF06B607FEFDCF81B166
S1130490887F883241F584EA86BF06B607FEFDCF21
S11304A081B1887F803109F581EA83B984E886BF08
S11304B006B607FEFDCF81B1887F8034C1F484E89D
S11304C086BF06B607FEFDCF81B1887F883589F4E3
S11304D083B194E996BF06B604FCFDCF089580E08D
S11304E0089580E0089580E0089580E0089580E014
S11304F0089580E00895CF92DF92EF92FF920F93D8
S11305001F93CF93DF93CDB7DEB7C456D1090FB68F
S1130510F894DEBF0FBECDBF6C01CE0101967C0105
S113052000E010E0B801C6010E942202F7018193A5
S11305307F018F3F81F4329720812F3F61F43197FF
S113054020812F3F41F4319720812F3F21F43197AF
S113055080818F3F19F00F5F1F4FE4CFCE010196CA
S1130560CC59DF4F0FB6F894DEBF0FBECDBFDF917D
S1130570CF911F910F91FF90EF90DF90CF9008954E
S1130580089521E0861797070CF020E020932C01B2
S113059021E0681779070CF420E020932D0121E075
S11305A08617970709F020E020932E0121E0861793
S11305B097070CF420E020932F0121E068177907B6
S11305C00CF020E02093300121E08617970709F40E
S11305D020E02093310121E0009709F020E02093EE
S11305E0320121E0892B09F420E02093330108959E
S11305F00895CF92DF92EF92FF920F931F93CF93C0
S1130600DF931F92CDB7DEB76C01E62EF72EBA0149
S113061084E391E00E94DF2C1C141D040CF04BC0F9
S11306200E2D1F2DE12CF12C6AE670E084E391E09D
S11306300E94CA2C20E030E04AE754E4F8016081CB
S11306407181828193810E9453310E943E2FCE0199
S113065001960E94732DBC0184E391E00E94CA2C90
S11306606EE670E084E391E00E94CA2C20E030E062
S11306704AE754E4F80164817581868197810E9478
S113068053310E943E2FCE0101960E94732DBC016E
S113069084E391E00E94CA2C65EC70E084E391E06D
S11306A00E94DF2CFFEFEF1AFF0A085F1F4FEC14C4
S11306B0FD0409F0B9CF0F90DF91CF911F910F91F5
S11306C0FF90EF90DF90CF900895CF92DF92EF925A
S11306D0FF92CF93DF936A017B010E94CA33EC013E
S11306E020E03EEF4FEF56E4C701B6010E945331BC
S11306F06B017C01BE01882777FD8095982F0E94AD
S1130700712F9B01AC01C1E0D0E0C701B6010E948A
S11307109A30882314F4C0E0D0E0CE01DF91CF9169
S1130720FF90EF90DF90CF9008952F923F924F92D9
S11307305F926F927F928F929F92AF92BF92CF926D
S1130740DF92EF92FF920F931F93CF93DF93CDB776
S1130750DEB7A4970FB6F894DEBF0FBECDBF8C01F1
S11307606B015A01BA01882777FD8095982F0E9462
S1130770712F0E94E03028E132E741E35FE30E94F9
S1130780A52E2B013C019B01AC010E94122E0E945C
S11307903E2F69A37AA38BA39CA329A03AA0C101ED
S11307A0880F991F880F991F880F991F0E9455322F
S11307B04C011A141B040CF09DC020E030E040E80A
S11307C05FE3F60160817181828193810E949E2E94
S11307D0811187C011C0F8E0CF0ED11C20E030E0B9
S11307E040E85FE3F60160817181828193810E9418
S11307F09E2E811178C002C0E12CF12CC301B201FC
S11308000E943E2FAB01B701C8010E94EB2C1214C9
S113081013040CF06FC07C0154016401F8E0CF0EA6
S1130820D11C49A05AA0480E591E6894772473F825
S1130830F70181917F01813329F500E010E09801EF
S1130840B901A801CE0149960E94FE00FE017996E5
S1130850D501872D01900D928A95E1F700E010E013
S1130860980140E050E060E87FE3CE0141960E94A9
S1130870FE00FE017196D601872D01900D928A9596
S1130880E1F724C000E010E0980140E050E060E8A7
S11308907FE3CE0109960E94FE00FE013996D50140
S11308A0872D01900D928A95E1F700E010E0980100
S11308B0B901A801CE0101960E94FE00FE01319605
S11308C0D601872D01900D928A95E1F7F0E1AF0EE4
S11308D0B11C20E1C20ED11CE414F50409F0A8CF28
S11308E009C0E12CF12C8FEFE81AF80AEA14FB0492
S11308F009F071CFC401A4960FB6F894DEBF0FBE01
S1130900CDBFDF91CF911F910F91FF90EF90DF90BA
S1130910CF90BF90AF909F908F907F906F905F909B
S11309204F903F902F9008952F923F924F925F9255
S11309306F927F928F929F92AF92BF92CF92DF92EB
S1130940EF92FF920F931F93CF93DF93CDB7DEB750
S113095028970FB6F894DEBF0FBECDBF7C015B01B4
S11309608A013E832D834130510509F4BBC09A01AD
S113097040E050E060E070E40E94AC2D0E943E2F05
S113098078876F839B01220F331F220F331F220F9F
S1130990331F3C832B83C9010E94553289839A8378
S11309A08F819885181619060CF053C01801220C73
S11309B0331CC980DA80612C712CE2E0F0E0412C18
S11309C0512CC601CF80D884470198878F832E1677
S11309D03F0629F49FEF491A590AE2E0F0E07F014B
S11309E02FEFE21AF20AEE0FFF1FEE0FFF1FEE0FBA
S11309F0FF1FEA0DFB1D0081118122813381448197
S1130A00558166817781C201880F991F880F991FCC
S1130A10880F991F8A0D9B1D0E947301EF81F88531
S1130A2020833183428353836483758386839783CE
S1130A30FFEF6F1A7F0A2F813885285F3F4F388771
S1130A402F836C147D0411F0F701C1CFD886CF82B7
S1130A5074018D819E81892BA9F589819A8144C075
S1130A605101F1014081518162817381C7010E946A
S1130A7065030197E9F48B819C81860D971DF30131
S1130A8010821182128213821482158216821782B6
S1130A903896E817F907A1F780E090E0A0E8BFE3F3
S1130AA0F50180839183A283B38389819A811CC0D9
S1130AB0FFEFCF1ADF0A28E0220E311CC814D90434
S1130AC079F606C049805A8000E010E08F8098844F
S1130AD018141904ECF7642C752C242C352CC02E16
S1130AE0D12EBECF862F9B2D28960FB6F894DEBF4D
S1130AF00FBECDBFDF91CF911F910F91FF90EF906B
S1130B00DF90CF90BF90AF909F908F907F906F9029
S1130B105F904F903F902F9008952F923F924F9265
S1130B205F926F927F928F929F92AF92BF92CF9279
S1130B30DF92EF92FF920F931F93CF93DF93CDB782
S1130B40DEB728970FB6F894DEBF0FBECDBF9E83E5
S1130B508D837A836983042F152FC22ED32ECB0164
S1130B6082959295907F9827807F98270E9455328E
S1130B708B839C8329803A80220C331C1214130427
S1130B800CF0ACC0A82EB92EE02EF12E0C2D1D2D8C
S1130B90812C912CB886AF826701F7014190519066
S1130BA07F01662457FC6094762CC301B2010E9435
S1130BB0712F2BED3FE049E450E40E94533120E0D3
S1130BC030E044EB53E40E94A52E0E94A22EEF8154
S1130BD0F8856083718382839383C301B2010E9489
S1130BE0712F2BED3FE049E450E40E94533120E0A3
S1130BF030E044EB53E40E94A52E0E94B6312B0151
S1130C003C015801F801619171918F01882777FDAA
S1130C108095982F0E94712F2BED3FE049E450E41A
S1130C200E94533120E030E044E353E40E94A52EB7
S1130C300E94A22E9B01AC01C301B2010E94533158
S1130C40EF81F8856087718782879387F6016081D9
S1130C507181882777FD8095982F0E94712F2BED45
S1130C603FE049E450E40E94533120E030E044EB9B
S1130C7053E40E94A52E0E94B6312B013C01F501DC
S1130C8060817181882777FD8095982F0E94712F4C
S1130C902BED3FE049E450E40E94533120E030E082
S1130CA044E353E40E94A52E0E94B6319B01AC019B
S1130CB0C301B2010E945331EF81F88564877587BF
S1130CC086879787F2E08F0E911C8F8198854096D6
S1130CD098878F83821493040CF45ECF45E750E029
S1130CE06B817C81C1010E94F90221E030E04981DD
S1130CF05A816B817C818D819E810E949404289607
S1130D000FB6F894DEBF0FBECDBFDF91CF911F9118
S1130D100F91FF90EF90DF90CF90BF90AF909F9096
S1130D208F907F906F905F904F903F902F90089599
S1130D304F925F926F927F928F929F92AF92BF92E7
S1130D40CF92DF92EF92FF920F931F93CF93DF9393
S1130D50EC01662E772E6A019A0140E050E060E0D3
S1130D6070E40E94AC2D0E943E2F4B015C0182E096
S1130D70C816D10444F0A401662D772DCE010E943B
S1130D809503682E792EC601880F991F880F991F25
S1130D900E945532482E592ECC0CDD1C1C141D0407
S1130DA0F4F5E62CF72C082F192FC0E0D0E0C0FD95
S1130DB019C0F70160817181828193810E94032EA1
S1130DC020E030E044EB53E40E9453312BED3FE04C
S1130DD049E450E40E94A52E0E943E2FF80171833D
S1130DE0608314C0C7010E940E0220E030E044E397
S1130DF053E40E9453312BED3FE049E450E40E9458
S1130E00A52E0E943E2FF801718360832196F8E09D
S1130E10EF0EF11C0E5F1F4FCC15DD0541F64EE7BA
S1130E2050E0662D772DC4010E94F902842D952D82
S1130E30DF91CF911F910F91FF90EF90DF90CF90B2
S1130E40BF90AF909F908F907F906F905F904F90E6
S1130E5008952F923F924F925F926F927F928F925A
S1130E609F92AF92BF92CF92DF92EF92FF920F9335
S1130E701F93CF93DF93CDB7DEB760970FB6F89487
S1130E80DEBF0FBECDBF4B013A0180E190E00E946E
S1130E905532382E292EC82ED92EA12CB12C24013E
S1130EA088E0480E511CCE0109960E940C01750180
S1130EB0EE0CFF1CEE0CFF1CEE0CFF1CE60CF71CEA
S1130EC0D7010C9111961C91119712962C9112979F
S1130ED013963C91139714964C91149715965C9124
S1130EE0159716966C91169717967C91C4010E94DB
S1130EF07301022F132F242F352F462F572F682FBE
S1130F00792FCE0109960E94160129873A874B87CB
S1130F105C876D877E878F87988BF7017096D701E2
S1130F2050960C91118122813381448155816681CF
S1130F307781C2010E947301022F132F242F352FB2
S1130F40462F572F682F792FCE0109960E9416013C
S1130F5029873A874B875C876D877E878F87988B35
S1130F6089859A85AB85BC85F60180839183A283AC
S1130F70B3838D859E85AF85B88984839583A68345
S1130F80B783FFEFAF1ABF0A88E0C80ED11CA2E0F6
S1130F90AA16B10409F087CF832D922D60960FB65F
S1130FA0F894DEBF0FBECDBFDF91CF911F910F919B
S1130FB0FF90EF90DF90CF90BF90AF909F908F9075
S1130FC07F906F905F904F903F902F9008952F9255
S1130FD03F924F925F926F927F928F929F92AF92C5
S1130FE0BF92CF92DF92EF92FF920F931F93CF9312
S1130FF0DF93CDB7DEB764970FB6F894DEBF0FBEAC
S1131000CDBF3B01E42EF52E80E290E00E945532E4
S11310108B8B9C8B482E592E812C912CE98AFA8A31
S1131020212C312CCE0109960E940C01C988DA8842
S1131030E22CF32C5401AA0CBB1CAA0CBB1CAA0C5A
S1131040BB1CF501EC0DFD1D008111812281338152
S11310504481558166817781C3018E0D9F1D0E9455
S1131060730129833A834B835C836D837E838F83EF
S11310709887022F132F242F352F462F572F682F91
S1131080792FCE0109960E94160129873A874B874A
S11310905C876D877E878F87988B88E0E80EF11CCC
S11310A0E0E2CE0ED11CF0E2EF16F10451F6898590
S11310B09A85AB85BC85F20180839183A283B38337
S11310C08D859E85AF85B88984839583A683B783F0
S11310D0FFEF8F1A9F0A88E0480E511CE4E08E1639
S11310E0910409F09FCF8B899C8964960FB6F8947C
S11310F0DEBF0FBECDBFDF91CF911F910F91FF9047
S1131100EF90DF90CF90BF90AF909F908F907F90A3
S11311106F905F904F903F902F9008952F923F9241
S11311204F925F926F927F928F929F92AF92BF92F3
S1131130CF92DF92EF92FF920F931F93CF93DF939F
S1131140CDB7DEB762970FB6F894DEBF0FBECDBF42
S11311504B01342E252E80E490E00E945532898B79
S11311609A8B482E592E612C712CCE0109960E941F
S11311700C01C32CD22CE12CF12C5301AA0CBB1C66
S1131180AA0CBB1CAA0CBB1CF501EC0DFD1D0081B7
S11311901181228133814481558166817781C40123
S11311A08E0D9F1D0E94730129833A834B835C83B8
S11311B06D837E838F839887022F132F242F352FDF
S11311C0462F572F682F792FCE0109960E941601BA
S11311D029873A874B875C876D877E878F87988BB3
S11311E088E0E80EF11CE0E4CE0ED11CF0E4EF162A
S11311F0F10451F689859A85AB85BC85F20180831B
S11312009183A283B3838D859E85AF85B8898483BA
S11312109583A683B783FFEF6F1A7F0A88E0480E91
S1131220511CE8E06E16710409F09FCF89899A89F0
S113123062960FB6F894DEBF0FBECDBFDF91CF919B
S11312401F910F91FF90EF90DF90CF90BF90AF90E0
S11312509F908F907F906F905F904F903F902F90D2
S11312600895AF92BF92CF92DF92EF92FF920F93C5
S11312701F93CF93DF93CDB7DEB7A4970FB6F8943F
S1131280DEBF0FBECDBF7C015B016A0100E010E050
S11312909801B901A801CE0101960E94FE0000E068
S11312A010E0980140E050E060E87FE3CE01099649
S11312B00E94FE0000E010E0980140E050E060E889
S11312C07FE3CE0141960E94FE0000E010E0980109
S11312D0B901A801CE0149960E94FE00BCA2ABA2AE
S11312E0DAA2C9A29E012F5D3F4FAE014D5D5F4F53
S11312F061E070E0C7010E948D05AE014F5F5F4F52
S1131300BC01C7010E94290741E050E0BC01C701AC
S11313100E949806A4960FB6F894DEBF0FBECDBF08
S1131320DF91CF911F910F91FF90EF90DF90CF90BD
S1131330BF90AF900895AF92BF92CF92DF92EF9299
S1131340FF920F931F93CF93DF93CDB7DEB7A4978C
S11313500FB6F894DEBF0FBECDBF7C015B016A01FE
S113136000E010E09801B901A801CE0101960E94A5
S1131370FE0000E010E020E83FEB40E050E0BA015E
S1131380CE0109960E94FE0000E010E020E83FE351
S113139040E050E0BA01CE0141960E94FE0000E018
S11313A010E09801B901A801CE0149960E94FE00FF
S11313B0BCA2ABA2DAA2C9A29E012F5D3F4FAE012F
S11313C04D5D5F4F61E070E0C7010E948D05AE0185
S11313D04F5F5F4FBC01C7010E94290741E050E005
S11313E0BC01C7010E949806A4960FB6F894DEBF0C
S11313F00FBECDBFDF91CF911F910F91FF90EF9062
S1131400DF90CF90BF90AF900895AF92BF92CF92EC
S1131410DF92EF92FF920F931F93CF93DF93CDB799
S1131420DEB7A4970FB6F894DEBF0FBECDBF7C0124
S11314305B016A0100E010E0980140E050E060E8E0
S11314407FE3CE0101960E94FE0000E010E09801C7
S1131450B901A801CE0109960E94FE0000E010E047
S11314609801B901A801CE0141960E94FE0000E056
S113147010E0980140E050E060E87FEBCE0149962F
S11314800E94FE00BCA2ABA2DAA2C9A29E012F5DFB
S11314903F4FAE014D5D5F4F61E070E0C7010E94B8
S11314A08D05AE014F5F5F4FBC01C7010E94290744
S11314B041E050E0BC01C7010E949806A4960FB613
S11314C0F894DEBF0FBECDBFDF91CF911F910F9176
S11314D0FF90EF90DF90CF90BF90AF900895AF92C0
S11314E0BF92CF92DF92EF92FF920F931F93CF930D
S11314F0DF93CDB7DEB7A4970FB6F894DEBF0FBE67
S1131500CDBF7C015B016A0100E010E0980143EF6C
S113151054E065E37FE3CE0101960E94FE0000E003
S113152010E0980143EF54E065E37FE3CE010996B0
S11315300E94FE0000E010E0980143EF54E065E3F0
S11315407FE3CE0141960E94FE0000E010E0980186
S113155043EF54E065E37FEBCE0149960E94FE0021
S1131560BCA2ABA2DAA2C9A29E012F5D3F4FAE017D
S11315704D5D5F4F61E070E0C7010E948D05AE01D3
S11315804F5F5F4FBC01C7010E94290741E050E053
S1131590BC01C7010E949806A4960FB6F894DEBF5A
S11315A00FBECDBFDF91CF911F910F91FF90EF90B0
S11315B0DF90CF90BF90AF900895AF92BF92CF923B
S11315C0DF92EF92FF920F931F93CF93DF93CDB7E8
S11315D0DEB7A4970FB6F894DEBF0FBECDBF7C0173
S11315E05B016A0100E010E0980140E050E060E82F
S11315F07FE3CE0101960E94FE0000E010E0980116
S1131600B901A801CE0109960E94FE0000E010E095
S11316109801B901A801CE0141960E94FE0000E0A4
S113162010E020E83FE340E050E0BA01CE014996E3
S11316300E94FE00BCA2ABA2DAA2C9A29E012F5D49
S11316403F4FAE014D5D5F4F61E070E0C7010E9406
S11316508D05AE014F5F5F4FBC01C7010E94290792
S113166041E050E0BC01C7010E949806A4960FB661
S1131670F894DEBF0FBECDBFDF91CF911F910F91C4
S1131680FF90EF90DF90CF90BF90AF900895AF920E
S1131690BF92CF92DF92EF92FF920F931F93CF935B
S11316A0DF93CDB7DEB7A4970FB6F894DEBF0FBEB5
S11316B0CDBF7C015B016A0100E010E0980140E0CD
S11316C050E060E87FE3CE0101960E94FE0000E056
S11316D010E09801B901A801CE0109960E94FE000C
S11316E000E010E09801B901A801CE0141960E94E2
S11316F0FE0003EF14E025E33FE3B901A801CE01A6
S113170049960E94FE00BCA2ABA2DAA2C9A29E0125
S11317102F5D3F4FAE014D5D5F4F61E070E0C7014B
S11317200E948D05AE014F5F5F4FBC01C7010E944F
S1131730290741E050E0BC01C7010E949806A49625
S11317400FB6F894DEBF0FBECDBFDF91CF911F91CE
S11317500F91FF90EF90DF90CF90BF90AF900895DE
S11317606F927F928F929F92AF92BF92CF92DF92AD
S1131770EF92FF920F931F93CF93DF93CDB7DEB712
S1131780C858D1090FB6F894DEBF0FBECDBF7C0197
S11317903B015A014901680100E010E0980140E072
S11317A050E060E87FE3CE0101960E94FE0000E075
S11317B010E09801B901A801CE0109960E94FE002B
S11317C000E010E09801B901A801CE0141960E9401
S11317D0FE0000E010E09801B901A801CE0149968D
S11317E00E94FE0000E010E09801B901A801CE01BA
S11317F081960E94FE0000E010E0980140E050E075
S113180060E87FE3CE0189960E94FE0000E010E0CC
S11318109801B901A801CE01C1960E94FE0000E022
S113182010E09801B901A801CE01C9960E94FE00FA
S113183000E010E09801B901A801CE018F5B9F4F31
S11318400E94FE0000E010E09801B901A801CE0159
S1131850875B9F4F0E94FE0000E010E09801B901F1
S1131860A801CE018F5A9F4F0E94FE0000E010E0B5
S1131870980140E050E060E87FE3CE01875A9F4F33
S11318800E94FE0000E010E09801B901A801CE0119
S11318908F599F4F0E94FE0000E010E09801B901AB
S11318A0A801CE0187599F4F0E94FE0000E010E07E
S11318B0980140E050E060E87FE3CE018F589F4FED
S11318C00E94FE0000E010E09801B901A801CE01D9
S11318D087589F4F0E94FE00CB57DF4F7982688262
S11318E0C558D040C957DF4F99828882C758D04025
S11318F0CF57DF4FB982A882C158D040CD57DF4FB0
S1131900D982C882C358D0409E012F573F4FAE01A1
S11319104B575F4F62E070E0C7010E948D05AE0136
S11319204F5F5F4FBC01C7010E94E70742E050E0F0
S1131930BC01C7010E949806C857DF4F0FB6F89440
S1131940DEBF0FBECDBFDF91CF911F910F91FF90EE
S1131950EF90DF90CF90BF90AF909F908F907F904B
S11319606F9008956F927F928F929F92AF92BF92E1
S1131970CF92DF92EF92FF920F931F93CF93DF9357
S1131980CDB7DEB7C858D1090FB6F894DEBF0FBE85
S1131990CDBF7C013B015A014901680100E010E020
S11319A0980140E050E060E87FE3CE0101960E9498
S11319B0FE0000E010E09801B901A801CE010996EB
S11319C00E94FE0000E010E09801B901A801CE01D8
S11319D041960E94FE0000E010E09801B901A801C0
S11319E0CE0149960E94FE0000E010E09801B90182
S11319F0A801CE0181960E94FE0000E010E098014B
S1131A0040E050E060E87FE3CE0189960E94FE004A
S1131A1000E010E09801B901A801CE01C1960E942E
S1131A20FE0000E010E09801B901A801CE01C996BA
S1131A300E94FE0000E010E09801B901A801CE0167
S1131A408F5B9F4F0E94FE0000E010E09801B901F7
S1131A50A801CE01875B9F4F0E94FE0000E010E0CA
S1131A60980140E050E060E87FE3CE018F5A9F4F39
S1131A700E94FE0000E010E09801B901A801CE0127
S1131A80875A9F4F0E94FE0000E010E09801B901C0
S1131A90A801CE018F599F4F0E94FE0000E010E084
S1131AA09801B901A801CE0187599F4F0E94FE00F9
S1131AB000E010E09801B901A801CE018F589F4FB2
S1131AC00E94FE0000E010E0980140E050E060E871
S1131AD07FEBCE0187589F4F0E94FE00CB57DF4F0C
S1131AE079826882C558D040C957DF4F998288826D
S1131AF0C758D040CF57DF4FB982A882C158D040D1
S1131B00CD57DF4FD982C882C358D0409E012F578A
S1131B103F4FAE014B575F4F62E070E0C7010E9438
S1131B208D05AE014F5F5F4FBC01C7010E94E707FF
S1131B3042E050E0BC01C7010E949806C857DF4F3D
S1131B400FB6F894DEBF0FBECDBFDF91CF911F91CA
S1131B500F91FF90EF90DF90CF90BF90AF909F9048
S1131B608F907F906F9008956F927F928F929F9243
S1131B70AF92BF92CF92DF92EF92FF920F931F9397
S1131B80CF93DF93CDB7DEB7C858D1090FB6F89419
S1131B90DEBF0FBECDBF7C013B015A014901680184
S1131BA000E010E0980140E050E060E87FE3CE01FF
S1131BB001960E94FE0000E010E09801B901A8011E
S1131BC0CE0109960E94FE0000E010E09801B901E0
S1131BD0A801CE0141960E94FE0000E010E09801A9
S1131BE0B901A801CE0149960E94FE0000E010E070
S1131BF09801B901A801CE0181960E94FE0000E07F
S1131C0010E09801B901A801CE0189960E94FE0056
S1131C1000E010E0980140E050E060E87FE3CE018E
S1131C20C1960E94FE0000E010E09801B901A801ED
S1131C30CE01C9960E94FE0000E010E09801B901AF
S1131C40A801CE018F5B9F4F0E94FE0000E010E0D0
S1131C50980140E050E060E87FE3CE01875B9F4F4E
S1131C600E94FE0000E010E09801B901A801CE0135
S1131C708F5A9F4F0E94FE0000E010E09801B901C6
S1131C80A801CE01875A9F4F0E94FE0000E010E099
S1131C909801B901A801CE018F599F4F0E94FE00FF
S1131CA000E010E09801B901A801CE0187599F4FC7
S1131CB00E94FE0000E010E09801B901A801CE01E5
S1131CC08F589F4F0E94FE0000E010E0980140E012
S1131CD050E060E87FE3CE0187589F4F0E94FE00EA
S1131CE0CB57DF4F79826882C558D040C957DF4F40
S1131CF099828882C758D040CF57DF4FB982A882D3
S1131D00C158D040CD57DF4FD982C882C358D04084
S1131D109E012F573F4FAE014B575F4F62E070E07B
S1131D20C7010E948D05AE014F5F5F4FBC01C70123
S1131D300E94E70742E050E0BC01C7010E949806F8
S1131D40C857DF4F0FB6F894DEBF0FBECDBFDF918B
S1131D50CF911F910F91FF90EF90DF90CF90BF90A4
S1131D60AF909F908F907F906F9008956F927F9225
S1131D708F929F92AF92BF92CF92DF92EF92FF9297
S1131D800F931F93CF93DF93CDB7DEB7C858D10914
S1131D900FB6F894DEBF0FBECDBF7C013B015A01E4
S1131DA04901680100E010E09801B901A801CE01E1
S1131DB001960E94FE0000E010E0980140E050E02F
S1131DC060E87FE3CE0109960E94FE0000E010E087
S1131DD09801B901A801CE0141960E94FE0000E0DD
S1131DE010E09801B901A801CE0149960E94FE00B5
S1131DF000E010E09801B901A801CE0181960E948B
S1131E00FE0000E010E09801B901A801CE01899616
S1131E100E94FE0000E010E0980140E050E060E81D
S1131E207FE3CE01C1960E94FE0000E010E098011D
S1131E30B901A801CE01C9960E94FE0000E010E09D
S1131E409801B901A801CE018F5B9F4F0E94FE004B
S1131E5000E010E09801B901A801CE01875B9F4F13
S1131E600E94FE0000E010E09801B901A801CE0133
S1131E708F5A9F4F0E94FE0000E010E0980140E05E
S1131E8050E060E87FE3CE01875A9F4F0E94FE0036
S1131E9000E010E0980140E050E060E87FE3CE010C
S1131EA08F599F4F0E94FE0000E010E09801B90195
S1131EB0A801CE0187599F4F0E94FE0000E010E068
S1131EC09801B901A801CE018F589F4F0E94FE00CE
S1131ED000E010E09801B901A801CE0187589F4F96
S1131EE00E94FE00CB57DF4F79826882C558D040EC
S1131EF0C957DF4F99828882C758D040CF57DF4FE8
S1131F00B982A882C158D040CD57DF4FD982C88248
S1131F10C358D0409E012F573F4FAE014B575F4FE0
S1131F2062E070E0C7010E948D05AE014F5F5F4F14
S1131F30BC01C7010E94E70742E050E0BC01C701B1
S1131F400E949806C857DF4F0FB6F894DEBF0FBE45
S1131F50CDBFDF91CF911F910F91FF90EF90DF9054
S1131F60CF90BF90AF909F908F907F906F90089587
S1131F706F927F928F929F92AF92BF92CF92DF9295
S1131F80EF92FF920F931F93CF93DF93CDB7DEB7FA
S1131F90C858D1090FB6F894DEBF0FBECDBF7C017F
S1131FA03B015A014901680100E010E09801B901C0
S1131FB0A801CE0101960E94FE0000E010E0980105
S1131FC0B901A801CE0109960E94FE0000E010E0CC
S1131FD09801B901A801CE0141960E94FE0000E0DB
S1131FE010E0980140E050E060E87FE3CE014996BC
S1131FF00E94FE0000E010E0980140E050E060E83C
S11320007FE3CE0181960E94FE0000E010E098017B
S1132010B901A801CE0189960E94FE0000E010E0FB
S11320209801B901A801CE01C1960E94FE0000E00A
S113203010E09801B901A801CE01C9960E94FE00E2
S113204000E010E09801B901A801CE018F5B9F4F19
S11320500E94FE0000E010E0980140E050E060E8DB
S11320607FE3CE01875B9F4F0E94FE0000E010E0FB
S11320709801B901A801CE018F5A9F4F0E94FE001A
S113208000E010E09801B901A801CE01875A9F4FE2
S11320900E94FE0000E010E09801B901A801CE0101
S11320A08F599F4F0E94FE0000E010E09801B90193
S11320B0A801CE0187599F4F0E94FE0000E010E066
S11320C0980140E050E060E87FE3CE018F589F4FD5
S11320D00E94FE0000E010E09801B901A801CE01C1
S11320E087589F4F0E94FE00CB57DF4F798268824A
S11320F0C558D040C957DF4F99828882C758D0400D
S1132100CF57DF4FB982A882C158D040CD57DF4F97
S1132110D982C882C358D0409E012F573F4FAE0189
S11321204B575F4F62E070E0C7010E948D05AE011E
S11321304F5F5F4FBC01C7010E94E70742E050E0D8
S1132140BC01C7010E949806C857DF4F0FB6F89428
S1132150DEBF0FBECDBFDF91CF911F910F91FF90D6
S1132160EF90DF90CF90BF90AF909F908F907F9033
S11321706F9008956F927F928F929F92AF92BF92C9
S1132180CF92DF92EF92FF920F931F93CF93DF933F
S1132190CDB7DEB7C858D1090FB6F894DEBF0FBE6D
S11321A0CDBF7C013B015A014901680100E010E008
S11321B0980140E050E060E87FE3CE0101960E9480
S11321C0FE0000E010E09801B901A801CE010996D3
S11321D00E94FE0000E010E09801B901A801CE01C0
S11321E041960E94FE0000E010E09801B901A801A8
S11321F0CE0149960E94FE0000E010E09801B9016A
S1132200A801CE0181960E94FE0000E010E020E0CB
S11322103FE3B901A801CE0189960E94FE0000E0C7
S113222010E020E03FEB40E050E060E07FE3CE01CF
S1132230C1960E94FE0000E010E09801B901A801D7
S1132240CE01C9960E94FE0000E010E09801B90199
S1132250A801CE018F5B9F4F0E94FE0000E010E0BA
S113226020E03FEB40E050E060E07FE3CE01875B9D
S11322709F4F0E94FE0000E010E020E03FE3B90120
S1132280A801CE018F5A9F4F0E94FE0000E010E08B
S11322909801B901A801CE01875A9F4F0E94FE0000
S11322A000E010E09801B901A801CE018F599F4FB9
S11322B00E94FE0000E010E09801B901A801CE01DF
S11322C087599F4F0E94FE0000E010E09801B90179
S11322D0A801CE018F589F4F0E94FE0000E010E03D
S11322E0980140E050E060E87FE3CE0187589F4FBB
S11322F00E94FE00CB57DF4F79826882C558D040D8
S1132300C957DF4F99828882C758D040CF57DF4FD3
S1132310B982A882C158D040CD57DF4FD982C88234
S1132320C358D0409E012F573F4FAE014B575F4FCC
S113233062E070E0C7010E948D05AE014F5F5F4F00
S1132340BC01C7010E94E70742E050E0BC01C7019D
S11323500E949806C857DF4F0FB6F894DEBF0FBE31
S1132360CDBFDF91CF911F910F91FF90EF90DF9040
S1132370CF90BF90AF909F908F907F906F90089573
S11323806F927F928F929F92AF92BF92CF92DF9281
S1132390EF92FF920F931F93CF93DF93CDB7DEB7E6
S11323A0C858D1090FB6F894DEBF0FBECDBF7C016B
S11323B03B015A014901680100E010E0980140E046
S11323C050E060E87FE3CE0101960E94FE0000E049
S11323D010E09801B901A801CE0109960E94FE00FF
S11323E000E010E09801B901A801CE0141960E94D5
S11323F0FE0000E010E09801B901A801CE01499661
S11324000E94FE0000E010E09801B901A801CE018D
S113241081960E94FE0000E010E09801B901A80135
S1132420CE0189960E94FE0000E010E020E83FE320
S113243040E050E0BA01CE01C1960E94FE0000E0E7
S113244010E09801B901A801CE01C9960E94FE00CE
S113245000E010E09801B901A801CE018F5B9F4F05
S11324600E94FE0000E010E020E83FE340E050E07E
S1132470BA01CE01875B9F4F0E94FE0000E010E08E
S11324809801B901A801CE018F5A9F4F0E94FE0006
S113249000E010E09801B901A801CE01875A9F4FCE
S11324A00E94FE0000E010E09801B901A801CE01ED
S11324B08F599F4F0E94FE0000E010E09801B9017F
S11324C0A801CE0187599F4F0E94FE0000E010E052
S11324D09801B901A801CE018F589F4F0E94FE00B8
S11324E000E010E0980140E050E060E87FE3CE01B6
S11324F087589F4F0E94FE00CB57DF4F7982688236
S1132500C558D040C957DF4F99828882C758D040F8
S1132510CF57DF4FB982A882C158D040CD57DF4F83
S1132520D982C882C358D0409E012F573F4FAE0175
S11325304B575F4F62E070E0C7010E948D05AE010A
S11325404F5F5F4FBC01C7010E94E70742E050E0C4
S1132550BC01C7010E949806C857DF4F0FB6F89414
S1132560DEBF0FBECDBFDF91CF911F910F91FF90C2
S1132570EF90DF90CF90BF90AF909F908F907F901F
S11325806F9008952F923F924F925F926F927F9235
S11325908F929F92AF92BF92CF92DF92EF92FF926F
S11325A00F931F93CF93DF93CDB7DEB7A4970FB6E6
S11325B0F894DEBF0FBECDBF7C011B016A01B901D7
S11325C0882777FD8095982F0E94712F2BED3FE08F
S11325D049E450E40E94533120E030E044E353E402
S11325E00E94A52E20E030E040E05FE30E945331DA
S11325F04B015C010E94A22E2B013C0100E010E083
S11326009801AB01BC01CE0101960E94FE00C501F8
S1132610B4010E94B6314B015C01B7FAB094B7F82B
S1132620B0949501840140E050E0BA01CE010996CE
S11326300E94FE009501840140E050E0BA01CE0101
S113264041960E94FE0000E010E09801B301A2014F
S1132650CE0149960E94FE003CA22BA2DAA2C9A296
S11326609E012F5D3F4FAE014D5D5F4F61E070E015
S1132670C7010E948D05AE014F5F5F4FBC01C701CA
S11326800E94290741E050E0BC01C7010E9498065E
S1132690A4960FB6F894DEBF0FBECDBFDF91CF91E5
S11326A01F910F91FF90EF90DF90CF90BF90AF906C
S11326B09F908F907F906F905F904F903F902F905E
S11326C008952F923F924F925F926F927F928F92D2
S11326D09F92AF92BF92CF92DF92EF92FF920F93AD
S11326E01F93CF93DF93CDB7DEB7A4970FB6F894BB
S11326F0DEBF0FBECDBF7C011B016A01B901882773
S113270077FD8095982F0E94712F2BED3FE049E4CF
S113271050E40E94533120E030E044E353E40E944B
S1132720A52E20E030E040E05FE30E9453314B01EE
S11327305C010E94A22E2B013C0100E010E09801F4
S1132740AB01BC01CE0101960E94FE00C501B4019B
S11327500E94B6314B015C01AB01BC01705800E032
S113276010E09801CE0109960E94FE0000E010E0FE
S11327709801B501A401CE0141960E94FE0000E03B
S113278010E09801B301A201CE0149960E94FE0017
S11327903CA22BA2DAA2C9A29E012F5D3F4FAE013B
S11327A04D5D5F4F61E070E0C7010E948D05AE0191
S11327B04F5F5F4FBC01C7010E94290741E050E011
S11327C0BC01C7010E949806A4960FB6F894DEBF18
S11327D00FBECDBFDF91CF911F910F91FF90EF906E
S11327E0DF90CF90BF90AF909F908F907F906F902D
S11327F05F904F903F902F9008954F925F926F9209
S11328007F92AF92BF92CF92DF92EF92FF920F939B
S11328101F93CF93DF93CDB7DEB7A4970FB6F89489
S1132820DEBF0FBECDBF7C015B016A01B901882701
S113283077FD8095982F0E94712F2BED3FE049E49E
S113284050E40E94533120E030E044E353E40E941A
S1132850A52E2B013C01905820E030E040E05FE3DE
S11328600E9453310E94122F8B019C0140E050E0E2
S1132870BA01CE0101960E94FE0000E010E098012A
S1132880B901A801CE0109960E94FE0000E010E003
S11328909801B901A801CE0141960E94FE0020E0F2
S11328A030E040E05FE3C301B2010E9453310E9473
S11328B0122F8B019C0140E050E0BA01CE014996F1
S11328C00E94FE00BCA2ABA2DAA2C9A29E012F5DA7
S11328D03F4FAE014D5D5F4F61E070E0C7010E9464
S11328E08D05AE014F5F5F4FBC01C7010E942907F0
S11328F041E050E0BC01C7010E949806A4960FB6BF
S1132900F894DEBF0FBECDBFDF91CF911F910F9121
S1132910FF90EF90DF90CF90BF90AF907F906F903B
S11329205F904F9008952F923F924F925F926F92D3
S11329307F928F929F92AF92BF92CF92DF92EF924B
S1132940FF920F931F93CF93DF93CDB7DEB7CC5095
S1132950D2400FB6F894DEBF0FBECDBF5C013B0181
S11329602A014901180100E010E0980140E050E01C
S113297060E87FE3CE0101960E94FE0000E010E0D3
S11329809801B901A801CE0109960E94FE0000E059
S113299010E09801B901A801CE0141960E94FE0001
S11329A000E010E09801B901A801CE0149960E9407
S11329B0FE0000E010E09801B901A801CE01819663
S11329C00E94FE0000E010E09801B901A801CE01C8
S11329D089960E94FE0000E010E09801B901A80168
S11329E0CE01C1960E94FE0000E010E09801B901FA
S11329F0A801CE01C9960E94FE0000E010E09801F3
S1132A00B901A801CE018F5B9F4F0E94FE0000E038
S1132A1010E0980140E050E060E87FE3CE01875B7E
S1132A209F4F0E94FE0000E010E09801B901A80148
S1132A30CE018F5A9F4F0E94FE0000E010E09801E3
S1132A40B901A801CE01875A9F4F0E94FE0000E001
S1132A5010E09801B901A801CE018F599F4F0E943F
S1132A60FE0000E010E09801B901A801CE018759E9
S1132A709F4F0E94FE0000E010E09801B901A801F8
S1132A80CE018F589F4F0E94FE0000E010E0980195
S1132A90B901A801CE0187589F4F0E94FE0000E0B3
S1132AA010E09801B901A801CE018F579F4F0E94F1
S1132AB0FE0000E010E09801B901A801CE0187579B
S1132AC09F4F0E94FE0000E010E0980140E050E0BB
S1132AD060E87FE3CE018F569F4F0E94FE0000E026
S1132AE010E09801B901A801CE0187569F4F0E94BA
S1132AF0FE0000E010E09801B901A801CE018F5555
S1132B009F4F0E94FE0000E010E09801B901A80167
S1132B10CE0187559F4F0E94FE0000E010E098010F
S1132B20B901A801CE018F549F4F0E94FE0000E01E
S1132B3010E09801B901A801CE0187549F4F0E946B
S1132B40FE0000E010E09801B901A801CE018F5306
S1132B509F4F0E94FE0000E010E09801B901A80117
S1132B60CE0187539F4F0E94FE0000E010E09801C1
S1132B70B901A801CE018F529F4F0E94FE0000E0D0
S1132B8010E0980140E050E060E87FE3CE01875216
S1132B909F4F0E94FE0000E010E09801B901A801D7
S1132BA0CE018F519F4F0E94FE0000E010E098017B
S1132BB0B901A801CE0187519F4F0E94FE0000E099
S1132BC010E09801B901A801CE018F509F4F0E94D7
S1132BD0FE0000E010E09801B901A801CE01875081
S1132BE09F4F0E94FE0000E010E09801B901A80187
S1132BF0CE018F5F9E4F0E94FE0000E010E098011E
S1132C00B901A801CE01875F9E4F0E94FE0000E03B
S1132C1010E09801B901A801CE018F5E9E4F0E9479
S1132C20FE0000E010E09801B901A801CE01875E22
S1132C309E4F0E94FE0000E010E0980140E050E04A
S1132C4060E87FE3CE018F5D9E4F0E94FE0000E0AE
S1132C5010E09801B901A801CE01875D9E4F0E9442
S1132C60FE0000E010E09801B901A801CE018F5CDC
S1132C709E4F0E94FE0000E010E09801B901A801F7
S1132C80CE01875C9E4F0E94FE0000E010E0980198
S1132C90B901A801CE018F5B9E4F0E94FE0000E0A7
S1132CA010E09801B901A801CE01875B9E4F0E94F4
S1132CB0FE0000E010E09801B901A801CE018F5A8E
S1132CC09E4F0E94FE0000E010E09801B901A801A7
S1132CD0CE01875A9E4F0E94FE0000E010E098014A
S1132CE0B901A801CE018F599E4F0E94FE0000E059
S1132CF010E09801B901A801CE0187599E4F0E94A6
S1132D00FE0000E010E0980140E050E060E87FE35E
S1132D10CE018F589E4F0E94FE0000E010E0980103
S1132D20B901A801CE0187589E4F0E94FE0000E021
S1132D3010E09801B901A801CE018F579E4F0E945F
S1132D40FE0000E010E09801B901A801CE01875708
S1132D509E4F0E94FE0000E010E09801B901A80116
S1132D60CE018F569E4F0E94FE0000E010E09801B5
S1132D70B901A801CE0187569E4F0E94FE0000E0D3
S1132D8010E09801B901A801CE018F559E4F0E9411
S1132D90FE0000E010E0980140E050E060E87FE3CE
S1132DA0CE0187559E4F0E94FE0000E010E098017E
S1132DB0B901A801CE018F549E4F0E94FE0000E08D
S1132DC010E09801B901A801CE0187549E4F0E94DA
S1132DD0FE0000E010E09801B901A801CE018F5374
S1132DE09E4F0E94FE0000E010E09801B901A80186
S1132DF0CE0187539E4F0E94FE0000E010E0980130
S1132E00B901A801CE018F529E4F0E94FE0000E03E
S1132E1010E09801B901A801CE0187529E4F0E948B
S1132E20FE0000E010E09801B901A801CE018F5125
S1132E309E4F0E94FE0000E010E09801B901A80135
S1132E40CE0187519E4F0E94FE0000E010E09801E1
S1132E50B901A801CE018F509E4F0E94FE0000E0F0
S1132E6010E0980140E050E060E87FE3CE01875035
S1132E709E4F0E94FE00C95FDD4F79826882C75071
S1132E80D240C75FDD4F99828882C950D240C55F66
S1132E90DD4FF982E882CB50D240CF5FDD4F5982BB
S1132EA04882C150D240CD5FDD4F39822882C35061
S1132EB0D240CB5FDD4FD982C882C550D2409E013B
S1132EC02F5F3D4FAE01495F5D4F63E070E0C50188
S1132ED00E948D05AE014F5F5F4FBC01C5010E948A
S1132EE08E0843E050E0BC01C5010E949806C45F0F
S1132EF0DD4F0FB6F894DEBF0FBECDBFDF91CF918B
S1132F001F910F91FF90EF90DF90CF90BF90AF9003
S1132F109F908F907F906F905F904F903F902F90F5
S1132F2008952F923F924F925F926F927F928F9269
S1132F309F92AF92BF92CF92DF92EF92FF920F9344
S1132F401F93CF93DF93CDB7DEB7CC50D2400FB6EB
S1132F50F894DEBF0FBECDBF5C013B012A014901DD
S1132F60180100E010E0980140E050E060E87FE3E1
S1132F70CE0101960E94FE0000E010E09801B90124
S1132F80A801CE0109960E94FE0000E010E098011D
S1132F90B901A801CE0141960E94FE0000E010E0B4
S1132FA09801B901A801CE0149960E94FE0000E0F3
S1132FB010E09801B901A801CE0181960E94FE009B
S1132FC000E010E09801B901A801CE0189960E94A1
S1132FD0FE0000E010E09801B901A801CE01C196FD
S1132FE00E94FE0000E010E09801B901A801CE01A2
S1132FF0C9960E94FE0000E010E09801B901A80102
S1133000CE018F5B9F4F0E94FE0000E010E098010C
S113301040E050E060E87FE3CE01875B9F4F0E9471
S1133020FE0000E010E09801B901A801CE018F5A1A
S11330309F4F0E94FE0000E010E09801B901A80132
S1133040CE01875A9F4F0E94FE0000E010E09801D5
S1133050B901A801CE018F599F4F0E94FE0000E0E4
S113306010E09801B901A801CE0187599F4F0E9431
S1133070FE0000E010E09801B901A801CE018F58CC
S11330809F4F0E94FE0000E010E09801B901A801E2
S1133090CE0187589F4F0E94FE0000E010E0980187
S11330A0B901A801CE018F579F4F0E94FE0000E096
S11330B010E09801B901A801CE0187579F4F0E94E3
S11330C0FE0000E010E0980140E050E060E87FE39B
S11330D0CE018F569F4F0E94FE0000E010E0980141
S11330E0B901A801CE0187569F4F0E94FE0000E05F
S11330F010E09801B901A801CE018F559F4F0E949D
S1133100FE0000E010E09801B901A801CE01875546
S11331109F4F0E94FE0000E010E09801B901A80151
S1133120CE018F549F4F0E94FE0000E010E09801F2
S1133130B901A801CE0187549F4F0E94FE0000E010
S113314010E09801B901A801CE018F539F4F0E944E
S1133150FE0000E010E09801B901A801CE018753F8
S11331609F4F0E94FE0000E010E09801B901A80101
S1133170CE018F529F4F0E94FE0000E010E09801A4
S113318040E050E060E87FE3CE0187529F4F0E9409
S1133190FE0000E010E09801B901A801CE018F51B2
S11331A09F4F0E94FE0000E010E09801B901A801C1
S11331B0CE0187519F4F0E94FE0000E010E098016D
S11331C0B901A801CE018F509F4F0E94FE0000E07C
S11331D010E09801B901A801CE0187509F4F0E94C9
S11331E0FE0000E010E09801B901A801CE018F5F54
S11331F09E4F0E94FE0000E010E09801B901A80172
S1133200CE01875F9E4F0E94FE0000E010E098010F
S1133210B901A801CE018F5E9E4F0E94FE0000E01E
S113322010E09801B901A801CE01875E9E4F0E946B
S1133230FE0000E010E0980140E050E060E87FE329
S1133240CE018F5D9E4F0E94FE0000E010E09801C9
S1133250B901A801CE01875D9E4F0E94FE0000E0E7
S113326010E09801B901A801CE018F5C9E4F0E9425
S1133270FE0000E010E09801B901A801CE01875CCE
S11332809E4F0E94FE0000E010E09801B901A801E1
S1133290CE018F5B9E4F0E94FE0000E010E098017B
S11332A0B901A801CE01875B9E4F0E94FE0000E099
S11332B010E09801B901A801CE018F5A9E4F0E94D7
S11332C0FE0000E010E09801B901A801CE01875A80
S11332D09E4F0E94FE0000E010E09801B901A80191
S11332E0CE018F599E4F0E94FE0000E010E098012D
S11332F040E050E060E87FE3CE0187599E4F0E9492
S1133300FE0000E010E09801B901A801CE018F5839
S11333109E4F0E94FE0000E010E09801B901A80150
S1133320CE0187589E4F0E94FE0000E010E09801F5
S1133330B901A801CE018F579E4F0E94FE0000E004
S113334010E09801B901A801CE0187579E4F0E9451
S1133350FE0000E010E09801B901A801CE018F56EB
S11333609E4F0E94FE0000E010E09801B901A80100
S1133370CE0187569E4F0E94FE0000E010E09801A7
S1133380B901A801CE018F559E4F0E94FE0000E0B6
S113339010E09801B901A801CE0187559E4F0E9403
S11333A0FE0000E010E09801B901A801CE018F549D
S11333B09E4F0E94FE0000E010E0980140E050E0C3
S11333C060E87FE3CE0187549E4F0E94FE0000E038
S11333D010E09801B901A801CE018F539E4F0E94BD
S11333E0FE0000E010E09801B901A801CE01875366
S11333F09E4F0E94FE0000E010E09801B901A80170
S1133400CE018F529E4F0E94FE0000E010E0980112
S1133410B901A801CE0187529E4F0E94FE0000E030
S113342010E09801B901A801CE018F519E4F0E946E
S1133430FE0000E010E09801B901A801CE01875117
S11334409E4F0E94FE0000E010E0980140E050E032
S113345060E87FE3CE018F509E4F0E94FE0000E0A3
S113346010E09801B901A801CE0187509E4F0E9437
S1133470FE00C95FDD4F79826882C750D240C75FC2
S1133480DD4F99828882C950D240C55FDD4FF982F1
S1133490E882CB50D240CF5FDD4F59824882C15081
S11334A0D240CD5FDD4F39822882C350D240CB5FFA
S11334B0DD4FD982C882C550D2409E012F5F3D4F57
S11334C0AE01495F5D4F63E070E0C5010E948D0568
S11334D0AE014F5F5F4FBC01C5010E948E0843E0FF
S11334E050E0BC01C5010E949806C45FDD4F0FB6D1
S11334F0F894DEBF0FBECDBFDF91CF911F910F9126
S1133500FF90EF90DF90CF90BF90AF909F908F90FF
S11335107F906F905F904F903F902F9008952F92DF
S11335203F924F925F926F927F928F929F92AF924F
S1133530BF92CF92DF92EF92FF920F931F93CF939C
S1133540DF93CDB7DEB7C451D2400FB6F894DEBFD7
S11335500FBECDBFC35FDD4F99838883CD50D2406A
S11335602B01C15FDD4F59834883CF50D2403901CD
S1133570CF5EDD4F19830883C151D2401701CD5E60
S1133580DD4FD982C882C351D240B501882777FD67
S11335908095982F0E94712F2BED3FE049E450E471
S11335A00E94533120E030E044E353E40E94A52E0E
S11335B04B015C0100E010E0980140E050E060E85D
S11335C07FE3CE0101960E94FE0000E010E0980126
S11335D0B901A801CE0109960E94FE0000E010E0A6
S11335E09801B901A801CE0141960E94FE0000E0B5
S11335F010E09801B901A801CE0149960E94FE008D
S113360000E010E09801B901A801CE0181960E9462
S1133610FE0000E010E09801B901A801CE018996EE
S11336200E94FE0000E010E09801B901A801CE015B
S1133630C1960E94FE0000E010E09801B901A801C3
S1133640CE01C9960E94FE0000E010E09801B90185
S1133650A801CE018F5B9F4F0E94FE0000E010E0A6
S1133660980140E050E060E87FE3CE01875B9F4F24
S11336700E94FE0000E010E09801B901A801CE010B
S11336808F5A9F4F0E94FE0000E010E09801B9019C
S1133690A801CE01875A9F4F0E94FE0000E010E06F
S11336A09801B901A801CE018F599F4F0E94FE00D5
S11336B000E010E09801B901A801CE0187599F4F9D
S11336C00E94FE0000E010E09801B901A801CE01BB
S11336D08F589F4F0E94FE0000E010E09801B9014E
S11336E0A801CE0187589F4F0E94FE0000E010E021
S11336F09801B901A801CE018F579F4F0E94FE0087
S113370000E010E09801B901A801CE0187579F4F4E
S11337100E94FE0000E010E0980140E050E060E804
S11337207FE3CE018F569F4F0E94FE0000E010E021
S11337309801B901A801CE0187569F4F0E94FE004F
S113374000E010E09801B901A801CE018F559F4F08
S11337500E94FE0000E010E09801B901A801CE012A
S113376087559F4F0E94FE0000E010E09801B901C8
S1133770A801CE018F549F4F0E94FE0000E010E08C
S11337809801B901A801CE0187549F4F0E94FE0001
S113379000E010E09801B901A801CE018F539F4FBA
S11337A00E94FE0000E010E09801B901A801CE01DA
S11337B087539F4F0E94FE0000E010E09801B9017A
S11337C0A801CE018F529F4F0E94FE0000E010E03E
S11337D0980140E050E060E87FE3CE0187529F4FBC
S11337E00E94FE0000E010E09801B901A801CE019A
S11337F08F519F4F0E94FE0000E010E09801B90134
S1133800A801CE0187519F4F0E94FE0000E010E006
S11338109801B901A801CE018F509F4F0E94FE006C
S113382000E010E09801B901A801CE0187509F4F34
S11338300E94FE0000E010E09801B901A801CE0149
S11338408F5F9E4F0E94FE0000E010E09801B901D6
S1133850A801CE01875F9E4F0E94FE0000E010E0A9
S11338609801B901A801CE018F5E9E4F0E94FE000F
S113387000E010E09801B901A801CE01875E9E4FD7
S11338800E94FE0000E010E0980140E050E060E893
S11338907FE3CE018F5D9E4F0E94FE0000E010E0AA
S11338A09801B901A801CE01875D9E4F0E94FE00D8
S11338B000E010E09801B901A801CE018F5C9E4F91
S11338C00E94FE0000E010E09801B901A801CE01B9
S11338D0875C9E4F0E94FE0000E010E09801B90151
S11338E0A801CE018F5B9E4F0E94FE0000E010E015
S11338F09801B901A801CE01875B9E4F0E94FE008A
S113390000E010E09801B901A801CE018F5A9E4F42
S11339100E94FE0000E010E09801B901A801CE0168
S1133920875A9E4F0E94FE0000E010E09801B90102
S1133930A801CE018F599E4F0E94FE0000E010E0C6
S1133940980140E050E060E87FE3CE0187599E4F44
S11339500E94FE0000E010E09801B901A801CE0128
S11339608F589E4F0E94FE0000E010E09801B901BC
S1133970A801CE0187589E4F0E94FE0000E010E08F
S11339809801B901A801CE018F579E4F0E94FE00F5
S113399000E010E09801B901A801CE0187579E4FBD
S11339A00E94FE0000E010E09801B901A801CE01D8
S11339B08F569E4F0E94FE0000E010E09801B9016E
S11339C0A801CE0187569E4F0E94FE0000E010E041
S11339D09801B901A801CE018F559E4F0E94FE00A7
S11339E000E010E09801B901A801CE0187559E4F6F
S11339F00E94FE00C501B4010E94A22E6B017C014D
S1133A008B019C0140E050E0BA01CE018F549E4FDF
S1133A100E94FE00C501B4010E94B6314B015C0155
S1133A2000E010E09801AB01BC01CE0187549E4F29
S1133A300E94FE0000E010E09801B901A801CE0147
S1133A408F539E4F0E94FE0000E010E09801B901E0
S1133A50A801CE0187539E4F0E94FE0000E010E0B3
S1133A609801B901A801CE018F529E4F0E94FE0019
S1133A7000E010E09801B901A801CE0187529E4FE1
S1133A800E94FE0000E010E09801B901A801CE01F7
S1133A908F519E4F0E94FE0000E010E09801B90192
S1133AA0A801CE0187519E4F0E94FE0000E010E065
S1133AB09801B501A401CE018F509E4F0E94FE00D3
S1133AC09701860140E050E0BA01CE0187509E4F35
S1133AD00E94FE00C95FDD4F59824882C750D24020
S1133AE0C75FDD4F79826882C950D240C55FDD4F20
S1133AF039822882CB50D240C15FDD4F88819981C1
S1133B00CF50D240CF5FDD4F99838883C150D240DC
S1133B10CF5EDD4F88819981C151D240CD5FDD4FA9
S1133B2099838883C350D240CD5EDD4F88819981CB
S1133B30C351D240CB5FDD4F99838883C550D240B7
S1133B409E012F5F3D4FAE01495F5D4F63E070E022
S1133B50C35FDD4F88819981CD50D2400E948D058D
S1133B60AE014F5F5F4FBC01C35FDD4F8881998118
S1133B70CD50D2400E948E0843E050E0BC01C35FA8
S1133B80DD4F88819981CD50D2400E949806CC5E49
S1133B90DD4F0FB6F894DEBF0FBECDBFDF91CF91DE
S1133BA01F910F91FF90EF90DF90CF90BF90AF9057
S1133BB09F908F907F906F905F904F903F902F9049
S1133BC0089584E391E00E94BE2C0895FC011182C3
S1133BD010820895FC01208131812F5F3F4FF9014C
S1133BE0EE0FFF1FE80FF91F71836083FC0131831F
S1133BF020830895FC018081918118161906ACF484
S1133C000197DC01AA0FBB1FAE0FBF1F12963C9198
S1133C10129713962C91139713961C921E92129737
S1133C2091838083832F922F089580E090E00895FC
S1133C3080E090E00E941A370E94CF330E94CA337A
S1133C4060E177E20E942732BC0180E090E00E94AC
S1133C50203708950F931F93CF93DF93EC010E94B5
S1133C60C0028E010F5F1F4FC8010E94BE2CCE01FF
S1133C7002960E941C02CE0103960E946C2BCE0178
S1133C8009960E94F802CE010A960E94E61D66E893
S1133C9070E0C8010E94CA2CCE010E94181E8FEF4A
S1133CA08ABBFE01EB52FF4F11821082C952DF4FD3
S1133CB019821882DF91CF911F910F91089575B3E6
S1133CC021E030E0C901062E02C0880F991F0A9432
S1133CD0E2F78095872385BB85B302C0440F551F47
S1133CE06A95E2F7482B45BB08952FEF24BB40E0CB
S1133CF050E064E070E00E945F1E0895AF92BF92AE
S1133D00CF92DF92EF92FF920F931F93CF93DF93A3
S1133D1000D000D000D0CDB7DEB78C01CB018F70BE
S1133D2099279A838983CB01807F992795958795D5
S1133D309595879595958795959587959C838B8380
S1133D4066277F70872F880F880B7D838E838FEF84
S1133D508ABB84BB89818BBB41E050E062E070E0A8
S1133D60C8010E945F1E41E050E063E070E0C801BA
S1133D700E945F1E40E050E063E070E0C8010E94D2
S1133D805F1E40E050E062E070E0C8010E945F1EE8
S1133D90680184EDC80ED11C6AE070E0C6010E947F
S1133DA09E2D7E0193E0E90EF11C5E01E7E0AE0E6C
S1133DB0B11C41E050E063E070E0C8010E945F1E66
S1133DC040E050E063E070E0C8010E945F1EF7012C
S1133DD08081F2E0EF0EF11C8BBB6AE070E0C6015B
S1133DE00E949E2DEA14FB0421F741E050E063E0B9
S1133DF070E0C8010E945F1E40E050E063E070E0A4
S1133E00C8010E945F1E41E050E064E070E0C80118
S1133E100E945F1E26960FB6F894DEBF0FBECDBF7C
S1133E20DF91CF911F910F91FF90EF90DF90CF9092
S1133E30BF90AF9008957BB321E030E0C901062E16
S1133E4002C0880F991F0A94E2F7809587238BBBE1
S1133E508BB302C0440F551F6A95E2F7482B4BBB46
S1133E600895FF920F931F93CF93DF93EC018A0180
S1133E70FF24FA94F7BAF7BA28BB0E947E1EA80161
S1133E8064E070E0CE010E941B1F41E050E066E058
S1133E9070E0CE010E941B1F40E050E066E070E03D
S1133EA0CE010E941B1FF7BA18BACE010E94751EDC
S1133EB0DF91CF911F910F91FF900895FF920F937F
S1133EC01F93CF93DF93EC018A01F22E17BA0E945D
S1133ED07E1E41E050E065E070E0CE010E941B1FB1
S1133EE0A80164E070E0CE010E941B1F06B310E03D
S1133EF08FEF87BBF11004C01BBACE010E94751E60
S1133F00C801DF91CF911F910F91FF900895CF9336
S1133F10DF93EC01882777FD8095982F0E94712FFD
S1133F202BED3FE049E450E40E94533120E030E0BF
S1133F3044EB53E40E94A52E0E94B631AB01BC01B0
S1133F4022E030E0CE018C529F4F0E94AC2DAB0199
S1133F50BC01CE0109960E946503DF91CF910895BB
S1133F608F929F92AF92BF92CF92DF92EF92FF9285
S1133F700F931F93CF93DF93CDB7DEB729970FB677
S1133F80F894DEBF0FBECDBF5C0119821A821B827A
S1133F901C82FE01359685E0DF011D928A95E9F7C2
S1133FA04B01880C991C880C991C880C991CE12CD9
S1133FB0F12C8E010F5F1F4F0F2EFAE9CF2EF0E088
S1133FC0DF2EF02DB701680D791D20E040E050E0B0
S1133FD0C5010E945E1FBC01C5010E94871F9F93FB
S1133FE08F931F930F93DF92CF921F930F930E948F
S1133FF02635BFEFEB1AFB0A0FB6F894DEBF0FBEEF
S1134000CDBF98E0E916F104E9F6CE0101960E94CD
S1134010163542E050E060E070E0CE0101960E9467
S1134020DA33CB0129960FB6F894DEBF0FBECDBFAD
S1134030DF91CF911F910F91FF90EF90DF90CF9080
S1134040BF90AF909F908F900895CF92DF92EF92A0
S1134050FF920F931F93CF93DF936C018B01BA01EF
S113406048E050E08C529F4F0E94EB2CD82FC92F70
S11340700E941635ED2EFC2E000F111F000F111F8C
S1134080000F111FC0E0D0E0F70181917F0181335F
S113409049F424EB30E040E050E0B801C6010E944E
S11340A0311F08C020E030E040E050E0B801C60114
S11340B00E94311F21960F5F1F4FC830D10521F791
S11340C0DF91CF911F910F91FF90EF90DF90CF90F0
S11340D008954F925F926F927F928F929F92AF92C8
S11340E0BF92CF92DF92EF92FF920F931F93CF93E1
S11340F0DF936C015B018C010F5F1F4F65EC70E077
S1134100C8010E94DF2C6FE970E0C8010E94DF2C17
S11341101A141B040CF06BC0C0E0D0E00F2EFCE9B5
S1134120EF2EF0E0FF2EF02D83E090E00E94553258
S1134130682E792E20E040E050E0BE01C6010E94C6
S11341405E1F9F938F93FF92EF927F926F920E94D4
S1134150263583E090E00E945532882E992E20E087
S113416041E050E0BE01C6010E945E1F9F938F9301
S1134170FF92EF929F928F920E94263581E090E009
S11341800E945532482E592EDF93CF93FF92EF921F
S11341905F924F920E94263569EB70E0C8010E943D
S11341A0CA2C642D752DC8010E94CA2C6BEB70E0DB
S11341B0C8010E94CA2C662D772DC8010E94CA2C02
S11341C066EC70E0C8010E94CA2C682D792DC801E4
S11341D00E94DF2C21968DB79EB742960FB6F894B5
S11341E09EBF0FBE8DBFCA15DB0509F09DCFDF91C1
S11341F0CF911F910F91FF90EF90DF90CF90BF90E0
S1134200AF909F908F907F906F905F904F900895A4
S11342102F923F924F925F926F927F928F929F92D2
S1134220AF92BF92CF92DF92EF92FF920F931F93C0
S1134230CF93DF93CDB7DEB72C970FB6F894DEBFDC
S11342400FBECDBF9C878B871B0129013A019E2C91
S11342508F2CA982BA82CB82DC828CE090E00E940F
S113426055325C01F1013197EE32F10508F071C766
S1134270E65DFF4F0C943B3220E040E050E06E2DB1
S11342807F2D8B859C850E945E1F9C0140E050E041
S1134290B2018B859C850E94311F20E041E050E0F3
S11342A06E2D7F2D8B859C850E945E1F9C0141E0B5
S11342B050E0B2018B859C850E94311F4AC7B20130
S11342C08B859C850E94B01FAC01B2018B859C85B7
S11342D00E9425206E2D7F2D8B859C850E94B01F0A
S11342E0AC01B2018B859C850E94252032C76E2DBE
S11342F00B851C850D5F1F4FC8010E94BE2B482FE4
S1134300642DC8010E942A2C24C76E2D7F2D8B8515
S11343109C850E94B01F482F642D8B859C85039635
S11343200E942A2C16C76E2D8B859C8503960E94AD
S1134330BE2B482F552747FD5095B2018B859C8590
S11343400E94252006C74E2D642D8B859C850396DF
S11343500E942A2CFEC64E2D5F2DB2018B859C85B2
S11343600E942520F6C68B859C8503960E94532CBB
S1134370AC01B2018B859C850E942520EAC6B2015E
S11343808B859C850E94B01FBC018B859C85039600
S11343900E94702CDEC62E2D3F2D40E050E0B2016D
S11343A08B859C850E94311FD4C62E2D3F2D41E064
S11343B050E0B2018B859C850E94311FCAC66E2DC8
S11343C07F2D8B859C850E94B01F8C01B2018B854B
S11343D09C850E94B01FB8010E94C102BAC6809198
S11343E02C01882309F4B5C60B851C850B521F4F7D
S11343F0F801608171816F5F7F4F8B859C850A9680
S11344000E94EA1DC2010197F80191838083A1C62D
S113441080912D01882309F49CC60B851C850B52C1
S11344201F4FF801608171816F5F7F4F8B859C8581
S11344300A960E94EA1DC2010197F80191838083C4
S113444088C680912E01882309F483C60B851C85B8
S11344500B521F4FF801608171816F5F7F4F8B8515
S11344609C850A960E94EA1DC2010197F801918376
S113447080836FC680912F01882309F46AC60B8557
S11344801C850B521F4FF801608171816F5F7F4F54
S11344908B859C850A960E94EA1DC2010197F8014A
S11344A09183808356C680913001882309F451C6D4
S11344B00B851C850B521F4FF801608171816F5F62
S11344C07F4F8B859C850A960E94EA1DC201019745
S11344D0F801918380833DC680913101882309F4DA
S11344E038C60B851C850B521F4FF8016081718102
S11344F06F5F7F4F8B859C850A960E94EA1DC201DF
S11345000197F8019183808324C680913201882326
S113451009F41FC60B851C850B521F4FF8016081DF
S113452071816F5F7F4F8B859C850A960E94EA1D7F
S1134530C2010197F801918380830BC680913301F6
S1134540882309F406C60B851C850B521F4FF801FE
S1134550608171816F5F7F4F8B859C850A960E9475
S1134560EA1DC2010197F80191838083F2C50B858E
S11345701C850B521F4FF801608171816F5F7F4F63
S11345808B859C850A960E94EA1DC2010197F80159
S113459091838083DEC58B859C850A960E94FA1DD3
S11345A0EB85FC85EB52FF4F019791838083D1C546
S11345B0EB85FC85EB52FF4FC20101979183808309
S11345C0C8C5B2018B859C858C529F4F0E949E2D3D
S11345D0C0C5EB85FC85E952FF4F80819181EB8555
S11345E0FC85EB52FF4F91838083B3C520E041E00B
S11345F050E0B2018B859C850E945E1F8C0120E0F7
S113460040E050E0B2018B859C850E945E1FA801AA
S1134610BC018B859C8509960E9431095C01FC01D3
S11346202081318140E050E0B2018B859C850E945D
S1134630311FF5012281338141E050E0B2018B85C5
S11346409C850E94311F85C520E041E050E0B20105
S11346508B859C850E945E1F8C0120E040E050E029
S1134660B2018B859C850E945E1FA801BC018B85CD
S11346709C8509960E949B095C01FC012081318183
S113468040E050E0B2018B859C850E94311FF5010A
S11346902281338141E050E0B2018B859C850E94E8
S11346A0311F57C520E041E050E0B2018B859C8565
S11346B00E945E1F8C0120E040E050E0B2018B8537
S11346C09C850E945E1FA801BC018B859C85099670
S11346D00E94050A5C01FC012081318140E050E028
S11346E0B2018B859C850E94311FF50122813381A3
S11346F041E050E0B2018B859C850E94311F29C5A1
S113470020E041E050E0B2018B859C850E945E1F51
S11347108C0120E040E050E0B2018B859C850E9432
S11347205E1FA801BC018B859C8509960E946F0AB7
S11347305C01FC012081318140E050E0B2018B85B5
S11347409C850E94311FF5012281338141E050E0B4
S1134750B2018B859C850E94311FFBC420E041E09F
S113476050E0B2018B859C850E945E1F8C0120E085
S113477040E050E0B2018B859C850E945E1FA80139
S1134780BC018B859C8509960E94DD0A5C01FC01B5
S11347902081318140E050E0B2018B859C850E94EC
S11347A0311FF5012281338141E050E0B2018B8554
S11347B09C850E94311FCDC420E041E050E0B2014D
S11347C08B859C850E945E1F8C0120E040E050E0B8
S11347D0B2018B859C850E945E1FA801BC018B855C
S11347E09C8509960E94470B5C01FC012081318164
S11347F040E050E0B2018B859C850E94311FF50199
S11348002281338141E050E0B2018B859C850E9476
S1134810311F9FC420E041E050E0B2018B859C85AC
S11348200E945E1F8C0120E040E050E0B2018B85C5
S11348309C850E945E1F2E2D3F2DA801BC018B85F7
S11348409C8509960E94C2125C01FC012081318181
S113485040E050E0B2018B859C850E94311FF50138
S11348602281338141E050E0B2018B859C850E9416
S1134870311F6FC420E041E050E0B2018B859C857C
S11348800E945E1F8C0120E040E050E0B2018B8565
S11348909C850E945E1F2E2D3F2DA801BC018B8597
S11348A09C8509960E9461135C01FC012081318181
S11348B040E050E0B2018B859C850E94311FF501D8
S11348C02281338141E050E0B2018B859C850E94B6
S11348D0311F3FC420E041E050E0B2018B859C854C
S11348E00E945E1F8C0120E040E050E0B2018B8505
S11348F09C850E945E1F2E2D3F2DA801BC018B8537
S11349009C8509960E94FD135C01FC012081318184
S113491040E050E0B2018B859C850E94311FF50177
S11349202281338141E050E0B2018B859C850E9455
S1134930311F0FC420E041E050E06E2D7F2D8B85A8
S11349409C850E945E1F8C0120E040E050E06E2DAB
S11349507F2D8B859C850E945E1F6C0120E041E0C9
S113496050E0B2018B859C850E945E1F5C0120E0B3
S113497040E050E0B2018B859C850E945E1F960149
S1134980A501BC018B859C8509960E94B00B5C0136
S1134990FC012081318140E050E0B2018B859C858F
S11349A00E94311FF5012281338141E050E0B201C0
S11349B08B859C850E94311FF5012481358140E05F
S11349C050E06E2D7F2D8B859C850E94311FF50153
S11349D02681378141E050E06E2D7F2D8B859C85AB
S11349E00E94311FB6C320E041E050E06E2D7F2DC0
S11349F08B859C850E945E1F8C0120E040E050E086
S1134A006E2D7F2D8B859C850E945E1F7C0120E08E
S1134A1041E050E0B2018B859C850E945E1F5C01E1
S1134A2020E040E050E0B2018B859C850E945E1F2F
S1134A309701A501BC018B859C8509960E94B20C47
S1134A405C01FC012081318140E050E0B2018B85A2
S1134A509C850E94311FF5012281338141E050E0A1
S1134A60B2018B859C850E94311FF501248135811B
S1134A7040E050E0692D782D8B859C850E94311F84
S1134A80F5012681378141E050E0692D782D8B8531
S1134A909C850E94311F5DC320E041E050E06E2DF3
S1134AA07F2D8B859C850E945E1F8C0120E040E059
S1134AB050E06E2D7F2D8B859C850E945E1F7C01AE
S1134AC020E041E050E0B2018B859C850E945E1F8E
S1134AD05C0120E040E050E0B2018B859C850E949F
S1134AE05E1F9701A501BC018B859C8509960E94D8
S1134AF0B40D5C01FC012081318140E050E0B20141
S1134B008B859C850E94311FF5012281338141E010
S1134B1050E0B2018B859C850E94311FF5012481F0
S1134B20358140E050E0692D782D8B859C850E946D
S1134B30311FF5012681378141E050E0692D782D40
S1134B408B859C850E94311F04C320E041E050E026
S1134B506E2D7F2D8B859C850E945E1F8C0120E02D
S1134B6040E050E06E2D7F2D8B859C850E945E1F5A
S1134B707C0120E041E050E0B2018B859C850E94DD
S1134B805E1F5C0120E040E050E0B2018B859C8513
S1134B900E945E1F9701A501BC018B859C85099627
S1134BA00E94B60E5C01FC012081318140E050E09E
S1134BB0B2018B859C850E94311FF50122813381CE
S1134BC041E050E0B2018B859C850E94311FF501C4
S1134BD02481358140E050E0692D782D8B859C85BA
S1134BE00E94311FF5012681378141E050E0692D93
S1134BF0782D8B859C850E94311FABC220E041E05B
S1134C0050E06E2D7F2D8B859C850E945E1F8C014C
S1134C1020E040E050E06E2D7F2D8B859C850E9426
S1134C205E1F7C0120E041E050E0B2018B859C8551
S1134C300E945E1F5C0120E040E050E0B2018B85E1
S1134C409C850E945E1F9701A501BC018B859C85F4
S1134C5009960E94B80F5C01FC012081318140E07B
S1134C6050E0B2018B859C850E94311FF5012281A1
S1134C70338141E050E0B2018B859C850E94311F55
S1134C80F5012481358140E050E0692D782D8B8534
S1134C909C850E94311FF5012681378141E050E057
S1134CA0692D782D8B859C850E94311F52C220E08E
S1134CB041E050E06E2D7F2D8B859C850E945E1F08
S1134CC08C0120E040E050E06E2D7F2D8B859C858B
S1134CD00E945E1F7C0120E041E050E0B2018B8520
S1134CE09C850E945E1F5C0120E040E050E0B20120
S1134CF08B859C850E945E1F9701A501BC018B8555
S1134D009C8509960E94BA105C01FC0120813181C6
S1134D1040E050E0B2018B859C850E94311FF50173
S1134D202281338141E050E0B2018B859C850E9451
S1134D30311FF5012481358140E050E0692D782D43
S1134D408B859C850E94311FF5012681378141E0C6
S1134D5050E0692D782D8B859C850E94311FF9C107
S1134D6020E041E050E06E2D7F2D8B859C850E94D4
S1134D705E1F8C0120E040E050E06E2D7F2D8B857E
S1134D809C850E945E1F7C0120E041E050E0B2015E
S1134D908B859C850E945E1F5C0120E040E050E012
S1134DA0B2018B859C850E945E1F9701A501BC0101
S1134DB08B859C8509960E94C0115C01FC012081B1
S1134DC0318140E050E0B2018B859C850E94311F07
S1134DD0F5012281338141E050E0B2018B859C854D
S1134DE00E94311FF5012481358140E050E0692D96
S1134DF0782D8B859C850E94311FF5012681378192
S1134E0041E050E0692D782D8B859C850E94311FEF
S1134E10A0C120E041E050E069817A818B859C85C6
S1134E200E945E1F6C0120E040E050E069817A81BD
S1134E308B859C850E945E1F7C019D828E8220E072
S1134E4041E050E0692D782D8B859C850E945E1F82
S1134E508C0120E040E050E06D817E818B859C8553
S1134E600E945E1F98878F8320E041E050E0B201EA
S1134E708B859C850E945E1F5C0120E040E050E031
S1134E80B2018B859C850E945E1F2F813885A50108
S1134E90BC018B859C8509960E9493145C01FC01DE
S1134EA02081318140E050E0B2018B859C850E94D5
S1134EB0311FF5012281338141E050E0B2018B853D
S1134EC09C850E94311FF5012481358140E050E02A
S1134ED06D817E818B859C850E94311FF501268121
S1134EE0378141E050E06D817E818B859C850E94F5
S1134EF0311FF5012085318540E050E069817A81D8
S1134F008B859C850E94311FF5012285338541E004
S1134F1050E069817A818B859C850E94311F19C17B
S1134F2020E041E050E069817A818B859C850E9474
S1134F305E1F6C0120E040E050E069817A818B853E
S1134F409C850E945E1F7C019D828E8220E041E050
S1134F5050E0692D782D8B859C850E945E1F8C0105
S1134F6020E040E050E06D817E818B859C850E942D
S1134F705E1F98878F8320E041E050E0B2018B856B
S1134F809C850E945E1F5C0120E040E050E0B2017D
S1134F908B859C850E945E1F2F813885A501BC01ED
S1134FA08B859C8509960E9491175C01FC012081E8
S1134FB0318140E050E0B2018B859C850E94311F15
S1134FC0F5012281338141E050E0B2018B859C855B
S1134FD00E94311FF5012481358140E050E06D814C
S1134FE07E818B859C850E94311FF5012681378146
S1134FF041E050E06D817E818B859C850E94311F4C
S1135000F5012085318540E050E069817A818B8506
S11350109C850E94311FF5012285338541E050E0D3
S113502069817A818B859C850E94311F92C020E022
S113503040E050E060E070E08B859C850E945E1F3C
S11350405C0120E041E050E069817A818B859C8598
S11350500E945E1F6C0120E040E050E069817A818B
S11350608B859C850E945E1F7C019D828E8220E040
S113507041E050E0692D782D8B859C850E945E1F50
S11350808C0120E040E050E06D817E818B859C8521
S11350900E945E1F98878F8320E041E050E0B201B8
S11350A08B859C850E945E1F9A87898720E040E05B
S11350B050E0B2018B859C850E945E1F2F8138854C
S11350C049855A85BC018B859C8509960E948F1A57
S11350D05C01FC012081318140E050E0B2018B850C
S11350E09C850E94311FF5012281338141E050E00B
S11350F0B2018B859C850E94311FF5012481358185
S113510040E050E06D817E818B859C850E94311F3B
S1135110F5012681378141E050E06D817E818B85E8
S11351209C850E94311FF5012085318540E050E0C7
S113513069817A818B859C850E94311FF5012285C6
S1135140338541E050E069817A818B859C850E949A
S1135150311F0B851C850F5F1F4F60ED70E0C80188
S11351600E94CA2CCB84DC84F4EDCF0ED11CB10197
S1135170C6010E94732DBC01C8010E94CA2C6BEDAC
S113518070E0C8010E94CA2CB201C6010E94732DAE
S1135190BC01C8010E94CA2C64EE70E0C8010E94E0
S11351A0CA2C692D782DC6010E94732DBC01C8013B
S11351B00E94CA2C6DEE70E0C8010E94CA2CEB85D7
S11351C0FC85EB52FF4F60817181C6010E94732DF3
S11351D0BC01C8010E94DF2C65EC70E0C8010E948C
S11351E0DF2CC5010E94ED322C960FB6F894DEBF79
S11351F00FBECDBFDF91CF911F910F91FF90EF9024
S1135200DF90CF90BF90AF909F908F907F906F90E2
S11352105F904F903F902F9008952F923F924F921E
S11352205F926F927F928F929F92AF92BF92CF9232
S1135230DF92EF92FF920F931F93CF93DF93CDB73B
S1135240DEB7C153D2400FB6F894DEBF0FBECDBF58
S1135250C05EDD4F99838883C052D2400196C05D01
S1135260DD4F99838883C053D24063EF70E00E947E
S1135270DF2C65EC70E0C05DDD4F88819981C053FF
S1135280D2400E94DF2CC05EDD4F88819981C052DC
S1135290D24002960E947B02BC01C05EDD4F888131
S11352A09981C052D2408C529F4F0E94162DDC012E
S11352B01897612C712CFD0118962D913C9119972A
S11352C02F3F3105B1F416962D913C9117972F3F3E
S11352D0310579F4248135812F3F310551F4228140
S11352E033812F3F310529F4208131812F3F31054E
S11352F029F02FEF621A720A1296DDCF930124501F
S1135300310912161306A4F5FC0135E0631A71087D
S113531020E030E080E090E040E050E01DE0312CFF
S1135320412C0BC06D3071052CF04F5F5F4F832D06
S1135330942D01C0CB012F5F3F4FBC016F5F7F4FA6
S1135340C190D190149FD001159FB00D11248A0FE4
S11353509B1FDC01AA0FBB1F81E090E08C0F9D1FF7
S1135360A80FB91FCD92DC9226153705D9F602C0D5
S113537040E050E0C05EDD4FE881F981C052D24088
S1135380E952FF4F51834083C05EDD4FE881F981CC
S1135390C052D240EB52FF4F1182108214161506F0
S11353A00CF058C180E090E03E01E9EE6E1AEDEF9A
S11353B07E0A1E01F0EF2F1AFDEF3F0A2E0127EFA0
S11353C0421A2DEF520AC05EDD4FE881F981C052C6
S11353D0D240EB52FF4FC25EDD4FF983E883CE51DA
S11353E0D2400F2EFDEF8F2EF0E09F2EF02DC65DE4
S11353F0DD4F6882CA52D240C55DDD4F7882CB5200
S1135400D240C45DDD4F2882CC52D240C35DDD4F13
S11354103882CD52D240C25DDD4F4882CE52D24056
S1135420C15DDD4F5882CF52D240C05EDD4F28812E
S11354303981C052D24029523F4FC85DDD4F398374
S11354402883C852D240F30110821182128213823F
S1135450148215821682F101108211821282138243
S1135460148215821682F201108211821282138232
S11354701482158216822AE1289FF001299FF00DDB
S1135480112421E030E02C0F3D1FE20FF31F808137
S11354909181CE5DDD4F99838883C252D240C12C65
S11354A0D12C1DE0C25EDD4FA880B980CE51D24020
S11354B09FEFC91AD90AF50180819181189FF001E3
S11354C0199FF00D1124EC0DFD1DEE0FFF1F21E0BF
S11354D030E02C0F3D1FE20FF31F81818F938081F9
S11354E08F937F926F929F928F927F926F920E947E
S11354F02635F50180819181189FF001199FF00DE7
S11355001124EC0DFD1D3496EE0FFF1F21E030E059
S11355102C0F3D1FE20FF31F81818F9380818F93A6
S11355203F922F929F928F923F922F920E94263504
S1135530F50180819181189FF001199FF00D1124CC
S1135540EC0DFD1D3896EE0FFF1F21E030E02C0F0F
S11355503D1FE20FF31F81818F9380818F935F92B0
S11355604F929F928F925F924F920E9426350FB670
S1135570F894DEBF0FBECDBF94E0C916D10409F084
S113558097CF40E150E060E070E0C25DDD4F88817C
S1135590CE52D240C15DDD4F9881CF52D2400E949D
S11355A0DA335B016C0140E150E060E070E0C45D1F
S11355B0DD4F8881CC52D240C35DDD4F9881CD52FE
S11355C0D2400E94DA33CC5DDD4F688379838A83CD
S11355D09B83C452D24040E150E060E070E0C65D7D
S11355E0DD4F8881CA52D240C55DDD4F9881CB52D0
S11355F0D2400E94DA339B01AC01CC5DDD4FE880E0
S1135600F9800A811B81C452D240CE5DDD4F68818E
S11356107981C252D240C05EDD4F88819981C052E7
S1135620D2400E940821C25EDD4FE881F981CE514B
S1135630D24080819181019691838083C85DDD4F42
S1135640E881F981C852D2402081318182179307C1
S11356500CF4F9CE60E170E0C05EDD4F8881998181
S1135660C052D2400E94692062E071E0C05DDD4F0B
S113567088819981C053D2400E94CA2CCF5CDD4FEF
S11356800FB6F894DEBF0FBECDBFDF91CF911F914F
S11356900F91FF90EF90DF90CF90BF90AF909F90CD
S11356A08F907F906F905F904F903F902F900895D0
S11356B0CF93DF93CDB7DEB7C95DD1090FB6F894A8
S11356C0DEBF0FBECDBFCE0101960E942A1ECE01C1
S11356D001960E940D29FFCFCF93DF93EC0103962F
S11356E00E94BE2C8FEF84BB84E190E09983888371
S11356F088E390E09D838C83DF91CF9108952FEF11
S11357002ABBFC012081318184819581A901460F46
S1135710571F8417950714F48BBB0895260F2BBBD2
S1135720089575B321E030E0C901062E02C0880F48
S1135730991F0A94E2F78095872385BB85B302C03D
S1135740440F551F6A95E2F7482B45BB0895FC01A9
S113575080819181248135812817390734F0813083
S1135760914018F42130314040F084E190E091837D
S1135770808388E390E09583848308951F93CF9377
S1135780DF93EC01162F0E94A72B612F772767FD6B
S11357907095CE010E947F2B17BA41E050E066E07D
S11357A070E0CE010E94912B16B340E050E066E019
S11357B070E0CE010E94912B8FEF87BB1BBA812F23
S11357C0DF91CF911F910895CF92DF92EF92FF92D4
S11357D00F931F93CF93DF93CDB7DEB7D2500FB69D
S11357E0F894DEBF0FBECDBF7C01FC0100811181A6
S11357F08481958108171907E4F46801CC0CDD1C39
S113580081E090E08C0F9D1FC80ED91E602FC70148
S11358100E94BE2B992787FD9095F6018193919361
S11358206F010F5F1F4FF7018481958108171907D6
S11358306CF3CE010196DE5F0FB6F894DEBF0FBEA7
S1135840CDBFDF91CF911F910F91FF90EF90DF902B
S1135850CF9008950F931F93CF93DF93EC01162FEE
S1135860042F0E94A72B612F772767FD7095CE0127
S11358700E947F2B1FEF17BB08BB41E050E065E09F
S113588070E0CE010E94912B40E050E065E070E0B2
S1135890CE010E94912B1BBA17BB18BADF91CF918E
S11358A01F910F910895CF93DF93EC010E94A72BD2
S11358B060E0CE010E94BE2B288139812F5F3F4FCB
S11358C0398328834C815D814217530724F099273B
S11358D087FD909502C080E090E0DF91CF9108951C
S11358E0EF92FF920F931F93CF93DF938C01F62EC9
S11358F0E72E0E94A72BF8018081918118161906C2
S11359006CF1C481D581C81BD90BC8010E94E42B5A
S11359109E014F2D5E2DBC01C80102960E94D62D1A
S1135920F801C081D18124813581C217D307FCF4E9
S11359307E01EE0CFF1CE80EF91EF7014081F2E037
S1135940EF0EF11C6C2FC8010E942A2C2196F8013D
S113595084819581C817D90784F309C00197F80198
S1135960918380834F2D60E0C8010E942A2CDF912F
S1135970CF911F910F91FF90EF90089583E389B920
S113598010BC86E880BD88E18AB908955D9BFECF8E
S11359906CB908950F931F93CF93DF938C01EB01A0
S11359A06881662339F02196C8010E94C62C69914A
S11359B06111FACFDF91CF911F910F910895CF9389
S11359C0DF93EC010E94CA2C6DE0CE010E94C62C2C
S11359D0DF91CF9108950F931F93CF93DF93062FF9
S11359E0172FEA01CA0101960E9455320097B9F0B7
S11359F0FC01EC0FFD1F1082202F312FBE016150DE
S1135A007109CD2B71F020FF02C041E301C040E3D6
S1135A1042933695279561507109A8F702C080E03A
S1135A2090E0DF91CF911F910F910895CF92DF9273
S1135A30EF92FF920F931F93CF93DF93D62FC72F2D
S1135A40E62FF72F80E090E021912F3F89F4DF01CA
S1135A5012974C914F3F61F411974C914F3F41F491
S1135A6011974C914F3F21F411972C912F3F11F036
S1135A700196EACF8C01045011096C012FEFC21A70
S1135A80D20A7601EE0CFF1CC7010E945532101693
S1135A90110674F4DC01ED2FFC2F20E030E041917D
S1135AA050E04D935D932F5F3F4F20173107BCF3B8
S1135AB00C151D057CF4F7013A97E80FF91F25E052
S1135AC030E04FEF50E041935193215031092115BB
S1135AD03105C9F7DF91CF911F910F91FF90EF909E
S1135AE0DF90CF9008950F931F93CF93DF93CDB79B
S1135AF0DEB72A970FB6F894DEBF0FBECDBF7F93F3
S1135B006F938CE990E09F938F938E010F5F1F4FEB
S1135B101F930F930E9426350F900F900F900F90B4
S1135B200F900F90C8012A960FB6F894DEBF0FBEEF
S1135B30CDBFDF91CF911F910F910895611571052C
S1135B4051F086E69EE00197F1F70000615071097B
S1135B5061157105B1F70895CF92DF92EF92FF922C
S1135B600F931F93CF93DF936A017B018901121670
S1135B7013067CF4C0E0D0E060E070E080E89FE3CE
S1135B80A70196010E9453312196C017D107C1F78E
S1135B9004C060E070E080E89FE3DF91CF911F9143
S1135BA00F91FF90EF90DF90CF900895CF92DF9206
S1135BB0EF92FF920F931F93CF93DF937B016A01C0
S1135BC0E9018901000F111FC8010E945532FC012F
S1135BD0D182C0821C161D066CF4F701DC011296FA
S1135BE0B701600F711F219131912D933D93E617F9
S1135BF0F707C9F7DF91CF911F910F91FF90EF90B5
S1135C00DF90CF9008959F939F77A6D10F900020A7
S1135C103AF49058A2EA2AED3FE049E450E413D064
S1135C203EC25058BB27AA270ED039C202D230F048
S1135C3007D220F031F49F3F11F41EF4D2C10EF4C8
S1135C40E095E7FBC8C1E92F4CD280F3BA1762078D
S1135C5073078407950718F071F49EF564C20EF477
S1135C60E0950B2EBA2FA02D0B01B90190010C0168
S1135C70CA01A0011124FF27591B99F0593F50F480
S1135C80503E68F11A16F040A22F232F342F4427D8
S1135C90585FF3CF469537952795A795F0405395D0
S1135CA0C9F77EF41F16BA0B620B730B840BBAF0A0
S1135CB09150A1F0FF0FBB1F661F771F881FC2F70B
S1135CC00EC0BA0F621F731F841F48F4879577951F
S1135CD06795B795F7959E3F08F0B3CF9395880FD6
