:100000000C94E3000C940B010C940B010C940B0169
:100010000C940B010C940B010C940B010C940B0130
:100020000C940B010C940B010C940B010C940B0120
:100030000C940B010C940B010C940B010C940B0110
:100040000C940B010C940B010C940B010C940B0100
:100050000C940B014E2172218B219A21A921BA21E6
:10006000C321CC21D921E621F121FC210D2214222A
:10007000212225223F225E227D229C22BB22DA22DF
:10008000F92218232C233923422356236A237F2362
:100090009C23B023C423D923ED2302241124272435
:1000A0003D244324282A4B2458248624B424E224C3
:1000B00010253E256C259C25CC25FC255726B226EF
:1000C0000D276827C3271E28792804298F29084A65
:1000D000D73B3BCE016E84BCBFFDC12F3D6C74315C
:1000E0009ABD56833DDA3D00C77F11BED9E4BB4CB3
:1000F0003E916BAAAABE000000803F07634236B75C
:100100009BD8A71A39685618AEBAAB558C1D3CB7A8
:10011000CC5763BD6DEDFD753EF6177231BF000023
:1001200000803F072C7AA5BA6CC590DA3B9365FC3A
:100130008BBC53F810FD3C5692834DBD879D3AB65B
:100140003DCBC9BF5BBE73DA0FC93F05A84CCDB22A
:10015000D44EB93836A9020C50B9918688083CA60D
:10016000AAAA2ABE000000803F08000000BE922418
:1001700049123EABAAAA2ABECDCCCC4C3E00000010
:1001800080BEABAAAAAA3E00000000BF000000800B
:100190003F0000000000084178D3BB4387D1133DE6
:1001A000190E3CC3BD4282AD2B3E68EC8276BED9AF
:1001B0008FE1A93E4C80EFFFBE01C4FF7F3F0000EE
:1001C00000000000F31D11241FBECFE5D8E0DEBF04
:1001D000CDBF11E0A0E6B0E0EEE3F5E702C0059088
:1001E0000D92AC34B107D9F721E0ACE4B1E001C025
:1001F0001D92AC35B207E1F711E0C6ECD1E004C0C6
:100200002297FE010E944534C43CD107C9F70E94E1
:10021000EC2C0C949D3A0C9400000F931F93FC015E
:1002200040835183628373830483158326833783DA
:100230001F910F910895FC01108211821282138286
:1002400014821582168217820895AF92BF92CF92C0
:10025000DF92EF92FF920F931F93CF93DF93CDB76F
:10026000DEB768970FB6F894DEBF0FBECDBF5C0156
:10027000098B1A8B2B8B3C8B4D8B5E8B6F8B788F06
:100280002D893E894F89588DFC0164817581868155
:1002900097810E941A306B017C0129893A894B8928
:1002A0005C89F50160817181828193810E941A309D
:1002B000AB01BC0197018601CE0101960E940D01A0
:1002C00088E0FE013196DE01199601900D928A9523
:1002D000E1F729853A854B855C856D857E858F851F
:1002E000988968960FB6F894DEBF0FBECDBFDF9138
:1002F000CF911F910F91FF90EF90DF90CF90BF9023
:10030000AF9008954F925F926F927F928F929F92DB
:10031000AF92BF92CF92DF92EF92FF920F931F9313
:10032000CF93DF93CDB7DEB7A0970FB6F894DEBFBB
:100330000FBECDBF098B1A8B2B8B3C8B4D8B5E8BED
:100340006F8B788F89889A88AB88BC882D893E8985
:100350004F89588D2D8F3E8F4F8F58A3FC01C08041
:10036000D180E280F3802481358146815781298FB5
:100370003A8F4B8F5C8F2D8D3E8D4F8D58A1C701CD
:10038000B6010E945B332B013C01A5019401698DEC
:100390007A8D8B8D9C8D0E945B339B01AC01C301D8
:1003A000B2010E941A302B013C01A5019401C70142
:1003B000B6010E945B336B017C012D8D3E8D4F8D0C
:1003C00058A1698D7A8D8B8D9C8D0E945B339B012A
:1003D000AC01C701B6010E941930AB01BC01930109
:1003E0008201CE0101960E940D0188E0FE01319646
:1003F000DE01199601900D928A95E1F729853A85DB
:100400004B855C856D857E858F859889A0960FB616
:10041000F894DEBF0FBECDBFDF91CF911F910F913A
:10042000FF90EF90DF90CF90BF90AF909F908F9014
:100430007F906F905F904F900895FC0120813181F3
:100440004281538164817581868197810E94AD309C
:100450000E947E30089585E080B981B18C7F81B99A
:10046000089594EA30EA24E896BF06B607FEFDCF69
:1004700081B1887F883009F041C033B926BF06B604
:1004800007FEFDCF81B1887F883171F773B984E8A9
:1004900086BF06B607FEFDCF81B1887F883281F521
:1004A00063B984E886BF06B607FEFDCF81B1887FB9
:1004B000883241F584EA86BF06B607FEFDCF81B1DA
:1004C000887F803109F581EA83B984E886BF06B662
:1004D00007FEFDCF81B1887F8034C1F484E886BFF8
:1004E00006B607FEFDCF81B1887F883589F483B1D8
:1004F00094E996BF06B604FCFDCF089580E0089508
:1005000080E0089580E0089580E0089580E00895F7
:1005100080E00895CF92DF92EF92FF920F931F93A6
:10052000CF93DF93CDB7DEB7C456D1090FB6F89499
:10053000DEBF0FBECDBF6C01CE0101967C0100E095
:1005400010E0B801C6010E943102F70181937F01DA
:100550008F3F81F4329720812F3F61F431972081C2
:100560002F3F41F4319720812F3F21F43197808133
:100570008F3F19F00F5F1F4FE4CFCE010196CC598A
:10058000DF4F0FB6F894DEBF0FBECDBFDF91CF9126
:100590001F910F91FF90EF90DF90CF90089581E031
:1005A00080935401089521E0861797070CF020E00E
:1005B00020934C0121E0681779070CF420E0209388
:1005C0004D0121E08617970709F020E020934E01A6
:1005D00021E0861797070CF420E020934F0121E0DB
:1005E000681779070CF020E02093500121E086176E
:1005F000970709F420E02093510121E0009709F0CA
:1006000020E02093520121E0892B09F420E020937F
:10061000530108950895CF92DF92EF92FF920F93C6
:100620001F93CF93DF931F92CDB7DEB76C01E62EF9
:10063000F72EBA0185E591E00E94E72E1C141D04F7
:100640000CF04BC00E2D1F2DE12CF12C6AE670E052
:1006500085E591E00E94D22E20E030E04AE754E4A4
:10066000F80160817181828193810E945B330E94D5
:100670004631CE0101960E947B2FBC0185E591E0B9
:100680000E94D22E6EE670E085E591E00E94D22EA7
:1006900020E030E04AE754E4F80164817581868106
:1006A00097810E945B330E944631CE0101960E94E1
:1006B0007B2FBC0185E591E00E94D22E65EC70E0B5
:1006C00085E591E00E94E72EFFEFEF1AFF0A085F31
:1006D0001F4FEC14FD0409F0B9CF0F90DF91CF91BB
:1006E0001F910F91FF90EF90DF90CF900895CF92E0
:1006F000DF92EF92FF92CF93DF936A017B010E941A
:10070000D235EC0120E03EEF4FEF56E4C701B601D1
:100710000E945B336B017C01BE01882777FD8095C9
:10072000982F0E9479319B01AC01C1E0D0E0C70154
:10073000B6010E94A232882314F4C0E0D0E0CE01BA
:10074000DF91CF91FF90EF90DF90CF9008952F929F
:100750003F924F925F926F927F928F929F92AF9251
:10076000BF92CF92DF92EF92FF920F931F93CF939E
:10077000DF93CDB7DEB7A4970FB6F894DEBF0FBEF8
:10078000CDBF8C016B015A01BA01882777FD809596
:10079000982F0E9479310E94E83228E132E741E344
:1007A0005FE30E94AD302B013C019B01AC010E9434
:1007B0001A300E94463169A37AA38BA39CA329A077
:1007C0003AA0C101880F991F880F991F880F991FA0
:1007D0000E945D344C011A141B040CF09DC020E0F3
:1007E00030E040E85FE3F6016081718182819381AE
:1007F0000E94A630811187C011C0F8E0CF0ED11C35
:1008000020E030E040E85FE3F601608171818281A1
:1008100093810E94A630811178C002C0E12CF12C96
:10082000C301B2010E944631AB01B701C8010E9469
:10083000F32E121413040CF06FC07C0154016401F8
:10084000F8E0CF0ED11C49A05AA0480E591E68945A
:10085000772473F8F70181917F01813329F500E056
:1008600010E09801B901A801CE0149960E940D013E
:10087000FE017996D501872D01900D928A95E1F7B9
:1008800000E010E0980140E050E060E87FE3CE0136
:1008900041960E940D01FE017196D601872D0190AF
:1008A0000D928A95E1F724C000E010E0980140E045
:1008B00050E060E87FE3CE0109960E940D01FE0141
:1008C0003996D501872D01900D928A95E1F700E0C8
:1008D00010E09801B901A801CE0101960E940D0116
:1008E000FE013196D601872D01900D928A95E1F790
:1008F000F0E1AF0EB11C20E1C20ED11CE414F504EE
:1009000009F0A8CF09C0E12CF12C8FEFE81AF80A02
:10091000EA14FB0409F071CFC401A4960FB6F89451
:10092000DEBF0FBECDBFDF91CF911F910F91FF9022
:10093000EF90DF90CF90BF90AF909F908F907F907F
:100940006F905F904F903F902F9008952F923F921D
:100950004F925F926F927F928F929F92AF92BF92CF
:10096000CF92DF92EF92FF920F931F93CF93DF937B
:10097000CDB7DEB728970FB6F894DEBF0FBECDBF58
:100980007C015B018A013E832D834130510509F4CE
:10099000BBC09A0140E050E060E070E40E94B42FD8
:1009A0000E94463178876F839B01220F331F220FED
:1009B000331F220F331F3C832B83C9010E945D34F8
:1009C00089839A838F819885181619060CF053C075
:1009D0001801220C331CC980DA80612C712CE2E0F2
:1009E000F0E0412C512CC601CF80D8844701988774
:1009F0008F832E163F0629F49FEF491A590AE2E029
:100A0000F0E07F012FEFE21AF20AEE0FFF1FEE0F68
:100A1000FF1FEE0FFF1FEA0DFB1D008111812281D8
:100A200033814481558166817781C201880F991F86
:100A3000880F991F880F991F8A0D9B1D0E948201A4
:100A4000EF81F885208331834283538364837583E8
:100A500086839783FFEF6F1A7F0A2F813885285F7F
:100A60003F4F38872F836C147D0411F0F701C1CFFD
:100A7000D886CF8274018D819E81892BA9F58981C9
:100A80009A8144C05101F101408151816281738199
:100A9000C7010E9477030197E9F48B819C81860D41
:100AA000971DF30110821182128213821482158223
:100AB000168217823896E817F907A1F780E090E0D0
:100AC000A0E8BFE3F50180839183A283B38389818A
:100AD0009A811CC0FFEFCF1ADF0A28E0220E311CDA
:100AE000C814D90479F606C049805A8000E010E0A5
:100AF0008F80988418141904ECF7642C752C242C1E
:100B0000352CC02ED12EBECF862F9B2D28960FB60A
:100B1000F894DEBF0FBECDBFDF91CF911F910F9133
:100B2000FF90EF90DF90CF90BF90AF909F908F900D
:100B30007F906F905F904F903F902F9008952F92ED
:100B40003F924F925F926F927F928F929F92AF925D
:100B5000BF92CF92DF92EF92FF920F931F93CF93AA
:100B6000DF93CDB7DEB728970FB6F894DEBF0FBE80
:100B7000CDBF9E838D837A836983042F152FC22E68
:100B8000D32ECB0182959295907F9827807F9827CE
:100B90000E945D348B839C8329803A80220C331C15
:100BA000121413040CF0ACC0A82EB92EE02EF12EB6
:100BB0000C2D1D2D812C912CB886AF826701F70179
:100BC000419051907F01662457FC6094762CC301BC
:100BD000B2010E9479312BED3FE049E450E40E94DC
:100BE0005B3320E030E044EB53E40E94AD300E94E0
:100BF000AA30EF81F8856083718382839383C30178
:100C0000B2010E9479312BED3FE049E450E40E94AB
:100C10005B3320E030E044EB53E40E94AD300E94AF
:100C2000BE332B013C015801F801619171918F0194
:100C3000882777FD8095982F0E9479312BED3FE032
:100C400049E450E40E945B3320E030E044E353E4A5
:100C50000E94AD300E94AA309B01AC01C301B201D9
:100C60000E945B33EF81F885608771878287938765
:100C7000F60160817181882777FD8095982F0E9409
:100C800079312BED3FE049E450E40E945B3320E0F2
:100C900030E044EB53E40E94AD300E94BE332B01A0
:100CA0003C01F50160817181882777FD8095982F3F
:100CB0000E9479312BED3FE049E450E40E945B3320
:100CC00020E030E044E353E40E94AD300E94BE33A4
:100CD0009B01AC01C301B2010E945B33EF81F88537
:100CE0006487758786879787F2E08F0E911C8F81C6
:100CF0009885409698878F83821493040CF45ECF76
:100D000045E750E06B817C81C1010E940B0321E02B
:100D100030E049815A816B817C818D819E810E9466
:100D2000A60428960FB6F894DEBF0FBECDBFDF91A4
:100D3000CF911F910F91FF90EF90DF90CF90BF90D8
:100D4000AF909F908F907F906F905F904F903F906B
:100D50002F9008954F925F926F927F928F929F9201
:100D6000AF92BF92CF92DF92EF92FF920F931F93B9
:100D7000CF93DF93EC01662E772E6A019A0140E053
:100D800050E060E070E40E94B42F0E9446314B01B5
:100D90005C0182E0C816D10444F0A401662D772DD1
:100DA000CE010E94A703682E792EC601880F991FD5
:100DB000880F991F0E945D34482E592ECC0CDD1CE3
:100DC0001C141D04F4F5E62CF72C082F192FC0E095
:100DD000D0E0C0FD19C0F7016081718182819381EB
:100DE0000E940B3020E030E044EB53E40E945B3380
:100DF0002BED3FE049E450E40E94AD300E944631C3
:100E0000F8017183608314C0C7010E941D0220E0B5
:100E100030E044E353E40E945B332BED3FE049E4D0
:100E200050E40E94AD300E944631F8017183608326
:100E30002196F8E0EF0EF11C0E5F1F4FCC15DD057B
:100E400041F64EE750E0662D772DC4010E940B035A
:100E5000842D952DDF91CF911F910F91FF90EF90F1
:100E6000DF90CF90BF90AF909F908F907F906F90CA
:100E70005F904F9008952F923F924F925F926F92A2
:100E80007F928F929F92AF92BF92CF92DF92EF921A
:100E9000FF920F931F93CF93DF93CDB7DEB7609789
:100EA0000FB6F894DEBF0FBECDBF4B013A0180E113
:100EB00090E00E945D34382E292EC82ED92EA12C08
:100EC000B12C240188E0480E511CCE0109960E94E5
:100ED0001B017501EE0CFF1CEE0CFF1CEE0CFF1C41
:100EE000E60CF71CD7010C9111961C9111971296E4
:100EF0002C91129713963C91139714964C9114973A
:100F000015965C91159716966C91169717967C918D
:100F1000C4010E948201022F132F242F352F462F48
:100F2000572F682F792FCE0109960E942501298716
:100F30003A874B875C876D877E878F87988BF70111
:100F40007096D70150960C91118122813381448192
:100F5000558166817781C2010E948201022F132F81
:100F6000242F352F462F572F682F792FCE01099622
:100F70000E94250129873A874B875C876D877E878A
:100F80008F87988B89859A85AB85BC85F601808390
:100F90009183A283B3838D859E85AF85B889848331
:100FA0009583A683B783FFEFAF1ABF0A88E0C80E08
:100FB000D11CA2E0AA16B10409F087CF832D922D8F
:100FC00060960FB6F894DEBF0FBECDBFDF91CF9114
:100FD0001F910F91FF90EF90DF90CF90BF90AF9057
:100FE0009F908F907F906F905F904F903F902F9049
:100FF00008952F923F924F925F926F927F928F92BD
:101000009F92AF92BF92CF92DF92EF92FF920F9397
:101010001F93CF93DF93CDB7DEB764970FB6F894E5
:10102000DEBF0FBECDBF3B01E42EF52E80E290E087
:101030000E945D348B8B9C8B482E592E812C912CD9
:10104000E98AFA8A212C312CCE0109960E941B01D3
:10105000C988DA88E22CF32C5401AA0CBB1CAA0C18
:10106000BB1CAA0CBB1CF501EC0DFD1D0081118100
:10107000228133814481558166817781C3018E0D40
:101080009F1D0E94820129833A834B835C836D8379
:101090007E838F839887022F132F242F352F462F7F
:1010A000572F682F792FCE0109960E942501298795
:1010B0003A874B875C876D877E878F87988B88E020
:1010C000E80EF11CE0E2CE0ED11CF0E2EF16F104C6
:1010D00051F689859A85AB85BC85F2018083918321
:1010E000A283B3838D859E85AF85B88984839583DC
:1010F000A683B783FFEF8F1A9F0A88E0480E511C22
:10110000E4E08E16910409F09FCF8B899C89649648
:101110000FB6F894DEBF0FBECDBFDF91CF911F9108
:101120000F91FF90EF90DF90CF90BF90AF909F9086
:101130008F907F906F905F904F903F902F90089589
:101140002F923F924F925F926F927F928F929F92D7
:10115000AF92BF92CF92DF92EF92FF920F931F93C5
:10116000CF93DF93CDB7DEB762970FB6F894DEBFAB
:101170000FBECDBF4B01342E252E80E490E00E949F
:101180005D34898B9A8B482E592E612C712CCE019F
:1011900009960E941B01C32CD22CE12CF12C530187
:1011A000AA0CBB1CAA0CBB1CAA0CBB1CF501EC0DA9
:1011B000FD1D008111812281338144815581668129
:1011C0007781C4018E0D9F1D0E94820129833A837D
:1011D0004B835C836D837E838F839887022F132FCD
:1011E000242F352F462F572F682F792FCE010996A0
:1011F0000E94250129873A874B875C876D877E8708
:101200008F87988B88E0E80EF11CE0E4CE0ED11CAD
:10121000F0E4EF16F10451F689859A85AB85BC851B
:10122000F20180839183A283B3838D859E85AF85F0
:10123000B88984839583A683B783FFEF6F1A7F0AEB
:1012400088E0480E511CE8E06E16710409F09FCF4B
:1012500089899A8962960FB6F894DEBF0FBECDBF1A
:10126000DF91CF911F910F91FF90EF90DF90CF9082
:10127000BF90AF909F908F907F906F905F904F90B6
:101280003F902F900895AF92BF92CF92DF92EF924E
:10129000FF920F931F93CF93DF93CDB7DEB7A49741
:1012A0000FB6F894DEBF0FBECDBF7C015B016A01B3
:1012B00000E010E09801B901A801CE0101960E945A
:1012C0000D0100E010E0980140E050E060E87FE3AD
:1012D000CE0109960E940D0100E010E0980140E067
:1012E00050E060E87FE3CE0141960E940D0100E0EE
:1012F00010E09801B901A801CE0149960E940D01A4
:10130000BCA2ABA2DAA2C9A29E012F5D3F4FAE01E3
:101310004D5D5F4F61E070E0C7010E949F05AE0127
:101320004F5F5F4FBC01C7010E943B0741E050E0A7
:10133000BC01C7010E94AA06A4960FB6F894DEBFAE
:101340000FBECDBFDF91CF911F910F91FF90EF9016
:10135000DF90CF90BF90AF900895AF92BF92CF92A1
:10136000DF92EF92FF920F931F93CF93DF93CDB74E
:10137000DEB7A4970FB6F894DEBF0FBECDBF7C01D9
:101380005B016A0100E010E09801B901A801CE01FB
:1013900001960E940D0100E010E020E83FEB40E0E4
:1013A00050E0BA01CE0109960E940D0100E010E064
:1013B00020E83FE340E050E0BA01CE0141960E94B0
:1013C0000D0100E010E09801B901A801CE01499695
:1013D0000E940D01BCA2ABA2DAA2C9A29E012F5DA0
:1013E0003F4FAE014D5D5F4F61E070E0C7010E946D
:1013F0009F05AE014F5F5F4FBC01C7010E943B07D5
:1014000041E050E0BC01C7010E94AA06A4960FB6B5
:10141000F894DEBF0FBECDBFDF91CF911F910F912A
:10142000FF90EF90DF90CF90BF90AF900895AF9274
:10143000BF92CF92DF92EF92FF920F931F93CF93C1
:10144000DF93CDB7DEB7A4970FB6F894DEBF0FBE1B
:10145000CDBF7C015B016A0100E010E0980140E033
:1014600050E060E87FE3CE0101960E940D0100E0AC
:1014700010E09801B901A801CE0109960E940D0162
:1014800000E010E09801B901A801CE0141960E9448
:101490000D0100E010E0980140E050E060E87FEBD3
:1014A000CE0149960E940D01BCA2ABA2DAA2C9A24C
:1014B0009E012F5D3F4FAE014D5D5F4F61E070E0DB
:1014C000C7010E949F05AE014F5F5F4FBC01C7017E
:1014D0000E943B0741E050E0BC01C7010E94AA0600
:1014E000A4960FB6F894DEBF0FBECDBFDF91CF91AB
:1014F0001F910F91FF90EF90DF90CF90BF90AF9032
:101500000895AF92BF92CF92DF92EF92FF920F9326
:101510001F93CF93DF93CDB7DEB7A4970FB6F894A0
:10152000DEBF0FBECDBF7C015B016A0100E010E0B1
:10153000980143EF54E065E37FE3CE0101960E94FA
:101540000D0100E010E0980143EF54E065E37FE314
:10155000CE0109960E940D0100E010E0980143EFD2
:1015600054E065E37FE3CE0141960E940D0100E067
:1015700010E0980143EF54E065E37FEBCE0149961C
:101580000E940D01BCA2ABA2DAA2C9A29E012F5DEE
:101590003F4FAE014D5D5F4F61E070E0C7010E94BB
:1015A0009F05AE014F5F5F4FBC01C7010E943B0723
:1015B00041E050E0BC01C7010E94AA06A4960FB604
:1015C000F894DEBF0FBECDBFDF91CF911F910F9179
:1015D000FF90EF90DF90CF90BF90AF900895AF92C3
:1015E000BF92CF92DF92EF92FF920F931F93CF9310
:1015F000DF93CDB7DEB7A4970FB6F894DEBF0FBE6A
:10160000CDBF7C015B016A0100E010E0980140E081
:1016100050E060E87FE3CE0101960E940D0100E0FA
:1016200010E09801B901A801CE0109960E940D01B0
:1016300000E010E09801B901A801CE0141960E9496
:101640000D0100E010E020E83FE340E050E0BA0187
:10165000CE0149960E940D01BCA2ABA2DAA2C9A29A
:101660009E012F5D3F4FAE014D5D5F4F61E070E029
:10167000C7010E949F05AE014F5F5F4FBC01C701CC
:101680000E943B0741E050E0BC01C7010E94AA064E
:10169000A4960FB6F894DEBF0FBECDBFDF91CF91F9
:1016A0001F910F91FF90EF90DF90CF90BF90AF9080
:1016B0000895AF92BF92CF92DF92EF92FF920F9375
:1016C0001F93CF93DF93CDB7DEB7A4970FB6F894EF
:1016D000DEBF0FBECDBF7C015B016A0100E010E000
:1016E000980140E050E060E87FE3CE0101960E945F
:1016F0000D0100E010E09801B901A801CE010996A2
:101700000E940D0100E010E09801B901A801CE018E
:1017100041960E940D0103EF14E025E33FE3B90178
:10172000A801CE0149960E940D01BCA2ABA2DAA28B
:10173000C9A29E012F5D3F4FAE014D5D5F4F61E03D
:1017400070E0C7010E949F05AE014F5F5F4FBC0173
:10175000C7010E943B0741E050E0BC01C7010E9465
:10176000AA06A4960FB6F894DEBF0FBECDBFDF91D8
:10177000CF911F910F91FF90EF90DF90CF90BF908E
:10178000AF9008956F927F928F929F92AF92BF9287
:10179000CF92DF92EF92FF920F931F93CF93DF933D
:1017A000CDB7DEB7C858D1090FB6F894DEBF0FBE6B
:1017B000CDBF7C013B015A014901680100E010E006
:1017C000980140E050E060E87FE3CE0101960E947E
:1017D0000D0100E010E09801B901A801CE010996C1
:1017E0000E940D0100E010E09801B901A801CE01AE
:1017F00041960E940D0100E010E09801B901A80196
:10180000CE0149960E940D0100E010E09801B90157
:10181000A801CE0181960E940D0100E010E0980120
:1018200040E050E060E87FE3CE0189960E940D0120
:1018300000E010E09801B901A801CE01C1960E9414
:101840000D0100E010E09801B901A801CE01C99690
:101850000E940D0100E010E09801B901A801CE013D
:101860008F5B9F4F0E940D0100E010E09801B901CD
:10187000A801CE01875B9F4F0E940D0100E010E0A0
:101880009801B901A801CE018F5A9F4F0E940D0106
:1018900000E010E0980140E050E060E87FE3CE0116
:1018A000875A9F4F0E940D0100E010E09801B90196
:1018B000A801CE018F599F4F0E940D0100E010E05A
:1018C0009801B901A801CE0187599F4F0E940D01CF
:1018D00000E010E0980140E050E060E87FE3CE01D6
:1018E0008F589F4F0E940D0100E010E09801B90150
:1018F000A801CE0187589F4F0E940D01CB57DF4FA3
:1019000079826882C558D040C957DF4F9982888252
:10191000C758D040CF57DF4FB982A882C158D040B6
:10192000CD57DF4FD982C882C358D0409E012F5770
:101930003F4FAE014B575F4F62E070E0C7010E941E
:101940009F05AE014F5F5F4FBC01C7010E94F907C1
:1019500042E050E0BC01C7010E94AA06C857DF4F11
:101960000FB6F894DEBF0FBECDBFDF91CF911F91B0
:101970000F91FF90EF90DF90CF90BF90AF909F902E
:101980008F907F906F9008956F927F928F929F9229
:10199000AF92BF92CF92DF92EF92FF920F931F937D
:1019A000CF93DF93CDB7DEB7C858D1090FB6F894FF
:1019B000DEBF0FBECDBF7C013B015A01490168016A
:1019C00000E010E0980140E050E060E87FE3CE01E5
:1019D00001960E940D0100E010E09801B901A801F4
:1019E000CE0109960E940D0100E010E09801B901B6
:1019F000A801CE0141960E940D0100E010E098017F
:101A0000B901A801CE0149960E940D0100E010E045
:101A10009801B901A801CE0181960E940D0100E054
:101A200010E0980140E050E060E87FE3CE01899645
:101A30000E940D0100E010E09801B901A801CE015B
:101A4000C1960E940D0100E010E09801B901A801C3
:101A5000CE01C9960E940D0100E010E09801B90185
:101A6000A801CE018F5B9F4F0E940D0100E010E0A6
:101A70009801B901A801CE01875B9F4F0E940D011B
:101A800000E010E0980140E050E060E87FE3CE0124
:101A90008F5A9F4F0E940D0100E010E09801B9019C
:101AA000A801CE01875A9F4F0E940D0100E010E06F
:101AB0009801B901A801CE018F599F4F0E940D01D5
:101AC00000E010E09801B901A801CE0187599F4FAD
:101AD0000E940D0100E010E09801B901A801CE01BB
:101AE0008F589F4F0E940D0100E010E0980140E0E8
:101AF00050E060E87FEBCE0187589F4F0E940D01B8
:101B0000CB57DF4F79826882C558D040C957DF4F25
:101B100099828882C758D040CF57DF4FB982A882B8
:101B2000C158D040CD57DF4FD982C882C358D0406A
:101B30009E012F573F4FAE014B575F4F62E070E061
:101B4000C7010E949F05AE014F5F5F4FBC01C701F7
:101B50000E94F90742E050E0BC01C7010E94AA06BA
:101B6000C857DF4F0FB6F894DEBF0FBECDBFDF9171
:101B7000CF911F910F91FF90EF90DF90CF90BF908A
:101B8000AF909F908F907F906F9008956F927F920B
:101B90008F929F92AF92BF92CF92DF92EF92FF927D
:101BA0000F931F93CF93DF93CDB7DEB7C858D109FA
:101BB0000FB6F894DEBF0FBECDBF7C013B015A01CA
:101BC0004901680100E010E0980140E050E060E861
:101BD0007FE3CE0101960E940D0100E010E0980124
:101BE000B901A801CE0109960E940D0100E010E0A4
:101BF0009801B901A801CE0141960E940D0100E0B3
:101C000010E09801B901A801CE0149960E940D018A
:101C100000E010E09801B901A801CE0181960E9470
:101C20000D0100E010E09801B901A801CE018996EC
:101C30000E940D0100E010E0980140E050E060E8F3
:101C40007FE3CE01C1960E940D0100E010E09801F3
:101C5000B901A801CE01C9960E940D0100E010E073
:101C60009801B901A801CE018F5B9F4F0E940D0121
:101C700000E010E0980140E050E060E87FE3CE0132
:101C8000875B9F4F0E940D0100E010E09801B901B1
:101C9000A801CE018F5A9F4F0E940D0100E010E075
:101CA0009801B901A801CE01875A9F4F0E940D01EA
:101CB00000E010E09801B901A801CE018F599F4FB3
:101CC0000E940D0100E010E09801B901A801CE01C9
:101CD00087599F4F0E940D0100E010E09801B90163
:101CE000A801CE018F589F4F0E940D0100E010E027
:101CF000980140E050E060E87FE3CE0187589F4FB5
:101D00000E940D01CB57DF4F79826882C558D040C1
:101D1000C957DF4F99828882C758D040CF57DF4FCD
:101D2000B982A882C158D040CD57DF4FD982C8822E
:101D3000C358D0409E012F573F4FAE014B575F4FC6
:101D400062E070E0C7010E949F05AE014F5F5F4FE8
:101D5000BC01C7010E94F90742E050E0BC01C70185
:101D60000E94AA06C857DF4F0FB6F894DEBF0FBE19
:101D7000CDBFDF91CF911F910F91FF90EF90DF903A
:101D8000CF90BF90AF909F908F907F906F9008956D
:101D90006F927F928F929F92AF92BF92CF92DF927B
:101DA000EF92FF920F931F93CF93DF93CDB7DEB7E0
:101DB000C858D1090FB6F894DEBF0FBECDBF7C0165
:101DC0003B015A014901680100E010E09801B901A6
:101DD000A801CE0101960E940D0100E010E09801DB
:101DE00040E050E060E87FE3CE0109960E940D01DB
:101DF00000E010E09801B901A801CE0141960E94CF
:101E00000D0100E010E09801B901A801CE0149964A
:101E10000E940D0100E010E09801B901A801CE0177
:101E200081960E940D0100E010E09801B901A8011F
:101E3000CE0189960E940D0100E010E0980140E07B
:101E400050E060E87FE3CE01C1960E940D0100E002
:101E500010E09801B901A801CE01C9960E940D01B8
:101E600000E010E09801B901A801CE018F5B9F4FFF
:101E70000E940D0100E010E09801B901A801CE0117
:101E8000875B9F4F0E940D0100E010E09801B901AF
:101E9000A801CE018F5A9F4F0E940D0100E010E073
:101EA000980140E050E060E87FE3CE01875A9F4F01
:101EB0000E940D0100E010E0980140E050E060E871
:101EC0007FE3CE018F599F4F0E940D0100E010E08B
:101ED0009801B901A801CE0187599F4F0E940D01B9
:101EE00000E010E09801B901A801CE018F589F4F82
:101EF0000E940D0100E010E09801B901A801CE0197
:101F000087589F4F0E940D01CB57DF4F798268821F
:101F1000C558D040C957DF4F99828882C758D040F2
:101F2000CF57DF4FB982A882C158D040CD57DF4F7D
:101F3000D982C882C358D0409E012F573F4FAE016F
:101F40004B575F4F62E070E0C7010E949F05AE01F2
:101F50004F5F5F4FBC01C7010E94F90742E050E0AC
:101F6000BC01C7010E94AA06C857DF4F0FB6F894FC
:101F7000DEBF0FBECDBFDF91CF911F910F91FF90BC
:101F8000EF90DF90CF90BF90AF909F908F907F9019
:101F90006F9008956F927F928F929F92AF92BF92AF
:101FA000CF92DF92EF92FF920F931F93CF93DF9325
:101FB000CDB7DEB7C858D1090FB6F894DEBF0FBE53
:101FC000CDBF7C013B015A014901680100E010E0EE
:101FD0009801B901A801CE0101960E940D0100E00F
:101FE00010E09801B901A801CE0109960E940D01E7
:101FF00000E010E09801B901A801CE0141960E94CD
:102000000D0100E010E0980140E050E060E87FE35F
:10201000CE0149960E940D0100E010E0980140E0D9
:1020200050E060E87FE3CE0181960E940D0100E060
:1020300010E09801B901A801CE0189960E940D0116
:1020400000E010E09801B901A801CE01C1960E94FC
:102050000D0100E010E09801B901A801CE01C99678
:102060000E940D0100E010E09801B901A801CE0125
:102070008F5B9F4F0E940D0100E010E0980140E04F
:1020800050E060E87FE3CE01875B9F4F0E940D0127
:1020900000E010E09801B901A801CE018F5A9F4FCE
:1020A0000E940D0100E010E09801B901A801CE01E5
:1020B000875A9F4F0E940D0100E010E09801B9017E
:1020C000A801CE018F599F4F0E940D0100E010E042
:1020D0009801B901A801CE0187599F4F0E940D01B7
:1020E00000E010E0980140E050E060E87FE3CE01BE
:1020F0008F589F4F0E940D0100E010E09801B90138
:10210000A801CE0187589F4F0E940D01CB57DF4F8A
:1021100079826882C558D040C957DF4F998288823A
:10212000C758D040CF57DF4FB982A882C158D0409E
:10213000CD57DF4FD982C882C358D0409E012F5758
:102140003F4FAE014B575F4F62E070E0C7010E9406
:102150009F05AE014F5F5F4FBC01C7010E94F907A9
:1021600042E050E0BC01C7010E94AA06C857DF4FF9
:102170000FB6F894DEBF0FBECDBFDF91CF911F9198
:102180000F91FF90EF90DF90CF90BF90AF909F9016
:102190008F907F906F9008956F927F928F929F9211
:1021A000AF92BF92CF92DF92EF92FF920F931F9365
:1021B000CF93DF93CDB7DEB7C858D1090FB6F894E7
:1021C000DEBF0FBECDBF7C013B015A014901680152
:1021D00000E010E0980140E050E060E87FE3CE01CD
:1021E00001960E940D0100E010E09801B901A801DC
:1021F000CE0109960E940D0100E010E09801B9019E
:10220000A801CE0141960E940D0100E010E0980166
:10221000B901A801CE0149960E940D0100E010E02D
:102220009801B901A801CE0181960E940D0100E03C
:1022300010E020E03FE3B901A801CE0189960E9499
:102240000D0100E010E020E03FEB40E050E060E0F6
:102250007FE3CE01C1960E940D0100E010E09801DD
:10226000B901A801CE01C9960E940D0100E010E05D
:102270009801B901A801CE018F5B9F4F0E940D010B
:1022800000E010E020E03FEB40E050E060E07FE362
:10229000CE01875B9F4F0E940D0100E010E020E01F
:1022A0003FE3B901A801CE018F5A9F4F0E940D0153
:1022B00000E010E09801B901A801CE01875A9F4FB4
:1022C0000E940D0100E010E09801B901A801CE01C3
:1022D0008F599F4F0E940D0100E010E09801B90155
:1022E000A801CE0187599F4F0E940D0100E010E028
:1022F0009801B901A801CE018F589F4F0E940D018E
:1023000000E010E0980140E050E060E87FE3CE019B
:1023100087589F4F0E940D01CB57DF4F798268820B
:10232000C558D040C957DF4F99828882C758D040DE
:10233000CF57DF4FB982A882C158D040CD57DF4F69
:10234000D982C882C358D0409E012F573F4FAE015B
:102350004B575F4F62E070E0C7010E949F05AE01DE
:102360004F5F5F4FBC01C7010E94F90742E050E098
:10237000BC01C7010E94AA06C857DF4F0FB6F894E8
:10238000DEBF0FBECDBFDF91CF911F910F91FF90A8
:10239000EF90DF90CF90BF90AF909F908F907F9005
:1023A0006F9008956F927F928F929F92AF92BF929B
:1023B000CF92DF92EF92FF920F931F93CF93DF9311
:1023C000CDB7DEB7C858D1090FB6F894DEBF0FBE3F
:1023D000CDBF7C013B015A014901680100E010E0DA
:1023E000980140E050E060E87FE3CE0101960E9452
:1023F0000D0100E010E09801B901A801CE01099695
:102400000E940D0100E010E09801B901A801CE0181
:1024100041960E940D0100E010E09801B901A80169
:10242000CE0149960E940D0100E010E09801B9012B
:10243000A801CE0181960E940D0100E010E09801F4
:10244000B901A801CE0189960E940D0100E010E0BB
:1024500020E83FE340E050E0BA01CE01C1960E947F
:102460000D0100E010E09801B901A801CE01C99664
:102470000E940D0100E010E09801B901A801CE0111
:102480008F5B9F4F0E940D0100E010E020E83FE3CA
:1024900040E050E0BA01CE01875B9F4F0E940D01E2
:1024A00000E010E09801B901A801CE018F5A9F4FBA
:1024B0000E940D0100E010E09801B901A801CE01D1
:1024C000875A9F4F0E940D0100E010E09801B9016A
:1024D000A801CE018F599F4F0E940D0100E010E02E
:1024E0009801B901A801CE0187599F4F0E940D01A3
:1024F00000E010E09801B901A801CE018F589F4F6C
:102500000E940D0100E010E0980140E050E060E81A
:102510007FE3CE0187589F4F0E940D01CB57DF4FBD
:1025200079826882C558D040C957DF4F9982888226
:10253000C758D040CF57DF4FB982A882C158D0408A
:10254000CD57DF4FD982C882C358D0409E012F5744
:102550003F4FAE014B575F4F62E070E0C7010E94F2
:102560009F05AE014F5F5F4FBC01C7010E94F90795
:1025700042E050E0BC01C7010E94AA06C857DF4FE5
:102580000FB6F894DEBF0FBECDBFDF91CF911F9184
:102590000F91FF90EF90DF90CF90BF90AF909F9002
:1025A0008F907F906F9008952F923F924F925F92FD
:1025B0006F927F928F929F92AF92BF92CF92DF9253
:1025C000EF92FF920F931F93CF93DF93CDB7DEB7B8
:1025D000A4970FB6F894DEBF0FBECDBF7C011B01E0
:1025E0006A01B901882777FD8095982F0E9479317B
:1025F0002BED3FE049E450E40E945B3320E030E003
:1026000044E353E40E94AD3020E030E040E05FE37B
:102610000E945B334B015C010E94AA302B013C01FC
:1026200000E010E09801AB01BC01CE0101960E94D0
:102630000D01C501B4010E94BE334B015C01B7FA24
:10264000B094B7F8B0949501840140E050E0BA012D
:10265000CE0109960E940D019501840140E050E0F1
:10266000BA01CE0141960E940D0100E010E09801F0
:10267000B301A201CE0149960E940D013CA22BA2FA
:10268000DAA2C9A29E012F5D3F4FAE014D5D5F4FA3
:1026900061E070E0C7010E949F05AE014F5F5F4F90
:1026A000BC01C7010E943B0741E050E0BC01C701EB
:1026B0000E94AA06A4960FB6F894DEBF0FBECDBF47
:1026C000DF91CF911F910F91FF90EF90DF90CF900E
:1026D000BF90AF909F908F907F906F905F904F9042
:1026E0003F902F9008952F923F924F925F926F925A
:1026F0007F928F929F92AF92BF92CF92DF92EF9292
:10270000FF920F931F93CF93DF93CDB7DEB7A497BC
:102710000FB6F894DEBF0FBECDBF7C011B016A016E
:10272000B901882777FD8095982F0E9479312BED8C
:102730003FE049E450E40E945B3320E030E044E3B2
:1027400053E40E94AD3020E030E040E05FE30E94BF
:102750005B334B015C010E94AA302B013C0100E07D
:1027600010E09801AB01BC01CE0101960E940D0161
:10277000C501B4010E94BE334B015C01AB01BC0139
:10278000705800E010E09801CE0109960E940D01FA
:1027900000E010E09801B501A401CE0141960E942D
:1027A0000D0100E010E09801B301A201CE014996AD
:1027B0000E940D013CA22BA2DAA2C9A29E012F5DAC
:1027C0003F4FAE014D5D5F4F61E070E0C7010E9479
:1027D0009F05AE014F5F5F4FBC01C7010E943B07E1
:1027E00041E050E0BC01C7010E94AA06A4960FB6C2
:1027F000F894DEBF0FBECDBFDF91CF911F910F9137
:10280000FF90EF90DF90CF90BF90AF909F908F9010
:102810007F906F905F904F903F902F9008954F92D0
:102820005F926F927F92AF92BF92CF92DF92EF92C0
:10283000FF920F931F93CF93DF93CDB7DEB7A4978B
:102840000FB6F894DEBF0FBECDBF7C015B016A01FD
:10285000B901882777FD8095982F0E9479312BED5B
:102860003FE049E450E40E945B3320E030E044E381
:1028700053E40E94AD302B013C01905820E030E041
:1028800040E05FE30E945B330E941A318B019C01A0
:1028900040E050E0BA01CE0101960E940D0100E037
:1028A00010E09801B901A801CE0109960E940D011E
:1028B00000E010E09801B901A801CE0141960E9404
:1028C0000D0120E030E040E05FE3C301B2010E946F
:1028D0005B330E941A318B019C0140E050E0BA0149
:1028E000CE0149960E940D01BCA2ABA2DAA2C9A2F8
:1028F0009E012F5D3F4FAE014D5D5F4F61E070E087
:10290000C7010E949F05AE014F5F5F4FBC01C70129
:102910000E943B0741E050E0BC01C7010E94AA06AB
:10292000A4960FB6F894DEBF0FBECDBFDF91CF9156
:102930001F910F91FF90EF90DF90CF90BF90AF90DD
:102940007F906F905F904F9008952F923F924F929B
:102950005F926F927F928F929F92AF92BF92CF922F
:10296000DF92EF92FF920F931F93CF93DF93CDB738
:10297000DEB7CC50D2400FB6F894DEBF0FBECDBF4D
:102980005C013B012A014901180100E010E09801B7
:1029900040E050E060E87FE3CE0101960E940D0127
:1029A00000E010E09801B901A801CE0109960E944B
:1029B0000D0100E010E09801B901A801CE01419697
:1029C0000E940D0100E010E09801B901A801CE01BC
:1029D00049960E940D0100E010E09801B901A8019C
:1029E000CE0181960E940D0100E010E09801B9012E
:1029F000A801CE0189960E940D0100E010E0980127
:102A0000B901A801CE01C1960E940D0100E010E0BD
:102A10009801B901A801CE01C9960E940D0100E0FC
:102A200010E09801B901A801CE018F5B9F4F0E9471
:102A30000D0100E010E0980140E050E060E87FE325
:102A4000CE01875B9F4F0E940D0100E010E09801CE
:102A5000B901A801CE018F5A9F4F0E940D0100E0DD
:102A600010E09801B901A801CE01875A9F4F0E943A
:102A70000D0100E010E09801B901A801CE018F59C5
:102A80009F4F0E940D0100E010E09801B901A801DC
:102A9000CE0187599F4F0E940D0100E010E0980180
:102AA000B901A801CE018F589F4F0E940D0100E08F
:102AB00010E09801B901A801CE0187589F4F0E94EC
:102AC0000D0100E010E09801B901A801CE018F5777
:102AD0009F4F0E940D0100E010E09801B901A8018C
:102AE000CE0187579F4F0E940D0100E010E0980132
:102AF00040E050E060E87FE3CE018F569F4F0E9498
:102B00000D0100E010E09801B901A801CE0187563F
:102B10009F4F0E940D0100E010E09801B901A8014B
:102B2000CE018F559F4F0E940D0100E010E09801EB
:102B3000B901A801CE0187559F4F0E940D0100E009
:102B400010E09801B901A801CE018F549F4F0E9457
:102B50000D0100E010E09801B901A801CE018754F1
:102B60009F4F0E940D0100E010E09801B901A801FB
:102B7000CE018F539F4F0E940D0100E010E098019D
:102B8000B901A801CE0187539F4F0E940D0100E0BB
:102B900010E09801B901A801CE018F529F4F0E9409
:102BA0000D0100E010E0980140E050E060E87FE3B4
:102BB000CE0187529F4F0E940D0100E010E0980166
:102BC000B901A801CE018F519F4F0E940D0100E075
:102BD00010E09801B901A801CE0187519F4F0E94D2
:102BE0000D0100E010E09801B901A801CE018F505D
:102BF0009F4F0E940D0100E010E09801B901A8016B
:102C0000CE0187509F4F0E940D0100E010E0980117
:102C1000B901A801CE018F5F9E4F0E940D0100E017
:102C200010E09801B901A801CE01875F9E4F0E9474
:102C30000D0100E010E09801B901A801CE018F5EFE
:102C40009E4F0E940D0100E010E09801B901A8011B
:102C5000CE01875E9E4F0E940D0100E010E09801BA
:102C600040E050E060E87FE3CE018F5D9E4F0E9420
:102C70000D0100E010E09801B901A801CE01875DC7
:102C80009E4F0E940D0100E010E09801B901A801DB
:102C9000CE018F5C9E4F0E940D0100E010E0980174
:102CA000B901A801CE01875C9E4F0E940D0100E092
:102CB00010E09801B901A801CE018F5B9E4F0E94E0
:102CC0000D0100E010E09801B901A801CE01875B79
:102CD0009E4F0E940D0100E010E09801B901A8018B
:102CE000CE018F5A9E4F0E940D0100E010E0980126
:102CF000B901A801CE01875A9E4F0E940D0100E044
:102D000010E09801B901A801CE018F599E4F0E9491
:102D10000D0100E010E09801B901A801CE0187592A
:102D20009E4F0E940D0100E010E0980140E050E04D
:102D300060E87FE3CE018F589E4F0E940D0100E0B6
:102D400010E09801B901A801CE0187589E4F0E945A
:102D50000D0100E010E09801B901A801CE018F57E4
:102D60009E4F0E940D0100E010E09801B901A801FA
:102D7000CE0187579E4F0E940D0100E010E09801A0
:102D8000B901A801CE018F569E4F0E940D0100E0AF
:102D900010E09801B901A801CE0187569E4F0E940C
:102DA0000D0100E010E09801B901A801CE018F5596
:102DB0009E4F0E940D0100E010E0980140E050E0BD
:102DC00060E87FE3CE0187559E4F0E940D0100E031
:102DD00010E09801B901A801CE018F549E4F0E94C6
:102DE0000D0100E010E09801B901A801CE0187545F
:102DF0009E4F0E940D0100E010E09801B901A8016A
:102E0000CE018F539E4F0E940D0100E010E098010B
:102E1000B901A801CE0187539E4F0E940D0100E029
:102E200010E09801B901A801CE018F529E4F0E9477
:102E30000D0100E010E09801B901A801CE01875210
:102E40009E4F0E940D0100E010E09801B901A80119
:102E5000CE018F519E4F0E940D0100E010E09801BD
:102E6000B901A801CE0187519E4F0E940D0100E0DB
:102E700010E09801B901A801CE018F509E4F0E9429
:102E80000D0100E010E0980140E050E060E87FE3D1
:102E9000CE0187509E4F0E940D01C95FDD4F7982A0
:102EA0006882C750D240C75FDD4F99828882C9507F
:102EB000D240C55FDD4FF982E882CB50D240CF5F70
:102EC000DD4F59824882C150D240CD5FDD4F3982FB
:102ED0002882C350D240CB5FDD4FD982C882C55013
:102EE000D2409E012F5F3D4FAE01495F5D4F63E0D1
:102EF00070E0C5010E949F05AE014F5F5F4FBC01AE
:102F0000C5010E94A00843E050E0BC01C5010E9439
:102F1000AA06C45FDD4F0FB6F894DEBF0FBECDBF6B
:102F2000DF91CF911F910F91FF90EF90DF90CF90A5
:102F3000BF90AF909F908F907F906F905F904F90D9
:102F40003F902F9008952F923F924F925F926F92F1
:102F50007F928F929F92AF92BF92CF92DF92EF9229
:102F6000FF920F931F93CF93DF93CDB7DEB7CC5073
:102F7000D2400FB6F894DEBF0FBECDBF5C013B015F
:102F80002A014901180100E010E0980140E050E0FA
:102F900060E87FE3CE0101960E940D0100E010E0A1
:102FA0009801B901A801CE0109960E940D0100E027
:102FB00010E09801B901A801CE0141960E940D01CF
:102FC00000E010E09801B901A801CE0149960E94E5
:102FD0000D0100E010E09801B901A801CE01819631
:102FE0000E940D0100E010E09801B901A801CE0196
:102FF00089960E940D0100E010E09801B901A80136
:10300000CE01C1960E940D0100E010E09801B901C7
:10301000A801CE01C9960E940D0100E010E09801C0
:10302000B901A801CE018F5B9F4F0E940D0100E006
:1030300010E0980140E050E060E87FE3CE01875B5C
:103040009F4F0E940D0100E010E09801B901A80116
:10305000CE018F5A9F4F0E940D0100E010E09801B1
:10306000B901A801CE01875A9F4F0E940D0100E0CF
:1030700010E09801B901A801CE018F599F4F0E941D
:103080000D0100E010E09801B901A801CE018759B7
:103090009F4F0E940D0100E010E09801B901A801C6
:1030A000CE018F589F4F0E940D0100E010E0980163
:1030B000B901A801CE0187589F4F0E940D0100E081
:1030C00010E09801B901A801CE018F579F4F0E94CF
:1030D0000D0100E010E09801B901A801CE01875769
:1030E0009F4F0E940D0100E010E0980140E050E089
:1030F00060E87FE3CE018F569F4F0E940D0100E0F4
:1031000010E09801B901A801CE0187569F4F0E9497
:103110000D0100E010E09801B901A801CE018F5522
:103120009F4F0E940D0100E010E09801B901A80135
:10313000CE0187559F4F0E940D0100E010E09801DD
:10314000B901A801CE018F549F4F0E940D0100E0EC
:1031500010E09801B901A801CE0187549F4F0E9449
:103160000D0100E010E09801B901A801CE018F53D4
:103170009F4F0E940D0100E010E09801B901A801E5
:10318000CE0187539F4F0E940D0100E010E098018F
:10319000B901A801CE018F529F4F0E940D0100E09E
:1031A00010E0980140E050E060E87FE3CE018752F4
:1031B0009F4F0E940D0100E010E09801B901A801A5
:1031C000CE018F519F4F0E940D0100E010E0980149
:1031D000B901A801CE0187519F4F0E940D0100E067
:1031E00010E09801B901A801CE018F509F4F0E94B5
:1031F0000D0100E010E09801B901A801CE0187504F
:103200009F4F0E940D0100E010E09801B901A80154
:10321000CE018F5F9E4F0E940D0100E010E09801EB
:10322000B901A801CE01875F9E4F0E940D0100E009
:1032300010E09801B901A801CE018F5E9E4F0E9457
:103240000D0100E010E09801B901A801CE01875EF0
:103250009E4F0E940D0100E010E0980140E050E018
:1032600060E87FE3CE018F5D9E4F0E940D0100E07C
:1032700010E09801B901A801CE01875D9E4F0E9420
:103280000D0100E010E09801B901A801CE018F5CAA
:103290009E4F0E940D0100E010E09801B901A801C5
:1032A000CE01875C9E4F0E940D0100E010E0980166
:1032B000B901A801CE018F5B9E4F0E940D0100E075
:1032C00010E09801B901A801CE01875B9E4F0E94D2
:1032D0000D0100E010E09801B901A801CE018F5A5C
:1032E0009E4F0E940D0100E010E09801B901A80175
:1032F000CE01875A9E4F0E940D0100E010E0980118
:10330000B901A801CE018F599E4F0E940D0100E026
:1033100010E0980140E050E060E87FE3CE0187597B
:103320009E4F0E940D0100E010E09801B901A80134
:10333000CE018F589E4F0E940D0100E010E09801D1
:10334000B901A801CE0187589E4F0E940D0100E0EF
:1033500010E09801B901A801CE018F579E4F0E943D
:103360000D0100E010E09801B901A801CE018757D6
:103370009E4F0E940D0100E010E09801B901A801E4
:10338000CE018F569E4F0E940D0100E010E0980183
:10339000B901A801CE0187569E4F0E940D0100E0A1
:1033A00010E09801B901A801CE018F559E4F0E94EF
:1033B0000D0100E010E09801B901A801CE01875588
:1033C0009E4F0E940D0100E010E09801B901A80194
:1033D000CE018F549E4F0E940D0100E010E0980135
:1033E00040E050E060E87FE3CE0187549E4F0E94AA
:1033F0000D0100E010E09801B901A801CE018F5342
:103400009E4F0E940D0100E010E09801B901A80153
:10341000CE0187539E4F0E940D0100E010E09801FD
:10342000B901A801CE018F529E4F0E940D0100E00C
:1034300010E09801B901A801CE0187529E4F0E9469
:103440000D0100E010E09801B901A801CE018F51F3
:103450009E4F0E940D0100E010E09801B901A80103
:10346000CE0187519E4F0E940D0100E010E09801AF
:1034700040E050E060E87FE3CE018F509E4F0E9415
:103480000D0100E010E09801B901A801CE018750BC
:103490009E4F0E940D01C95FDD4F79826882C7503F
:1034A000D240C75FDD4F99828882C950D240C55F44
:1034B000DD4FF982E882CB50D240CF5FDD4F598299
:1034C0004882C150D240CD5FDD4F39822882C3503F
:1034D000D240CB5FDD4FD982C882C550D2409E0119
:1034E0002F5F3D4FAE01495F5D4F63E070E0C50166
:1034F0000E949F05AE014F5F5F4FBC01C5010E9456
:10350000A00843E050E0BC01C5010E94AA06C45FC8
:10351000DD4F0FB6F894DEBF0FBECDBFDF91CF9168
:103520001F910F91FF90EF90DF90CF90BF90AF90E1
:103530009F908F907F906F905F904F903F902F90D3
:1035400008952F923F924F925F926F927F928F9247
:103550009F92AF92BF92CF92DF92EF92FF920F9322
:103560001F93CF93DF93CDB7DEB7C451D2400FB6D0
:10357000F894DEBF0FBECDBFC35FDD4F9983888354
:10358000CD50D2402B01C15FDD4F59834883CF50CE
:10359000D2403901CF5EDD4F19830883C151D2403B
:1035A0001701CD5EDD4FD982C882C351D240B5012B
:1035B000882777FD8095982F0E9479312BED3FE089
:1035C00049E450E40E945B3320E030E044E353E4FC
:1035D0000E94AD304B015C0100E010E0980140E03A
:1035E00050E060E87FE3CE0101960E940D0100E00B
:1035F00010E09801B901A801CE0109960E940D01C1
:1036000000E010E09801B901A801CE0141960E94A6
:103610000D0100E010E09801B901A801CE01499622
:103620000E940D0100E010E09801B901A801CE014F
:1036300081960E940D0100E010E09801B901A801F7
:10364000CE0189960E940D0100E010E09801B901B9
:10365000A801CE01C1960E940D0100E010E0980182
:10366000B901A801CE01C9960E940D0100E010E049
:103670009801B901A801CE018F5B9F4F0E940D01F7
:1036800000E010E0980140E050E060E87FE3CE0108
:10369000875B9F4F0E940D0100E010E09801B90187
:1036A000A801CE018F5A9F4F0E940D0100E010E04B
:1036B0009801B901A801CE01875A9F4F0E940D01C0
:1036C00000E010E09801B901A801CE018F599F4F89
:1036D0000E940D0100E010E09801B901A801CE019F
:1036E00087599F4F0E940D0100E010E09801B90139
:1036F000A801CE018F589F4F0E940D0100E010E0FD
:103700009801B901A801CE0187589F4F0E940D0171
:1037100000E010E09801B901A801CE018F579F4F3A
:103720000E940D0100E010E09801B901A801CE014E
:1037300087579F4F0E940D0100E010E0980140E084
:1037400050E060E87FE3CE018F569F4F0E940D014D
:1037500000E010E09801B901A801CE0187569F4F03
:103760000E940D0100E010E09801B901A801CE010E
:103770008F559F4F0E940D0100E010E09801B901A4
:10378000A801CE0187559F4F0E940D0100E010E077
:103790009801B901A801CE018F549F4F0E940D01DD
:1037A00000E010E09801B901A801CE0187549F4FB5
:1037B0000E940D0100E010E09801B901A801CE01BE
:1037C0008F539F4F0E940D0100E010E09801B90156
:1037D000A801CE0187539F4F0E940D0100E010E029
:1037E0009801B901A801CE018F529F4F0E940D018F
:1037F00000E010E0980140E050E060E87FE3CE0197
:1038000087529F4F0E940D0100E010E09801B9011E
:10381000A801CE018F519F4F0E940D0100E010E0E2
:103820009801B901A801CE0187519F4F0E940D0157
:1038300000E010E09801B901A801CE018F509F4F20
:103840000E940D0100E010E09801B901A801CE012D
:1038500087509F4F0E940D0100E010E09801B901D0
:10386000A801CE018F5F9E4F0E940D0100E010E085
:103870009801B901A801CE01875F9E4F0E940D01FA
:1038800000E010E09801B901A801CE018F5E9E4FC3
:103890000E940D0100E010E09801B901A801CE01DD
:1038A000875E9E4F0E940D0100E010E0980140E00D
:1038B00050E060E87FE3CE018F5D9E4F0E940D01D6
:1038C00000E010E09801B901A801CE01875D9E4F8C
:1038D0000E940D0100E010E09801B901A801CE019D
:1038E0008F5C9E4F0E940D0100E010E09801B9012D
:1038F000A801CE01875C9E4F0E940D0100E010E000
:103900009801B901A801CE018F5B9E4F0E940D0165
:1039100000E010E09801B901A801CE01875B9E4F3D
:103920000E940D0100E010E09801B901A801CE014C
:103930008F5A9E4F0E940D0100E010E09801B901DE
:10394000A801CE01875A9E4F0E940D0100E010E0B1
:103950009801B901A801CE018F599E4F0E940D0117
:1039600000E010E0980140E050E060E87FE3CE0125
:1039700087599E4F0E940D0100E010E09801B901A7
:10398000A801CE018F589E4F0E940D0100E010E06B
:103990009801B901A801CE0187589E4F0E940D01E0
:1039A00000E010E09801B901A801CE018F579E4FA9
:1039B0000E940D0100E010E09801B901A801CE01BC
:1039C00087579E4F0E940D0100E010E09801B90159
:1039D000A801CE018F569E4F0E940D0100E010E01D
:1039E0009801B901A801CE0187569E4F0E940D0192
:1039F00000E010E09801B901A801CE018F559E4F5B
:103A00000E940D0100E010E09801B901A801CE016B
:103A100087559E4F0E940D01C501B4010E94AA3036
:103A20006B017C018B019C0140E050E0BA01CE01AA
:103A30008F549E4F0E940D01C501B4010E94BE33F8
:103A40004B015C0100E010E09801AB01BC01CE012C
:103A500087549E4F0E940D0100E010E09801B901CB
:103A6000A801CE018F539E4F0E940D0100E010E08F
:103A70009801B901A801CE0187539E4F0E940D0104
:103A800000E010E09801B901A801CE018F529E4FCD
:103A90000E940D0100E010E09801B901A801CE01DB
:103AA00087529E4F0E940D0100E010E09801B9017D
:103AB000A801CE018F519E4F0E940D0100E010E041
:103AC0009801B901A801CE0187519E4F0E940D01B6
:103AD00000E010E09801B501A401CE018F509E4F87
:103AE0000E940D019701860140E050E0BA01CE012D
:103AF00087509E4F0E940D01C95FDD4F5982488259
:103B0000C750D240C75FDD4F79826882C950D2402A
:103B1000C55FDD4F39822882CB50D240C15FDD4F77
:103B200088819981CF50D240CF5FDD4F99838883C0
:103B3000C150D240CF5EDD4F88819981C151D240C2
:103B4000CD5FDD4F99838883C350D240CD5EDD4F7A
:103B500088819981C351D240CB5FDD4F998388839F
:103B6000C550D2409E012F5F3D4FAE01495F5D4F72
:103B700063E070E0C35FDD4F88819981CD50D24012
:103B80000E949F05AE014F5F5F4FBC01C35FDD4FD9
:103B900088819981CD50D2400E94A00843E050E036
:103BA000BC01C35FDD4F88819981CD50D2400E9416
:103BB000AA06CC5EDD4F0FB6F894DEBF0FBECDBFB8
:103BC000DF91CF911F910F91FF90EF90DF90CF90F9
:103BD000BF90AF909F908F907F906F905F904F902D
:103BE0003F902F90089585E591E00E94C62E08959C
:103BF0000895FC01118210820895FC012081318119
:103C00002F5F3F4FF901EE0FFF1FE80FF91F718380
:103C10006083FC01318320830895FC0180819181C0
:103C200018161906ACF40197DC01AA0FBB1FAE0FE2
:103C3000BF1F12963C91129713962C9113971396CF
:103C40001C921E92129791838083832F922F089546
:103C500080E090E0089580E090E00E9422390E9488
:103C6000D7350E94D23560E177E20E942F34BC0143
:103C700080E090E00E94283908950F931F93CF931E
:103C8000DF93EC010E94CF028E010F5F1F4FC8012E
:103C90000E94C62ECE0102960E942B02CE010396F0
:103CA0000E94002DCE0109960E940A03CE010A96B9
:103CB0000E94F91D66E870E0C8010E94D22ECE0174
:103CC0000E942B1E8FEF8ABBFE01EB52FF4F118229
:103CD0001082C952DF4F19821882DF91CF911F9154
:103CE0000F91089575B321E030E0C901062E02C09E
:103CF000880F991F0A94E2F78095872385BB85B3C7
:103D000002C0440F551F6A95E2F7482B45BB089542
:103D10002FEF24BB40E050E064E070E00E94721E90
:103D20000895AF92BF92CF92DF92EF92FF920F93DE
:103D30001F93CF93DF9300D000D000D0CDB7DEB774
:103D40008C01CB018F7099279A838983CB01807F67
:103D500099279595879595958795959587959595A7
:103D600087959C838B8366277F70872F880F880BAE
:103D70007D838E838FEF8ABB84BB89818BBB41E0BF
:103D800050E062E070E0C8010E94721E41E050E025
:103D900063E070E0C8010E94721E40E050E063E002
:103DA00070E0C8010E94721E40E050E062E070E0E6
:103DB000C8010E94721E680184EDC80ED11C6AE021
:103DC00070E0C6010E94A62F7E0193E0E90EF11C6F
:103DD0005E01E7E0AE0EB11C41E050E063E070E050
:103DE000C8010E94721E40E050E063E070E0C8012C
:103DF0000E94721EF7018081F2E0EF0EF11C8BBB76
:103E00006AE070E0C6010E94A62FEA14FB0421F7C5
:103E100041E050E063E070E0C8010E94721E40E0A3
:103E200050E063E070E0C8010E94721E41E050E083
:103E300064E070E0C8010E94721E26960FB6F894E6
:103E4000DEBF0FBECDBFDF91CF911F910F91FF90CD
:103E5000EF90DF90CF90BF90AF9008957BB321E0BB
:103E600030E0C901062E02C0880F991F0A94E2F7BC
:103E7000809587238BBB8BB302C0440F551F6A9577
:103E8000E2F7482B4BBB0895FF920F931F93CF93FC
:103E9000DF93EC018A01FF24FA94F7BAF7BA28BB42
:103EA0000E94911EA80164E070E0CE010E942E1FC6
:103EB00041E050E066E070E0CE010E942E1F40E03D
:103EC00050E066E070E0CE010E942E1FF7BA18BAEB
:103ED000CE010E94881EDF91CF911F910F91FF901C
:103EE0000895FF920F931F93CF93DF93EC018A0104
:103EF000F22E17BA0E94911E41E050E065E070E09A
:103F0000CE010E942E1FA80164E070E0CE010E9445
:103F10002E1F06B310E08FEF87BBF11004C01BBA51
:103F2000CE010E94881EC801DF91CF911F910F9191
:103F3000FF900895CF93DF93EC01882777FD80955C
:103F4000982F0E9479312BED3FE049E450E40E9424
:103F50005B3320E030E044EB53E40E94AD300E943C
:103F6000BE33AB01BC0122E030E0CE018C529F4F4A
:103F70000E94B42FAB01BC01CE0109960E947703C9
:103F8000DF91CF9108958F929F92AF92BF92CF927F
:103F9000DF92EF92FF920F931F93CF93DF93CDB7F2
:103FA000DEB729970FB6F894DEBF0FBECDBF5C0118
:103FB00019821A821B821C82FE01359685E0DF0180
:103FC0001D928A95E9F74B01880C991C880C991C65
:103FD000880C991CE12CF12C8E010F5F1F4F0F2EC6
:103FE000FAE9CF2EF0E0DF2EF02DB701680D791D34
:103FF00020E040E050E0C5010E94711FBC01C501F6
:104000000E949A1F9F938F931F930F93DF92CF92DB
:104010001F930F930E942E37BFEFEB1AFB0A0FB6C8
:10402000F894DEBF0FBECDBF98E0E916F104E9F6C3
:10403000CE0101960E941E3742E050E060E070E041
:10404000CE0101960E94E235CB0129960FB6F89475
:10405000DEBF0FBECDBFDF91CF911F910F91FF90BB
:10406000EF90DF90CF90BF90AF909F908F9008958A
:10407000CF92DF92EF92FF920F931F93CF93DF9334
:104080006C018B01BA0148E050E08C529F4F0E94B6
:10409000F32ED82FC92F0E941E37ED2EFC2E000FB5
:1040A000111F000F111F000F111FC0E0D0E0F7011A
:1040B00081917F01813349F424EB30E040E050E00E
:1040C000B801C6010E94441F08C020E030E040E073
:1040D00050E0B801C6010E94441F21960F5F1F4F98
:1040E000C830D10521F7DF91CF911F910F91FF903B
:1040F000EF90DF90CF9008954F925F926F927F92F2
:104100008F929F92AF92BF92CF92DF92EF92FF92E7
:104110000F931F93CF93DF936C015B018C010F5FB3
:104120001F4F65EC70E0C8010E94E72E6FE970E058
:10413000C8010E94E72E1A141B040CF06BC0C0E0EB
:10414000D0E00F2EF8E4EF2EF1E0FF2EF02D83E00B
:1041500090E00E945D34682E792E20E040E050E02F
:10416000BE01C6010E94711F9F938F93FF92EF9231
:104170007F926F920E942E3783E090E00E945D3420
:10418000882E992E20E041E050E0BE01C6010E9439
:10419000711F9F938F93FF92EF929F928F920E9435
:1041A0002E3781E090E00E945D34482E592EDF9337
:1041B000CF93FF92EF925F924F920E942E3769EB5E
:1041C00070E0C8010E94D22E642D752DC8010E9496
:1041D000D22E6BEB70E0C8010E94D22E662D772D97
:1041E000C8010E94D22E66EC70E0C8010E94D22E57
:1041F000682D792DC8010E94E72E21968DB79EB7B4
:1042000042960FB6F8949EBF0FBE8DBFCA15DB0550
:1042100009F09DCFDF91CF911F910F91FF90EF900B
:10422000DF90CF90BF90AF909F908F907F906F90D6
:104230005F904F9008952F923F924F925F926F92AE
:104240007F928F929F92AF92BF92CF92DF92EF9226
:10425000FF920F931F93CF93DF93CDB7DEB72C97C9
:104260000FB6F894DEBF0FBECDBF9C878B874B0186
:1042700029013A01E982FA820B831C838CE090E0E9
:104280000E945D346C01F4013197ED33F10510F0BB
:104290000C94282AE65DFF4F0C94433420E040E064
:1042A00050E069817A818B859C850E94711F9C01F9
:1042B00040E050E0B2018B859C850E94441F20E0C5
:1042C00041E050E069817A818B859C850E94711F55
:1042D0009C0141E050E0B2018B859C850E94441F07
:1042E0000C94282AB2018B859C850E94C31FAC01C7
:1042F000B2018B859C850E94382069817A818B85EB
:104300009C850E94C31FAC01B2018B859C850E94D5
:1043100038200C94282A69810B851C850D5F1F4F5E
:10432000C8010E94522D482F642DC8010E94BE2D45
:104330000C94282A69817A818B859C850E94C31FF1
:10434000482F642D8B859C8503960E94BE2D0C946E
:10435000282A69818B859C8503960E94522D482FBF
:10436000552747FD5095B2018B859C850E943820CA
:104370000C94282A4981642D8B859C8503960E9484
:10438000BE2D0C94282A49815A81B2018B859C85C7
:104390000E9438200C94282A8B859C8503960E94C5
:1043A000E72DAC01B2018B859C850E9438200C94CE
:1043B000282AB2018B859C850E94C31FBC018B8576
:1043C0009C8503960E94042E0C94282A29813A8108
:1043D00040E050E0B2018B859C850E94441F0C9404
:1043E000282A29813A8141E050E0B2018B859C85E1
:1043F0000E94441F0C94282A69817A818B859C85B0
:104400000E94C31F8C01B2018B859C850E94C31F33
:10441000B8010E94D3020C94282AF201E45BFE4FFB
:10442000898180830C94282AE981FA81E45BFE4F1C
:104430004081642D8B859C8503960E94BE2D0C9433
:10444000282A409254010C94282A80914C018823F8
:1044500011F40C94282A0B851C850B521F4FD80190
:104460006D917C916F5F7F4F8B859C850A960E9432
:10447000FD1DC2010197F80191838083E9C78091F6
:104480004D01882309F4E4C780915401882369F021
:10449000EB85FC85EB52FF4F608171816F5F7F4F31
:1044A0008B859C850A960E94FD1DEB85FC85EB5251
:1044B000FF4FC201019791838083CAC780914E014B
:1044C000882309F4C5C780915401882369F0EB85DE
:1044D000FC85EB52FF4F608171816F5F7F4F8B8551
:1044E0009C850A960E94FD1DEB85FC85EB52FF4FD3
:1044F000C201019791838083ABC780914F018823CC
:1045000009F4A6C780915401882369F0EB85FC85E6
:10451000EB52FF4F608171816F5F7F4F8B859C8570
:104520000A960E94FD1DEB85FC85EB52FF4FC201F0
:104530000197918380838CC780915001882309F46F
:1045400087C780915401882369F0EB85FC85EB5285
:10455000FF4F608171816F5F7F4F8B859C850A96CD
:104560000E94FD1DEB85FC85EB52FF4FC2010197B8
:10457000918380836DC780915101882309F468C7B6
:1045800080915401882369F0EB85FC85EB52FF4F45
:10459000608171816F5F7F4F8B859C850A960E9439
:1045A000FD1DEB85FC85EB52FF4FC2010197918306
:1045B00080834EC780915201882309F449C78091B6
:1045C0005401882369F0EB85FC85EB52FF4F608135
:1045D00071816F5F7F4F8B859C850A960E94FD1DC0
:1045E000EB85FC85EB52FF4FC201019791838083DD
:1045F0002FC780915301882309F42AC78091540161
:10460000882369F0EB85FC85EB52FF4F6081718157
:104610006F5F7F4F8B859C850A960E94FD1DEB8501
:10462000FC85EB52FF4FC20101979183808310C735
:104630000B851C850B521F4FD8016D917C916F5FCC
:104640007F4F8B859C850A960E94FD1DC2010197B4
:10465000F80191838083FCC68B859C850A960E9415
:104660000D1EEB85FC85EB52FF4F019791838083F4
:10467000EFC6EB85FC85EB52FF4FC201019791839A
:104680008083E6C669810B851C850D5F1F4FC801BD
:104690000E94522DF82E6A2DC8010E94522D482FDB
:1046A0004F0D642DC8010E94BE2DD2C669810B85B5
:1046B0001C850D5F1F4FC8010E94522DF82E6A2DD8
:1046C000C8010E94522D4F2D481B642DC8010E9425
:1046D000BE2DBEC669810B851C850D5F1F4FC801AD
:1046E0000E94522DF82E6A2DC8010E94522D8F9DD6
:1046F000402D1124642DC8010E94BE2DA9C66981D8
:104700000B851C850D5F1F4FC8010E94522DF82E8E
:104710006A2DC8010E94522D682F8F2D992787FD81
:104720009095772767FD70950E942F34462F642D52
:10473000C8010E94BE2D8CC669810B851C850D5F4A
:104740001F4FC8010E94522DF82E6A2DC8010E94E9
:10475000522D482F4F21642DC8010E94BE2D78C6CE
:1047600069810B851C850D5F1F4FC8010E94522D6A
:10477000F82E6A2DC8010E94522D482F4F29642D12
:10478000C8010E94BE2D64C669810B851C850D5F22
:104790001F4FC8010E94522DF82E6A2DC8010E9499
:1047A000522D8F29482F4095642DC8010E94BE2D9F
:1047B0004FC669810B851C850D5F1F4FC8010E9484
:1047C000522DF82E6A2DC8010E94522D482F4F25D8
:1047D000642DC8010E94BE2D3BC669810B851C85D6
:1047E0000D5F1F4FC8010E94522DF82E6A2DC8017F
:1047F0000E94522D8F21482F4095642DC8010E94A0
:10480000BE2D26C669810B851C850D5F1F4FC80113
:104810000E94522D482F4095642DC8010E94BE2D44
:1048200017C669810B851C850D5F1F4FC8010E944B
:10483000522D482F552747FD509502C0440F551F54
:10484000AA94E2F7642DC8010E94BE2D01C66981B9
:104850000B851C850D5F1F4FC8010E94522D482FEC
:10486000552747FD509502C055954795AA94E2F704
:10487000642DC8010E94BE2DEBC5B2018B859C85BD
:104880000E94F81DE5C5B2018B859C858C529F4F17
:104890000E94A62FDDC5EB85FC85E952FF4F808184
:1048A0009181EB85FC85EB52FF4F91838083D0C5CE
:1048B00020E041E050E0B2018B859C850E94711F91
:1048C0008C0120E040E050E0B2018B859C850E9485
:1048D000711FA801BC018B859C8509960E94430924
:1048E0006C01DC012D913C9140E050E0B2018B85E0
:1048F0009C850E94441FF6012281338141E050E0F3
:10490000B2018B859C850E94441FA2C520E041E036
:1049100050E0B2018B859C850E94711F8C0120E0C4
:1049200040E050E0B2018B859C850E94711FA80178
:10493000BC018B859C8509960E94AD096C01DC0148
:104940002D913C9140E050E0B2018B859C850E9406
:10495000441FF6012281338141E050E0B2018B8592
:104960009C850E94441F74C520E041E050E0B201E4
:104970008B859C850E94711F8C0120E040E050E0F7
:10498000B2018B859C850E94711FA801BC018B859B
:104990009C8509960E94170A6C01DC012D913C91BF
:1049A00040E050E0B2018B859C850E94441FF601D7
:1049B0002281338141E050E0B2018B859C850E94C9
:1049C000441F46C520E041E050E0B2018B859C8544
:1049D0000E94711F8C0120E040E050E0B2018B8505
:1049E0009C850E94711FA801BC018B859C8509963E
:1049F0000E94810A6C01DC012D913C9140E050E065
:104A0000B2018B859C850E94441FF601228133816F
:104A100041E050E0B2018B859C850E94441F18C57F
:104A200020E041E050E0B2018B859C850E94711F1F
:104A30008C0120E040E050E0B2018B859C850E9413
:104A4000711FA801BC018B859C8509960E94EF0A05
:104A50006C01DC012D913C9140E050E0B2018B856E
:104A60009C850E94441FF6012281338141E050E081
:104A7000B2018B859C850E94441FEAC420E041E07E
:104A800050E0B2018B859C850E94711F8C0120E053
:104A900040E050E0B2018B859C850E94711FA80107
:104AA000BC018B859C8509960E94590B6C01DC0129
:104AB0002D913C9140E050E0B2018B859C850E9495
:104AC000441FF6012281338141E050E0B2018B8521
:104AD0009C850E94441FBCC420E041E050E0B2012C
:104AE0008B859C850E94711F8C0120E040E050E086
:104AF000B2018B859C850E94711F29813A81A80192
:104B0000BC018B859C8509960E94D4126C01DC0146
:104B10002D913C9140E050E0B2018B859C850E9434
:104B2000441FF6012281338141E050E0B2018B85C0
:104B30009C850E94441F8CC420E041E050E0B201FB
:104B40008B859C850E94711F8C0120E040E050E025
:104B5000B2018B859C850E94711F29813A81A80131
:104B6000BC018B859C8509960E9473136C01DC0146
:104B70002D913C9140E050E0B2018B859C850E94D4
:104B8000441FF6012281338141E050E0B2018B8560
:104B90009C850E94441F5CC420E041E050E0B201CB
:104BA0008B859C850E94711F8C0120E040E050E0C5
:104BB000B2018B859C850E94711F29813A81A801D1
:104BC000BC018B859C8509960E940F146C01DC0149
:104BD0002D913C9140E050E0B2018B859C850E9474
:104BE000441FF6012281338141E050E0B2018B8500
:104BF0009C850E94441F2CC420E041E050E0698164
:104C00007A818B859C850E94711F8C0120E040E099
:104C100050E069817A818B859C850E94711F6C01AF
:104C200020E041E050E0B2018B859C850E94711F1D
:104C30007C0120E040E050E0B2018B859C850E9421
:104C4000711F9601A701BC018B859C8509960E9466
:104C5000C20B6C01DC012D913C9140E050E0B201AF
:104C60008B859C850E94441FF6012281338141E09F
:104C700050E0B2018B859C850E94441FD60114969A
:104C80002D913C91159740E050E069817A818B85A8
:104C90009C850E94441FF6012681378141E050E047
:104CA00069817A818B859C850E94441FD1C320E055
:104CB00041E050E069817A818B859C850E94711F5B
:104CC0008C0120E040E050E069817A818B859C85F1
:104CD0000E94711F6C0120E041E050E0B2018B8521
:104CE0009C850E94711F7C0120E040E050E0B201F1
:104CF0008B859C850E94711F9601A701BC018B8545
:104D00009C8509960E94C40C6C01DC012D913C919C
:104D100040E050E0B2018B859C850E94441FF60163
:104D20002281338141E050E0B2018B859C850E9455
:104D3000441FD60114962D913C91159740E050E008
:104D400069817A818B859C850E94441FF6012681AA
:104D5000378141E050E069817A818B859C850E9492
:104D6000441F76C320E041E050E069817A818B8561
:104D70009C850E94711F8C0120E040E050E0698119
:104D80007A818B859C850E94711F6C0120E041E037
:104D900050E0B2018B859C850E94711F7C0120E050
:104DA00040E050E0B2018B859C850E94711F960106
:104DB000A701BC018B859C8509960E94C60D6C01DC
:104DC000DC012D913C9140E050E0B2018B859C8547
:104DD0000E94441FF6012281338141E050E0B2017C
:104DE0008B859C850E94441FD60114962D913C9181
:104DF000159740E050E069817A818B859C850E94FF
:104E0000441FF6012681378141E050E069817A81B3
:104E10008B859C850E94441F1BC320E041E050E02D
:104E200069817A818B859C850E94711F8C0120E0AD
:104E300040E050E069817A818B859C850E94711FDA
:104E40006C0120E041E050E0B2018B859C850E941E
:104E5000711F7C0120E040E050E0B2018B859C8511
:104E60000E94711F9601A701BC018B859C85099644
:104E70000E94C80E6C01DC012D913C9140E050E095
:104E8000B2018B859C850E94441FF60122813381EB
:104E900041E050E0B2018B859C850E94441FD60101
:104EA00014962D913C91159740E050E069817A81EC
:104EB0008B859C850E94441FF6012681378141E045
:104EC00050E069817A818B859C850E94441FC0C215
:104ED00020E041E050E069817A818B859C850E94C9
:104EE000711F8C0120E040E050E069817A818B8560
:104EF0009C850E94711F6C0120E041E050E0B201EE
:104F00008B859C850E94711F7C0120E040E050E071
:104F1000B2018B859C850E94711F9601A701BC017F
:104F20008B859C8509960E94CA0F6C01DC012D912E
:104F30003C9140E050E0B2018B859C850E94441F6B
:104F4000F6012281338141E050E0B2018B859C85DE
:104F50000E94441FD60114962D913C91159740E074
:104F600050E069817A818B859C850E94441FF601FF
:104F70002681378141E050E069817A818B859C856B
:104F80000E94441F65C220E041E050E069817A81BF
:104F90008B859C850E94711F8C0120E040E050E0D1
:104FA00069817A818B859C850E94711F6C0120E04C
:104FB00041E050E0B2018B859C850E94711F7C010D
:104FC00020E040E050E0B2018B859C850E94711F7B
:104FD0009601A701BC018B859C8509960E94CC1087
:104FE0006C01DC012D913C9140E050E0B2018B85D9
:104FF0009C850E94441FF6012281338141E050E0EC
:10500000B2018B859C850E94441FD60114962D9178
:105010003C91159740E050E069817A818B859C85B1
:105020000E94441FF6012681378141E050E06981EA
:105030007A818B859C850E94441F0AC220E041E052
:1050400050E069817A818B859C850E94711F8C015B
:1050500020E040E050E069817A818B859C850E9448
:10506000711F6C0120E041E050E0B2018B859C850E
:105070000E94711F7C0120E040E050E0B2018B856E
:105080009C850E94711F9601A701BC018B859C85A0
:1050900009960E94D2116C01DC012D913C9140E0F7
:1050A00050E0B2018B859C850E94441FF60122814D
:1050B000338141E050E0B2018B859C850E94441F02
:1050C000D60114962D913C91159740E050E06981EE
:1050D0007A818B859C850E94441FF6012681378149
:1050E00041E050E069817A818B859C850E94441F54
:1050F000AFC13A2C2B2C20E041E050E06A2D7B2DF3
:105100008B859C850E94711F6C0120E040E050E07F
:105110006A2D7B2D8B859C850E94711F7C0120E070
:1051200041E050E069817A818B859C850E94711FE6
:105130008C0120E040E050E069817A818B859C857C
:105140000E94711F5C0120E041E050E0B2018B85BC
:105150009C850E94711F9E838D8320E040E050E07B
:10516000B2018B859C850E94711F95014D815E81E6
:10517000BC018B859C8509960E94A5146C01DC01FD
:105180002D913C9140E050E0B2018B859C850E94BE
:10519000441FF6012281338141E050E0B2018B854A
:1051A0009C850E94441FD60114962D913C91159721
:1051B00040E050E069817A818B859C850E94441F84
:1051C000F6012681378141E050E069817A818B8543
:1051D0009C850E94441FD60118962D913C911997E9
:1051E00040E050E0632D722D8B859C850E94441F0A
:1051F000F6012285338541E050E0632D722D8B85C9
:105200009C850E94441F24C13A2C2B2C20E041E0B5
:1052100050E06A2D7B2D8B859C850E94711F6C014F
:1052200020E040E050E06A2D7B2D8B859C850E941C
:10523000711F7C0120E041E050E069817A818B851B
:105240009C850E94711F8C0120E040E050E0698144
:105250007A818B859C850E94711F5C0120E041E072
:1052600050E0B2018B859C850E94711F9E838D83C7
:1052700020E040E050E0B2018B859C850E94711FC8
:1052800095014D815E81BC018B859C8509960E94AC
:10529000A3176C01DC012D913C9140E050E0B2017C
:1052A0008B859C850E94441FF6012281338141E059
:1052B00050E0B2018B859C850E94441FD601149654
:1052C0002D913C91159740E050E069817A818B8562
:1052D0009C850E94441FF6012681378141E050E001
:1052E00069817A818B859C850E94441FD60118961E
:1052F0002D913C91199740E050E0632D722D8B85E4
:105300009C850E94441FF6012285338541E050E0D0
:10531000632D722D8B859C850E94441F99C020E0CF
:1053200040E050E060E070E08B859C850E94711F3A
:105330009E838D833A2C2B2C20E041E050E06A2D97
:105340007B2D8B859C850E94711F6C0120E040E0C5
:1053500050E06A2D7B2D8B859C850E94711F7C01FE
:1053600020E041E050E069817A818B859C850E9434
:10537000711F8C0120E040E050E069817A818B85CB
:105380009C850E94711F98878F8320E041E050E048
:10539000B2018B859C850E94711F9A87898720E0C6
:1053A00040E050E0B2018B859C850E94711FAD806A
:1053B000BE802F81388549855A85BC018B859C85A7
:1053C00009960E94A11A6C01DC012D913C9140E0EC
:1053D00050E0B2018B859C850E94441FF60122811A
:1053E000338141E050E0B2018B859C850E94441FCF
:1053F000D60114962D913C91159740E050E06981BB
:105400007A818B859C850E94441FF6012681378115
:1054100041E050E069817A818B859C850E94441F20
:10542000D60118962D913C91199740E050E0632DDC
:10543000722D8B859C850E94441FF6012285338541
:1054400041E050E0632D722D8B859C850E94441FA6
:105450000B851C850F5F1F4F60ED70E0C8010E9437
:10546000D22EEB84FC84F4EDEF0EF11CB401C701E5
:105470000E947B2FBC01C8010E94D22E6BED70E010
:10548000C8010E94D22EB201C7010E947B2FBC012D
:10549000C8010E94D22E64EE70E0C8010E94D22E94
:1054A00069817A81C7010E947B2FBC01C8010E94DB
:1054B000D22E6DEE70E0C8010E94D22EEB85FC85E5
:1054C000EB52FF4F60817181C7010E947B2FBC01AD
:1054D000C8010E94E72E65EC70E0C8010E94E72E2B
:1054E000C6010E94F5342C960FB6F894DEBF0FBEAD
:1054F000CDBFDF91CF911F910F91FF90EF90DF9083
:10550000CF90BF90AF909F908F907F906F905F9063
:105510004F903F902F9008952F923F924F925F921D
:105520006F927F928F929F92AF92BF92CF92DF92B3
:10553000EF92FF920F931F93CF93DF93CDB7DEB718
:10554000C153D2400FB6F894DEBF0FBECDBFC05ED0
:10555000DD4F99838883C052D2400196C05DDD4FF4
:1055600099838883C053D24063EF70E00E94E72E96
:1055700065EC70E0C05DDD4F88819981C053D240F9
:105580000E94E72EC05EDD4F88819981C052D240D3
:1055900002960E948A02BC01C05EDD4F888199811B
:1055A000C052D2408C529F4F0E941E2FDC01189790
:1055B000612C712CFD0118962D913C9119972F3F6C
:1055C0003105B1F416962D913C9117972F3F310577
:1055D00079F4248135812F3F310551F422813381C3
:1055E0002F3F310529F4208131812F3F310529F0EA
:1055F0002FEF621A720A1296DDCF930124503109FF
:1056000012161306A4F5FC0135E0631A710820E0B8
:1056100030E080E090E040E050E01DE0312C412C93
:105620000BC06D3071052CF04F5F5F4F832D942DB3
:1056300001C0CB012F5F3F4FBC016F5F7F4FC19017
:10564000D190149FD001159FB00D11248A0F9B1F7C
:10565000DC01AA0FBB1F81E090E08C0F9D1FA80FFB
:10566000B91FCD92DC9226153705D9F602C040E06D
:1056700050E0C05EDD4FE881F981C052D240E9526E
:10568000FF4F51834083C05EDD4FE881F981C052F6
:10569000D240EB52FF4F11821082141615060CF007
:1056A00058C180E090E03E01E9EE6E1AEDEF7E0A0F
:1056B0001E01F0EF2F1AFDEF3F0A2E0127EF421ACD
:1056C0002DEF520AC05EDD4FE881F981C052D24011
:1056D000EB52FF4FC25EDD4FF983E883CE51D240DB
:1056E0000F2EFDEF8F2EF0E09F2EF02DC65DDD4FCB
:1056F0006882CA52D240C55DDD4F7882CB52D2401B
:10570000C45DDD4F2882CC52D240C35DDD4F38826C
:10571000CD52D240C25DDD4F4882CE52D240C15DF3
:10572000DD4F5882CF52D240C05EDD4F2881398193
:10573000C052D24029523F4FC85DDD4F3983288384
:10574000C852D240F3011082118212821382148255
:1057500015821682F1011082118212821382148244
:1057600015821682F2011082118212821382148233
:10577000158216822AE1289FF001299FF00D11243D
:1057800021E030E02C0F3D1FE20FF31F808191815B
:10579000CE5DDD4F99838883C252D240C12CD12C7B
:1057A0001DE0C25EDD4FA880B980CE51D2409FEF90
:1057B000C91AD90AF50180819181189FF001199FBA
:1057C000F00D1124EC0DFD1DEE0FFF1F21E030E068
:1057D0002C0F3D1FE20FF31F81818F9380818F93E8
:1057E0007F926F929F928F927F926F920E942E373C
:1057F000F50180819181189FF001199FF00D11240E
:10580000EC0DFD1D3496EE0FFF1F21E030E02C0F54
:105810003D1FE20FF31F81818F9380818F933F9211
:105820002F929F928F923F922F920E942E37F501D6
:1058300080819181189FF001199FF00D1124EC0DCA
:10584000FD1D3896EE0FFF1F21E030E02C0F3D1FAD
:10585000E20FF31F81818F9380818F935F924F922C
:105860009F928F925F924F920E942E370FB6F894BC
:10587000DEBF0FBECDBF94E0C916D10409F097CFAB
:1058800040E150E060E070E0C25DDD4F8881CE52C3
:10589000D240C15DDD4F9881CF52D2400E94E235A7
:1058A0005B016C0140E150E060E070E0C45DDD4F01
:1058B0008881CC52D240C35DDD4F9881CD52D24019
:1058C0000E94E235CC5DDD4F688379838A839B83B8
:1058D000C452D24040E150E060E070E0C65DDD4F70
:1058E0008881CA52D240C55DDD4F9881CB52D240EB
:1058F0000E94E2359B01AC01CC5DDD4FE880F98070
:105900000A811B81C452D240CE5DDD4F688179810E
:10591000C252D240C05EDD4F88819981C052D240D0
:105920000E941B21C25EDD4FE881F981CE51D24039
:1059300080819181019691838083C85DDD4FE881EC
:10594000F981C852D24020813181821793070CF42B
:10595000F9CE60E170E0C05EDD4F88819981C05270
:10596000D2400E947C2065EC70E0C05DDD4F8881F4
:105970009981C053D2400E94E72E65E070E0C05E7E
:10598000DD4F88819981C052D24003960E94522EE9
:1059900062E071E0C05DDD4F88819981C053D240E3
:1059A0000E94D22ECF5CDD4F0FB6F894DEBF0FBE43
:1059B000CDBFDF91CF911F910F91FF90EF90DF90BE
:1059C000CF90BF90AF909F908F907F906F905F909F
:1059D0004F903F902F900895CF93DF93CDB7DEB7D0
:1059E000C95DD1090FB6F894DEBF0FBECDBFCE01A1
:1059F00001960E943D1ECE0101960E948C2AFFCF87
:105A0000CF93DF93EC0103960E94C62E8FEF84BBE9
:105A100084E190E09983888388E390E09D838C8380
:105A2000DF91CF9108952FEF2ABBFC0120813181B6
:105A300084819581A901460F571F8417950714F497
:105A40008BBB0895260F2BBB089575B321E030E082
:105A5000C901062E02C0880F991F0A94E2F78095AB
:105A6000872385BB85B302C0440F551F6A95E2F7B3
:105A7000482B45BB0895FC018081918124813581AB
:105A80002817390734F08130914018F42130314023
:105A900040F084E190E09183808388E390E09583F7
:105AA000848308951F93CF93DF93EC01162F0E94F8
:105AB0003B2D612F772767FD7095CE010E94132D36
:105AC00017BA41E050E066E070E0CE010E94252D5B
:105AD00016B340E050E066E070E0CE010E94252D54
